S0180000455A50726F3130305F4150505F7632302E7372656334
S31508004000900F0020BD0F0108450F0108470F010852
S31508004010490F01084B0F01084D0F01080000000069
S315080040200000000000000000000000004F0F01081B
S31508004030510F010800000000530F0108550F010831
S31508004040FD0F0108011001080510010809100108F3
S315080040500D100108111001081510010819100108A2
S315080040601D10010821100108251001082910010852
S315080040702D10010831100108351001083910010802
S315080040803D100108411001084510010849100108B2
S31508004090570F010851100108551001085910010859
S315080040A05D10010861100108651001086910010812
S315080040B06D100108711001087510010879100108C2
S315080040C07D10010881100108851001088910010872
S315080040D08D10010891100108951001089910010822
S315080040E09D100108A1100108A5100108A9100108D2
S315080040F0AD100108B1100108B5100108B910010882
S31508004100BD100108C1100108C5100108C910010831
S31508004110CD100108D1100108D5100108D9100108E1
S31508004120DD100108E1100108E5100108E910010891
S315080041302DE9F04F87B000240020ADF804000020D8
S315080041408DF800005FF000085FF0000900208DF888
S315080041500100DFF8F40D90F8220001287CD1DFF881
S31508004160E80D008843F29431884206D0DFF8D80D6E
S31508004170008843F2783188420DD1DFF8CC0D428AA7
S31508004180DFF8C40DC189DFF8C00D008A02F028FCEB
S315080041908DF8000059E0DFF8B00D008849F22901D2
S315080041A088420DD1DFF8A00D428ADFF89C0DC1893F
S315080041B0DFF8940D008A01F04FFF8DF8000044E007
S315080041C0DFF8840D008843F21111884206D0DFF823
S315080041D0780D008843F2163188420DD1DFF8680D54
S315080041E0428ADFF8640DC189DFF85C0D008A02F0A7
S315080041F013F98DF8000028E0DFF84C0D008843F22B
S315080042008101884206D0DFF8400D008843F201415B
S3150800421088420DD1DFF8300D428ADFF82C0DC189AE
S31508004220DFF8240D008A01F077FD8DF800000CE018
S31508004230DFF8140D428ADFF8100DC189DFF8080D82
S31508004240008A01F089FB8DF800009DF8000000281F
S3150800425002D1002001F009B80121DFF8F00C02F0C4
S31508004260A8FE0021002002F08AFF03F00FF80520BF
S3150800427003F094F9DFF8D00C008843F294318842B1
S3150800428022D0DFF8C40C008843F2783188421BD06C
S31508004290DFF8B40C008849F22901884214D0DFF807
S315080042A0A80C008843F2111188420DD0DFF8980C4B
S315080042B0008843F20141884206D0DFF88C0C00885A
S315080042C043F21631884203D1022000F0DBFF13E0E7
S315080042D0DFF8740C008843F26421884209D1DFF8BC
S315080042E0680C90F82800022803D1022000F0CAFFC3
S315080042F002E0012000F0C6FF012003F04FF94FF459
S315080043000051DFF8D40D02F054FE4FF40071DFF8C7
S315080043103C0C02F04BFE0A2003F040F94FF6FF7002
S3150800432001F0D2FA8246DFF8200C00881FFA8AFAD2
S31508004330824506D0DFF8A40D04210170002000F0A4
S3150800434094BFDFF8040C90F82800022840F0C180DA
S31508004350002004004FF6FF708246601C0400C0B2BD
S31508004360062824D2514689B2DFF8DC0B008901F011
S315080043704BFADFF8D40B008901F0A6FA0500ADB2B6
S315080043801FFA8AFA554502D1002004000FE0E4B26C
S31508004390042CE2D1DFF8B00B0089DFF8B81D0880DD
S315080043A0DFF8380D0A210170002000F05EBF601C9E
S315080043B00400C0B2062828D2514689B2DFF8880B15
S315080043C00089401C80B201F01FFADFF87C0B0089D7
S315080043D0401C80B201F078FA0500ADB21FFA8AFADD
S315080043E0554502D1002004000FE0E4B2042CDED1CA
S315080043F0DFF8540B0089DFF85C1D0880DFF8DC0C59
S315080044000A210170002000F030BF601C0400C0B211
S31508004410062828D2514689B2DFF82C0B0089801C61
S3150800442080B201F0F1F9DFF8200B0089801C80B218
S3150800443001F04AFA0500ADB21FFA8AFA554502D1CB
S31508004440002004000FE0E4B2042CDED1DFF8F80AFD
S315080044500089DFF8001D0880DFF8800C0A2101704A
S31508004460002000F002BF0121DFF8E00A02F0A1FDFA
S315080044700021002002F083FE02F008FF0A2003F064
S315080044808DF8022000F0FEFE012003F087F84FF4B5
S315080044900051DFF8440C02F08CFD4FF40071DFF890
S315080044A0AC0A02F083FD0A2003F078F84FF6FF7095
S315080044B001F00AFA8246DFF8900A00881FFA8AFA9B
S315080044C0824506D0DFF8140C04210170002000F0A4
S315080044D0CCBEDFF8740A008843F2014188426AD1EB
S315080044E000200400DFF8880D8346584603F0D6FA04
S315080044F0012808D1DFF87C0D00780600F6B216F51B
S31508004500F850824602E0002000F0AFBE601C0400AE
S31508004510C0B2062821D2514689B24FF4004001F0B4
S3150800452073F94FF4004001F0CFF90500ADB21FFA58
S315080045308AFA554502D1002004000EE0E4B2042CA4
S31508004540E4D1DFF8100C4FF400410180DFF88C0B42
S315080045500A210170002000F088BE0021002002F028
S315080045600EFE02F093FE022000F08CFE012003F0FE
S3150800457015F84FF40051DFF8600B02F01AFD4FF4FE
S315080045800071DFF8C80902F011FD032003F006F8F0
S315080045904FF6FF7001F098F98246DFF8AC090088FB
S315080045A01FFA8AFA824506D0DFF8300B042101701B
S315080045B0002000F05ABEDFF89009008843F2163151
S315080045C088426ED100200400DFF8AC0C83465846BA
S315080045D003F064FA012806D1DFF8980C0078060083
S315080045E0F6B2B24602E0002000F03FBE601C0400AE
S315080045F0C0B2062821D2514689B24FF4004001F0D4
S3150800460003F94FF4004001F05FF90500ADB21FFA57
S315080046108AFA554502D1002004000EE0E4B2042CC3
S31508004620E4D1DFF8300B4FF400410180DFF8AC0A23
S315080046300A210170002000F018BE0121DFF80C09DC
S3150800464002F0B7FC0021002002F099FD0A2002F0D2
S31508004650A5FF022000F016FE012002F09FFF4FF48E
S315080046600051DFF8740A02F0A4FC4FF40071DFF879
S31508004670DC0802F09BFC0A2002F090FF4FF6FF7060
S3150800468001F022F98246DFF8C00800881FFA8AFA84
S31508004690824506D0DFF8440A04210170002000F0A4
S315080046A0E4BDDFF8A40890F827000F21084200F0BF
S315080046B0EB82002081464FF48051DFF8C00B02F0F0
S315080046C078FCDFF88408808800F57F40FF3003F027
S315080046D0B2FADFF8A00B00788246DFF8A40B407820
S315080046E08DF80100DFF8980B8078DFF8941BC978FD
S315080046F011EB0020ADF81400DFF8840B0079DFF821
S31508004700801B497911EB0020ADF80A00DFF8700B21
S315080047108079DFF86C1BC97911EB0020ADF8080029
S31508004720DFF85C0B007ADFF8581B497A11EB00209A
S31508004730ADF80600DFF8480B807ADFF8441BC97A23
S31508004740090411EB0060DFF8381B097B10EB012028
S31508004750DFF82C1B497B08180490DFF8240BC07B74
S31508004760DFF81C1B097C090411EB0060DFF8101B3D
S31508004770497C10EB0120DFF8081B897C0818834662
S31508004780DFF8FC0AC07EDFF8F81A097F090411EB86
S315080047900060DFF8EC1A497F10EB0120DFF8E01A19
S315080047A0897F0818039003980499884217D2DFF87E
S315080047B0D00ADFF8CC1AC97D8172DFF8C40ADFF89F
S315080047C0C01A097EC172DFF8B80ADFF8B41A497E42
S315080047D00173DFF8AC0ADFF8A81A897E4173DFF89F
S315080047E0A00A00780A280BD1DFF8280D006858457A
S315080047F006D3DFF8E8080E210170002000F035BD69
S31508004800002001F061F80500DFF83C078088DFF832
S3150800481044190880DFF83007C088DFF83819098896
S315080048208842C0F0218103F0B8F8DFF8480A00781A
S315080048300600F6B216EB090903F0AFF8DFF8340AFA
S3150800484000780700FFB217EB0909FFB24FF4807032
S31508004850F6B200FB07608246DFF8F80800880221F6
S3150800486090FBF1F0ADF80200DFF8E8080088801C3C
S31508004870DFF8E0180880DFF8080A00780A284AD125
S31508004880BDF80200BDF81410884209D1FFB24FF4F2
S315080048908070DFF8EC19497B00FB071082463AE086
S315080048A0BDF80200BDF80A1088420DD19DF8010036
S315080048B0022809D3FFB24FF48070DFF8C419097BC8
S315080048C000FB0710824626E0BDF80200BDF8081076
S315080048D088420DD19DF80100032809D3FFB24FF491
S315080048E08070DFF89C19C97A00FB0710824612E02F
S315080048F0BDF80200BDF8061088420CD19DF80100EB
S31508004900042808D3FFB24FF48070DFF87419897A47
S3150800491000FB07108246DFF85C0980F800A000203B
S315080049200400601C0400C0B2062861D2002080463C
S31508004930DFF81406008843F2111188420BD14FF6AE
S31508004940FF701FFA8AFA824505D15FEACA4A5FEA0A
S31508004950DA4A01208046DFF8F005008843F2014173
S3150800496088420AD14FF6FF701FFA8AFA824504D1A7
S3150800497041F6FF70824601208046DFF8CC050088A4
S3150800498043F2810188420AD14FF6FF701FFA8AFA6C
S31508004990824504D143F6FF708246012080464FF6D1
S315080049A0FF701FFA8AFA824508D05FFA88F8B8F1CC
S315080049B0000F03D1504680B200F046FE00F0FFFD1E
S315080049C00500ADB21FFA8AFA554502D10020040047
S315080049D00EE0E4B2042CA4D1DFF800070821017028
S315080049E0DFF87007BDF802100180002000F03DBC1A
S315080049F0DFF860070088DFF85015C9888842BFF4D9
S31508004A0009AF142003F0E7FCDFF83C05008843F201
S31508004A100141884215D0DFF83005008843F281014C
S31508004A2088420ED0DFF82005008843F21631884206
S31508004A3007D0DFF81405008843F2163188427FF460
S31508004A40E9AE122000F068FDADF80200BDF80200DC
S31508004A50DFF800170988022291FBF2F188423FF439
S31508004A60D9AE002000F001BC4FF48051DFF80C08E5
S31508004A7002F09CFADFF8D004008849F2290188423E
S31508004A8040F002814FF48051DFF8F00702F091FA06
S31508004A90DFF8B00B03F0CFF8F22000F015FF0500A1
S31508004AA0DFF8B0064FF4F2710180DFF8A806008837
S31508004AB04FF40071884260D202F06FFFDFF8B40746
S31508004AC000780600F6B216EB090902F066FFDFF871
S31508004AD0A40700780700FFB217EB0909FFB24FF4E5
S31508004AE08070F6B200FB07608246DFF86806008829
S31508004AF0022190FBF1F0ADF80200DFF858060088B5
S31508004B00801CDFF850160880DFF8680780F800A0D8
S31508004B1000200400601C0400C0B2062822D24FF60A
S31508004B20FF701FFA8AFA824503D0504680B200F019
S31508004B308BFD00F044FD0500ADB21FFA8AFA554513
S31508004B4002D1002004000DE0E4B2042CE2D1DFF823
S31508004B508C0508210170DFF8FC05BDF802100180FC
S31508004B60002082E3DFF8EC05008840F2FF11884256
S31508004B709BD2142003F02FFC97E74FF48051DFF8FF
S31508004B80FC0602F013FADFF87C0C00788246DFF8A0
S31508004B90B803008900F098FE0500ADB2FF2D28D1B4
S31508004BA0601C0400C0B2062823D2514689B2DFF839
S31508004BB09803008900F028FEDFF88C03008900F0CE
S31508004BC083FE0500ADB21FFA8AFA554502D10020C8
S31508004BD004000EE0E4B2042CE2D1DFF86C0300898D
S31508004BE0DFF870150880DFF8F4040A210170002048
S31508004BF03BE3DFF8CC0C8346584602F04FFF01280A
S31508004C0015D1DFF87006007882461AF0800ADFF8B8
S31508004C10B40C007850EA0A0ACB480089401C80B2D6
S31508004C2000F052FE0500ADB2FF2D2DD101E00020A7
S31508004C301BE3601C0400C0B2062825D2514689B27F
S31508004C40C1480089401C80B200F0DEFDBE480089DC
S31508004C50401C80B200F038FE0500ADB21FFA8AFA91
S31508004C60554502D1002004000EE0E4B2042CE0D140
S31508004C70B5480089401CDFF8DC140880DFF85C04BE
S31508004C800A2101700020F0E2AF4890F82700F021D1
S31508004C90084200F0E082AC48008843F221218842AD
S31508004CA017D0A948008843F26421884211D0A64843
S31508004CB0008843F2111188420BD0A348008843F2BA
S31508004CC08101884205D0A048008843F20141884204
S31508004CD003D1DFF8740C834602E0DFF8700C8346D4
S31508004CE09948008843F21631884202D1DFF8600CF1
S31508004CF08346584602F0D2FE01280AD1DFF8740529
S31508004D00007806001BF1010002F0C8FE01280DD14B
S31508004D1001E00020A9E2DFF85C05007807008A4870
S31508004D20008843F21111884214D105E0DFF8AC037C
S31508004D3009210170002098E217F0F00757F00207E2
S31508004D40DFF8100C0078002802D116F07F0601E083
S31508004D5056F08006FFB24FF48070F6B200FB07608B
S31508004D608246601C0400C0B206281FD2514689B28A
S31508004D707548008900F048FD7348008900F0A4FDD5
S31508004D800500ADB21FFA8AFA554502D10020040083
S31508004D900CE0E4B2042CE4D16B480089DFF8B413C4
S31508004DA00880CE480A21017000205EE26648807AB3
S31508004DB00228C0F02A82644890F82200022848D1C6
S31508004DC06148808C00F080FD0500ADB24FF480701C
S31508004DD095FBF0F0DFF8EC1A0870ADB24FF480706E
S31508004DE095FBF0F101FB1051DFF8180A0170DFF8A6
S31508004DF0D40A0078FF2804D0DFF8C80A007800280B
S31508004E0027D15148808C801E80B200F05DFD0500D8
S31508004E10ADB24FF4807095FBF0F0DFF8A81A087071
S31508004E20ADB24FF4807095FBF0F101FB1051DFF83D
S31508004E30D4090170DFF88C0A0078FF2804D0DFF85F
S31508004E40840A0078002804D1A4480C2101700020A7
S31508004E500BE23D48008843F2810188421AD11BF1D2
S31508004E60060002F01BFE01280FD1DFF808040078BF
S31508004E708046354800895FFA88F818EB000080B24A
S31508004E8000F022FDADF804000CE0944809210170F9
S31508004E900020EAE12C480089401C80B200F014FD8D
S31508004EA0ADF804002848008843F21111884205D05D
S31508004EB02548008843F20141884203D141F6FF7034
S31508004EC082460CE02048008843F28101884203D1DB
S31508004ED043F6FF70824602E04FF6FF708246BDF841
S31508004EE004001FFA8AFA504536D11748008843F25B
S31508004EF08101884230D0DFF8CC0900780700DFF856
S31508004F000409007806001048008843F201418842E7
S31508004F1003D1DFF8B009007806000B48008843F291
S31508004F201631884240D1DFF8E40C02F0B7FD0128BB
S31508004F300ED1D0480078070017F0F807DFF8840983
S31508004F400078074330E000BF6C01002000080140EC
S31508004F5062480921017027E0DFF8A40D008843F2B2
S31508004F608101884218D1BDF804001FFA8AFA504513
S31508004F7012D1DFF85009007806001BF1030002F091
S31508004F808DFD012803D1BB48007807000CE0534883
S31508004F9009210170002068E1BDF804000600BDF88B
S31508004FA0040080B2000A0700FFB24FF48070F6B220
S31508004FB000FB07608246DFF8480D008843F21111AE
S31508004FC0884217D11BF1030002F068FD01280CD1B5
S31508004FD0A8480078070017F01807FFB24FF480704A
S31508004FE000FB07F050EA0A0A2AE03C48092101704A
S31508004FF000203AE1DFF8080D008843F26421884270
S3150800500006D0DFF8FC0C008843F20141884217D12C
S315080050101BF1030002F042FD01280CD195480078E7
S3150800502007005FFA8AFAFFB24FF4807000FB07F0B8
S3150800503050EA0A0A04E0294809210170002014E10F
S31508005040601C0400C0B206284AD2DFF8B40C0088F7
S3150800505043F28101884217D1514689B2DFF8A00C84
S3150800506000895FFA88F818EB000080B200F0CCFBE4
S31508005070DFF88C0C00895FFA88F818EB000080B21C
S3150800508000F022FC050010E0514689B2DFF8700CEA
S315080050900089401C80B200F0B7FBDFF8640C008979
S315080050A0401C80B200F010FC0500ADB21FFA8AFA67
S315080050B0554502D10020040012E0E4B2042CBFD109
S315080050C006480A210170DFF8380C0089401C21497E
S315080050D008800020C9E000BF00100140820B0020B4
S315080050E0DFF81C0C008843F27831884222D0DFF8BA
S315080050F0100C008843F2943188421BD0DFF8000C6C
S31508005100008843F26421884214D0DFF8F40B008843
S3150800511043F2014188420DD0DFF8E40B008843F2E0
S315080051208101884206D0DFF8D80B008843F2163191
S3150800513088426AD11BF1040002F0B0FC01280BD1A9
S315080051404C48007806001BF1050002F0A7FC012870
S315080051501AD107E06E0B0020DFF8A80B09210170B1
S31508005160002082E0434800780700FFB24FF48070C1
S31508005170F6B200FB07608246DFF8840B008843F22C
S31508005180810188421CD101E000206EE0514689B2B7
S31508005190DFF86C0B00895FFA88F818EB0000401CF2
S315080051A080B200F031FBDFF8580B00895FFA88F807
S315080051B018EB0000401C80B200F086FB050010E0EA
S315080051C0514689B2DFF8380B0089801C80B200F09E
S315080051D01BFBDFF82C0B0089801C80B200F074FBE7
S315080051E00500ADB21FFA8AFA55450ED00020040014
S315080051F0DFF80C0B0089801CDFF80C1B0880DFF831
S31508005200040B0A21017000202FE0601C0400C0B2C4
S3150800521003281ED2DFF8E80A008843F28101884293
S3150800522017D0DFF8DC0A008843F20141884210D023
S31508005230DFF8CC0A008843F21631884209D049467D
S3150800524089B2DFF8BC0A00890F3080B200F0DCFAB8
S31508005250DBE7002004000121DFF8B00A01F0A9FE0F
S315080052600021002001F08BFF012007B0BDE8F08F78
S3150800527026210100860B002020810100000C014038
S31508005280080B002038B504000021002001F077FF44
S31508005290642002F083F94FF40061DFF8B80D01F0DD
S315080052A088FE4FF48051DFF8AC0D01F082FEE4B2BF
S315080052B0012C13D14FF40041DFF8540A01F076FEB1
S315080052C000200500EDB20C2D01D26D1CFAE74FF453
S315080052D08041DFF83C0A01F069FE0AE00121DFF8A7
S315080052E02C0A01F063FE4FF48041DFF8240A01F02E
S315080052F060FE00200500EDB20C2D01D26D1CFAE708
S315080053004FF40051DFF80C0A01F053FE4FF4007118
S31508005310DFF8F80901F04AFE052002F02EF94FF4ED
S315080053208051DFF8300D01F041FE00200500EDB296
S315080053300C2D01D26D1CFAE74FF48051DFF8140DDD
S3150800534001F037FE00200500EDB20C2D01D26D1CD0
S31508005350FAE74FF48051DFF8FC0C01F027FE002035
S315080053600500EDB20C2D01D26D1CFAE74FF4805101
S31508005370DFF8E00C01F01DFE00200500EDB20C2D53
S3150800538001D26D1CFAE74FF48051DFF8C80C01F022
S315080053900DFE00200500EDB20C2D01D26D1CFAE7BA
S315080053A04FF48051DFF8AC0C01F003FE0020050035
S315080053B0EDB20C2D01D26D1CFAE74FF48051DFF8DF
S315080053C0940C01F0F3FD00200500EDB20C2D01D27E
S315080053D06D1CFAE74FF48051DFF8780C01F0E9FD0F
S315080053E000200500EDB20C2D01D26D1CFAE74FF432
S315080053F00071DFF8180901F0DCFD4FF40051DFF801
S31508005400140901F0D3FD052002F0B7F84FF48051D6
S31508005410DFF8400C01F0CAFD00200500EDB20C2DA6
S3150800542001D26D1CFAE74FF48051DFF8280C01F021
S31508005430C0FD00200500EDB20C2D01D26D1CFAE767
S315080054404FF40051DFF8CC0801F0B3FD4FF40071BA
S31508005450DFF8B80801F0AAFD052002F08EF84FF42F
S315080054608051DFF8F00B01F0A1FD00200500EDB238
S315080054700C2D01D26D1CFAE74FF48051DFF8D40BDE
S3150800548001F097FD00200500EDB20C2D01D26D1C30
S31508005490FAE74FF48051DFF8BC0B01F087FD0020D6
S315080054A00500EDB20C2D01D26D1CFAE74FF48051C0
S315080054B0DFF8A00B01F07DFD00200500EDB20C2DF4
S315080054C001D26D1CFAE74FF40071DFF8400801F0CD
S315080054D070FD4FF40051DFF83C0801F067FD052028
S315080054E002F04BF84FF48051DFF8680B01F05EFDCF
S315080054F000200500EDB20C2D01D26D1CFAE74FF421
S315080055008051DFF8500B01F054FD012002F046F8F7
S3150800551031BD0000440B00202DE9F0410400E4B23F
S31508005520200080B202F057FF002080465FFA88F814
S31508005530B8F10C0F02D218F10108F7E700208046EF
S315080055405FFA88F8B8F10C0F02D218F10108F7E7EC
S315080055500020070000200500EDB2102D2BD24FF4D5
S315080055600061DFF8F00A01F021FD002080465FFAAD
S3150800557088F8B8F10C0F02D218F10108F7E71021E4
S31508005580DFF88C0701F002FD0600B6B216FA05F040
S3150800559007434FF40061DFF8BC0A01F00AFD00205A
S315080055A080465FFA88F8B8F10C0F02D218F10108A4
S315080055B0F7E76D1CD0E7380080B2BDE8F081F8B592
S315080055C0172002F008FF00200700FFB20C2F01D2B7
S315080055D07F1CFAE700200700FFB20C2F01D27F1CC0
S315080055E0FAE70020060000200400E4B2102C25D2B9
S315080055F04FF40061DFF85C0A01F0D8FC00200700D0
S31508005600FFB20C2F01D27F1CFAE71021DFF8000742
S3150800561001F0BCFC0500ADB215FA04F006434FF4E0
S315080056200061DFF8300A01F0C4FC00200700FFB271
S315080056300C2F01D27F1CFAE7641CD6E7300080B233
S31508005640F2BD0000E30101002DE9F0410400162037
S3150800565002F0C1FE002080465FFA88F8B8F10C0F08
S3150800566002D218F10108F7E7002080465FFA88F8A9
S31508005670B8F10C0F02D218F10108F7E7002005006F
S31508005680EDB2102D35D2A4B254FA05F00600B6B222
S31508005690F00706D54FF48051DFF8B80901F086FC0B
S315080056A005E04FF48051DFF8AC0901F082FC4FF4B5
S315080056B00061DFF8A00901F079FC002080465FFA56
S315080056C088F8B8F10C0F02D218F10108F7E74FF481
S315080056D00061DFF8800901F06CFC002080465FFA63
S315080056E088F8B8F10C0F02D218F10108F7E76D1C1B
S315080056F0C6E7DFF80C06008843F20141884206D067
S31508005700DFF8FC05008843F28101884207D113209F
S31508005710FFF702FF0600B6B2A4B2A64270D119205E
S3150800572002F059FE00200500EDB2082D21D2002016
S3150800573080465FFA88F8B8F10C0F02D218F1010812
S31508005740F7E74FF40061DFF80C0901F02FFC0020A1
S3150800575080465FFA88F8B8F10C0F02D218F10108F2
S31508005760F7E74FF40061DFF8EC0801F022FC6D1C46
S31508005770DAE7DFF88C0590F8280002280AD100201D
S3150800578007001021DFF8880501F000FC002810D07A
S315080057907F1CF6E7DFF86805808A01F0EEFEDFF881
S315080057A06005808A01F0E9FEDFF85405808A01F079
S315080057B0E4FE00200500EDB2082D21D20020804627
S315080057C05FFA88F8B8F10C0F02D218F10108F7E76A
S315080057D04FF40061DFF87C0801F0E8FB0020804602
S315080057E05FFA88F8B8F10C0F02D218F10108F7E74A
S315080057F04FF40061DFF85C0801F0DBFB6D1CDAE7AB
S31508005800BDE8F0817F0B00202DE9F04104000D0072
S31508005810152002F0E0FD002080465FFA88F8B8F10E
S315080058200C0F02D218F10108F7E7002080465FFA4C
S3150800583088F8B8F10C0F02D218F10108F7E7002032
S315080058400600F6B2102E35D2A4B254FA06F00700B6
S31508005850BFB2F80706D54FF48051DFF8F80701F014
S31508005860A5FB05E04FF48051DFF8E80701F0A1FB3E
S315080058704FF40061DFF8DC0701F098FB0020804652
S315080058805FFA88F8B8F10C0F02D218F10108F7E7A9
S315080058904FF40061DFF8BC0701F08BFB002080465F
S315080058A05FFA88F8B8F10C0F02D218F10108F7E789
S315080058B0761CC6E7280080B2FFF7C6FEBDE8F08171
S315080058C0E20101007E0B0020F8B50400152002F065
S315080058D082FD00200500EDB2102D2FD2A4B254FA95
S315080058E005F00600B6B2F00706D54FF48051DFF88A
S315080058F0640701F05BFB05E04FF48051DFF85407BD
S3150800590001F057FB4FF40061DFF8480701F04EFB42
S3150800591000200700FFB20C2F01D27F1CFAE74FF4D4
S315080059200061DFF8300701F044FB00200700FFB2F2
S315080059300C2F01D27F1CFAE76D1CCCE7FFF73FFE60
S315080059400600300080B2F2BD20210100204101008E
S3150800595024810100800B00202DE9F84F04000D007A
S3150800596016005FF080090220FFF78CFC012001F089
S3150800597015FE0A2002F02FFD00200700FFB2052FB2
S3150800598004D2002001F0DEF97F1CF7E743F67440E5
S3150800599001F0D8F945F2F97001F0D4F94FF47050D6
S315080059A001F0D0F945F2FA7001F0CCF9D448C08A72
S315080059B042F62101884240F09E80DFF8480A02F04C
S315080059C06DF8012829D1DFF8400A0078804643F6A9
S315080059D0FF4001F0B7F945F2FB7001F0B3F95FFA41
S315080059E088F818F5705080B201F0ACF945F2FC70F1
S315080059F001F0A8F943F6014001F0A4F945F2F87060
S31508005A0001F0A0F9002001F09DF90A2001F0C6FD79
S31508005A10102080460020070004E0BA4809210170DA
S31508005A200020F0E0FFB2042F53D25FFA88F818F589
S31508005A30705080B201F086F945F2FC7001F082F9E7
S31508005A40FF2000F0E5F8DFF8C40900888246002048
S31508005A5000F0DEF8DFF8B409008883465FFA88F8B4
S31508005A60B8F11E0F04D05FFA88F8B8F1020F15D105
S31508005A7040F63E001FFA8AFA824505D340F63D00F5
S31508005A801FFA8BFB834524D35FFA88F8B8F1020F17
S31508005A9002D10420804601E00020B4E040F63E0032
S31508005AA01FFA8AFA82450AD340F63D001FFA8BFB95
S31508005AB0834504D21020384138EA000803E0102054
S31508005AC0384150EA08080820384150EA08087F1C7F
S31508005AD0A8E75FFA88F8B8F1040F01D018F10108B1
S31508005AE05FFA88F818F5705080B201F02BF945F284
S31508005AF0FC7001F027F943F6014001F023F945F25D
S31508005B00F87001F01FF9002001F01CF90A2001F0D5
S31508005B1045FD80208146DFF8F80800210170002045
S31508005B200700FFB2082F1ED24846C0B200F070F830
S31508005B30DFF8D8080088B6B2B04214D0DFF8CC082F
S31508005B400088B6B2B04204D28020384150EA09092A
S31508005B5003E08020384139EA00094020384150EAFC
S31508005B6009097F1CDDE719F10100C0B200F050F801
S31508005B70DFF89808008882464846C0B200F048F820
S31508005B80DFF88808008883461FFA8AFAB6B2BAEBA5
S31508005B900600B6B21FFA8BFBB6EB0B01884205DA94
S31508005BA019F10109DFF86408A0F800A0DFF85C081D
S31508005BB00088ADB285421AD3DFF850080088A4B22F
S31508005BC0A04214D34E48C08A42F62101884204D125
S31508005BD0DFF83C0880F8008003E0DFF83408FF218E
S31508005BE00170DFF8940C80F8009001200BE0DFF8D4
S31508005BF02008FF210170DFF8800CFF210170414861
S31508005C00032101700020BDE8F28F00002781010002
S31508005C107CB504004FF470553948008843F2810179
S31508005C2088420CD1E4B214F530600500280080B231
S31508005C3001F088F841F2FB5001F084F81BE0304887
S31508005C40008843F2014188420BD1E4B214F5806022
S31508005C500500280080B201F075F8BB2001F072F843
S31508005C6009E0E4B26519280080B201F06BF845F244
S31508005C70FB7001F067F8002001F064F8052001F0D8
S31508005C808DFC00200600B6B2032E29D20021DFF8CB
S31508005C902C0D03F076F80021DFF8240D03F071F8D7
S31508005CA00121DFF8180D03F089F80121DFF8100D3E
S31508005CB003F01EF80121DFF8040D03F019F801219D
S31508005CC0DFF8F80C03F061F80028F8D0DFF8F00CDC
S31508005CD003F059F8B6B200A921F81600761CD2E7E7
S31508005CE0BDF80000BDF802100818BDF80410081821
S31508005CF0032190FBF1F0DFF81417088073BD00004C
S31508005D006C010020820B00206E0B00200008014069
S31508005D1000180140001001402DE9F04704000D006D
S31508005D2016005FF0800A0220FFF7ACFA012001F0A6
S31508005D3035FC0A2002F04FFBDFF8D806008843F24C
S31508005D40014188420BD14FF40051DFF8780C01F07D
S31508005D5030F94FF40071DFF8700C01F027F90120D3
S31508005D6001F01CFC00200700FFB20A2F04D2002015
S31508005D7000F0E8FF7F1CF7E7DFF89806008843F293
S31508005D800141884240F0898040F2054000F0DAFF80
S31508005D90BA2000F0D7FFDFF8340C01F07FFE0128A7
S31508005DA022D1DFF86406007880465FFA88F818F58D
S31508005DB0806080B200F0C6FFB92000F0C3FF40F251
S31508005DC00F4000F0BFFFBC2000F0BCFF4FF490600E
S31508005DD000F0B8FFBB2000F0B5FFDFF8F40B01F0C8
S31508005DE05DFE012811D105E0DFF8E80B09210170F5
S31508005DF000202CE1DFF8100600788046DFF8D80B83
S31508005E0001F04CFE012827D105E0DFF8C80B09216F
S31508005E10017000201BE1DFF8F0050078814658F094
S31508005E20C0085FFA89F919F5806080B200F08AFF28
S31508005E30BE2000F087FF5FFA88F818F5806080B208
S31508005E4000F080FFBD2000F07DFFDFF8900B01F029
S31508005E5025FE01281BD101E00020F8E0DFF8A8059F
S31508005E60007880465FFA88F818F5806080B200F0FE
S31508005E7069FF312000F066FF40F2014000F062FF42
S31508005E80B82000F05FFF002000F05CFF8FE0DFF82D
S31508005E90440B092101700020D9E0DFF8300B01F02E
S31508005EA0FDFD01282DD1DFF86005007880465FFAF0
S31508005EB088F818F5306080B200F044FF41F2F950D6
S31508005EC000F040FF40F6353000F03CFF41F2FA5052
S31508005ED000F038FF4FF4386000F034FF41F2FB5011
S31508005EE000F030FF40F6363000F02CFF41F2FC504F
S31508005EF000F028FFDFF8D80A01F0D0FD012811D1FB
S31508005F0005E0DFF8D00A0921017000209FE0DFF8DC
S31508005F10F80400788046DFF8C00A01F0BFFD0128C2
S31508005F2029D105E0DFF8AC0A0921017000208EE0CE
S31508005F30DFF8D4040078814658F0C0085FFA88F87C
S31508005F4018F5306080B200F0FDFE41F2FD5000F019
S31508005F50F9FE5FFA89F919F5306080B200F0F2FEB1
S31508005F6041F2FE5000F0EEFEDFF8700A01F096FDF1
S31508005F7001281AD101E0002069E0DFF88C040078D6
S31508005F8081465FFA89F919F5306080B200F0DAFEC9
S31508005F9041F2C15000F0D6FE40F6013000F0D2FEC4
S31508005FA041F2F85000F0CEFE01E000204FE000205C
S31508005FB000F0C8FE002000F0C5FE0A2001F0EEFA47
S31508005FC0DFF84C040021017000200700FFB2082FFB
S31508005FD01ED25046C0B2FFF71BFEDFF83004008819
S31508005FE0B6B2B04214D0DFF824040088B6B2B04284
S31508005FF004D28020384150EA0A0A03E0802038415A
S315080060003AEA000A4020384150EA0A0A7F1CDDE7CE
S315080060105046C0B2FFF7FCFDDFF8F0030088ADB2CA
S3150800602085420BD3DFF8E4030088A4B2A04205D367
S31508006030DFF8DC0380F800A0012008E0DFF8D003D1
S31508006040FF210170DFF83008FF2101700020BDE84C
S31508006050F0870000001401402DE9F84F04000D00F8
S3150800606016004FF4806080460220FFF70BF90120E6
S3150800607001F094FA0A2002F0AEF9DFF8C00C01F03C
S315080060800DFD01280AD1E04800788DF80100DFF8F7
S31508006090B00C01F003FD01280DD105E0DFF8340945
S315080060A00921017000202FE1D74800788DF80000FB
S315080060B00020070005E0DFF81C090921017000200F
S315080060C022E1FFB2052F04D2002000F03BFE7F1C20
S315080060D0F7E74FF6017000F035FE9DF80100B0F5C0
S315080060E060608146484680B200F02CFE9DF80000AC
S315080060F0B0F5C0608146484680B200F023FEC44829
S3150800610000210170DFF87007002101701020834616
S3150800611000200700FFB20B2F22D21021404680B282
S3150800612000F0F4F8DFF8380B0088B6B2B04217D0A2
S31508006130DFF82C0B0088B6B2B04205D24FF4806067
S31508006140384150EA080804E04FF48060384138EADC
S3150800615000084FF40070384150EA08087F1CD9E758
S31508006160102118F1010080B200F0D0F8DFF8F00A2B
S31508006170008881461021404680B200F0C7F8DFF853
S31508006180E00A008882461FFA89F9B6B2B9EB06001A
S31508006190B6B21FFA8AFAB6EB0A01884205DA18F18E
S315080061A00108DFF8BC0AA0F80090DFF8B40A0088F6
S315080061B0ADB2854220D3DFF8A80A0088A4B2A0426F
S315080061C01AD31FFA88F84FF4807098FBF0F09049BC
S315080061D008708F48007850F010008D4908701FFA33
S315080061E088F84FF4807098FBF0F101FB1081DFF816
S315080061F088060170012087E0854800210170DFF8D4
S31508006200780600210170112083464FF4806080468D
S3150800621000200700FFB20B2F22D21821404680B279
S3150800622000F074F8DFF8380A0088B6B2B04217D022
S31508006230DFF82C0A0088B6B2B04205D24FF4806067
S31508006240384150EA080804E04FF48060384138EADB
S3150800625000084FF40070384150EA08087F1CD9E757
S31508006260182118F1010080B200F050F8DFF8F009A3
S31508006270008881461821404680B200F047F8DFF8CA
S31508006280E009008882461FFA89F9B6B2B9EB06001A
S31508006290B6B21FFA8AFAB6EB0A01884205DA18F18D
S315080062A00108DFF8BC09A0F80090DFF8B4090088F7
S315080062B0ADB2854220D3DFF8A8090088A4B2A0426F
S315080062C01AD31FFA88F84FF4807098FBF0F05049FB
S315080062D008704F48007850F018004D4908701FFAAA
S315080062E088F84FF4807098FBF0F101FB1081DFF815
S315080062F088050170012007E04548FF210170DFF895
S315080063007805FF2101700020BDE8F28F2DE9FC47D2
S3150800631004000D004FF47046A4B24FF4807094FB4D
S31508006320F0F00700A4B24FF4807094FBF0F101FB83
S3150800633010418846DFF8D40A01F0B0FB012802D1E3
S315080063403148007881465FFA88F8B8F5805006002B
S31508006350300080B200F0F6FC19F0800955EA090908
S3150800636057EA09095FFA89F9B9F57060060030003D
S3150800637080B200F0E7FC052001F010F90020824603
S315080063801FFA8AFABAF1030F2BD20021DFF82C067E
S3150800639002F0F7FC0021DFF8280602F0F2FC0121E2
S315080063A0DFF8180602F00AFD0121DFF8140602F0EC
S315080063B09FFC0121DFF8040602F09AFC0121DFF8B0
S315080063C0FC0502F0E2FC0028F8D0DFF8F40502F03C
S315080063D0DAFC1FFA8AFA00A921F81A001AF1010A4A
S315080063E0CEE7BDF80000BDF802100818BDF8041085
S315080063F00818032190FBF1F0DFF864180880BDE85F
S31508006400F387000003210100860B00206C0B002097
S315080064107E0B00206C0100202DE9F14F0C001500C1
S315080064204FF4806081460220FEF72CFF012001F020
S31508006430B5F80A2001F0CFFF00200600F6B2052EB7
S3150800644004D2002000F07EFC761CF7E7DFF8C009CE
S31508006450008843F21631884240F0C780DFF8B40955
S3150800646001F01CFB01280AD1DFF8AC090078070007
S31508006470DFF8A80901F012FB01282AD105E0DFF8A8
S315080064805405092101700020F4E1DFF88C09007831
S3150800649080465FFA88F818F570508146484680B2FB
S315080064A000F050FC45F2FB7000F04CFCFFB217F50B
S315080064B070508146484680B200F044FC45F2FA70B6
S315080064C000F040FCDFF8580901F0E8FA012811D17C
S315080064D005E0DFF80005092101700020CAE1DFF8B0
S315080064E0380900780700DFF83C0901F0D7FA0128D7
S315080064F02AD105E0DFF8DC04092101700020B9E1A2
S31508006500DFF81409007880465FFA88F818F57050A5
S315080065108146484680B200F015FC45F2FD7000F051
S3150800652011FCFFB217F570508146484680B200F05C
S3150800653009FC45F2FC7000F005FCDFF8EC0801F0F8
S31508006540ADFA012811D105E0DFF8880409210170A8
S3150800655000208FE1DFF8C00800780700DFF8CC08D4
S3150800656001F09CFA01283AD105E0DFF86804092110
S31508006570017000207EE1DFF8A0080078804658F018
S3150800658018085FFA88F818F570508146484680B2B0
S3150800659000F0D8FB45F2FF7000F0D4FBFFB217F508
S315080065A070508146484680B200F0CCFB45F2FE703A
S315080065B000F0C8FB002000F0C5FB002000F0C2FB7D
S315080065C043F6014000F0BEFB45F2F77000F0BAFB57
S315080065D0002000F0B7FB002000F0B4FB28E0DFF84D
S315080065E0F40309210170002044E14FF4986000F09B
S315080065F0A9FB40F6C12000F0A5FB4FF4896000F026
S31508006600A1FB40F6F92000F09DFB40F2024000F0A5
S3150800661099FB40F6FA2000F095FB40F2014000F0A5
S3150800662091FB40F6F82000F08DFB002000F08AFB75
S315080066304FF480608146DFF8F80700210170DFF823
S31508006640F4070021017000200600F6B20B2E21D2B5
S31508006650484680B200F012F9DFF804060088ADB2A9
S31508006660A84217D0DFF8F8050088ADB2A84205D2CF
S315080066704FF48060304150EA090904E04FF4806025
S31508006680304139EA00094FF40070304150EA0909EF
S31508006690761CDAE719F1010080B200F0EFF8DFF8AE
S315080066A0C00500888246484680B200F0E7F8DFF861
S315080066B0B005008883461FFA8AFAADB2BAEB050020
S315080066C0ADB21FFA8BFBB5EB0B01884205DA19F15F
S315080066D00109DFF88C05A0F800A0DFF8840500881A
S315080066E0A4B284421BD3DFF878050088BDF80010F1
S315080066F0884214D31FFA89F94FF4807099FBF0F099
S31508006700DFF82C1708701FFA89F94FF4807099FB87
S31508006710F0F101FB1091584801700120AAE0DFF85A
S31508006720F006008843F21631884201D10020A1E024
S315080067304FF4986000F006FB40F6C12000F002FB1B
S315080067404FF4996000F0FEFA40F6F92000F0FAFAE4
S3150800675040F2024000F0F6FA40F6FA2000F0F2FAAB
S3150800676040F2014000F0EEFA40F6F82000F0EAFAAE
S31508006770002000F0E7FA4FF480608146DFF8B006A3
S3150800678000210170DFF8AC06012101700020060027
S31508006790F6B20B2E21D2484680B200F06FF8DFF829
S315080067A0C0040088ADB2A84217D0DFF8B404008848
S315080067B0ADB2A84205D24FF48060304150EA0909CB
S315080067C004E04FF48060304139EA00094FF4007064
S315080067D0304150EA0909761CDAE719F1010080B25E
S315080067E000F04CF8DFF8780400888246484680B204
S315080067F000F044F8DFF86804008883461FFA8AFA2E
S31508006800ADB2BAEB0500ADB21FFA8BFBB5EB0B01C7
S31508006810884205DA19F10109DFF84404A0F800A056
S31508006820DFF83C040088A4B284421BD3DFF83004A6
S315080068300088BDF80010884214D31FFA89F94FF46E
S31508006840807099FBF0F0DFF8E81508701FFA89F9EF
S315080068504FF4807099FBF0F101FB10910648017026
S31508006860012007E0DFF8C805FF2101700248FF2173
S3150800687001700020BDE8F28F7F0B00202DE9F04360
S3150800688083B004004FF48065A4B24FF4807094FB83
S31508006890F0F00600A4B24FF4807094FBF0F101FB0F
S315080068A010410F00DFF86805008843F21631884268
S315080068B02AD1DFF8700501F0F1F8012804D1DFF8D4
S315080068C058050078804602E042480921017018F010
S315080068D0F80818EB0606FFB217F5705005002800F1
S315080068E080B200F02FFA45F2FC7000F02BFAF6B2EF
S315080068F016F570500500280080B200F023FA45F21C
S31508006900FD7000F01FFA17E0FFB217F5806005006A
S31508006910280080B200F016FA40F6FB2000F012FAC2
S31508006920F6B216F580600500280080B200F00AFA73
S3150800693040F6FC2000F006FA002000F003FA0520D5
S3150800694000F02CFE002081461FFA89F9B9F1030FE1
S3150800695024D20021194802F014FA0021184802F03E
S3150800696010FA0121154802F029FA0121144802F00B
S31508006970BFF90121114802F0BBF901210F4802F0C5
S3150800698004FA0028F9D00E4802F0FDF91FFA89F931
S3150800699000A921F8190019F10109D5E7BDF8000089
S315080069A0BDF802100818BDF804100818032190FB5A
S315080069B0F1F0AB490880BDE8F78300000004004009
S315080069C00008004000100140000801402021010095
S315080069D024210100820B0020252101002721010026
S315080069E02DE9F84F04000D001600DFF84C0401F0FD
S315080069F055F801280FD1DFF82004007880460220D8
S31508006A00FEF740FC012000F0C9FD0A2001F0E3FC76
S31508006A100020070005E0DFF82404092101700020A2
S31508006A201BE1FFB2052F04D2002000F08BF97F1C72
S31508006A30F7E743F6704000F085F945F2F97000F083
S31508006A4081F943F61C4000F07DF945F2FA7000F032
S31508006A5079F94FF4705000F075F945F2FB7000F0C3
S31508006A6071F943F6FC4000F06DF945F2FC7000F050
S31508006A7069F943F6074000F065F945F2FD7000F044
S31508006A8061F943F6014000F05DF945F2F87000F04F
S31508006A9059F9002000F056F9DFF894030021017037
S31508006AA0DFF89003002101704FF410508146002052
S31508006AB00700FFB20B2F1FD2484680B200F0D2F86B
S31508006AC067480088B6B2B04216D065480088B6B2A4
S31508006AD0B04205D24FF48060384150EA090904E013
S31508006AE04FF48060384139EA00094FF400703841A4
S31508006AF050EA09097F1CDCE719F1010080B200F0B1
S31508006B00B1F8574800888246484680B200F0AAF88D
S31508006B105348008883461FFA8AFAB6B2BAEB0600CB
S31508006B20B6B21FFA8BFBB6EB0B01884204DA19F1F1
S31508006B3001094B48A0F800A049480088ADB2854233
S31508006B4018D347480088A4B2A04213D31FFA89F97C
S31508006B504FF4807099FBF0F0B54908701FFA89F96F
S31508006B604FF4807099FBF0F101FB1091B448017065
S31508006B70012072E0AE4800210170AE480121017083
S31508006B804FF43050814600200700FFB20B2F1FD26A
S31508006B90484680B200F066F831480088B6B2B0427E
S31508006BA016D02F480088B6B2B04205D24FF480609E
S31508006BB0384150EA090904E04FF48060384139EA5F
S31508006BC000094FF40070384150EA09097F1CDCE7D8
S31508006BD019F1010080B200F045F821480088824684
S31508006BE0484680B200F03EF81D48008883461FFAE2
S31508006BF08AFAB6B2BAEB0600B6B21FFA8BFBB6EB48
S31508006C000B01884204DA19F101091548A0F800A019
S31508006C1013480088ADB2854218D311480088A4B23B
S31508006C20A04213D31FFA89F94FF4807099FBF0F04C
S31508006C307F4908701FFA89F94FF4807099FBF0F1C3
S31508006C4001FB10917E480170012006E07848FF217B
S31508006C5001707B48FF2101700020BDE8F28F00001B
S31508006C606C0B00202DE9FC4104004FF47055A4B2CA
S31508006C704FF4807094FBF0F00600A4B24FF48070D5
S31508006C8094FBF0F101FB10410F00FFB217F57050AD
S31508006C900500280080B200F055F845F2FB7000F0B8
S31508006CA051F8F6B216F570500500280080B200F0CB
S31508006CB049F845F2FC7000F045F8002000F042F86B
S31508006CC0052000F06BFC002080461FFA88F8B8F112
S31508006CD0030F24D200215B4802F053F800215A48DA
S31508006CE002F04FF80121574802F068F8012156488A
S31508006CF001F0FEFF0121534801F0FAFF0121514836
S31508006D0002F043F80028F9D04F4802F03CF81FFA81
S31508006D1088F800A921F8180018F10108D5E7BDF888
S31508006D200000BDF802100818BDF804100818032161
S31508006D3090FBF1F045490880BDE8F381E4010100C4
S31508006D40F4010100F8B5040000200500EDB2102D8D
S31508006D502BD2A4B254FA05F00600B6B2F00705D550
S31508006D604FF480513A4800F021F904E04FF480517D
S31508006D70374800F01EF94FF40061354800F016F95F
S31508006D8000200700FFB20C2F01D27F1CFAE74FF450
S31508006D9000612F4800F00DF900200700FFB20C2F04
S31508006DA001D27F1CFAE76D1CD0E74FF40061284832
S31508006DB000F0FCF800200700FFB20C2F01D27F1C60
S31508006DC0FAE74FF40061224800F0F3F800200700C4
S31508006DD0FFB20C2F01D27F1CFAE74FF400611C4862
S31508006DE000F0E4F800200700FFB20C2F01D27F1C48
S31508006DF0FAE74FF40061164800F0DBF800200700B8
S31508006E00FFB20C2F01D27F1CFAE7F1BDE2010100A7
S31508006E106C0100202B810100860B002025810100D2
S31508006E2026810100278101002881010029810100AE
S31508006E307E0B0020800B002023410100820B0020DE
S31508006E407F0B002000040040000800406C0B002067
S31508006E5000140140F0B50027002200230024002575
S31508006E60002691F803C01CF00F0C674691F803C082
S31508006E705FEACC6C03D591F802C05CEA070791F883
S31508006E8000C05FEA0C6C3AD0D0F800C065465FF0E7
S31508006E90000C6346082B31D25FF0010C1CFA03FC88
S31508006EA06446B1F800C014EA0C0C6246A24223D12B
S31508006EB05FEA830C64465FF00F0C1CFA04FC664616
S31508006EC0B54317FA04FC5CEA050591F803C0BCF162
S31508006ED0280F06D15FF0010C1CFA03FCC0F814C099
S31508006EE00AE091F803C0BCF1480F05D15FF0010C28
S31508006EF01CFA03FCC0F810C05B1CCBE70560B1F8B0
S31508006F0000C04FF4807EF4453FD3D0F804C06546F0
S31508006F105FF0000C6346082B36D25FF0010C13F1C4
S31508006F20080E1CFA0EFC6446B1F800C014EA0C0CF4
S31508006F306246A24226D15FEA830C64465FF00F0CD4
S31508006F401CFA04FC6646B54317FA04FC5CEA050518
S31508006F5091F803C0BCF1280F07D15FF0010C13F1BB
S31508006F60080E1CFA0EFCC0F814C091F803C0BCF158
S31508006F70480F07D15FF0010C13F1080E1CFA0EFC3E
S31508006F80C0F810C05B1CC6E74560F0BD02000020D3
S31508006F9093689BB20B4202D00123180001E000233C
S31508006FA01800C0B27047806880B2704789B2016124
S31508006FB0704789B241617047F0B40022002300256A
S31508006FC00024002803D51E4E3668350002E01D4E03
S31508006FD036683500C0F30346340086B2320010F432
S31508006FE04016B6F5401F08D135F07065154E36685F
S31508006FF036F07066134F3E6010E0C60206D50326CB
S31508007000A64033009D4355F0706507E0460DF6B27D
S31508007010360112FA06F6B54355F07065C9B200296D
S3150800702005D0460DF6B2360112FA06F635430028A3
S3150800703002D5034E356001E0024E3560F0BC70475C
S315080070401C0001400400014080B540F22160ADF803
S31508007050000002208DF8020010208DF8030000A918
S315080070605C48FFF7F7FE4FF40040ADF80000022039
S315080070708DF8020010208DF8030000A95648FFF786
S31508007080E9FE4FF48040ADF8000002208DF80200BA
S3150800709010208DF8030000A94F48FFF7DBFE2021DA
S315080070A04C48FFF786FF4FF400714A48FFF781FF07
S315080070B001214848FFF77DFF4FF400414648FFF796
S315080070C078FF4FF480414448FFF773FF01BD38B598
S315080070D004000D00E4B2012C0AD14FF400513F48D8
S315080070E0FFF767FF4FF400713A48FFF75FFF04E0C8
S315080070F04FF400713748FFF75CFFEDB2012D11D14F
S315080071004FF400413448FFF751FF012000F046FADA
S3150800711001213048FFF74DFF4FF480412E48FFF715
S3150800712045FF1DE0EDB2022D11D101212948FFF7D7
S315080071303DFF4FF400412848FFF73BFF072000F0CA
S315080071402DFA4FF480412448FFF733FF08E04FF447
S3150800715000412148FFF72DFF01211E48FFF729FFAF
S315080071604FF400611E48FFF721FF4FF480511C4879
S31508007170FFF71CFF40211948FFF718FF31BD38B546
S3150800718004000D00E4B2002C04D14FF4007111483C
S31508007190FFF70FFFEDB2002D0DD101210D48FFF7C6
S315080071A008FF4FF400410C48FFF703FF4FF48041F6
S315080071B00948FFF7FEFE4FF400610948FFF7F9FE9C
S315080071C04FF480510648FFF7F4FE40210348FFF7C5
S315080071D0F0FE31BD000801400018014000100140D2
S315080071E00014014000B589B00121112001F00DFEFF
S315080071F00121022001F018FE01216E48FFF7DCFE8E
S315080072008020ADF8000018208DF8030003208DF8C3
S31508007210020000A96848FFF71DFE40216648FFF7EF
S31508007220C5FE0020ADF814006020ADF816006348CE
S31508007230408A10F56160ADF818000020ADF81A0014
S3150800724009208DF81C0005A95D4801F0BFFC6020E7
S31508007250ADF804000120ADF806000020ADF80800DE
S315080072600020ADF80C000020ADF80E000020ADF8A7
S3150800727010000020ADF812004FF46160ADF80A0066
S3150800728001A94F4801F0ECFC09B000BD00B589B072
S315080072900120ADF8000004208DF8030003208DF8C6
S315080072A0020000A94748FFF7D5FD0121042001F097
S315080072B0BBFD4FF6FF70ADF808000020ADF80400DE
S315080072C00020ADF806000020ADF80A0001A93E48E6
S315080072D001F07CFC0023002200213B4801F032FD2E
S315080072E00021394801F04DFD0121022001F09CFDE5
S315080072F048F6A040ADF808001320ADF804000020B9
S31508007300ADF806000020ADF80A0001A92C4801F0E6
S315080073105DFC6020ADF810000120ADF812000020D9
S31508007320ADF814000220ADF818004FF46160ADF80E
S31508007330160004A9224801F093FC0121204801F017
S31508007340E5FC40211C48FFF734FE00211C4801F0EB
S3150800735018FD012201211A4801F0E9FC00211A480A
S3150800736001F0C6FC0021164801F0C2FC09B000BDB8
S3150800737080B54FF44070ADF8000003208DF8020088
S3150800738010208DF8030000A90B48FFF763FD4FF4A2
S3150800739080710948FFF70DFE4FF400710648FFF7A4
S315080073A008FE40210448FFF704FE80210248FFF743
S315080073B000FE01BD000C1A00001001406C010020FF
S315080073C000040040001801400008004080B501F0A4
S315080073D047FD0121042001F018FD0121082001F0D4
S315080073E014FD0121102001F010FD0121202001F0DB
S315080073F00CFD0121402001F008FD002001F023FDCD
S3150800740001BD80B54FF4F850ADF8000014208DF892
S31508007410030002208DF8020000A9DFF81404FFF724
S3150800742019FD4FF40150ADF8000010208DF8030047
S3150800743003208DF8020000A9DFF8F403FFF70AFD20
S315080074404FF40051DFF8E803FFF7B3FD40F2FF40C1
S31508007450ADF8000048208DF8030002208DF80200E0
S3150800746000A9DFF8D003FFF7F5FC4FF48070ADF8FC
S31508007470000018208DF8030003208DF8020000A9EB
S31508007480DFF8B403FFF7E6FC0220ADF80000102091
S315080074908DF8030003208DF8020000A9DFF89C038D
S315080074A0FFF7D8FC6020ADF8000014208DF8030023
S315080074B003208DF8020000A9DFF88003FFF7CAFC55
S315080074C00221DFF87803FFF771FD01BD10B504004E
S315080074D0E4B2012C26D14FF40061D548FFF766FDCA
S315080074E04FF48061D248FFF764FD4FF48061D248BB
S315080074F0FFF75CFD042002F011FD0121D048006869
S3150800750002F0E2F94FF48061CB48FFF752FD002103
S31508007510CC48008802F0D8F9062002F0FFFC02F0F9
S31508007520D6FA29E04FF48061C148FFF73FFD4FF4D2
S315080075300061BF48FFF73DFD4FF48061BE48FFF785
S3150800754035FD0A2000F02AF8042002F0E7FC4FF483
S315080075508061B948FFF72DFDBB48007802F041FA73
S315080075604FF48061B448FFF721FD02F025FB4FF484
S315080075708061B148FFF71DFD10BD00231A0092B2C5
S3150800758080B2824209D24FF44873190089B20129A0
S3150800759001D3491EFAE7521CF1E7704700231A0087
S315080075A092B280B2824209D242F23413190089B2E9
S315080075B0012901D3491EFAE7521CF1E7704710B5B5
S315080075C08EB0A24800F06AFA012802D1A0480078D5
S315080075D004004FF480519948FFF7EBFCE4B2FF2C06
S315080075E003D19C4800F027FB02E09B4800F023FBF0
S315080075F000200400E4B2362C08D200F0CEF9E4B23A
S3150800760000A8934909782154641CF3E74FF4805184
S315080076108A48FFF7CBFC91489DF8001001709DF849
S3150800762001004FF480719DF8022001FB00208C496F
S3150800763008808B489DF8031081709DF804004FF46C
S3150800764080719DF8052001FB0020854988809DF8FA
S3150800765006004FF480719DF8072001FB0020804941
S31508007660C8809DF808004FF480719DF8092001FB39
S3150800767000207B4908817A489DF80A10817278486B
S315080076809DF80B10C17276489DF80C10017374486A
S315080076909DF80D1041739DF80E004FF480719DF80A
S315080076A00F2001FB00206E49C8819DF810004FF499
S315080076B080719DF8112001FB0020694908829DF818
S315080076C012004FF480719DF8132001FB00206449D5
S315080076D048829DF814004FF480719DF8152001FB2F
S315080076E000205F4988829DF816004FF480719DF846
S315080076F0172001FB00205A49C8829DF818004FF44C
S3150800770080719DF8192001FB0020554908839DF8D2
S315080077101A004FF480719DF81B2001FB0020504988
S3150800772048839DF81C004FF480719DF81D2001FBCD
S3150800773000204B4988839DF81E004FF480719DF800
S315080077401F2001FB00204649C8839DF820004FF4FE
S3150800775080719DF8212001FB00204149088440489A
S315080077609DF8221080F822109DF823004FF48071AE
S315080077709DF8242001FB00203949888438489DF863
S31508007780251080F8261036489DF8261080F8271010
S3150800779033489DF8271080F8281031489DF828109E
S315080077A080F829102E489DF8291080F82A102C48B0
S315080077B09DF82A1080F82B1029489DF82B1080F880
S315080077C02C1027489DF82C1080F82D1024489DF879
S315080077D02D1080F82E1022489DF82E1080F82F10B4
S315080077E01F489DF82F1080F830101D489DF830105E
S315080077F080F831101A489DF8311080F8321019486F
S3150800780000F04CF9012802D1114800780400E4B2CE
S31508007810392C0AD00C480F210170FF21002002F0F4
S31508007820D3FEFF21002002F0CFFE0EB010BD0000EF
S31508007830001001400014014000080140000C0140FE
S31508007840440B0020700B0020820B0020008D0100E5
S31508007850860B0020FF7C0100FF8C01007C0B0020BA
S315080078606C010020707D010000B587B001214FF43E
S31508007870804001F0D9FA4FF46040ADF800000320CB
S315080078808DF8020018208DF8030000A9DFF8080516
S31508007890FFF7E0FA4FF48050ADF8000003208DF8AA
S315080078A0020014208DF8030000A9DFF8EC04FFF7A6
S315080078B0D1FA4FF48051DFF8E004FFF777FB4FF475
S315080078C00060ADF8000003208DF8020010208DF846
S315080078D0030000A9DFF8C004FFF7BCFA4FF4006103
S315080078E0DFF8B404FFF762FB2820ADF8100001208A
S315080078F0ADF80C000220ADF80A000720ADF8140018
S315080079000020ADF808000020ADF804000020ADF80E
S3150800791012004FF48270ADF806004FF40070ADF80F
S315080079200E0001A9DFF8740402F0A6FE0121DFF8B3
S315080079306C0402F0C1FE07B000BD38B5040000258E
S315080079400221DFF8580402F0C9FE002808D16D1C90
S3150800795028004EF6612180B28842F1D300201BE050
S31508007960E4B2210089B2DFF8340402F0B3FE012143
S31508007970DFF8280402F0B2FE002808D16D1C2800A2
S315080079804EF6612180B28842F1D3002004E0DFF888
S315080079900C0402F0A1FE012032BD10B5002402211C
S315080079A0DFF8F80302F09AFE002808D1641C2000CC
S315080079B04EF6612180B28842F1D300201CE0AA214C
S315080079C0DFF8D80302F086FE0121DFF8D00302F0C3
S315080079D085FE002808D1641C20004EF6612180B27D
S315080079E08842F1D3002007E0DFF8B00302F074FE06
S315080079F0DFF8AC130870012010BD38B504000D007F
S31508007A004FF40061DFF89003FFF7D3FA2000C0B205
S31508007A10FFF793FF2800C0B2FFF78FFF4FF400610E
S31508007A20DFF87403FFF7C2FA0120FFF7A6FD31BDA0
S31508007A3070B504000D0000264FF48051DFF8580396
S31508007A40FFF7B7FA0620FFF778FF4FF48051DFF803
S31508007A504803FFF7ABFAB6B2C82E01D2761CFAE78E
S31508007A604FF48051CC48FFF7A4FA0220FFF765FFD0
S31508007A70200CC0B2FFF761FF200AC0B2FFF75DFF16
S31508007A802000C0B2FFF759FF2800C0B2FFF755FF24
S31508007A904FF48051C048FFF789FA70BD38B5040025
S31508007AA000254FF48051BC48FFF783FA0320FFF7FF
S31508007AB044FF200CC0B2FFF740FF200AC0B2FFF710
S31508007AC03CFF2000C0B2FFF738FFFFF766FF01282A
S31508007AD002D10120050001E0002005004FF4805185
S31508007AE0AD48FFF763FA2800C0B232BD10B50024CE
S31508007AF04FF48051A848FFF75CFA0620FFF71DFFF0
S31508007B004FF48051A448FFF751FAE4B2C82C01D2C9
S31508007B10641CFAE7002004004FF480519E48FFF7E2
S31508007B2048FA6020FFF709FFE4B2C82C01D2641CAA
S31508007B30FAE74FF480519848FFF738FA00F009F849
S31508007B40002801D0012000E00020C0B20028F5D1AD
S31508007B5010BD10B54FF480518F48FFF72AFA05205B
S31508007B60FFF7EBFEFFF719FF012802D18C480078D2
S31508007B7004004FF480518848FFF718FA2000C0B275
S31508007B8010BD38B5040000254FF480518248FFF730
S31508007B9010FA5020FFF7D1FE4FF480517E48FFF7C8
S31508007BA005FAEDB2C82D01D26D1CFAE74FF48051E3
S31508007BB07948FFF7FEF90120FFF7BFFE2000C0B2A3
S31508007BC0FFF7BBFE4FF480517348FFF7EFF931BD5D
S31508007BD038B5002400254FF480516F48FFF7E9F9BE
S31508007BE09020FFF7AAFE0020FFF7A7FE0020FFF768
S31508007BF0A4FE0020FFF7A1FEFFF7CFFE012802D161
S31508007C00674800780400FFF7C8FE012802D16448D7
S31508007C10007805004FF480515F48FFF7C7F9E4B2D2
S31508007C20BF2C06D1EDB2492D01D1012002E000207A
S31508007C3000E0002032BD38B5040000250320FFF718
S31508007C407CFE200CC0B2FFF778FE200AC0B2FFF710
S31508007C5074FE2000C0B2FFF770FEFFF79EFE0128F3
S31508007C6002D10120050001E0002005002800C0B26D
S31508007C7032BD70B500244B48008843F2163188425D
S31508007C8010D14948FFF70AFF002802D04448007877
S31508007C9005004648FFF702FF002813D04048007841
S31508007CA006000FE04248FFF7F9FE002802D03C48DC
S31508007CB0007805003F48FFF7F1FE002802D0384853
S31508007CC000780600ADB24FF48070B6B200FB0560CE
S31508007CD034498880334880884FF6FF71884201D13D
S31508007CE0002058E02F48008843F2163188420ED10A
S31508007CF03148FFF7D3FE05002948007805002F48CC
S31508007D00FFF7CCFE06002648007806000DE02C4852
S31508007D10FFF7C4FE05002248007805002948FFF74A
S31508007D20BDFE06001E4800780600ADB24FF480700E
S31508007D30B6B200FB05601B49C8801A48C0880028EF
S31508007D4001D1002027E04FF480511348FFF731F99D
S31508007D501448808800F57F40FF30FFF76CFF114814
S31508007D608088194908800F48C088174909888842B9
S31508007D700AD3FFF712FE0A48007804191248008849
S31508007D80401C11490880EEE74FF480510248FFF77E
S31508007D900DF9200080B270BD000C0140003800408B
S31508007DA0860B00206C010020048D0100058D010062
S31508007DB0047D0100057D0100068D0100078D010087
S31508007DC0067D0100077D01006E0B00202DE9F04FAE
S31508007DD087B00024002700208DF801005FF0000915
S31508007DE000208DF80000DFF8140C90F82200012816
S31508007DF012D1DFF8080C428ADFF8000CC189DFF8D7
S31508007E00FC0B008A00F01FFD8DF801009DF80100AB
S31508007E10002801D10020DBE200210020FFF7AFF99E
S31508007E204FF40061DFF8600DFFF7C3F84FF4805197
S31508007E30DFF8540DFFF7BDF84FF40041DFF84C0D9D
S31508007E40FFF7B4F80120FFF7A9FB4FF48041DFF8EC
S31508007E503C0DFFF7ABF80A20FFF7A0FB4FF40051E3
S31508007E60DFF82C0DFFF7A5F84FF40071DFF8240DA5
S31508007E70FFF79CF80520FFF791FB02F08DFC002820
S31508007E8001D10020A4E243F6FF7000F05AFC050079
S31508007E90DFF8680B0088ADB2854205D0DFF8F80C2C
S31508007EA004210170002093E2DFF8500B90F82700B8
S31508007EB00F21084200F07381002081464FF480515B
S31508007EC0DFF8D80CFFF775F8DFF8300B808800F577
S31508007ED07F40FF30FFF7AFFEDFF8C40C00780500DF
S31508007EE0DFF8C00C40788DF80000DFF8B80C807811
S31508007EF0DFF8B01CC97811EB0020ADF81400DFF8E4
S31508007F00A40C0079DFF89C1C497911EB0020ADF828
S31508007F100600DFF8900C8079DFF8881CC97911EB28
S31508007F200020ADF80400DFF87C0C007ADFF8741C3A
S31508007F30497A11EB0020ADF80200DFF8680C807A68
S31508007F40DFF8601CC97A090411EB0060DFF8541CDD
S31508007F50097B10EB0120DFF84C1C497B08180290BE
S31508007F60DFF8400CC07BDFF83C1C097C090411EBE8
S31508007F700060DFF8301C497C10EB0120DFF8241C78
S31508007F80897C08180490DFF81C0CC07EDFF8141CE6
S31508007F90097F090411EB0060DFF8081C497F10EB24
S31508007FA00120DFF8001C897F0818039003980299BE
S31508007FB0884217D2DFF8EC0BDFF8E81BC97D81721F
S31508007FC0DFF8E00BDFF8DC1B097EC172DFF8D40BA3
S31508007FD0DFF8D01B497E0173DFF8C80BDFF8C41B36
S31508007FE0897E4173DFF8BC0B00780A280BD1DFF8CD
S31508007FF0B80B00680499884205D3DFF89C0B0E215C
S3150800800001700020E4E1002000F09BFB0600DFF889
S31508008010EC098088DFF8941B0880DFF8E009C0883F
S31508008020DFF8881B09888842C0F0B380FFF7B5FCE3
S31508008030DFF86C0B007880465FFA88F818EB0909B8
S31508008040FFF7ABFCDFF8580B007882465FFA8AFA2E
S315080080501AEB09091AF03F0A5FFA8AFA4FF4807098
S315080080605FFA88F800FB0A800500DFF8400B0088F5
S31508008070022190FBF1F08346DFF8300B0088801C64
S31508008080DFF8281B0880DFF81C0B00780A284ED179
S31508008090BDF814001FFA8BFB83450AD15FFA8AFAEA
S315080080A04FF48070DFF8FC1A497B00FB0A100500C4
S315080080B03DE0BDF806001FFA8BFB83450ED19DF8FF
S315080080C0000002280AD35FFA8AFA4FF48070DFF8B4
S315080080D0D41A097B00FB0A10050028E0BDF8040045
S315080080E01FFA8BFB83450ED19DF8000003280AD39F
S315080080F05FFA8AFA4FF48070DFF8A81AC97A00FB8B
S315080081000A10050013E0BDF802001FFA8BFB834531
S315080081100DD19DF80000042809D35FFA8AFA4FF4B6
S315080081208070DFF8801A897A00FB0A100500DFF8EC
S31508008130700A057000200400601C0400C0B20628FE
S315080081401AD2280080B200F0FAF900F082F9060087
S31508008150B6B2ADB2AE4202D1002004000CE0E4B2E1
S31508008160042CE9D1DFF8300A07210170DFF83C0A50
S31508008170A0F800B000202BE1DFF8300A0088DFF80D
S315080081807C18C9888842BFF448AF142000F023F948
S3150800819043E74FF48051DFF8040AFEF707FFDFF8DC
S315080081A05C0890F82700F021084200F00781DFF804
S315080081B0000AFFF773FC01280AD1DFF8E409007802
S315080081C08046DFF8F009FFF769FC012812D101E0C3
S315080081D00020FDE0DFF8C809007882465FFA8AFACF
S315080081E04FF480705FFA88F800FB0A800500AD043A
S315080081F0AD0C01E00020EBE0601C0400C0B20628CC
S315080082001ED2290089B2DFF8F407008900F011FAB6
S31508008210DFF8E807008900F094FA0600B6B2ADB2B6
S31508008220AE4202D1002004000AE0E4B2042CE3D1F5
S31508008230DFF8C8070089DFF8741908800020C7E04E
S31508008240DFF8B807807A022842D3DFF8B00790F83B
S31508008250220002282BD1DFF8A407808C00F071FADF
S31508008260DFF854190870DFF850090078FF2804D0A1
S31508008270DFF844090078002819D1DFF88007808CD8
S31508008280801E80B200F05DFADFF82C190870DFF85E
S3150800829028090078FF2804D0DFF81C090078002890
S315080082A005D1DFF8F4080C210170002090E042F2B5
S315080082B0010000F046FA0700FFB2BFB2FF2F04D153
S315080082C0DFF8F4080078804612E0380080460FE0B0
S315080082D0DFF8280790F82200012804D1DFF8D8082B
S315080082E00078804604E042F2010000F02AFA80464F
S315080082F0DFF8C808FFF7D2FB01280FD1DFF8A0087E
S31508008300007882465FFA8AFA4FF480705FFA88F836
S3150800831000FB0A800500AD04AD0C01E0002057E023
S31508008320601C0400C0B2062823D2290089B2DFF8EF
S31508008330CC060089401C80B200F07BF9DFF8BC0649
S315080083400089401C80B200F0FCF90600B6B2ADB256
S31508008350AE4202D1002004000BE0E4B2042CDFD1C7
S31508008360DFF898060089401CDFF8401808800020CE
S315080083702EE0601C0400C0B203281DD21FFA89F93A
S315080083805FEA19208246484680465FFA8AFA5146CD
S3150800839089B2DFF8680600890E3080B200F049F924
S315080083A05FFA88F8414689B2DFF8500600890F302F
S315080083B080B200F03EF9DCE7002004000121DFF876
S315080083C0D407FEF7F6FD00210020FEF7D8FE0120AF
S315080083D007B0BDE8F08FF8B504004FF40061DFF888
S315080083E0A807FEF7E6FD00200500EDB2062D2FD200
S315080083F04FF40061DFF89007FEF7D8FDA4B254FAEF
S3150800840005F00600F6B2F00706D54FF48051DFF8FE
S315080084107807FEF7CBFD05E04FF48051DFF86807D3
S31508008420FEF7C7FD00200700FFB20C2F01D27F1C04
S31508008430FAE74FF40061DFF85007FEF7BAFD0020AF
S315080084400700FFB20C2F01D27F1CFAE76D1CCCE7A0
S31508008450F1BDF8B51720FFF7BEFF00200700FFB2F1
S315080084600C2F01D27F1CFAE700200700FFB20C2F61
S3150800847001D27F1CFAE74FF40061DFF80C07FEF71C
S3150800848095FD00200700FFB20C2F01D27F1CFAE7EA
S315080084904FF40061DFF8F006FEF78BFD00200700B9
S315080084A0FFB20C2F01D27F1CFAE70020060000203D
S315080084B00400E4B20E2C25D24FF40061DFF8C8069A
S315080084C0FEF774FD00200700FFB20C2F01D27F1CB7
S315080084D0FAE71021DFF8B406FEF758FD0500ADB23D
S315080084E015FA04F006434FF40061DFF89C06FEF720
S315080084F060FD00200700FFB20C2F01D27F1CFAE7AF
S31508008500641CD6E74FF40061DFF87C06FEF74EFDE3
S3150800851000200700FFB20C2F01D27F1CFAE74FF4A8
S315080085200061DFF86406FEF744FD00200700FFB28D
S315080085300C2F01D27F1CFAE7300080B2F2BDF8B5E5
S3150800854004001620FFF747FF4FF40061DFF83806EE
S31508008550FEF72CFD00200700FFB20C2F01D27F1C6E
S31508008560FAE74FF40061DFF82006FEF722FD002047
S315080085700700FFB20C2F01D27F1CFAE70020050086
S31508008580EDB20E2D2FD24FF40061DFF8FC05FEF791
S315080085900DFDA4B254FA05F00600B6B2F00706D5EA
S315080085A04FF48051DFF8E005FEF700FD05E04FF4D3
S315080085B08051DFF8D405FEF7FCFC00200700FFB267
S315080085C00C2F01D27F1CFAE74FF40061DFF8B805DB
S315080085D0FEF7EFFC00200700FFB20C2F01D27F1C2C
S315080085E0FAE76D1CCCE74FF40061DFF89C05FEF74F
S315080085F0DDFC00200700FFB20C2F01D27F1CFAE732
S315080086004FF40061DFF88005FEF7D3FC0020070071
S31508008610FFB20C2F01D27F1CFAE71920FFF7DBFE09
S31508008620DFF8D803808AFEF7A8FF1A20FFF7D3FEE3
S31508008630F1BD2DE9F04104000D001520FFF7CBFE32
S315080086404FF40061DFF84005FEF7B0FC00208046D5
S315080086505FFA88F8B8F10C0F02D218F10108F7E7AB
S315080086604FF40061DFF82005FEF7A3FC00208046E2
S315080086705FFA88F8B8F10C0F02D218F10108F7E78B
S3150800868000200600F6B20E2E35D24FF40061DFF850
S31508008690F804FEF78BFCA4B254FA06F00700BFB242
S315080086A0F80706D54FF48051DFF8DC04FEF77EFCA8
S315080086B005E04FF48051DFF8D004FEF77AFC00207D
S315080086C080465FFA88F8B8F10C0F02D218F1010853
S315080086D0F7E74FF40061DFF8B004FEF76AFC002004
S315080086E080465FFA88F8B8F10C0F02D218F1010833
S315080086F0F7E7761CC6E74FF40061DFF88C04FEF74F
S3150800870055FC002080465FFA88F8B8F10C0F02D2B3
S3150800871018F10108F7E74FF40061DFF86C04FEF77B
S3150800872048FC002080465FFA88F8B8F10C0F02D2A0
S3150800873018F10108F7E7280080B2FFF700FFBDE847
S31508008740F081F8B504001520FFF745FE0020070064
S31508008750FFB20C2F01D27F1CFAE700200700FFB2F8
S315080087600C2F01D27F1CFAE74FF40061DFF81804DA
S31508008770FEF71CFC00200700FFB20C2F01D27F1C5D
S31508008780FAE74FF40061DFF80004FEF712FC002058
S315080087900700FFB20C2F01D27F1CFAE70020050064
S315080087A0EDB20E2D2FD24FF40061DFF8DC03FEF791
S315080087B0FDFBA4B254FA05F00600B6B2F00706D5DA
S315080087C04FF48051DFF8C003FEF7F0FB05E04FF4E5
S315080087D08051DFF8B403FEF7ECFB00200700FFB278
S315080087E00C2F01D27F1CFAE74FF40061DFF89803DB
S315080087F0FEF7DFFB00200700FFB20C2F01D27F1C1B
S31508008800FAE76D1CCCE74FF40061DFF87C03FEF74E
S31508008810CDFB00200700FFB20C2F01D27F1CFAE720
S315080088204FF40061DFF86003FEF7C3FB0020070082
S31508008830FFB20C2F01D27F1CFAE7FFF70AFE0600EB
S31508008840300080B2F2BD2DE9F04104000D0016009B
S31508008850802700210020FEF792FC4FF40061CA48E9
S31508008860FEF7A7FB4FF48051C748FEF7A2FB01218C
S31508008870C848FEF79BFB0120FEF790FE4FF48041A7
S31508008880C248FEF796FB0A20FEF788FE4FF4005111
S31508008890BF48FEF78EFB4FF40071BE48FEF786FB15
S315080088A00520FEF77BFE0A20FFF795FD002080468F
S315080088B05FFA88F8B8F1050F05D2002000F0A0F895
S315080088C018F10108F4E74FF4316000F099F841F225
S315080088D0F25000F095F84FF4366000F091F841F246
S315080088E0F05000F08DF8B448002101700020804651
S315080088F05FFA88F8B8F1080F1DD23800C0B200F048
S3150800890032F8AF480088B6B2B04214D0AC480088F6
S31508008910B6B2B04204D2802050FA08F0074303E00A
S31508008920802050FA08F08743402050FA08F00743A1
S3150800893018F10108DCE73800C0B200F014F8A048C6
S315080089400088ADB2854208D39D480088A4B2A042EB
S3150800895003D399480770012003E09748FF21017067
S315080089600020BDE8F0817CB504004FF43065E4B220
S315080089706519280080B200F043F841F2F15000F082
S315080089803FF8002000F03CF80A20FEF707FE00201A
S315080089900600B6B2032E22D200218A4800F0F1F969
S315080089A00021894800F0EDF90121864800F006FA11
S315080089B00121854800F09CF90121824800F098F9C8
S315080089C00121804800F0E1F90028F9D07E4800F03E
S315080089D0DAF9B6B200A921F81600761CD9E7BDF86F
S315080089E00000BDF802100818BDF804100818032185
S315080089F090FBF1F07249088073BD00006C010020FD
S31508008A00F8B504004FF400615F48FEF7CFFA00207E
S31508008A100700FFB20C2F01D27F1CFAE74FF4006162
S31508008A205948FEF7C6FA00200700FFB20C2F01D2FC
S31508008A307F1CFAE700200500EDB20E2D2BD24FF46D
S31508008A4000615148FEF7B2FAA4B254FA05F00600DE
S31508008A50B6B2F00705D54FF480514B48FEF7A6FA93
S31508008A6004E04FF480514848FEF7A3FA00200700B7
S31508008A70FFB20C2F01D27F1CFAE74FF4006142487F
S31508008A80FEF797FA00200700FFB20C2F01D27F1CD1
S31508008A90FAE76D1CD0E74FF400613B48FEF786FA0B
S31508008AA000200700FFB20C2F01D27F1CFAE74FF413
S31508008AB000613548FEF77DFA00200700FFB20C2F4B
S31508008AC001D27F1CFAE74FF400612F48FEF76EFAD1
S31508008AD000200700FFB20C2F01D27F1CFAE74FF4E3
S31508008AE000612948FEF765FA00200700FFB20C2F3F
S31508008AF001D27F1CFAE74FF400612348FEF756FAC5
S31508008B0000200700FFB20C2F01D27F1CFAE74FF4B2
S31508008B1000611D48FEF74DFA00200700FFB20C2F32
S31508008B2001D27F1CFAE74FF400611748FEF73EFAB8
S31508008B3000200700FFB20C2F01D27F1CFAE74FF482
S31508008B4000611148FEF735FA00200700FFB20C2F26
S31508008B5001D27F1CFAE74FF400610B48FEF726FAAC
S31508008B6000200700FFB20C2F01D27F1CFAE74FF452
S31508008B7000610548FEF71DFA00200700FFB20C2F1A
S31508008B8001D27F1CFAE7F1BD00140140001801402C
S31508008B900010014000080140820B0020000C014033
S31508008BA0860B0020080B0020440B00206E0B0020CB
S31508008BB020210100212101007E0B00202321010034
S31508008BC06C0B0020000400400008004000220388C7
S31508008BD01A00DFF8F031984212D0DFF800329842D6
S31508008BE00ED0B0F1804F0BD0DFF8DC31984207D0B9
S31508008BF0DFF8D831984203D0DFF8D431984204D14F
S31508008C004FF68F731A404B881A43DFF8C8319842DB
S31508008C1008D0DFF8C431984204D04FF6FF431A4013
S31508008C20CB881A4302808B8883850B880385DFF8F7
S31508008C30943198420FD0DFF8A43198420BD0DFF870
S31508008C40A031984207D0DFF89C31984203D0DFF86C
S31508008C509831984201D10B7A0386012383827047A3
S31508008C6070B4002300240022058C4FF6EF763540B9
S31508008C700584058C2C0085882A00058B2B0048F670
S31508008C80FF752B404FF6FF452B400D8853EA052309
S31508008C904FF6DF752C400D8954EA05144D8854EAC1
S31508008CA00514DFF82051A84203D0DFF84051A84246
S31508008CB017D14FF67F752C404D8954EA05144FF6A7
S31508008CC0BF752C408D8854EA05144FF6FF352A40A7
S31508008CD04FF2FF752A408D8952EA8502CD8952EAFC
S31508008CE0850282800383CD880587048470BC70471B
S31508008CF0C9B2002904D0028852F00102028004E0B9
S31508008D0002884FF6FE731A4002807047C9B20029DE
S31508008D1006D0B0F8442052F40042A0F8442005E0FA
S31508008D20B0F844205204520CA0F844207047D2B23E
S31508008D30002A03D083890B43838102E083898B430E
S31508008D4083817047F8B504000D0016001F003B002C
S31508008D509BB2320092B2290089B2200000F005F8D1
S31508008D60208950F480402081F1BD30B40024058963
S31508008D702C00E4B252EA03250D432C43048130BC8F
S31508008D80704781847047808C704730B40200002099
S31508008D9000230024158A0D402B0095890D402C00D0
S31508008DA09BB2002B05D0A4B2002C02D001252800C6
S31508008DB001E000252800C0B230BC704789B2CA431A
S31508008DC002827047002C0140000400400008004061
S31508008DD0000C004000100040001400400034014020
S31508008DE00040014000440140004801400034014071
S31508008DF01749086070470021144A1268110031F4B7
S31508008E0040410143114A11607047C9B2002905D093
S31508008E10104A126802430F4B1A6004E00D4A1268A2
S31508008E2082430C4B1A607047C9B2002905D00A4A1A
S31508008E3012680243084B1A6004E0074A1268824324
S31508008E40054B1A60704705490870704704100240C0
S31508008E50D8004242181002401C1002400710024077
S31508008E6080B54E48006850F001004C4908604C48EF
S31508008E7000684C4908404A490860484800684A4919
S31508008E800840464908604548006830F48020434950
S31508008E9008604348006830F4FE00414908604348CA
S31508008EA05FF41F01016000F004F841484149016080
S31508008EB001BD80B500F001F801BD82B00020019027
S31508008EC0002000903548006850F480303349086027
S31508008ED03248006810F4003000900198401C019058
S31508008EE00098002803D10198B0F5A06FF0D12B485F
S31508008EF00068800302D50120009001E00020009060
S31508008F000098012847D12C48006850F010002A49DB
S31508008F1008602948006880088000274908602648B4
S31508008F20006850F00200244908601D481C49096879
S31508008F3001601B481A49096801601948006850F41D
S31508008F408060174908601648006830F47C10144998
S31508008F5008601348006850F4E810114908600F4883
S31508008F60006850F080700D4908600C480068800160
S31508008F70FBD50B4800688008800009490860084846
S31508008F80006850F00200064908600548006810F0BD
S31508008F900C000828F9D102B0704700000010024002
S31508008FA0041002400000FFF8FFFFF6FE081002401A
S31508008FB008ED00E00040000800200240F8B500F087
S31508008FC077FF012301220021DFF8E00B01F03AF8D0
S31508008FD0112301220021DFF8D80B01F033F82123F1
S31508008FE001220021DFF8CC0B00F0D8FF292005006C
S31508008FF00020060000200400A4B20A2C29D2A4B23C
S31508009000DFF8500D201890F829002A281FD3A4B29B
S31508009010DFF8400D201890F829007B2817D2A4B253
S31508009020E000060016F1290005002B00DBB201223C
S315080090300021A4B2DFF81C0D201890F82900DFF8EB
S31508009040207D17EB800050F8C00C00F0A7FF641CC9
S31508009050D2E700F0E1F9DFF80C0D00780A2817D1FD
S31508009060DFF8000DC07CDFF8FC1C097D090411EB54
S315080090700060DFF8F01C497D10EB0120DFF8E41CE6
S31508009080897D0818DFF8E01C086000F020FD03E081
S31508009090DFF8D40C002101600121DFF8CC0C006850
S315080090A000F012FC0021002000F00EFCF1BD80B596
S315080090B000F0FEFE012301220021DFF89C0C00F0DF
S315080090C06DFF092301220021DFF8A00C00F066FFDE
S315080090D0112301220021DFF8840C00F05FFF192319
S315080090E001220021DFF8880C00F058FF2123012215
S315080090F00021DFF8800C00F051FF2923012200210E
S31508009100DFF8740C00F04AFF312301220021DFF852
S315080091106C0C00F043FF392301220021DFF84C0CC8
S3150800912000F03CFF412301220021DFF8580D00F032
S3150800913035FF492301220021DFF8440C00F02EFFF9
S31508009140512301220021DFF83C0C00F027FF5923A8
S3150800915001220021DFF8300C00F020FF61230122F4
S315080091600021DFF8200D00F019FF692301220021F4
S31508009170DFF8100C00F012FF712301220021DFF83E
S31508009180000C00F00BFF792301220021DFF8F40C14
S3150800919000F004FF01BDF8B504000D000123032209
S315080091A00221DFF8E40C00F0F9FE0923032202216C
S315080091B0DFF8D80B00F0F2FE112303220221DFF8B4
S315080091C0CC0B00F0EBFEDFF8C80BB4FBF0F00600A2
S315080091D0DFF8BC0BB4FBF0F100FB114007001923C4
S315080091E003220221DFF8CC0900F0D8FE202303224F
S315080091F00221DFF8980C50F8260000F0CFFE42F264
S315080092001070B7FBF0F0060042F21070B7FBF0F1F1
S3150800921000FB1177292303220221DFF8700C50F88E
S31508009220260000F0BBFE312303220221DFF8540B8F
S3150800923000F0B4FE4FF47A70B7FBF0F006004FF476
S315080092407A70B7FBF0F100FB117004006420B4FBE0
S31508009250F0F00700392303220221DFF8300C50F81A
S31508009260260000F09BFE412303220221DFF81C0C96
S3150800927050F8270000F092FE492303220221DFF866
S31508009280080C00F08BFEDFF8080BB5FBF0F00600C3
S31508009290DFF8FC0AB5FBF0F100FB115007000123CB
S315080092A005220421DFF8E00B00F078FE09230522E9
S315080092B00421DFF8DC0B00F071FE112305220421DE
S315080092C0DFF8CC0B00F06AFE1923052204210FF6FD
S315080092D0C42000F063FE212305220421DFF8800A5A
S315080092E050F8260000F05AFE42F21070B7FBF0F074
S315080092F0060042F21070B7FBF0F100FB1177292344
S3150800930005220421DFF8580A50F8260000F046FE28
S31508009310312305220421DFF86C0A00F03FFE4FF4E2
S315080093207A70B7FBF0F006004FF47A70B7FBF0F1ED
S3150800933000FB117005006420B5FBF0F00700392327
S3150800934005220421DFF8180A50F8260000F026FE48
S31508009350412305220421DFF8080A50F8270000F007
S315080093601DFE492305220421DFF81C0B00F016FE1A
S31508009370F1BD10B50400012307220621DFF8140BFE
S3150800938000F00CFE092307220621DFF8080B00F07F
S3150800939005FE112307220621DFF8BC0900F0FEFDB1
S315080093A0192307220621DFF8C40900F0F7FD212357
S315080093B0072206210FF6343000F0F0FD2923072294
S315080093C006210FF6383000F0E9FD31230722062181
S315080093D0DFF8C40A00F0E2FD392307220621DFF888
S315080093E0BC0A00F0DBFD412307220621DFF8B00A9C
S315080093F000F0D4FD4923072206210FF6981000F045
S31508009400CDFD512307220621E4B2DFF8800A50F881
S31508009410240000F0C3FD10BD38B501230322022144
S31508009420DFF8800A00F0BAFD092303220221DFF8DB
S31508009430780A00F0B3FD1123032202210FF6541017
S3150800944000F0ACFDDFF8640A00884FF4805190FB09
S31508009450F1F00500DFF8540A00884FF4805190FBBC
S31508009460F1F202FB11021400192303220221ADB204
S31508009470DFF8180A50F8250000F090FDA4B24FF462
S31508009480807094FBF0F00500A4B24FF480712000C0
S3150800949090FBF1F404FB1104202303220221ADB250
S315080094A0DFF8E80950F8250000F078FDA4B210208E
S315080094B094FBF0F00500A4B21021200090FBF1F413
S315080094C004FB1104292303220221ADB2DFF8BC09EB
S315080094D050F8250000F062FD312303220221A4B2D0
S315080094E0DFF8A80950F8240000F058FD39230322B4
S315080094F00221DFF8A00900F051FDDFF858080088BE
