S0180000455A50726F3130305F4150505F7632302E7372656334
S31508000000B0100020D1B801082DB401082FB401089A
S3150800001031B4010833B4010835B401080000000002
S3150800002000000000000000000000000037B40108CE
S3150800003039B40108000000003BB401083DB40108CA
S3150800004085B9010889B901088DB9010891B901086E
S3150800005095B9010899B901089DB90108A1B901081E
S31508000060A5B90108A9B90108ADB90108B1B90108CE
S31508000070B5B90108B9B90108BDB90108C1B901087E
S31508000080C5B90108C9B90108CDB90108D1B901082E
S315080000903FB40108D9B90108DDB90108E1B9010879
S315080000A0E5B90108E9B90108EDB90108F1B901088E
S315080000B0F5B90108F9B90108FDB9010801BA01083D
S315080000C005BA010809BA01080DBA010811BA0108EA
S315080000D015BA010819BA01081DBA010821BA01089A
S315080000E025BA010829BA01082DBA010831BA01084A
S315080000F035BA010839BA01083DBA010841BA0108FA
S3150800010045BA010849BA01084DBA010851BA0108A9
S3150800011055BA010859BA01085DBA010861BA010859
S3150800012065BA010869BA01086DBA010871BA010809
S3150800013080B5A548008843F2163188425ED0A248A9
S31508000140008843F27831884258D09F48008846F2A2
S315080001506001884252D09C48008843F211118842B7
S315080001604CD09948008843F20141884246D09648C7
S31508000170008845F21231884240D09348008847F2F9
S31508000180220188423AD09048008847F211018842F5
S3150800019034D08D48008847F2122188422ED08A48EA
S315080001A0008847F21271884228D08748008847F2AB
S315080001B01151884222D08448008846F2700188424C
S315080001C01CD081480088B0F5C14F17D07E480088FA
S315080001D046F29001884211D07B48008847F22331C5
S315080001E088420BD07848008847F21131884205D0FA
S315080001F07548008845F22221884203D173480121B7
S31508000200817012E07048008849F22901884205D0B9
S315080002106D48008849F23301884203D16B480221B0
S31508000220817002E06948002181706748008843F2BE
S315080002300141884264D06448008843F281018842BB
S315080002405ED06148008843F21631884258D05E482D
S31508000250008846F26001884252D05B48008845F221
S31508000260123188424CD05848008847F22201884209
S3150800027046D05548008845F22221884240D0524847
S31508000280008843F2163188423AD04F48008848F22F
S315080002903211884234D04C48008847F2110188420E
S315080002A02ED04948008847F21221884228D046486D
S315080002B0008847F21271884222D04348008847F2E4
S315080002C0115188421CD04048008847F223318842A1
S315080002D016D03D48008846F27001884210D03A4848
S315080002E0008846F2900188420AD037480088B0F55F
S315080002F0C14F05D03448008849F23301884203D1FA
S3150800030032480121C17002E030480021C1702E48F0
S31508000310008846F26001884205D105F077F9002881
S315080003204FD001204EE02848008848F23211884212
S3150800033005D106F083FE002843D0012042E022487A
S31508000340008847F21101884205D108F0B5FA00285D
S3150800035037D0012036E01C48008843F2163188421F
S3150800036017D01948008845F21231884211D016482C
S31508000370008843F2111188420BD01348008847F2CF
S315080003801131884205D01048008847F22201884278
S3150800039005D109F0FDFE002813D0012012E00A4815
S315080003A0008845F22221884205D10CF00FFF00286B
S315080003B007D0012006E000F00BF8002801D0012044
S315080003C000E0002002BD0000C00100202C01002032
S315080003D02DE9F04F89B000240020ADF80200002076
S315080003E0ADF80E0000208DF8010000208DF8000001
S315080003F05FF0000B00208DF80A005FF00009DFF8B7
S31508000400B00C90F82200012840F0B280DFF8A00C6A
S31508000410008843F29431884206D0DFF8940C0088AD
S3150800042043F27831884227D1DFF8840C428ADFF814
S31508000430800CC189DFF8780C008A04F011FA8DF86F
S315080004400100DFF86C0C008843F27831884240F0EE
S3150800045084809DF80100012840F07F80DFF8500C69
S31508000460428ADFF84C0CC189DFF8440C008A04F094
S31508000470BFFB8DF8010070E0DFF8340C008849F204
S31508000480290188421ED1DFF8280C428ADFF8200CA1
S31508000490C189DFF81C0C008A03F092FA8DF8010076
S315080004A09DF80100012858D1DFF8040C428ADFF8CC
S315080004B0000CC189DFF8F80B008A03F065FC8DF89B
S315080004C001004AE0DFF8E80B008845F2123188425D
S315080004D01AD1DFF8DC0B428ADFF8D40BC189DFF8C2
S315080004E0D00B008A03F05EFD8DF801009DF801002F
S315080004F0DFF8C01B097888422FD1DFF8B80B032133
S315080005000170002001F01BBEDFF8A40B008843F23F
S315080005108101884206D0DFF8980B008843F2014132
S3150800052088420DD1DFF8880B428ADFF8840BC1892F
S31508000530DFF87C0B008A02F06DFD8DF801000CE0F7
S31508000540DFF86C0B428ADFF8680BC189DFF8600BAD
S31508000550008A02F087FB8DF801009DF8010000284B
S3150800056006D1DFF8500B03210170002001F0E7BD2A
S315080005700121DFF8E00D0EF07BF8002100200EF0D7
S315080005805AF90EF0D2F905200EF087FBDFF8200B9A
S31508000590008843F29431884230D0DFF8140B008883
S315080005A043F27831884229D0DFF8040B008849F2F3
S315080005B02901884222D0DFF8F80A008843F211118F
S315080005C088421BD0DFF8E80A008843F201418842D6
S315080005D014D0DFF8DC0A008843F2163188420DD0C1
S315080005E0DFF8CC0A008845F21231884206D0DFF8D7
S315080005F0C00A008845F28811884203D1022001F01A
S31508000600A9FD13E0DFF8A80A008843F264218842AE
S3150800061009D1DFF89C0A90F82800022803D10220A5
S3150800062001F098FD02E0012001F094FD01200EF092
S3150800063034FB4FF40051DFF8200D0EF019F84FF493
S315080006400071DFF8100D0EF010F80A200EF025FBE9
S315080006504FF6FF7002F07CFA8046DFF8540A0088ED
S315080006601FFA88F8804506D0DFF8480A0421017089
S31508000670002001F064BDDFF8380A008843F27831BB
S3150800068088421AD148F2080002F062FA80461FFA38
S3150800069088F843F27430804507D1DFF8140A407BA6
S315080006A074280AD0002001F04ABDDFF8040A407B0E
S315080006B0742802D1002001F042BDDFF8F40990F851
S315080006C02800022840F0C180002004004FF6FF7081
S315080006D08046601C0400C0B2062824DA414689B266
S315080006E0DFF8CC09008902F0DBF9DFF8C4090089D4
S315080006F002F02EFA0500ADB21FFA88F8454502D178
S31508000700002004000FE0E4B2042CE2D1DFF8A009CF
S315080007100089DFF8481C0880DFF898090A2101706B
S31508000720002001F00CBD601C0400C0B2062828DABF
S31508000730414689B2DFF878090089401C80B202F088
S31508000740AFF9DFF86C090089401C80B202F000FAA4
S315080007500500ADB21FFA88F8454502D1002004000D
S315080007600FE0E4B2042CDED1DFF844090089DFF893
S31508000770EC1B0880DFF83C090A210170002001F013
S31508000780DEBC601C0400C0B2062828DA414689B2DD
S31508000790DFF81C090089801C80B202F081F9DFF8B5
S315080007A010090089801C80B202F0D2F90500ADB2AA
S315080007B01FFA88F8454502D1002004000FE0E4B28C
S315080007C0042CDED1DFF8E8080089DFF8901B0880E2
S315080007D0DFF8E0080A210170002001F0B0BC012111
S315080007E0DFF8700B0DF044FF002100200EF023F80F
S315080007F00EF09BF80A200EF050FA022001F0AAFC2F
S3150800080001200EF04AFA4FF40051DFF84C0B0DF0B8
S315080008102FFF4FF40071DFF83C0B0DF026FF0A207E
S315080008200EF03BFA4FF6FF7002F092F98046DFF8B9
S31508000830800800881FFA88F8804506D0DFF8740813
S3150800084004210170002001F07ABCDFF864080088F2
S3150800085043F21631884240F0D88000200400DFF8C1
S31508000860B00D019001980EF0A5FC012806D1DFF81D
S31508000870A40D00780600F6B2B04602E0002001F0AA
S315080008805EBC601C0400C0B2062880F28A8041461D
S3150800089089B24FF4004002F003F91FFA88F818F0FD
S315080008A07000302804D148F20D00ADF80C001EE0A7
S315080008B01FFA88F818F0700050280FD11FFA88F828
S315080008C018F00C00042804D148F20C00ADF80C000E
S315080008D00DE048F20D00ADF80C0008E01FFA88F8A4
S315080008E018F07000602802D10020ADF80C00002036
S315080008F082465FFA8AFABAF1030F2CDA5046C0B27A
S3150800090001F07AFE0500ADB21FFA88F845451FD0FA
S315080009105FFA8AFABAF1000F04D1DFF898071621B0
S31508000920017012E05FFA8AFABAF1010F04D1DFF812
S3150800093084071721017008E05FFA8AFABAF1020FF4
S3150800094003D1DFF870071821017019F1010902E0D7
S315080009501AF1010ACDE75FFA8AFABAF1030F02D152
S31508000960002004001DE0E4B2042C8AD1DFF8EC096B
S315080009704FF400410180DFF83C07007816280DD0B7
S31508000980DFF830070078172808D0DFF8280700783E
S31508000990182803D0DFF81C070A210170002001F08F
S315080009A0CEBB0121DFF8AC090DF062FE0021002064
S315080009B00DF041FF0A200EF070F9022001F0CAFB83
S315080009C001200EF06AF94FF40051DFF88C090DF09A
S315080009D04FFE4FF40071DFF87C090DF046FE0A2041
S315080009E00EF05BF94FF6FF7002F0B2F88046DFF8BA
S315080009F0C00600881FFA88F8804506D0DFF8B406D6
S31508000A0004210170002001F09ABBDFF8A40690F8D3
S31508000A1027000F21084200F05F84002083464FF428
S31508000A208051DFF8D00D0DF023FEDFF884068088AC
S31508000A3000F57F40FF300EF08AFCDFF8D80B00780F
S31508000A408046DFF8B40D40788DF80A00DFF8A80D67
S31508000A508078DFF8A41DC97811EB0020ADF81600E0
S31508000A60DFF8940D0079DFF8901D497911EB002025
S31508000A70ADF81400DFF8800D8079DFF87C1DC979A0
S31508000A8011EB0020ADF81200DFF86C0D007ADFF8E4
S31508000A90681D497A11EB0020ADF81000DFF8580DF3
S31508000AA0807ADFF8541DC97A090411EB0060DFF873
S31508000AB0481D097B10EB0120DFF83C1D497B08180F
S31508000AC00790DFF8340DC07BDFF82C1D097C09047C
S31508000AD011EB0060DFF8201D497C10EB0120DFF8E0
S31508000AE0181D897C08180190DFF80C0DC07EDFF808
S31508000AF0081D097F090411EB0060DFF8FC1C497F1B
S31508000B0010EB0120DFF8F01C897F0818069006987C
S31508000B100799884217D2DFF8E00CDFF8DC1CC97D9C
S31508000B208172DFF8D40CDFF8D01C097EC172DFF8B9
S31508000B30C80CDFF8C41C497E0173DFF8BC0CDFF86B
S31508000B40B81C897E4173DFF8B00C00780A280CD1EE
S31508000B50DFF8E80C00680199884206D3DFF85405E7
S31508000B600E210170002001F0EABA002001F0F0FF22
S31508000B700500DFF83C058088DFF8E0170880DFF815
S31508000B803005C088DFF8D41709888842C0F0D081BC
S31508000B900EF08FFADFF87C0A00780600F6B216EB3C
S31508000BA00B0B0EF086FADFF86C0A00780700FFB226
S31508000BB017EB0B0BFFB24FF48070F6B200FB076021
S31508000BC08046DFF898070088022190FBF1F0ADF81F
S31508000BD00800DFF888070088801CDFF8801708807F
S31508000BE0DFF8140C00780A284AD1BDF80800BDF8C9
S31508000BF01610884209D1FFB24FF48070DFF8F81B4F
S31508000C00497B00FB071080463AE0BDF80800BDF8AE
S31508000C10141088420DD19DF80A00022809DBFFB29C
S31508000C204FF48070DFF8D01B097B00FB0710804665
S31508000C3026E0BDF80800BDF8121088420DD19DF8CF
S31508000C400A00032809DBFFB24FF48070DFF8A81BFF
S31508000C50C97A00FB0710804612E0BDF80800BDF807
S31508000C60101088420CD19DF80A00042808DBFFB250
S31508000C704FF48070DFF8801B897A00FB07108046E6
S31508000C80DFF8900980F8008000200400601C04004A
S31508000C90C0B2062880F2188100208DF80000DFF81F
S31508000CA01004008843F2111188420CD11FFA88F803
S31508000CB04FF6FF70804506D15FEAC8485FEAD84814
S31508000CC001208DF80000DFF8E803008843F20141AF
S31508000CD088420BD11FFA88F84FF6FF70804505D178
S31508000CE041F6FF70804601208DF80000DFF8C0034A
S31508000CF0008843F2810188420BD11FFA88F84FF623
S31508000D00FF70804505D143F6FF70804601208DF8B7
S31508000D1000001FFA88F84FF6FF70804502D10120BF
S31508000D208DF80000DFF88803008843F281018842C5
S31508000D3003D15FEA88485FEA9848DFF874030088B9
S31508000D4043F21111884206D0DFF86403008843F2A3
S31508000D500141884203D15FEAC8485FEAD8489DF84E
S31508000D600000002803D1404680B201F0FBFCD048C1
S31508000D70008843F2111188421DD0CD48008843F2FD
S31508000D807831884217D0CA48008843F20141884220
S31508000D9011D0C748008843F2163188420BD0C448A0
S31508000DA0008845F21231884205D0C148008849F2C8
S31508000DB0290188426ED1BE48008849F22901884235
S31508000DC003D102208DF80B0002E003208DF80B00FA
S31508000DD0002082469DF80B005FFA8AFA824535D2D2
S31508000DE0B348008849F22901884205D15046C0B265
S31508000DF00EF038FD050004E05046C0B201F0FCFBD9
S31508000E000500ADB21FFA88F845451CD05FFA8AFA84
S31508000E10BAF1000F03D1A7481621017010E05FFA56
S31508000E208AFABAF1010F03D1A2481721017007E027
S31508000E305FFA8AFABAF1020F02D19E4818210170A8
S31508000E4019F1010902E01AF1010AC3E79DF80B003E
S31508000E505FFA8AFA824502D10020040034E0E4B23F
S31508000E60042C7FF413AF9348007816280AD09148CB
S31508000E700078172806D08F480078182802D08D48A1
S31508000E8008210170DFF8D404BDF80810018000209D
S31508000E9001F055B901F06EFB0500ADB21FFA88F8EE
S31508000EA0454502D1002004000EE0E4B2042C7FF48C
S31508000EB0EDAE804808210170DFF8A004BDF80810DF
S31508000EC00180002001F03BB9DFF8900400887849DA
S31508000ED0C9888842BFF453AE142010F0F3F9744859
S31508000EE0008843F2014188420CD07148008843F2D9
S31508000EF08101884206D06E48008843F2163188423E
S31508000F007FF43DAE122001F06CFAADF80800BDF88A
S31508000F100800DFF848140988022291FBF2F188429A
S31508000F203FF42DAE634810210170002001F007B987
S31508000F304FF48051DFF8BC080DF097FB5C48008839
S31508000F4049F22901884240F0C7814FF48051DFF801
S31508000F50A4080DF08DFBDFF8D00C0EF0F8F9F2209E
S31508000F6001F0F6FD0500DFF8F4034FF4F271018095
S31508000F70DFF8E8030088B0F5007F80F29D800EF068
S31508000F8098F8DFF8900600780600F6B216EB0B0B19
S31508000F900EF08FF8DFF87C0600780700FFB217EB33
S31508000FA00B0BFFB24FF48070F6B200FB0760804669
S31508000FB0DFF8A8030088022190FBF1F0ADF80800DD
S31508000FC0DFF898030088801CDFF890130880DFF8A4
S31508000FD0440680F8008000200400601C0400C0B2AB
S31508000FE006285BDA1FFA88F84FF6FF70804503D0AB
S31508000FF0404680B201F0B6FB002082465FFA8AFAC4
S31508001000BAF1020F29DA5046C0B20EF02BFC0500E1
S31508001010ADB21FFA88F845451CD05FFA8AFABAF1CC
S31508001020000F03D123481621017010E05FFA8AFAEF
S31508001030BAF1010F03D11F481721017007E05FFAC3
S315080010408AFABAF1020F02D11A481821017019F169
S31508001050010902E01AF1010AD0E75FFA8AFABAF141
S31508001060020F02D10020040018E0E4B2042CB4D127
S315080010701048007816280AD00E480078172806D097
S315080010800C480078182802D00A4808210170B3488D
S31508001090BDF808100180002001F051B8AF4800885B
S315080010A0B0F5FF7F3FF764AF142010F00BF95FE748
S315080010B0C0010020A50C00204FF48051DFF834074A
S315080010C00DF0D3FADFF88C0D00788046DFF8880D2E
S315080010D0008901F03DFD0500ADB2FF2D68D1601C09
S315080010E00400C0B2062863DA414689B2DFF8680D03
S315080010F0008901F0D5FC002082465FFA8AFABAF127
S31508001100020F2FDADFF8500D01895046C0B20EF0F3
S3150800111060FB0500ADB21FFA88F845451FD05FFA97
S315080011208AFABAF1000F04D1DFF8300D16210170E2
S3150800113012E05FFA8AFABAF1010F04D1DFF81C0D42
S315080011401721017008E05FFA8AFABAF1020F03D193
S31508001150DFF8080D1821017019F1010902E01AF1EA
S31508001160010ACAE75FFA8AFABAF1020F02D1002029
S3150800117004001DE0E4B2042CB1D1DFF8E00C0078DD
S3150800118016280DD0DFF8D40C0078172808D0DFF819
S31508001190CC0C0078182803D0DFF8C00C08210170A1
S315080011A0DFF8B40C00896D490880002000F0C7BF3D
S315080011B0DFF8AC0C019001980DF0FCFF012816D160
S315080011C0DFF850040078804618F08008DFF8940CA1
S315080011D0007850EA0808DFF8800C0089401C80B2C5
S315080011E001F0B6FC0500ADB2FF2D75D106E0DFF8BB
S315080011F06C0C09210170002000F0A1BF601C0400DE
S31508001200C0B2062868DA414689B2DFF84C0C008974
S31508001210401C80B201F044FC002082465FFA8AFA3C
S31508001220BAF1020F31DADFF8300C0089411C89B2B5
S315080012305046C0B20EF0CDFA0500ADB21FFA88F8D6
S3150800124045451FD05FFA8AFABAF1000F04D1DFF8D4
S315080012500C0C1621017012E05FFA8AFABAF1010F36
S3150800126004D1DFF8F80B1721017008E05FFA8AFA53
S31508001270BAF1020F03D1DFF8E40B1821017019F156
S31508001280010902E01AF1010AC8E75FFA8AFABAF117
S31508001290020F02D1002004001EE0E4B2042CADD1F6
S315080012A0DFF8B80B007816280DD0DFF8B00B0078F9
S315080012B0172808D0DFF8A40B0078182803D0DFF821
S315080012C09C0B08210170DFF8900B0089401C23490C
S315080012D00880002000F033BFDFF87C0B90F8270069
S315080012E0F021084200F02287DFF86C0B008843F2F1
S315080012F02121884229D0DFF8600B008847F2105177
S31508001300884222D0DFF8500B008843F264218842D5
S315080013101BD0DFF8440B008843F21111884214D021
S31508001320DFF8340B008843F2810188420DD0DFF8DC
S31508001330280B008843F20141884206D0DFF8180BD3
S31508001340008845F2881188420AD1DFF8340D0190E9
S3150800135009E000BF00080140001001408C0C002085
S31508001360DFF8200D0190DFF8F00A008845F28811B1
S31508001370884240F0518101980DF01CFF01280DD1DB
S31508001380DFF8040D00780600F6B2B6F580708046E0
S31508001390DFF8C40A4FF40041018102E0002000F0A2
S315080013A0CEBE601C0400C0B2062824DA414689B2C3
S315080013B0DFF8A40A008901F073FBDFF89C0A0089AC
S315080013C001F0C6FB0500ADB21FFA88F8454502D103
S315080013D0002004000FE0E4B2042CE2D1DFF8780A1A
S315080013E00089DFF8601D0880DFF8700A0A2101709D
S315080013F0002000F0A4BE0198401C0DF0DBFE012879
S3150800140007D1844800780600F6B2B6F580708046A3
S3150800141002E0002000F093BE601C0400C0B206285B
S3150800142029DA414689B2DFF8300A0089401C80B2C1
S3150800143001F036FBDFF8200A0089401C80B201F073
S3150800144087FB0500ADB21FFA88F8454502D1002092
S31508001450040010E0E4B2042CDED1DFF8FC090089B0
S31508001460401CDFF8E01C0880DFF8F0090A2101704B
S31508001470002000F064BE0198801C0DF09BFE012838
S3150800148007D1644800780600F6B2B6F58070804643
S3150800149002E0002000F053BE601C0400C0B206281B
S315080014A029DA414689B2DFF8B0090089801C80B282
S315080014B001F0F6FADFF8A0090089801C80B201F075
S315080014C047FB0500ADB21FFA88F8454502D1002052
S315080014D0040010E0E4B2042CDED1DFF87C090089B0
S315080014E0801CDFF8601C0880DFF870090A2101708B
S315080014F0002000F024BE0198C01C0DF05BFE0128F8
S3150800150007D1444800780600F6B2B6F580708046E2
S3150800151002E0002000F013BE601C0400C0B20628DA
S3150800152029DA414689B2DFF830090089C01C80B241
S3150800153001F0B6FADFF820090089C01C80B201F074
S3150800154007FB0500ADB21FFA88F8454502D1002011
S31508001550040010E0E4B2042CDED1DFF8FC080089B0
S31508001560C01CDFF8E01B0880DFF8F0080A210170CC
S31508001570002000F0E4BD0198001D0DF01BFE0128B7
S3150800158007D1244800780600F6B2B6F58070804682
S3150800159002E0002000F0D3BD601C0400C0B206289B
S315080015A029DA414689B2DFF8B0080089001D80B201
S315080015B001F076FADFF8A0080089001D80B201F074
S315080015C0C7FA0500ADB21FFA88F8454502D10020D2
S315080015D0040010E0E4B2042CDED1DFF87C080089B0
S315080015E0001DDFF8601B0880DFF870080A2101700B
S315080015F0002000F0A4BD0121DFF84C0B0DF038F8EF
S31508001600002100200DF017F9012000F098BD00BF59
S3150800161020810100AB0C0020DFF83C08008843F26B
S315080016201631884202D1DFF8240B0190DFF828082A
S31508001630008845F21231884202D1DFF8440A019047
S3150800164001980DF0B7FD01280AD1DFF83C0A0078A9
S3150800165006000198401C0DF0ADFD01280FD102E0EF
S31508001660002000F06CBDDFF8200A00780700DFF8DC
S31508001670E807008843F21111884226D106E0DFF810
S31508001680DC0709210170002000F059BD17F0F007AA
S31508001690DFF8BC0A0078002804D157F0020716F0D4
S315080016A07F0612E0DFF8A80A0078012804D157F06F
S315080016B0020756F0800608E0DFF8940A0078022848
S315080016C003D157F0010756F08006FFB24FF4807039
S315080016D0F6B200FB07608046601C0400C0B206280C
S315080016E080F2AE80414689B2DFF86C07008901F0C6
S315080016F0D7F9DFF86407008843F2111188421BD036
S31508001700DFF85407008843F27831884214D0DFF8AE
S315080017104807008843F2014188420DD0DFF83807B0
S31508001720008843F21631884206D0DFF82C07008875
S3150800173045F21231884261D1002082465FFA8AFA60
S31508001740BAF1030F2FDADFF8100701895046C0B245
S3150800175001F03AFA0500ADB21FFA88F845451FD0E0
S315080017605FFA8AFABAF1000F04D1DFF8F0061621FB
S31508001770017012E05FFA8AFABAF1010F04D1DFF8B4
S31508001780DC061721017008E05FFA8AFABAF1020F3F
S3150800179003D1DFF8C8061821017019F1010902E022
S315080017A01AF1010ACAE75FFA8AFABAF1030F02D1F7
S315080017B00020040044E0E4B2042C8DD1DFF89C0636
S315080017C0007816280DD0DFF894060078172808D078
S315080017D0DFF888060078182803D0DFF880060A2183
S315080017E00170DFF874060089DFF8581908800020B0
S315080017F000F0A5BC000C0140240C0020DFF85806B8
S31508001800008901F0A5F90500ADB21FFA88F845452B
S3150800181002D10020040013E0E4B2042C7FF45CAF8C
S31508001820DFF834060089DFF81C190880DFF82C0673
S315080018300A210170002000F082BC00BF600C002065
S31508001840DFF81406807A0228C0F22084DFF808063A
S3150800185090F8220002284CD1DFF8FC05808C01F0B4
S3150800186077F90500ADB24FF4807095FBF0F0DFF81C
S31508001870F4150870ADB24FF4807095FBF0F101FBDA
S315080018801051DFF8D0050170DFF8D8050078FF2879
S3150800189004D0DFF8D005007800282AD1DFF8B8058B
S315080018A0808C801E80B201F053F90500ADB24FF46A
S315080018B0807095FBF0F0DFF8AC150870ADB24FF408
S315080018C0807095FBF0F101FB1051DFF88805017077
S315080018D0DFF890050078FF2804D0DFF8880500783F
S315080018E0002806D1DFF874050C210170002000F0ED
S315080018F026BCDFF86405008843F2810188421DD1C1
S315080019000198801D0DF056FC012810D1DFF87807E4
S3150800191000788DF80000DFF8400500899DF8001072
S31508001920081880B201F014F9ADF802001FE0DFF8DC
S315080019302C0509210170002000F001BCDFF818050C
S315080019400089401C80B201F003F9ADF80200DFF807
S315080019500805008845F21231884208D1DFF8F804F4
S315080019600089801C80B201F0F3F8ADF80E00DFF8AC
S31508001970E804008843F21111884206D0DFF8D8043B
S31508001980008843F20141884203D141F6FF70804640
S315080019900DE0DFF8C404008843F28101884203D1D0
S315080019A043F6FF70804602E04FF6FF708046DFF888
S315080019B0A804008845F21231884224D1BDF80200F5
S315080019C01FFA88F8404515D1BDF80E00C00711D595
S315080019D0DFF8900400780700DFF87804007806003E
S315080019E0DFF8C00C0078DFF87C14097851EAC000EB
S315080019F00700D3E0BDF802000600BDF8020080B279
S31508001A00000A0700CAE0DFF85004008847F21051C0
S31508001A1088423ED1BDF80200C0B2FF2804D1DFF8E3
S31508001A2034040078060002E0BDF802000600BDF89E
S31508001A30020010F4FE40B0F5FE4F24D148F206002D
S31508001A4001F086F80500ADB215F4FE40B0F5FE4F7C
S31508001A5010D148F2050001F07BF80500ADB215F487
S31508001A60FE40B0F5FE4F05D1DFF8F0030A210170FC
S31508001A70002064E3ADB24FF4807095FBF0F00700E8
S31508001A8057F080078AE0BDF8020080B2000A070016
S31508001A9084E0BDF802001FFA88F8404557D1DFF800
S31508001AA0B803008843F28101884250D0DFF8B403B6
S31508001AB000780700DFF89C0300780600DFF8980333
S31508001AC0008843F20141884203D1DFF89803007881
S31508001AD00600DFF88403008843F22121884206D0F5
S31508001AE0DFF87403008847F2105188420ED1DFF8F8
S31508001AF06803808C01F02CF880461FFA88F85FEAA4
S31508001B0018200700DFF84C0300780600DFF84803C2
S31508001B10008843F2163188420AD1DFF8880B00782C
S31508001B2010F0F8000700DFF83C030078074335E0BB
S31508001B30C948008845F2123188422FD1DFF8640B74
S31508001B400078C849097851EAC000070026E0C2486B
S31508001B50008843F28101884218D1BDF802001FFAB5
S31508001B6088F8404512D1BF48007806000198C01C85
S31508001B700DF020FB012804D1DFF80C0500780700DA
S31508001B800CE0B648092101700020D8E2BDF8020031
S31508001B900600BDF8020080B2000A0700FFB24FF443
S31508001BA08070F6B200FB07608046AB48008843F2B7
S31508001BB01111884218D10198C01C0DF0FBFA0128B2
S31508001BC00DD1DFF8C4040078070017F01807FFB234
S31508001BD04FF4807000FB07F050EA08082BE09F4896
S31508001BE0092101700020AAE29B48008843F264217B
S31508001BF0884205D09848008843F2014188421AD1A4
S31508001C000198C01C0DF0D6FA01280FD1DFF8780428
S31508001C10007807005FFA88F8FFB24FF4807000FB7F
S31508001C2007F050EA080806E0E30101008B4809219D
S31508001C300170002083E2601C0400C0B2062880F20E
S31508001C40BD808548008843F21111884217D0824822
S31508001C50008843F27831884211D07F48008843F2E1
S31508001C60014188420BD07C48008843F216318842ED
S31508001C7005D07948008845F2123188425ED141463E
S31508001C8089B275480089401C80B200F009FF00201F
S31508001C9082465FFA8AFABAF1030F2DDA6E4800898E
S31508001CA0411C89B25046C0B200F08EFF0500ADB2A5
S31508001CB01FFA88F845451CD05FFA8AFABAF1000F70
S31508001CC003D166481621017010E05FFA8AFABAF164
S31508001CD0010F03D161481721017007E05FFA8AFAFC
S31508001CE0BAF1020F02D15D481821017019F10109F4
S31508001CF002E01AF1010ACCE75FFA8AFABAF1030F91
S31508001D0002D10020040059E0E4B2042C93D15348D0
S31508001D10007816280AD051480078172806D04F4868
S31508001D200078182802D04D480A2101704A480089CF
S31508001D30401CDFF810140880002000E2464800889E
S31508001D4043F28101884213D1414689B2424800894B
S31508001D509DF80020101880B200F0A2FE3E480089C7
S31508001D609DF80010081880B200F0F2FE05000EE09B
S31508001D70414689B238480089401C80B200F090FE7E
S31508001D8035480089401C80B200F0E2FE0500ADB27D
S31508001D901FFA88F8454502D1002004000EE0E4B297
S31508001DA0042C7FF448AF2D480A2101702A4800897F
S31508001DB0401CDFF8901308800020C0E12648008800
S31508001DC043F27831884224D02348008843F294317C
S31508001DD088421ED02048008843F26421884218D0E1
S31508001DE01D48008843F20141884212D01A480088EB
S31508001DF043F2810188420CD01748008843F2163115
S31508001E00884206D01448008845F21231884240F0CC
S31508001E103D810198001D0DF0CDF9012834D19A486D
S31508001E20007806000C48008845F21231884224D111
S31508001E30BDF802004FF6FF71884215D1BDF80E00B5
S31508001E40C00711D5DFF85C080078C0B2400960F316
S31508001E50000612E0A10C0020C0010020A50C0020FD
S31508001E60E2010100A00C0020BDF80E00C00702D553
S31508001E7056F0010601E016F0FE060198401D0DF029
S31508001E8099F9012811D105E0DFF8080C092101703C
S31508001E90002054E17C4800780700DFF8FC0B008836
S31508001EA043F28101884202D108E0002047E1DFF8C9
S31508001EB0E80B008843F20141884203D1DFF8DC0BC6
S31508001EC000780600FFB24FF48070F6B200FB076098
S31508001ED08046601C0400C0B2062880F2D780DFF86E
S31508001EE0B80B008843F27831884214D0DFF8A80B83
S31508001EF0008843F2014188420DD0DFF89C0B008828
S31508001F0043F21631884206D0DFF88C0B008845F27A
S31508001F101231884269D1414689B2DFF87C0B0089C3
S31508001F20801C80B200F0BCFD002082465FFA8AFA67
S31508001F30BAF1030F31DADFF8600B0089811C89B228
S31508001F405046C0B200F040FE0500ADB21FFA88F850
S31508001F5045451FD05FFA8AFABAF1000F04D1DFF8B7
S31508001F60340B1621017012E05FFA8AFABAF1010FF2
S31508001F7004D1DFF8200B1721017008E05FFA8AFA0E
S31508001F80BAF1020F03D1DFF80C0B1821017019F111
S31508001F90010902E01AF1010AC8E75FFA8AFABAF1FA
S31508001FA0030F02D10020040070E0E4B2042C90D1A3
S31508001FB000200400DFF8E00A0089801C61490880D7
S31508001FC0DFF8D00A007816280DD0DFF8C80A00789E
S31508001FD0172808D0DFF8BC0A0078182803D0DFF8DD
S31508001FE0B40A0A2101700020A9E0DFF8AC0A0088CB
S31508001FF043F28101884217D1414689B2DFF8980A2F
S3150800200000899DF800201018401C80B200F048FD99
S31508002010DFF8840A00899DF800100818401C80B271
S3150800202000F096FD050010E0414689B2DFF8680A1F
S315080020300089801C80B200F033FDDFF85C0A008955
S31508002040801C80B200F084FD0500ADB21FFA88F846
S31508002050454502D10020040018E0E4B2042C7FF4C0
S3150800206038AF00200400DFF8300A0089801C3549A3
S315080020700880DFF8200A0A21017000205FE000BF0F
S315080020802021010020410100AB0C0020601C040047
S31508002090C0B2032848DADFF8000A008843F2014193
S315080020A0884221D0DFF8F009008843F216318842C9
S315080020B01AD0DFF8E409008845F21231884209D1BE
S315080020C0594689B2DFF8D0090089C01D80B200F0F0
S315080020D0E7FCDBE7594689B2DFF8BC0900890F300F
S315080020E080B200F0DDFCD1E7DFF8AC09008843F2E6
S315080020F00141884206D1594689B248F20C0000F0DF
S31508002100CFFCC3E7DFF89009008843F2163188420E
S315080021100AD1BDF80C000028B8D0594689B2BDF8D6
S315080021200C0000F0BDFCB1E70020040001210648C0
S315080021300CF09EFA002100200CF07DFB012009B06E
S31508002140BDE8F08F8C0C00200008014024810100B6
S31508002150A30C002038B50400002100200CF06BFB0E
S3150800216064200CF09AFD4FF40061DFF8E80A0CF0E1
S315080021707FFA4FF48051DFF8DC0A0CF079FAE4B202
S31508002180012C13D14FF40041DFF8CC0A0CF06DFA9C
S3150800219000200500EDB20C2D01DA6D1CFAE74FF4AC
S315080021A08041DFF8B40A0CF060FA0AE00121DFF892
S315080021B0AC0A0CF05AFA4FF48041DFF89C0A0CF08E
S315080021C057FA00200500EDB20C2D01DA6D1CFAE76E
S315080021D04FF40051DFF8880A0CF04AFA4FF4007100
S315080021E0DFF8780A0CF041FA05200CF025FD4FF4CB
S315080021F08051DFF8600A0CF038FA00200500EDB2CD
S315080022000C2D01DA6D1CFAE74FF48051DFF8440A09
S315080022100CF02EFA00200500EDB20C2D01DA6D1C2B
S31508002220FAE74FF48051DFF82C0A0CF01EFA00206A
S315080022300500EDB20C2D01DA6D1CFAE74FF480515A
S31508002240DFF8100A0CF014FA00200500EDB20C2D88
S3150800225001DA6D1CFAE74FF48051DFF8F8090CF043
S3150800226004FA00200500EDB20C2D01DA6D1CFAE720
S315080022704FF48051DFF8DC090CF0FAF9002005006C
S31508002280EDB20C2D01DA6D1CFAE74FF48051DFF838
S31508002290C4090CF0EAF900200500EDB20C2D01DAAC
S315080022A06D1CFAE74FF48051DFF8A8090CF0E0F945
S315080022B000200500EDB20C2D01DA6D1CFAE74FF48B
S315080022C00071DFF898090CF0D3F94FF40051DFF8E4
S315080022D090090CF0CAF905200CF0AEFC4FF48051B9
S315080022E0DFF870090CF0C1F900200500EDB20C2DDD
S315080022F001DA6D1CFAE74FF48051DFF858090CF043
S31508002300B7F900200500EDB20C2D01DA6D1CFAE7CD
S315080023104FF40051DFF848090CF0AAF94FF40071A0
S31508002320DFF838090CF0A1F905200CF085FC4FF40C
S315080023308051DFF820090CF098F900200500EDB26D
S315080023400C2D01DA6D1CFAE74FF48051DFF8040909
S315080023500CF08EF900200500EDB20C2D01DA6D1C8B
S31508002360FAE74FF48051DFF8EC080CF07EF900200C
S315080023700500EDB20C2D01DA6D1CFAE74FF4805119
S31508002380DFF8D0080CF074F900200500EDB20C2D2A
S3150800239001DA6D1CFAE74FF40071DFF8C0080CF09B
S315080023A067F94FF40051DFF8B8080CF05EF905201C
S315080023B00CF042FC4FF48051DFF898080CF055F900
S315080023C000200500EDB20C2D01DA6D1CFAE74FF47A
S315080023D08051DFF880080CF04BF901200CF05DFC09
S315080023E031BD2DE9F0410400E4B2200080B20EF0C0
S315080023F069FF002080465FFA88F8B8F10C0F02DA08
S3150800240018F10108F7E7002080465FFA88F8B8F166
S315080024100C0F02DA18F10108F7E700200700002080
S315080024200500EDB2102D2BDA4FF40061DFF8240811
S315080024300CF01BF9002080465FFA88F8B8F10C0FFB
S3150800244002DA18F10108F7E71021DFF80C080CF09A
S31508002450FCF80600B6B216FA05F007434FF4006119
S31508002460DFF8F0070CF004F9002080465FFA88F8D8
S31508002470B8F10C0F02DA18F10108F7E76D1CD0E77E
S31508002480380080B2BDE8F081F8B5040015200EF0DA
S3150800249019FF00200500EDB2102D2FDAA4B254FA68
S315080024A005F00600B6B2F00706D54FF48051DFF8FE
S315080024B0A4070CF0DAF805E04FF48051DFF894072A
S315080024C00CF0D6F84FF40061DFF888070CF0CDF869
S315080024D000200700FFB20C2F01DA7F1CFAE74FF441
S315080024E00061DFF870070CF0C3F800200700FFB2A0
S315080024F00C2F01DA7F1CFAE76D1CCCE7F1BDF8B5A5
S31508002500040016200EF0DEFE00200500EDB2102DA8
S315080025102FDAA4B254FA05F00600B6B2F00706D5CB
S315080025204FF48051DFF82C070CF09FF805E04FF4C4
S315080025308051DFF820070CF09BF84FF40061DFF8B4
S3150800254014070CF092F800200700FFB20C2F01DAEE
S315080025507F1CFAE74FF40061DFF8F8060CF088F8FC
S3150800256000200700FFB20C2F01DA7F1CFAE76D1C6A
S31508002570CCE7F1BDF8B517200EF0A4FE0020070041
S31508002580FFB20C2F01DA7F1CFAE700200700FFB222
S315080025900C2F01DA7F1CFAE7002006000020040051
S315080025A0E4B2102C25DA4FF40061DFF8A8060CF027
S315080025B05CF800200700FFB20C2F01DA7F1CFAE74F
S315080025C01021DFF894060CF040F80500ADB215FAB4
S315080025D004F006434FF40061DFF878060CF048F87B
S315080025E000200700FFB20C2F01DA7F1CFAE7641CF3
S315080025F0D6E7300080B2F2BD2DE9F0410400200094
S31508002600C0B200F051F817200EF05CFE002080469C
S315080026105FFA88F8B8F10C0F02DA18F10108F7E743
S31508002620002080465FFA88F8B8F10C0F02DA18F134
S315080026300108F7E70020070000200500EDB2102D7D
S315080026402BDA4FF40061DFF80C060CF00EF80020C8
S3150800265080465FFA88F8B8F10C0F02DA18F101081B
S31508002660F7E71021DFF8F0050BF0EFFF0600B6B22A
S3150800267016FA05F007434FF40061DFF8D8050BF0AA
S31508002680F7FF002080465FFA88F8B8F10C0F02DAE7
S3150800269018F10108F7E76D1CD0E7380080B2BDE8ED
S315080026A0F0810000A20C00202DE9F0410400E4B2FC
S315080026B0002C02D1002007000AE0E4B2012C02D166
S315080026C00620070004E0E4B2022C01D10520070029
S315080026D01A200EF0F7FD00200600F6B20C2E01DADD
S315080026E0761CFAE700200600F6B20C2E01DA761CF4
S315080026F0FAE700200500EDB2102D31DABFB257FA1D
S3150800270005F080461FFA88F85FEAC87006D54FF4C8
S315080027108051DFF840050BF0A8FF05E04FF4805123
S31508002720DFF830050BF0A4FF4FF40061DFF824054D
S315080027300BF09BFF00200600F6B20C2E01DA761C81
S31508002740FAE74FF40061DFF80C050BF091FF002063
S315080027500600F6B20C2E01DA761CFAE76D1CCAE7FB
S31508002760BDE8F0812DE9F041040016200EF0AAFD1F
S31508002770002080465FFA88F8B8F10C0F02DA18F1E3
S315080027800108F7E7002080465FFA88F8B8F10C0FD1
S3150800279002DA18F10108F7E700200500EDB2102D5E
S315080027A035DAA4B254FA05F00600B6B2F00706D533
S315080027B04FF48051DFF89C040BF057FF05E04FF407
S315080027C08051DFF890040BF053FF4FF40061DFF8F7
S315080027D084040BF04AFF002080465FFA88F8B8F1B7
S315080027E00C0F02DA18F10108F7E74FF40061DFF879
S315080027F064040BF03DFF002080465FFA88F8B8F1C4
S315080028000C0F02DA18F10108F7E76D1CC6E7DFF8C6
S315080028100008C078002808D01320FFF7E2FD06005C
S31508002820B6B2A4B2A64240F03381DFF8E407807856
S3150800283001285ED119200EF045FD00200500EDB2F5
S31508002840082D21DA002080465FFA88F8B8F10C0FC7
S3150800285002DA18F10108F7E74FF40061DFF8F4032C
S315080028600BF003FF002080465FFA88F8B8F10C0FDA
S3150800287002DA18F10108F7E74FF40061DFF8D4032C
S315080028800BF0F6FE6D1CDAE74021DFF8D4030BF0F7
S31508002890ECFE09200CF0E1F94021DFF8C4030BF047
S315080028A0E7FE00200500EDB2082D80F2F180002039
S315080028B080465FFA88F8B8F10C0F02DA18F10108B9
S315080028C0F7E74FF40061DFF88C030BF0CEFE00202B
S315080028D080465FFA88F8B8F10C0F02DA18F1010899
S315080028E0F7E74FF40061DFF86C030BF0C1FE6D1CCF
S315080028F0D9E7DFF81C07807802285ED119200EF088
S31508002900E1FC00200500EDB2082D21DA0020804602
S315080029105FFA88F8B8F10C0F02DA18F10108F7E740
S315080029204FF40061DFF82C030BF09FFE0020804671
S315080029305FFA88F8B8F10C0F02DA18F10108F7E720
S315080029404FF40061DFF80C030BF092FE6D1CDAE71A
S315080029504021DFF80C030BF088FE1C200CF07DF9F3
S315080029604021DFF8FC020BF083FE00200500EDB2E3
S31508002970082D80F28D80002080465FFA88F8B8F12D
S315080029800C0F02DA18F10108F7E74FF40061DFF8D7
S31508002990C4020BF06AFE002080465FFA88F8B8F198
S315080029A00C0F02DA18F10108F7E74FF40061DFF8B7
S315080029B0A4020BF05DFE6D1CD9E719200EF082FC0F
S315080029C000200500EDB2082D21DA002080465FFAC6
S315080029D088F8B8F10C0F02DA18F10108F7E74FF496
S315080029E00061DFF870020BF040FE002080465FFAB7
S315080029F088F8B8F10C0F02DA18F10108F7E74FF476
S31508002A000061DFF850020BF033FE6D1CDAE722484E
S31508002A1090F8280002280AD1002007001021DFF8C4
S31508002A2038020BF012FE00280DD07F1CF6E71A4874
S31508002A30808A0CF001F91848808A0CF0FDF81648CF
S31508002A40808A0CF0F9F800200500EDB2082D1FDA8F
S31508002A50002080465FFA88F8B8F10C0F02DA18F100
S31508002A600108F7E74FF400617A480BF0FEFD0020F5
S31508002A7080465FFA88F8B8F10C0F02DA18F10108F7
S31508002A80F7E74FF4006173480BF0F2FD6D1CDCE7C5
S31508002A90BDE8F081A50C0020C0010020A10C002093
S31508002AA02DE9F04104000D0015200EF00BFC002066
S31508002AB080465FFA88F8B8F10C0F02DA18F10108B7
S31508002AC0F7E7002080465FFA88F8B8F10C0F02DABB
S31508002AD018F10108F7E700200600F6B2102E31DAE1
S31508002AE0A4B254FA06F00700BFB2F80705D54FF4AA
S31508002AF0805158480BF0B9FD04E04FF48051554811
S31508002B000BF0B6FD4FF4006152480BF0AEFD002005
S31508002B1080465FFA88F8B8F10C0F02DA18F1010856
S31508002B20F7E74FF400614B480BF0A2FD0020804602
S31508002B305FFA88F8B8F10C0F02DA18F10108F7E71E
S31508002B40761CCAE7280080B2FFF70CFEBDE8F081C4
S31508002B50F8B5040015200EF0B5FB00200500EDB20F
S31508002B60102D2BDAA4B254FA05F00600B6B2F00717
S31508002B7005D54FF4805137480BF077FD04E04FF444
S31508002B80805134480BF074FD4FF4006131480BF066
S31508002B906CFD00200700FFB20C2F01DA7F1CFAE754
S31508002BA04FF400612B480BF063FD00200700FFB2CD
S31508002BB00C2F01DA7F1CFAE76D1CD0E7FFF7DAFC69
S31508002BC00600300080B2F2BD2DE9F04104000D0088
S31508002BD02000C0B2FFF768FD15200EF073FB002039
S31508002BE00600F6B2102E2DDAADB255FA06F080467A
S31508002BF01FFA88F85FEAC87005D54FF48051154862
S31508002C000BF033FD04E04FF4805112480BF030FD11
S31508002C104FF400610F480BF028FD00200700FFB2B3
S31508002C200C2F01DA7F1CFAE74FF4006109480BF014
S31508002C301FFD00200700FFB20C2F01DA7F1CFAE700
S31508002C40761CCEE7FFF796FC8046404680B2BDE884
S31508002C50F0810000001401400018014000080140FE
S31508002C60001001402DE9F84F04000D0016005FF032
S31508002C7080090220FFF76EFA01200CF00EF80A20F0
S31508002C800EF020FB00200700FFB2052F04DA002013
S31508002C9002F0A2F87F1CF7E743F6744002F09CF8AE
S31508002CA045F2F97002F098F84FF4705002F094F873
S31508002CB045F2FA7002F090F8DFF8E00CC08A42F6A6
S31508002CC02101884240F09F80DFF8D40C0CF072FA9C
S31508002CD0012829D1DFF8CC0C0078804643F6FF405E
S31508002CE002F07AF845F2FB7002F076F85FFA88F897
S31508002CF018F5705080B202F06FF845F2FC7002F0D9
S31508002D006BF843F6014002F067F845F2F87002F0F6
S31508002D1063F8002002F060F80A200BF0BEFF1020CE
S31508002D2080460020070005E0DFF87C0C09210170C9
S31508002D300020F2E0FFB2042F53DA5FFA88F818F59C
S31508002D40705080B202F048F845F2FC7002F044F880
S31508002D50FF2000F0E4F8DFF8540C008882460020D3
S31508002D6000F0DDF8DFF8440C008883465FFA88F83F
S31508002D70B8F11E0F04D05FFA88F8B8F1020F15D122
S31508002D801FFA8AFA40F63E00824505DB1FFA8BFBDE
S31508002D9040F63D00834524DB5FFA88F8B8F1020F58
S31508002DA002D10420804601E00020B6E01FFA8AFA24
S31508002DB040F63E0082450ADB1FFA8BFB40F63D00D3
S31508002DC0834504DA1020384138EA000803E0102069
S31508002DD0384150EA08080820384150EA08087F1C9C
S31508002DE0A8E75FFA88F8B8F1040F01D018F10108CE
S31508002DF05FFA88F818F5705080B201F0EDFF45F2D9
S31508002E00FC7001F0E9FF43F6014001F0E5FF45F2E9
S31508002E10F87001F0E1FF002001F0DEFF0A200BF058
S31508002E203CFF80208146DFF8880B002101700020D6
S31508002E300700FFB2082F1EDA4846C0B200F06FF846
S31508002E40DFF8680B0088B6B2B04214D0DFF85C0B26
S31508002E500088B6B2B04204D28020384150EA090947
S31508002E6003E08020384139EA00094020384150EA19
S31508002E7009097F1CDDE719F10100C0B200F04FF81F
S31508002E80DFF8280B008882464846C0B200F047F8AB
S31508002E90DFF8180B008883461FFA8AFAB6B2BAEB2F
S31508002EA00600B6B21FFA8BFBB6EB0B01884205DAB1
S31508002EB019F10109DFF8F40AA0F800A0DFF8EC0A16
S31508002EC00088ADB285421BD3DFF8E00A0088A4B2B9
S31508002ED0A04215D3DFF8C40AC08A42F62101884207
S31508002EE004D1DFF8CC0A80F8008003E0DFF8C00AD6
S31508002EF0FF210170DFF8BC0A80F8009001200CE081
S31508002F00DFF8AC0AFF210170DFF8A80AFF2101707B
S31508002F10DFF8940A032101700020BDE8F28F7CB522
S31508002F2004004FF47055DFF8740A008843F28101F3
S31508002F3088420CD1E4B214F530600500280080B24E
S31508002F4001F04AFF41F2FB5001F046FF1CE0DFF8B2
S31508002F504C0A008843F2014188420BD1E4B214F5C9
S31508002F6080600500280080B201F036FFBB2001F022
S31508002F7033FF09E0E4B26519280080B201F02CFF9E
S31508002F8045F2FB7001F028FF002001F025FF05201F
S31508002F900BF083FE00200600B6B2032E29DA0021C4
S31508002FA0DFF8140A0EF0A5FC0021DFF8100A0EF06F
S31508002FB0A0FC0121DFF8000A0EF0B8FC0121DFF8B9
S31508002FC0FC090EF04DFC0121DFF8EC090EF048FC77
S31508002FD00121DFF8E4090EF090FC0028F8D0DFF8AC
S31508002FE0DC090EF088FCB6B200A921F81600761C9A
S31508002FF0D2E7BDF80000BDF802100818BDF80410A5
S315080030000818032190FBF1F0DFF8A019088073BDBA
S315080030102C0100202DE9F84F04000D0016005FF082
S3150800302080080220FFF796F801200BF036FE4FF6CF
S31508003030FF70FFF78DFD82460A200EF043F9DFF890
S315080030405C09008843F2014188420BD14FF40051D4
S31508003050DFF8180D0BF00CFB4FF40071DFF8100DBC
S315080030600BF003FB01200BF018FE002083465FFAE5
S315080030708BFBBBF10A0F05DA002001F0ADFE1BF150
S31508003080010BF4E7DFF81409008843F2014188428E
S3150800309040F08B8040F2054001F09EFEBA2001F018
S315080030A09BFEDFF8D00C0CF085F8012821D1DFF85B
S315080030B0F40800780700FFB217F5806080B201F0C7
S315080030C08BFEB92001F088FE40F20F4001F084FE25
S315080030D0BC2001F081FE4FF4906001F07DFEBB201C
S315080030E001F07AFEDFF8900C0CF064F8012812D192
S315080030F006E0DFF8B40809210170002000F04CBC96
S31508003100DFF8A00800780700DFF8700C0CF052F81A
S31508003110012829D106E0DFF890080921017000206E
S3150800312000F03ABCDFF87C0800788DF80000DFF87C
S31508003130840807709DF8000010F5806080B201F0E1
S315080031404BFEBE2001F048FEFFB217F5806080B244
S3150800315001F042FEBD2001F03FFEDFF8240C0CF022
S3150800316029F801281BD102E0002000F015BCDFF881
S31508003170340800780700FFB217F5806080B201F0C6
S315080031802BFE312001F028FE40F2014001F024FE1A
S31508003190B82001F021FE002001F01EFE90E0DFF8C5
S315080031A00808092101700020F6E3DFF8C80B0CF0C7
S315080031B001F801282CD1DFF8EC0700780700FFB2E8
S315080031C017F5306080B201F007FE41F2F95001F0C0
S315080031D003FE40F6353001F0FFFD41F2FA5001F0EA
S315080031E0FBFD4FF4386001F0F7FD41F2FB5001F0AA
S315080031F0F3FD40F6363001F0EFFD41F2FC5001F0E8
S31508003200EBFDDFF8740B0BF0D5FF012811D105E0B3
S31508003210DFF89407092101700020BDE3DFF8840771
S3150800322000780700DFF8540B0BF0C4FF01282AD1F9
S3150800323005E0DFF87407092101700020ACE3DFF828
S31508003240640700788DF80000DFF868070770FFB29A
S3150800325017F5306080B201F0BFFD41F2FD5001F074
S31508003260BBFD9DF8000010F5306080B201F0B4FD9A
S3150800327041F2FE5001F0B0FDDFF8040B0BF09AFFA7
S3150800328001281BD101E0002086E3DFF81807007843
S315080032908DF800009DF8000010F5306080B201F04E
S315080032A09BFD41F2C15001F097FD40F6013001F057
S315080032B093FD41F2F85001F08FFD01E000206BE329
S315080032C0002001F089FD002001F086FD0A200BF0A0
S315080032D0E4FCDFF8DC0600210170002083465FFA73
S315080032E08BFBBBF1080F22DA4046C0B2FFF717FE88
S315080032F0DFF8B8060088B6B2B04218D0DFF8AC06D8
S315080033000088B6B2B04205D2802050FA0BF050EAD7
S31508003310080804E0802050FA0BF038EA000840203C
S3150800332050FA0BF050EA08081BF1010BD7E74046A4
S31508003330C0B2FFF7F4FDDFF86406008843F20141E6
S31508003340884240F09D8118F10100C0B2FFF7E7FD01
S31508003350DFF85806008881464046C0B2FFF7DFFD11
S31508003360DFF84806008882461FFA89F9B6B2B9EB33
S315080033700600B6B21FFA8AFAB6EB0A01884205DADF
S3150800338018F10108DFF82406A0F80090DFF81C06FB
S315080033900088ADB285420BD3DFF810060088A4B2C8
S315080033A0A04205D3DFF8080680F800800120F3E282
S315080033B0DFF8C4090BF0FEFE01280DD1DFF8E4059D
S315080033C000780700DFF8EC050770DFF8A8090BF0AE
S315080033D0F1FE01280ED101E00020DDE2DFF8C40588
S315080033E000780700FFB23F0917F00707FFB2022F60
S315080033F00AD101E00020CFE2DFF8B8050078401CCA
S31508003400DFF8B015087006E0DFF8A8050078401E5A
S31508003410DFF8A0150870DFF89C05007810F58060C5
S3150800342080B201F0D9FCBD2001F0D6FC002001F0E5
S31508003430D3FC002001F0D0FC0A200BF02EFC8020E3
S315080034408046002083465FFA8BFBBBF1080F22DA21
S315080034504046C0B2FFF763FDDFF850050088B6B2F4
S31508003460B04218D0DFF844050088B6B2B04205D29B
S31508003470802050FA0BF050EA080804E0802050FA41
S315080034800BF038EA0008402050FA0BF050EA08081A
S315080034901BF1010BD7E718F10100C0B2FFF73FFD9A
S315080034A0DFF80805008881464046C0B2FFF737FDB9
S315080034B0DFF8F804008882461FFA89F9B6B2B9EB34
S315080034C00600B6B21FFA8AFAB6EB0A01884205DA8E
S315080034D018F10108DFF8D404A0F80090DFF8CC044E
S315080034E00088ADB285420BD3DFF8C0040088A4B2C9
S315080034F0A04205D3DFF8B80480F8008001204BE22B
S31508003500DFF874080BF056FE01280DD1DFF8940495
S3150800351000780700DFF89C040770DFF858080BF0FE
S3150800352049FE01280ED101E0002035E2DFF87404D7
S3150800353000780700FFB23F0917F00707FFB2002F10
S3150800354002D104E0002027E2FFB2012F07D1DFF8FD
S3150800355064040078401CDFF85C14087011E0FFB2C0
S31508003560022F07D1DFF84C040078401EDFF8441418
S31508003570087006E0DFF83C040078801EDFF8341493
S315080035800870DFF83004007810F5806080B201F02A
S3150800359023FCBD2001F020FC002001F01DFC0020CA
S315080035A001F01AFC0A200BF078FB802080460020E8
S315080035B083465FFA8BFBBBF1080F22DA4046C0B29E
S315080035C0FFF7ADFCDFF8E4030088B6B2B04218D0C6
S315080035D0DFF8D8030088B6B2B04205D2802050FA88
S315080035E00BF050EA080804E0802050FA0BF038EA9D
S315080035F00008402050FA0BF050EA08081BF1010BAE
S31508003600D7E718F10100C0B2FFF789FCDFF89C0381
S31508003610008881464046C0B2FFF781FCDFF88C037C
S31508003620008882461FFA89F9B6B2B9EB0600B6B227
S315080036301FFA8AFAB6EB0A01884205DA18F1010878
S31508003640DFF86803A0F80090DFF860030088ADB2E1
S3150800365085420BD3DFF854030088A4B2A04205D3F1
S31508003660DFF84C0380F80080012095E1DFF840037D
S31508003670FF210170DFF83C03FF21017000208BE178
S31508003680C648008843F28101884240F07E8118F1DD
S315080036900100C0B2FFF743FCC44800888146404693
S315080036A0C0B2FFF73CFCC148008882461FFA89F978
S315080036B0B6B2B9EB0600B6B21FFA8AFAB6EB0A0139
S315080036C0884204DA18F10108B848A0F80090B7480B
S315080036D00088ADB2854209D3B4480088A4B2A04296
S315080036E004D3B34880F80080012055E1DFF8880646
S315080036F00BF060FD01280BD1AA4800780700AD48F9
S315080037000770DFF870060BF055FD01280DD101E0B2
S31508003710002041E1A34800780700FFB23F0917F0EF
S315080037200707FFB2052F02D104E0002034E1FFB2FB
S31508003730022F05D19F480078401C9E49087004E076
S315080037409C480078401E9B4908709A48007810F5F6
S31508003750306080B201F040FB41F2FD5001F03CFBC5
S31508003760002001F039FB002001F036FB0A200BF09F
S3150800377094FA80208046002083465FFA8BFBBBF1D3
S31508003780080F20DA4046C0B2FFF7C9FB8748008811
S31508003790B6B2B04217D085480088B6B2B04205D254
S315080037A0802050FA0BF050EA080804E0802050FA0E
S315080037B00BF038EA0008402050FA0BF050EA0808E7
S315080037C01BF1010BD9E718F10100C0B2FFF7A7FBFF
S315080037D07648008881464046C0B2FFF7A0FB73488A
S315080037E0008882461FFA89F9B6B2B9EB0600B6B266
S315080037F01FFA8AFAB6EB0A01884204DA18F10108B8
S315080038006A48A0F8009069480088ADB2854209D395
S3150800381066480088A4B2A04204D3654880F80080B0
S315080038200120B9E0DFF850050BF0C4FC01280BD1E4
S315080038305C48007807005F480770DFF838050BF02A
S31508003840B9FC01280DD101E00020A5E05548007813
S315080038500700FFB23F0917F00707FFB2002F02D192
S3150800386007E0002098E0FFB2012F02D0FFB2042F34
S3150800387005D150480078401C4E49087010E0FFB248
S31508003880022F02D0FFB2052F05D14A480078401E04
S315080038904849087004E047480078801E4549087082
S315080038A04448007810F5306080B201F095FA41F28C
S315080038B0FD5001F091FA002001F08EFA002001F087
S315080038C08BFA0A200BF0E9F980208046002083460F
S315080038D05FFA8BFBBBF1080F20DA4046C0B2FFF750
S315080038E01EFB32480088B6B2B04217D02F4800886F
S315080038F0B6B2B04205D2802050FA0BF050EA08085A
S3150800390004E0802050FA0BF038EA0008402050FA0C
S315080039100BF050EA08081BF1010BD9E718F1010072
S31508003920C0B2FFF7FCFA2148008881464046C0B27B
S31508003930FFF7F5FA1D48008882461FFA89F9B6B2DC
S31508003940B9EB0600B6B21FFA8AFAB6EB0A01884244
S3150800395004DA18F101081548A0F800901348008801
S31508003960ADB2854209D311480088A4B2A04204D357
S315080039700F4880F8008001200EE00D48FF210170F5
S315080039800C48FF210170002006E00948FF2101705C
S315080039900848FF2101700020BDE8F28FC001002011
S315080039A003210100AB0C0020A50C0020880C002088
S315080039B0A00C0020A10C00200004004000080040D4
S315080039C02DE9F84F04000D0016004FF4806081467B
S315080039D00220FEF7BFFB01200BF05FF90A200DF06D
S315080039E071FCDFF8F40C0BF0E5FB01280BD1DFF8CE
S315080039F0EC0C00788DF80000DFF8E40C0BF0DAFB2D
S31508003A0001280CD104E0DF48092101700020ABE150
S31508003A10DFF8C80C007880460020070004E0D94883
S31508003A200921017000209FE1FFB2052F04DA00206A
S31508003A3001F0D2F97F1CF7E74FF6017001F0CCF9D7
S31508003A409DF80000B0F560608246504680B201F0ED
S31508003A50C3F95FFA88F8B8F5C0608246504680B266
S31508003A6001F0BAF9DFF87C0CFF210170DFF8E40DEC
S31508003A70FF21017000200700FFB20B2F22DA102168
S31508003A80484680B200F010FADFF814050088B6B28E
S31508003A90B04217D0DFF808050088B6B2B04205D2A2
S31508003AA04FF48060384150EA090904E04FF4806019
S31508003AB0384139EA00094FF40070384150EA0909DB
S31508003AC07F1CD9E7102119F1010080B200F0ECF94A
S31508003AD0DFF8CC04008882461021484680B200F000
S31508003AE0E3F9DFF8BC04008883461FFA8AFAB6B2FF
S31508003AF0BAEB0600B6B21FFA8BFBB6EB0B0188428F
S31508003B0005DA19F10109DFF89804A0F800A0DFF832
S31508003B1090040088ADB2854223D3DFF88404008878
S31508003B20A4B2A0421DD31FFA89F94FF4807099FBFD
S31508003B30F0F0DFF8B01B0870DFF8A80B007850F03B
S31508003B401000DFF8A01B08701FFA89F94FF480707F
S31508003B5099FBF0F101FB1091DFF8F80C01700120D8
S31508003B6002E1DFF8800BFF210170DFF8E80CFF2186
S31508003B7001704FF48060814600200700FFB20B2FCA
S31508003B8022DA1821484680B200F08EF9DFF81004D0
S31508003B900088B6B2B04217D0DFF804040088B6B27F
S31508003BA0B04205D24FF48060384150EA090904E072
S31508003BB04FF48060384139EA00094FF40070384103
S31508003BC050EA09097F1CD9E7182119F1010080B2CA
S31508003BD000F06AF9DFF8C8030088824618214846CB
S31508003BE080B200F061F9DFF8B803008883461FFA4F
S31508003BF08AFAB6B2BAEB0600B6B21FFA8BFBB6EB78
S31508003C000B01884204DA19F10109E548A0F800A079
S31508003C10E3480088ADB2854222D3E1480088A4B2C1
S31508003C20A0421DD31FFA89F94FF4807099FBF0F072
S31508003C30DFF8B01A0870DFF8AC0A007850F0180000
S31508003C40DFF8A01A08701FFA89F94FF4807099FBFB
S31508003C50F0F101FB1091DFF8FC0B0170012083E005
S31508003C60DFF8800AFF210170DFF8E80BFF210170F9
S31508003C704FF48060814600200700FFB20B2F20DA40
S31508003C800821484680B200F00FF9C5480088B6B248
S31508003C90B04216D0C2480088B6B2B04205D24FF438
S31508003CA08060384150EA090904E04FF480603841E1
S31508003CB039EA00094FF40070384150EA09097F1CB7
S31508003CC0DBE7082119F1010080B200F0EDF8B448ED
S31508003CD0008882460821484680B200F0E5F8B048D8
S31508003CE0008883461FFA8AFAB6B2BAEB0600B6B25D
S31508003CF01FFA8BFBB6EB0B01884204DA19F10109AE
S31508003D00A748A0F800A0A6480088ADB2854222D3ED
S31508003D10A3480088A4B2A0421DD31FFA89F94FF41C
S31508003D20807099FBF0F0DFF8BC190870DFF8B40969
S31508003D30007850F00800DFF8AC1908701FFA89F906
S31508003D404FF4807099FBF0F101FB1091DFF8040B3A
S31508003D500170012008E0DFF88C09FF210170DFF807
S31508003D60F40AFF2101700020BDE8F28F001001401F
S31508003D70000801402021010024210100252101001D
S31508003D8027210100A50C00202DE9F84F04000D009D
S31508003D9016000121DFF8C00A0AF06AFC002100209B
S31508003DA00AF049FD0AF0C1FD05200AF076FF022057
S31508003DB0FEF7D0F901200AF070FF0A200DF082FA0A
S31508003DC0DFF814090BF0F6F901280AD1DFF80C0917
S31508003DD000788046DFF808090BF0ECF901280DD1C8
S31508003DE005E0DFF8780A0921017000205AE0DFF8BB
S31508003DF0EC08007881460020070005E0DFF85C0A39
S31508003E000921017000204DE0FFB2052F04DA0020D9
S31508003E1000F0E2FF7F1CF7E74FF6017000F0DCFFC9
S31508003E205FFA88F8B8F560608346584680B200F0B5
S31508003E30D3FF5FFA89F9B9F5C0608346584680B260
S31508003E4000F0CAFFDFF89C0800784FF48071DFF8AD
S31508003E50042A127801FB002082465FEA4A5A5FEA82
S31508003E605A5ADFF88008007810F0F800814649466B
S31508003E70C9B2504680B200F017F849480088ADB27A
S31508003E80854206D346480088A4B2A04201D3012041
S31508003E9008E0DFF85008FF210170DFF8B809FF21B4
S31508003EA001700020BDE8F28F2DE9FC4704000D00E3
S31508003EB04FF47046A4B24FF4807094FBF0F00700FC
S31508003EC0A4B24FF4807094FBF0F101FB10418846D0
S31508003ED0DFF8180D0BF06EF9012803D1DFF8FC079F
S31508003EE0007881465FFA88F8B8F5805006003000F9
S31508003EF080B200F071FF19F0800955EA090957EAFE
S31508003F0009095FFA89F9B9F570600600300080B2D0
S31508003F1000F062FF05200AF0C0FE002082461FFA64
S31508003F208AFABAF1030F2BDA0021DFF8C00D0DF07B
S31508003F30E0FC0021DFF8B80D0DF0DBFC0121DFF80D
S31508003F40AC0D0DF0F3FC0121DFF8A40D0DF088FC93
S31508003F500121DFF8980D0DF083FC0121DFF88C0DA7
S31508003F600DF0CBFC0028F8D0DFF8840D0DF0C3FC6B
S31508003F701FFA8AFA00A921F81A001AF1010ACEE7EF
S31508003F80BDF80000BDF802100818BDF8041008189E
S31508003F90032190FBF1F002490880BDE8F387000091
S31508003FA0880C00202DE9F34F83B014004FF480519C
S31508003FB0DFF8400D0AF05CFB4FF480608046012074
S31508003FC00AF06BFEDFF8300D0BF0F4F801280AD181
S31508003FD0DFF8080700780600DFF8200D0BF0EAF88E
S31508003FE0012823D10BE0DFF87408092101704FF48A
S31508003FF08051DFF8000D0AF038FB0020CDE2DFF82B
S31508004000DC06007807008DF8086017F007008DF8C1
S31508004010000048F20200FEF79BFDADF80600BDF869
S3150800402006004FF6FF7188420CD12BE0DFF82C080A
S31508004030092101704FF48051DFF8B80C0AF015FB1E
S315080040400020AAE2BDF806004FF4807190FBF1F05B
S315080040508DF801009DF8010010F007008DF80100A9
S315080040609DF800009DF8011088420BD0DFF8EC0798
S31508004070152101704FF48051DFF8780C0AF0F5FA33
S3150800408000208AE20A200DF01DF900200500EDB295
S31508004090052D04DA002000F09FFE6D1CF7E79DF859
S315080040A00000002813D10A208146092082460B20E9
S315080040B0834640F2E240040040F2DE40ADF80C00D0
S315080040C040F2E640ADF810007020060076E09DF854
S315080040D00000012813D112208146112082461320A0
S315080040E0834640F2E240040040F2DE40ADF80C00A0
S315080040F040F2E640ADF81000602006005EE09DF84C
S315080041000000022813D1292081462A208246282029
S31508004110834640F2E240040040F2DE40ADF80C006F
S3150800412040F2E640ADF810005020060046E09DF843
S315080041300000032813D13F2081463E2082463D20B9
S31508004140834640F2E240040040F2DE40ADF80C003F
S3150800415040F2E640ADF81000402006002EE09DF83B
S315080041600000042813D13F2081463E2082463D2088
S31508004170834640F2E240040040F2DE40ADF80C000F
S3150800418040F2E640ADF810003020060016E09DF833
S315080041900000052812D13F2081463E2082463D2058
S315080041A0834640F6E300040040F6DC00ADF80C0058
S315080041B040F6EA00ADF8100010200600F6B216F533
S315080041C070508046404680B200F006FE45F2F9700F
S315080041D000F002FE57F0D807FFB217F57050804678
S315080041E0404680B200F0F8FD45F2FE7000F0F4FD9E
S315080041F09DF8080050F0FD000600F6B216F570505E
S315080042008046404680B200F0E7FD45F2FD7000F0BA
S31508004210E3FDDFF88C0CFFB20780DFF8840C00881A
S315080042200002DFF87C1C0880DFF8740C0088F6B200
S315080042303018DFF86C1C0880002000F0CDFD002047
S3150800424000F0CAFD43F6014000F0C6FD45F2F870DD
S3150800425000F0C2FD002000F0BFFD002000F0BCFD0C
S315080042604FF480608046DFF87C0400210170DFF897
S31508004270E40500210170DFF82C0C002101700020F4
S315080042800500EDB20B2D23DA4946C9B2404680B285
S3150800429000F02AFADFF8100C0088A4B2A04217D062
S315080042A0DFF8040C0088A4B2A04205D24FF480605F
S315080042B0284150EA080804E04FF48060284138EAAB
S315080042C000084FF40070284150EA08086D1CD8E72A
S315080042D04946C9B218F1010080B200F005FADFF8C4
S315080042E0C80B0088ADF802004946C9B2404680B2FC
S315080042F000F0FAF9DFF8B00B0088ADF80400BDF855
S315080043000200A4B2001BA4B2BDF80410611A8842C8
S3150800431006DA18F10108DFF8900BBDF802100180E3
S31508004320BDF81000DFF8801B098888421FD3DFF824
S31508004330780B0088BDF80C10884218D31FFA88F845
S315080043404FF4807098FBF0F0E64908701FFA88F879
S315080043504FF4807098FBF0F101FB1081DFF8F4044C
S315080043600170DFF8480B80F80090012015E14FF442
S3150800437080608046DB4800210170DFF8D804002100
S315080043800170DFF8200B0121017000200500EDB255
S315080043900B2D23DA5146C9B2404680B200F0A4F983
S315080043A0DFF8040B0088A4B2A04217D0DFF8F80A99
S315080043B00088A4B2A04205D24FF48060284150EA92
S315080043C0080804E04FF48060284138EA00084FF4F2
S315080043D00070284150EA08086D1CD8E75146C9B252
S315080043E018F1010080B200F07FF9DFF8BC0A0088F6
S315080043F0ADF802005146C9B2404680B200F074F9E1
S31508004400DFF8A40A0088ADF80400BDF80200A4B2DB
S31508004410001BA4B2BDF80410611A884206DA18F126
S315080044200108DFF8840ABDF802100180BDF8100003
S31508004430DFF8741A098888421FD3DFF86C0A0088E7
S31508004440BDF80C10884218D31FFA88F84FF480700C
S3150800445098FBF0F0A34908701FFA88F84FF48070AB
S3150800446098FBF0F101FB1081DFF8E8030170DFF833
S315080044703C0A80F800A001208FE04FF48060804657
S31508004480984800210170DFF8CC0300210170DFF89D
S31508004490140A0221017000200500EDB20B2D23DA63
S315080044A05946C9B2404680B200F01EF9DFF8F8094D
S315080044B00088A4B2A04217D0DFF8EC090088A4B29D
S315080044C0A04205D24FF48060284150EA080804E06B
S315080044D04FF48060284138EA00084FF400702841FC
S315080044E050EA08086D1CD8E75946C9B218F1010008
S315080044F080B200F0F9F8DFF8B0090088ADF80200DC
S315080045005946C9B2404680B200F0EEF8DFF898097D
S315080045100088ADF80400BDF80200A4B2001BA4B2DE
S31508004520BDF80410611A884206DA18F10108DFF8A6
S315080045307809BDF802100180BDF81000DFF8681987
S31508004540098888421ED3DFF860090088BDF80C1078
S31508004550884217D31FFA88F84FF4807098FBF0F05A
S31508004560604908701FFA88F84FF4807098FBF0F1DC
S3150800457001FB1081B7480170DFF8300980F800B0F8
S3150800458001200AE05748FF210170B248FF21017057
S31508004590DFF81809FF210170002005B0BDE8F08F8B
S315080045A02DE9F04383B004000D004FF48066A4B2F1
S315080045B04FF4807094FBF0F00700A4B24FF48070BB
S315080045C094FBF0F101FB10418846DFF8E408008807
S315080045D043F2163188421CD115F0F805EF195FFA37
S315080045E088F818F570500600300080B200F0F4FB29
S315080045F045F2FC7000F0F0FBFFB217F570500600AC
S31508004600300080B200F0E8FB45F2FD7000F0E4FBF4
S3150800461018E05FFA88F818F580600600300080B266
S3150800462000F0DAFB40F6FB2000F0D6FBFFB217F5E8
S3150800463080600600300080B200F0CEFB40F6FC2019
S3150800464000F0CAFB002000F0C7FB05200AF025FB96
S31508004650002081461FFA89F9B9F1030F2BDA0021E8
S31508004660DFF888060DF045F90021DFF884060DF01D
S3150800467040F90121DFF874060DF058F90121DFF839
S3150800468070060DF0EDF80121DFF860060DF0E8F888
S315080046900121DFF858060DF030F90028F8D0DFF8C8
S315080046A050060DF028F91FFA89F900A921F8190012
S315080046B019F10109CEE7BDF80000BDF80210081887
S315080046C0BDF804100818032190FBF1F0DFF8D8179D
S315080046D00880BDE8F7830000E4010100AB0C002068
S315080046E0F4010100A00C00202DE9F04F83B004006E
S315080046F00D004FF48066EDB2A4B26005400D10EBD4
S31508004700C52082461FFA8AFA5FEA1A200700504631
S3150800471080465FFA88F818F570500600300080B2B7
S3150800472000F05AFB45F2FB7000F056FB002000F043
S3150800473053FBFFB217F570500600300080B200F048
S315080047404BFB45F2FC7000F047FB002000F044FBF1
S31508004750C5F34010C0B2DFF8481709884FF6FE7255
S315080047601140084382461FFA8AFA5FEA1A200700B0
S31508004770504680465FFA88F818F5705006003000F3
S3150800478080B200F029FB002083465FFA8BFBBBF161
S315080047900A0F02DA1BF1010BF7E745F2FD7000F08C
S315080047A01BFB002000F018FBFFB217F5705006003F
S315080047B0300080B200F010FB45F2FE7000F00CFBF2
S315080047C0002000F009FB05200AF067FA0020814660
S315080047D01FFA89F9B9F1030F2BDA0021DFF80C0566
S315080047E00DF087F80021DFF808050DF082F80121A1
S315080047F0DFF8F8040DF09AF80121DFF8F4040DF05B
S315080048002FF80121DFF8E4040DF02AF80121DFF87A
S31508004810DC040DF072F80028F8D0DFF8D4040DF0A7
S315080048206AF81FFA89F900A921F8190019F101098E
S31508004830CEE7BDF80000BDF802100818BDF8041050
S315080048400818032190FBF1F0DFF85C160880BDE834
S31508004850F78F0000A10C002000080140A50C0020DD
S315080048602DE9F04704000D001600DFF848060AF0A7
S31508004870A1FC012805D0DFF84006092101700020B7
S31508004880B1E10220FDF766FC01200AF006FA0A20CB
S315080048900CF018FD00200700FFB2052F04DA0020EF
S315080048A000F09AFA7F1CF7E743F6704000F094FA96
S315080048B045F2F97000F090FA43F61C4000F08CFAC5
S315080048C045F2FA7000F088FA4FF4705000F084FA56
S315080048D045F2FB7000F080FA43F6FC4000F07CFAE3
S315080048E045F2FC7000F078FA43F6074000F074FAD7
S315080048F045F2FD7000F070FA43F6014000F06CFADC
S3150800490045F2F87000F068FA002000F065FADFF862
S31508004910AC0500210170DFF88C05002101704FF409
S315080049201050804600200700FFB20B2F21DA4046C0
S3150800493080B200F0E5F9DFF870050088B6B2B0423B
S3150800494017D0DFF864050088B6B2B04205D24FF436
S315080049508060384150EA080804E04FF48060384126
S3150800496038EA00084FF40070384150EA08087F1CFE
S31508004970DAE718F1010080B200F0C2F9DFF828057D
S3150800498000888146404680B200F0BAF9DFF818057B
S31508004990008882461FFA89F9B6B2B9EB0600B6B2A4
S315080049A01FFA8AFAB6EB0A01884205DA18F10108F5
S315080049B0DFF8F404A0F80090DFF8EC040088ADB244
S315080049C085421BD3DFF8E0040088A4B2A04215D3C1
S315080049D01FFA88F84FF4807098FBF0F0DFF8DC14C3
S315080049E008701FFA88F84FF4807098FBF0F101FB05
S315080049F01081DFF8CC0401700120F4E0DFF8BC0474
S31508004A0000210170DFF89C04012101704FF4305039
S31508004A10804600200700FFB20B2F21DA404680B2FD
S31508004A2000F06EF9DFF880040088B6B2B04217D0FD
S31508004A30DFF874040088B6B2B04205D24FF480603D
S31508004A40384150EA080804E04FF48060384138EAF3
S31508004A5000084FF40070384150EA08087F1CDAE76E
S31508004A6018F1010080B200F04BF9DFF83C04008829
S31508004A708146404680B200F043F9DFF82C040088EE
S31508004A8082461FFA89F9B6B2B9EB0600B6B21FFA22
S31508004A908AFAB6EB0A01884205DA18F10108DFF846
S31508004AA00804A0F80090DFF800040088ADB285423B
S31508004AB01BD3DFF8F4030088A4B2A04215D31FFA6B
S31508004AC088F84FF4807098FBF0F0DFF8F013087060
S31508004AD01FFA88F84FF4807098FBF0F101FB1081FB
S31508004AE0DFF8DC03017001207DE0DFF8C4030088ED
S31508004AF043F2783188426FD1DFF8C0030021017094
S31508004B00DFF8A003022101704FF4E0508046002030
S31508004B100700FFB20B2F21DA404680B200F0F0F80A
S31508004B20DFF884030088B6B2B04217D0DFF87803FE
S31508004B300088B6B2B04205D24FF48060384150EAD8
S31508004B40080804E04FF48060384138EA00084FF45A
S31508004B500070384150EA08087F1CDAE718F10100AE
S31508004B6080B200F0CDF8D04800888146404680B231
S31508004B7000F0C6F8CC48008882461FFA89F9B6B212
S31508004B80B9EB0600B6B21FFA8AFAB6EB0A018842F2
S31508004B9004DA18F10108C448A0F80090C248008851
S31508004BA0ADB2854218D3C0480088A4B2A04213D338
S31508004BB01FFA88F84FF4807098FBF0F0BF49087028
S31508004BC01FFA88F84FF4807098FBF0F101FB10810A
S31508004BD0BB480170012006E0B848FF210170B848BB
S31508004BE0FF2101700020BDE8F0870000E201010006
S31508004BF02DE9F04104000D0016000121B14809F025
S31508004C0037FD0021002009F016FE09F08EFE05206A
S31508004C100AF043F80220FDF79DFA01200AF03DF854
S31508004C200A200CF04FFB002080465FFA88F8B8F19E
S31508004C30050F05DA002000F0CFF818F10108F4E7AF
S31508004C4043F6704000F0C8F845F2F97000F0C4F871
S31508004C5043F61C4000F0C0F845F2FA7000F0BCF8C4
S31508004C604FF4705000F0B8F845F2FB7000F0B4F855
S31508004C7043F6FC4000F0B0F845F2FC7000F0ACF8E2
S31508004C8043F6074000F0A8F845F2FD7000F0A4F8D6
S31508004C9043F6014000F0A0F845F2F87000F09CF8E1
S31508004CA0002000F099F8854800784FF48071844A0E
S31508004CB0127801FB00200700380080B200F020F8C7
S31508004CC079480088ADB2854206D377480088A4B2F1
S31508004CD0A04201D3012006E07848FF2101707848F8
S31508004CE0FF2101700020BDE8F081000000040040AB
S31508004CF000080040000C0140242101002521010084
S31508004D002DE9FC4104004FF47055A4B24FF48070AD
S31508004D1094FBF0F00600A4B24FF4807094FBF0F117
S31508004D2001FB10410F00FFB217F57050050028006F
S31508004D3080B200F051F845F2FB7000F04DF8F6B27B
S31508004D4016F570500500280080B200F045F845F2C7
S31508004D50FC7000F041F8002000F03EF8052009F04C
S31508004D609CFF002080461FFA88F8B8F1030F24DA62
S31508004D70002155480CF0BDFD002154480CF0B9FD42
S31508004D80012151480CF0D2FD012150480CF068FD74
S31508004D9001214D480CF064FD01214B480CF0ADFD96
S31508004DA00028F9D049480CF0A6FD1FFA88F800A992
S31508004DB021F8180018F10108D5E7BDF80000BDF87C
S31508004DC002100818BDF804100818032190FBF1F02A
S31508004DD035490880BDE8F381F8B5040000200500D0
S31508004DE0EDB2102D2BDAA4B254FA05F00600B6B2CD
S31508004DF0F00705D54FF48051354809F036FC04E034
S31508004E004FF48051324809F033FC4FF400613048C2
S31508004E1009F02BFC00200700FFB20C2F01DA7F1CDB
S31508004E20FAE74FF400612A4809F022FC002007003F
S31508004E30FFB20C2F01DA7F1CFAE76D1CD0E74FF49E
S31508004E400061234809F011FC00200700FFB20C2F6F
S31508004E5001DA7F1CFAE74FF400611D4809F008FCE7
S31508004E6000200700FFB20C2F01DA7F1CFAE74FF487
S31508004E700061174809F0F9FB00200700FFB20C2F64
S31508004E8001DA7F1CFAE74FF40061114809F0F0FBDC
S31508004E9000200700FFB20C2F01DA7F1CFAE7F1BDEC
S31508004EA0920C0020A30C0020880C0020A20C0020E5
S31508004EB0C001002023410100A50C0020A00C002001
S31508004EC0A10C002000080140000400400008004032
S31508004ED0001401402DE9FC4704000D00EDB215F061
S31508004EE03F00A4B2E1B211EB002082461FFA8AFA0B
S31508004EF05FEA1A200700504680465FFA88F818F5D8
S31508004F0030600600300080B2FFF766FF41F2FB50C2
S31508004F100600300080B2FFF75FFFFFB217F530607A
S31508004F200600300080B2FFF757FF41F2FC5006003A
S31508004F30300080B2FFF750FF0020FFF74DFF052035
S31508004F4009F0ABFE002081461FFA89F9B9F1030F73
S31508004F503EDA0021DFF880060CF0CBFC0021DFF8F2
S31508004F607C060CF0C6FC0121DFF86C060CF0DEFCB2
S31508004F700121DFF868060CF073FC0121DFF85806FA
S31508004F800CF06EFC0121DFF850060CF0B6FC002888
S31508004F90F8D0DFF848060CF0AEFC1FFA89F900A92C
S31508004FA021F81900DFF838060088DFF838161FFAE6
S31508004FB089F900AA32F8192021F81020DFF820060E
S31508004FC00088401CDFF81816088019F10109BBE7AC
S31508004FD0BDF80000BDF802100818BDF8041008183E
S31508004FE0032190FBF1F0DFF800160880BDE8F3878F
S31508004FF02DE9F84F04000D0016001F005FF0800B26
S31508005000DFF8E8054FF6FF710180DFF8E405FF21B8
S315080050100170002080465FFA88F8B8F1080F24DA94
S315080050202100C9B2584680B2FFF754FFDFF8B80529
S315080050300088ADB2A84218D0DFF8AC050088ADB23A
S31508005040A84205D2802050FA08F050EA0B0B04E07B
S31508005050802050FA08F03BEA000B402050FA08F08E
S3150800506050EA0B0B18F10108D5E72100C9B21BF16C
S31508005070010080B2FFF72EFFDFF86C050088814635
S315080050802100C9B2584680B2FFF724FFDFF8580559
S31508005090008882461FFA89F9ADB2B9EB0500ADB2B0
S315080050A01FFA8AFAB5EB0A01884205DA1BF1010BE9
S315080050B0DFF83405A0F80090DFF82C050088BFB2A9
S315080050C087420ED3DFF820050088B6B2B04208D36F
S315080050D0DFF81805A0F800B0DFF814050470012001
S315080050E000E00020BDE8F28F2DE9F84F04000D001E
S315080050F016004FF48051DFF8FC0409F0B9FADFF81E
S31508005100F8040AF057F801280DD1DFF8F004007802
S3150800511082461AF007008DF800000A200CF0D2F833
S315080051200020834605E0DFF8D80409210170002035
S3150800513044E15FFA8BFBBBF1050F05DA0020FFF7A8
S315080051404BFE1BF1010BF4E740F6EF30FFF744FE88
S3150800515041F2FA50FFF740FE0020FFF73DFE00201F
S31508005160FFF73AFE40F6FF30FFF736FE41F2FD50F4
S31508005170FFF732FE9DF8000000280DD10920804671
S315080051804FF41B60040040F6C410060040F6D81021
S3150800519005002020814658E09DF8000001280DD121
S315080051A0122080464FF49B60040040F2E24006005D
S315080051B040F2EC4005002020814646E09DF80000BC
S315080051C002280DD1182080464FF49B60040040F257
S315080051D0E240060040F2EC4005004020814634E0FB
S315080051E09DF8000003280DD12C2080464FF41B6043
S315080051F0040040F6C410060040F6D81005008020CA
S31508005200814622E09DF8000004280DD1162080462C
S315080052104FF49B60040040F2E240060040F2EC4086
S3150800522005008020814610E09DF8000005280CD175
S315080052301920804640F6CF00040040F6E300060039
S3150800524040F6F7000500C020814619F0E0095FFA2C
S3150800525089F919F530600700380080B2FFF7BCFD00
S3150800526041F2F9500700380080B2FFF7B5FD5AF051
S31508005270D80A5FFA8AFA1AF530600700380080B251
S31508005280FFF7AAFD41F2FF500700380080B2FFF78A
S31508005290A3FDDC4809F08EFF01283CD1D7480078E9
S315080052A08DF803009DF8030010F0100050F0EE0092
S315080052B08DF803009DF8030010F5306007003800EC
S315080052C080B2FFF789FD41F2FE500700380080B230
S315080052D0FFF782FD0020FFF77FFD0020FFF77CFD2A
S315080052E040F60130FFF778FD41F2F850FFF774FDFC
S315080052F00020FFF771FD0020FFF76EFD2B009BB223
S31508005300220092B2310089B24046C0B2FFF770FE61
S3150800531000280AD10BE0BA48092101704FF48051E0
S31508005320B44809F0A2F9002048E0012046E0002030
S3150800533083468DF802808DF801809DF802000228C8
S3150800534003DA9DF801003F282DDA1BF1010B9DF8C1
S315080053500200022811DBB8EB0B008DF802002B00C7
S315080053609BB2220092B2310089B29DF80200FFF783
S315080053703FFE002801D0012020E09DF801003F28CB
S31508005380DBDA1BEB08008DF801002B009BB222002C
S3150800539092B2310089B29DF80100FFF729FE002874
S315080053A0CBD001200AE091484FF6FF710180904862
S315080053B0FF2101709248032101700020BDE8F28F99
S315080053C02DE9F84F04000D0001218F4809F050F926
S315080053D00021002009F02FFA0A2009F05EFC0220BD
S315080053E000F0F2FE012009F058FC4FF48051814884
S315080053F009F03EF9804809F0DDFE01280BD17F4807
S315080054000078070017F0070083460A200BF05AFFBA
S315080054100020060005E0DFF8840D09210170002050
S31508005420D7E0F6B2052E04DA0020FFF7D5FC761C85
S31508005430F7E75FFA8BFBBBF1000F08D14FF41B604F
S31508005440040040F6D81005002020814644E05FFAA3
S315080054508BFBBBF1010F08D14FF49B60040040F2AF
S31508005460EC4005002020814636E05FFA8BFBBBF155
S31508005470020F08D14FF49B60040040F2EC4005008F
S315080054804020814628E05FFA8BFBBBF1030F08D169
S315080054904FF41B60040040F6D810050080208146B2
S315080054A01AE05FFA8BFBBBF1040F08D14FF49B603F
S315080054B0040040F2EC400500802081460CE05FFACB
S315080054C08BFBBBF1050F07D140F6CF00040040F671
S315080054D0F7000500C020814659F01F095FFA89F9CF
S315080054E019F530608246504680B2FFF775FC41F2E6
S315080054F0F9508246504680B2FFF76EFC57F0D8073F
