S0180000455A50726F3130305F4150505F7632302E7372656334
S31508000000900F0020E5EF00082DEB00082FEB000805
S3150800001031EB000833EB000835EB00080000000060
S3150800002000000000000000000000000037EB000898
S3150800003039EB0008000000003BEB00083DEB000828
S3150800004099F000089DF00008A1F00008A5F0000846
S31508000050A9F00008ADF00008B1F00008B5F00008F6
S31508000060B9F00008BDF00008C1F00008C5F00008A6
S31508000070C9F00008CDF00008D1F00008D5F0000856
S31508000080D9F00008DDF00008E1F00008E5F0000806
S315080000903FEB0008EDF00008F1F00008F5F0000865
S315080000A0F9F00008FDF0000801F1000805F1000864
S315080000B009F100080DF1000811F1000815F1000812
S315080000C019F100081DF1000821F1000825F10008C2
S315080000D029F100082DF1000831F1000835F1000872
S315080000E039F100083DF1000841F1000845F1000822
S315080000F049F100084DF1000851F1000855F10008D2
S3150800010059F100085DF1000861F1000865F1000881
S3150800011069F100086DF1000871F1000875F1000831
S3150800012079F100087DF1000881F1000885F10008E1
S3150800013080B51048008846F26001884205D103F070
S31508000140AFFD002801D0012012E00A48008848F2D5
S315080001503211884205D104F026F8002807D001207C
S3150800016006E000F009F8002801D0012000E0002090
S3150800017002BD00006C0100202DE9F04F87B0002475
S315080001800020ADF8040000208DF800005FF000089C
S315080001905FF0000900208DF80100DFF8400D90F8A7
S315080001A02200012840F09680DFF8300D008843F2DF
S315080001B09431884206D0DFF8240D008843F278315E
S315080001C088420DD1DFF8140D428ADFF8100DC18977
S315080001D0DFF8080D008A02F042FF8DF800006EE095
S315080001E0DFF8F80C008849F2290188420DD1DFF8BA
S315080001F0EC0C428ADFF8E40CC189DFF8E00C008ACF
S3150800020002F064FA8DF8000059E0DFF8D00C008897
S3150800021043F21111884206D0DFF8C00C008843F279
S31508000220163188420DD1DFF8B40C428ADFF8AC0CDF
S31508000230C189DFF8A80C008A02F02AFC8DF80000B4
S315080002403DE0DFF8980C008843F28101884206D029
S31508000250DFF8880C008843F2014188420DD1DFF8A7
S315080002607C0C428ADFF8740CC189DFF8700C008AAE
S3150800027001F0C6FE8DF8000021E0DFF8600C00886A
S3150800028046F2600188420DD1DFF8500C428ADFF849
S315080002904C0CC189DFF8440C008A03F04BFB8DF83F
S315080002A000000CE0DFF8340C428ADFF8300CC18914
S315080002B0DFF8280C008A01F0BFFC8DF800009DF8D5
S315080002C00000002806D1DFF8FC0C0321017000208D
S315080002D001F042B90121DFF8F00C04F065F80021BD
S315080002E0002004F048F904F0CDF9052004F052FB8B
S315080002F0DFF8E80B008843F29431884229D0DFF80A
S31508000300DC0B008843F27831884222D0DFF8CC0B28
S31508000310008849F2290188421BD0DFF8C00B008803
S3150800032043F21111884214D0DFF8B00B008843F26B
S31508000330014188420DD0DFF8A40B008843F216313C
S31508000340884206D0DFF8940B008845F28811884267
S3150800035003D1022001F008F913E0DFF8800B0088CA
S3150800036043F26421884209D1DFF8700B90F828001F
S31508000370022803D1022001F0F7F802E0012001F07B
S31508000380F3F8012004F006FB4FF40051DFF83C0CAB
S3150800039004F00AF84FF40071DFF82C0C04F001F8A9
S315080003A00A2004F0F7FA4FF6FF7001F0FDFB8246CB
S315080003B0DFF8280B00881FFA8AFA824506D0DFF88C
S315080003C0040C04210170002001F0C6B8DFF80C0BFC
S315080003D0008843F2783188421AD148F2080001F0C1
S315080003E0E3FB82461FFA8AFA43F27430824507D144
S315080003F0DFF8E80A407B74280AD0002001F0ACB880
S31508000400DFF8D80A407B742802D1002001F0A4B88E
S31508000410DFF8C80A90F82800022840F0C1800020BA
S3150800042004004FF6FF708246601C0400C0B206281E
S3150800043024DA514689B2DFF8A40A008901F058FB8C
S31508000440DFF8980A008901F0AFFB0500ADB21FFA84
S315080004508AFA554502D1002004000FE0E4B2042CC4
S31508000460E2D1DFF8780A0089DFF8A01D0880DFF8F6
S31508000470540B0A210170002001F06EB8601C0400BC
S31508000480C0B2062828DA514689B2DFF8500A008930
S31508000490401C80B201F02CFBDFF8400A0089401CA2
S315080004A080B201F081FB0500ADB21FFA8AFA554504
S315080004B002D1002004000FE0E4B2042CDED1DFF8FC
S315080004C01C0A0089DFF8441D0880DFF8F80A0A21AB
S315080004D00170002001F040B8601C0400C0B2062874
S315080004E028DA514689B2DFF8F4090089801C80B2FF
S315080004F001F0FEFADFF8E4090089801C80B201F0F9
S3150800050053FB0500ADB21FFA8AFA554502D1002001
S3150800051004000FE0E4B2042CDED1DFF8C00900893C
S31508000520DFF8E81C0880DFF89C0A0A210170002021
S3150800053001F012B80121DFF8900A03F035FF002117
S31508000540002004F018F804F09DF80A2004F022FAB6
S31508000550022001F009F8012004F01CFA4FF40051BA
S31508000560DFF8680A03F020FF4FF40071DFF8580A35
S3150800057003F017FF0A2004F00DFA4FF6FF7001F09A
S3150800058013FB8246DFF8540900881FFA8AFA824567
S3150800059006D0DFF8300A04210170002000F0DCBF25
S315080005A0DFF83809008843F2163188426ED10020F8
S315080005B00400DFF8E40D8346584604F06BFC012876
S315080005C006D1DFF8D80D00780600F6B2B24602E08A
S315080005D0002000F0C1BF601C0400C0B2062821DA62
S315080005E0514689B24FF4004001F082FA4FF40040B8
S315080005F001F0DAFA0500ADB21FFA8AFA554502D1BA
S31508000600002004000EE0E4B2042CE4D1DFF8FC0B71
S315080006104FF400410180DFF8AC090A21017000207F
S3150800062000F09ABF0121DFF8A00903F0BDFE002102
S31508000630002003F0A0FF0A2004F0ACF9022000F025
S3150800064093FF012004F0A6F94FF40051DFF87C0966
S3150800065003F0AAFE4FF40071DFF86C0903F0A1FE5F
S315080006600A2004F097F94FF6FF7001F09DFA8246CA
S31508000670DFF8680800881FFA8AFA824506D0DFF88C
S31508000680440904210170002000F066BFDFF84C0819
S3150800069090F827000F21084200F0EC8200208146DE
S315080006A04FF48051DFF8700D03F07EFEDFF82C085A
S315080006B0808800F57F40FF3004F0B9FCDFF8DC0CD9
S315080006C000788246DFF8540D40788DF80100DFF88F
S315080006D04C0D8078DFF8441DC97811EB0020ADF881
S315080006E01400DFF8380D0079DFF8301D497911EB71
S315080006F00020ADF80A00DFF8240D8079DFF81C1D0C
S31508000700C97911EB0020ADF80800DFF8100D007A62
S31508000710DFF8081D497A11EB0020ADF80600DFF86E
S31508000720FC0C807ADFF8F41CC97A090411EB006026
S31508000730DFF8E81C097B10EB0120DFF8E01C497B99
S3150800074008180490DFF8D40CC07BDFF8D01C097CAD
S31508000750090411EB0060DFF8C41C497C10EB01208A
S31508000760DFF8B81C897C08188346DFF8B00CC07E11
S31508000770DFF8A81C097F090411EB0060DFF89C1C50
S31508000780497F10EB0120DFF8941C897F0818039035
S3150800079003980499884217D2DFF8800CDFF87C1C8E
S315080007A0C97D8172DFF8740CDFF8701C097EC1728E
S315080007B0DFF8680CDFF8641C497E0173DFF85C0C0F
S315080007C0DFF8581C897E4173DFF8500C00780A2838
S315080007D00BD1DFF88C0D0068584506D3DFF8E4071F
S315080007E00E210170002000F0B7BE002001F0DCF9F0
S315080007F00500DFF8E8068088DFF8101A0880DFF8B9
S31508000800DC06C088DFF8041A09888842C0F01E8111
S3150800081004F0BFFADFF8840B00780600F6B216EB90
S31508000820090904F0B6FADFF8740B00780700FFB27E
S3150800083017EB0909FFB24FF48070F6B200FB0760A8
S315080008408246DFF8C8090088022190FBF1F0ADF86E
S315080008500200DFF8B8090088801CDFF8B0190880A4
S31508000860DFF8B80B00780A284AD1BDF80200BDF8AF
S315080008701410884209D1FFB24FF48070DFF89C1B30
S31508000880497B00FB071082463AE0BDF80200BDF836
S315080008900A1088420DD19DF80100022809DBFFB233
S315080008A04FF48070DFF8741B097B00FB0710824643
S315080008B026E0BDF80200BDF8081088420DD19DF863
S315080008C00100032809DBFFB24FF48070DFF84C1BE8
S315080008D0C97A00FB0710824612E0BDF80200BDF88F
S315080008E0061088420CD19DF80100042808DBFFB2E7
S315080008F04FF48070DFF8241B897A00FB07108246C4
S31508000900DFF8980A80F800A000200400601C0400A4
S31508000910C0B2062861DA00208046DFF8C0050088E4
S3150800092043F2111188420BD11FFA8AFA4FF6FF706B
S31508000930824505D15FEACA4A5FEADA4A012080465B
S31508000940DFF89805008843F2014188420AD11FFA68
S315080009508AFA4FF6FF70824504D141F6FF70824647
S3150800096001208046DFF87405008843F28101884239
S315080009700AD11FFA8AFA4FF6FF70824504D143F668
S31508000980FF708246012080461FFA8AFA4FF6FF70EA
S31508000990824508D05FFA88F8B8F1000F03D15046AF
S315080009A080B200F0C7FF00F07DFF0500ADB21FFA68
S315080009B08AFA554502D1002004000EE0E4B2042C60
S315080009C0A4D1DFF8000608210170DFF84008BDF859
S315080009D002100180002000F0BFBDDFF83008008853
S315080009E0DFF8F814C9888842BFF409AF142004F068
S315080009F0EEFEDFF8E804008843F2014188420ED093
S31508000A00DFF8D804008843F28101884207D0DFF86E
S31508000A10CC04008843F2163188427FF4F0AE1220E7
S31508000A2000F0E9FEADF80200BDF80200DFF8DC17B9
S31508000A300988022291FBF2F188423FF4E0AEDFF822
S31508000A40840510210170002000F086BD4FF4805106
S31508000A50DFF8C40903F0A5FCDFF88004008849F232
S31508000A602901884240F006814FF48051DFF8A80931
S31508000A7003F09AFCDFF8EC0A04F0D9FAF22001F048
S31508000A8093F80500DFF884074FF4F2710180DFF868
S31508000A907C070088B0F5007F60DA04F07AF9DFF8A1
S31508000AA0FC0800780600F6B216EB090904F071F99D
S31508000AB0DFF8E80800780700FFB217EB0909FFB26C
S31508000AC04FF48070F6B200FB07608246DFF83C07F9
S31508000AD00088022190FBF1F0ADF80200DFF82C0740
S31508000AE00088801CDFF824170880DFF8B00880F833
S31508000AF000A000200400601C0400C0B2062823DA07
S31508000B001FFA8AFA4FF6FF70824503D0504680B224
S31508000B1000F010FF00F0C6FE0500ADB21FFA8AFA13
S31508000B20554502D1002004000EE0E4B2042CE2D1BF
S31508000B30DFF8900408210170DFF8D006BDF802102E
S31508000B400180002000F008BDDFF8C0060088B0F577
S31508000B50FF7F9CDC142004F03AFE98E74FF480519E
S31508000B60DFF8B40803F01DFCDFF8300D0078824684
S31508000B70DFF86803008901F017F80500ADB2FF2D0C
S31508000B8027D1601C0400C0B2062822DA514689B271
S31508000B90DFF84803008900F0ABFFD048008901F070
S31508000BA003F80500ADB21FFA8AFA554502D10020AE
S31508000BB004000EE0E4B2042CE3D1C8480089DFF84B
S31508000BC04C160880DFF8FC030A210170002000F0AB
S31508000BD0C3BCDFF8CC0C8346584604F05BF9012801
S31508000BE015D1DFF8B807007882461AF0800ADFF8D0
S31508000BF0380D007850EA0A0AB8480089401C80B2C5
S31508000C0000F0D2FF0500ADB2FF2D33D106E0DFF8C4
S31508000C10B40309210170002000F09EBC601C04008A
S31508000C20C0B2062826DA514689B2AC480089401C6B
S31508000C3080B200F05DFFA9480089401C80B200F030
S31508000C40B3FF0500ADB21FFA8AFA554502D1002056
S31508000C5004000FE0E4B2042CE0D1A0480089401C4F
S31508000C60DFF8A8150880DFF85C030A210170002068
S31508000C7000F072BC994890F82700F021084200F06D
S31508000C8061849648008843F2212188421DD0934802
S31508000C90008843F26421884217D09048008843F2BE
S31508000CA01111884211D08D48008843F2810188428B
S31508000CB00BD08A48008843F20141884205D087480C
S31508000CC0008845F28811884203D1DFF8600C834614
S31508000CD002E0DFF85C0C83468048008845F28811FC
S31508000CE0884240F03581584604F0D4F801280CD1E2
S31508000CF0DFF8A80600780600F6B2B6F580708246D8
S31508000D0076484FF40041018102E0002000F024BC3F
S31508000D10601C0400C0B2062820DA514689B26F4822
S31508000D20008900F0E5FE6D48008900F03DFF0500EA
S31508000D30ADB21FFA8AFA554502D1002004000DE02B
S31508000D40E4B2042CE4D165480089DFF8C0140880B1
S31508000D509C480A210170002000F0FEBB1BF101002F
S31508000D6004F098F8012808D1DFF830060078060064
S31508000D70F6B2B6F58070824601E00020ECE3601C0E
S31508000D800400C0B2062824DA514689B253480089BD
S31508000D90401C80B200F0ACFE50480089401C80B26E
S31508000DA000F002FF0500ADB21FFA8AFA554502D1D6
S31508000DB0002004000DE0E4B2042CE0D14748008985
S31508000DC0401CDFF8481408807E480A21017000207C
S31508000DD0C2E31BF1020004F05DF8012808D1DFF830
S31508000DE0BC0500780600F6B2B6F58070824601E0CA
S31508000DF00020B1E3601C0400C0B2062824DA51467C
S31508000E0089B236480089801C80B200F071FE3348EA
S31508000E100089801C80B200F0C7FE0500ADB21FFA3B
S31508000E208AFA554502D1002004000DE0E4B2042CEC
S31508000E30E0D12A480089801CDFF8D0130880614871
S31508000E400A210170002087E31BF1030004F022F851
S31508000E50012808D1DFF8440500780600F6B2B6F591
S31508000E608070824601E0002076E3601C0400C0B270
S31508000E70062823DA514689B218480089C01C80B270
S31508000E8000F036FE15480089C01C80B200F08CFEC2
S31508000E900500ADB21FFA8AFA554502D100200400B2
S31508000EA00CE0E4B2042CE0D10C480089C01CD749F8
S31508000EB0088044480A21017000204DE31BF1040014
S31508000EC003F0E8FF01280BD1DFF8D004007806000C
S31508000ED0F6B2B6F58070824604E000BF6C010020C9
S31508000EE0002039E3601C0400C0B2062826DA514601
S31508000EF089B2DFF8340D0089001D80B200F0F8FDD4
S31508000F00DFF8240D0089001D80B200F04DFE0500B3
S31508000F10ADB21FFA8AFA554502D1002004000DE049
S31508000F20E4B2042CDED1DFF8000D0089001DB749B4
S31508000F30088024480A21017000200DE30121224877
S31508000F4003F032FA0021002003F015FB012003E329
S31508000F50DFF8D40C008843F21631884202D1DFF854
S31508000F60CC0C8346584603F095FF01280AD1DFF8D2
S31508000F702C04007806001BF1010003F08BFF012802
S31508000F800ED101E00020E7E2DFF810040078070040
S31508000F90DFF8940C008843F2111188421AD104E054
S31508000FA00848092101700020D6E217F0F00757F02B
S31508000FB00207DFF87C0C0078002809D116F07F06B6
S31508000FC008E000BF830B0020000801400010014024
S31508000FD056F08006FFB24FF48070F6B200FB076049
S31508000FE08246601C0400C0B2062822DA514689B23D
S31508000FF0DFF8340C008900F07BFDDFF82C0C008943
S3150800100000F0D2FD0500ADB21FFA8AFA554502D1A5
S31508001010002004000DE0E4B2042CE2D1DFF8080C4D
S3150800102000897A490880DFF80C0C0A210170002033
S3150800103092E2DFF8F40B807A0228C0F25D82DFF8CC
S31508001040E80B90F8220002284BD1DFF8DC0B808CE5
S3150800105000F0AAFD0500ADB24FF4807095FBF0F0E4
S31508001060DFF8C4180870ADB24FF4807095FBF0F144
S3150800107001FB1051DFF824080170DFF8AC0800788E
S31508001080FF2804D0DFF8A0080078002829D1DFF867
S31508001090980B808C801E80B200F086FD0500ADB2EC
S315080010A04FF4807095FBF0F0DFF87C180870ADB24D
S315080010B04FF4807095FBF0F101FB1051DFF8DC0767
S315080010C00170DFF864080078FF2804D0DFF85808B4
S315080010D00078002805D1DFF85C0B0C210170002090
S315080010E03AE2DFF8440B008843F2810188421BD1BB
S315080010F01BF1060003F0CEFE01280FD1A7480078A1
S315080011008046DFF8240B00895FFA88F818EB0000A0
S3150800111080B200F049FDADF804000EE0DFF8140BCC
S3150800112009210170002017E2DFF8FC0A0089401C3B
S3150800113080B200F039FDADF80400DFF8EC0A00884B
S3150800114043F21111884206D0DFF8DC0A008843F220
S315080011500141884203D141F6FF7082460DE0DFF86F
S31508001160C80A008843F28101884203D143F6FF701A
S31508001170824602E04FF6FF708246BDF804001FFA69
S315080011808AFA504544D1DFF8A00A008843F2810163
S3150800119088423DD0DFF8900700780700DFF8FC06A4
S315080011A000780600DFF8800A008843F20141884289
S315080011B003D1DFF8740700780600DFF86C0A0088A8
S315080011C043F2212188420ED1DFF85C0A808C00F0B8
S315080011D0EBFC82461FFA8AFA5FEA1A200700DFF854
S315080011E0BC0600780600DFF8400A008843F216318C
S315080011F0884236D1DFF8F80C007810F0F8000700BE
S31508001200DFF82407007807432BE000BF6E0B0020A9
S31508001210DFF8140A008843F28101884219D1BDF823
S3150800122004001FFA8AFA504513D1DFF8FC06007845
S3150800123006001BF1030003F02DFE012803D15748D1
S31508001240007807000DE0DFF8EC090921017000209D
S3150800125082E1BDF804000600BDF8040080B2000A69
S315080012600700FFB24FF48070F6B200FB07608246B3
S31508001270DFF8B409008843F21111884218D11BF12E
S31508001280030003F007FE01280CD144480078070044
S3150800129017F01807FFB24FF4807000FB07F050EA0A
S315080012A00A0A2CE0DFF88C0909210170002053E1B5
S315080012B0DFF87409008843F26421884206D0DFF813
S315080012C06809008843F20141884218D11BF10300DE
S315080012D003F0E0FD01280CD13048007807005FFADA
S315080012E08AFAFFB24FF4807000FB07F050EA0A0A48
S315080012F005E0DFF840090921017000202CE1601C97
S315080013000400C0B206284BDADFF81C09008843F24D
S315080013108101884217D1514689B2DFF80C09008944
S315080013205FFA88F818EB000080B200F0E1FBDFF8FE
S31508001330F80800895FFA88F818EB000080B200F018
S3150800134033FC050010E0514689B2DFF8DC08008955
S31508001350401C80B200F0CCFBDFF8CC080089401CAA
S3150800136080B200F021FC0500ADB21FFA8AFA554595
S3150800137002D10020040013E0E4B2042CBFD1DFF848
S31508001380B4080A210170DFF8A0080089401CDFF8BC
S31508001390581C08800020DFE020810100870B002010
S315080013A0DFF88408008843F27831884223D0DFF8D2
S315080013B07808008843F2943188421CD0DFF8680820
S315080013C0008843F26421884215D0DFF85C0800885B
S315080013D043F2014188420ED0DFF84C08008843F2F8
S315080013E08101884207D0DFF84008008843F21631A9
S315080013F0884240F081801BF1040003F04BFD012870
S315080014000ED1DFF8E80B007806001BF1050003F0A3
S3150800141041FD012816D109E0000C0140080B002007
S31508001420DFF8100809210170002095E0DFF8BC0BF1
S3150800143000780700DFF8F007008843F28101884248
S3150800144002D108E0002087E0DFF8DC07008843F2D5
S315080014500141884203D1DFF8440400780600FFB250
S315080014604FF48070F6B200FB07608246DFF8B807D3
S31508001470008843F28101884219D1514689B2DFF8C2
S31508001480A80700895FFA88F818EB0000401C80B2AC
S3150800149000F02EFBDFF8900700895FFA88F818EB52
S315080014A00000401C80B200F07FFB050010E05146AA
S315080014B089B2DFF874070089801C80B200F018FB37
S315080014C0DFF864070089801C80B200F06DFB050018
S315080014D0ADB21FFA8AFA55450ED000200400DFF88F
S315080014E048070089801CDFF8001B0880DFF84407DE
S315080014F00A21017000202FE0601C0400C0B20328F6
S315080015001EDADFF82407008843F28101884217D0E3
S31508001510DFF81407008843F20141884210D0DFF84B
S315080015200807008843F21631884209D0494689B22D
S31508001530DFF8F40600890F3080B200F0D9FADBE74D
S31508001540002004000121DFF8A80A02F02DFF00217F
S31508001550002003F010F8012007B0BDE8F08F000066
S31508001560440B0020E301010038B5040000210020E7
S3150800157003F001F8642003F00DFA4FF40061DFF878
S31508001580740A02F011FF4FF48051DFF8680A02F07E
S315080015900BFFE4B2012C13D14FF40041DFF8580ACF
S315080015A002F0FFFE00200500EDB20C2D01DA6D1CDD
S315080015B0FAE74FF48041DFF8400A02F0F2FE0AE04B
S315080015C00121DFF82C0A02F0ECFE4FF48041DFF827
S315080015D0280A02F0E9FE00200500EDB20C2D01DA1A
S315080015E06D1CFAE74FF40051DFF8100A02F0DCFE32
S315080015F04FF40071DFF8F80902F0D3FE052003F076
S31508001600B8F94FF48051DFF8EC0902F0CAFE002061
S315080016100500EDB20C2D01DA6D1CFAE74FF4805186
S31508001620DFF8D00902F0C0FE00200500EDB20C2D4F
S3150800163001DA6D1CFAE74FF48051DFF8B80902F0B9
S31508001640B0FE00200500EDB20C2D01DA6D1CFAE79C
S315080016504FF48051DFF89C0902F0A6FE0020050031
S31508001660EDB20C2D01DA6D1CFAE74FF48051DFF864
S31508001670840902F096FE00200500EDB20C2D01DA71
S315080016806D1CFAE74FF48051DFF8680902F08CFE0A
S3150800169000200500EDB20C2D01DA6D1CFAE74FF4B7
S315080016A08051DFF8500902F07CFE00200500EDB2FB
S315080016B00C2D01DA6D1CFAE74FF48051DFF8340976
S315080016C002F072FE00200500EDB20C2D01DA6D1C49
S315080016D0FAE74FF40071DFF8180902F065FE4FF4D7
S315080016E00051DFF8180902F05CFE052003F041F905
S315080016F04FF48051DFF8FC0802F053FE0020050085
S31508001700EDB20C2D01DA6D1CFAE74FF48051DFF8C3
S31508001710E40802F049FE00200500EDB20C2D01DABE
S315080017206D1CFAE74FF40051DFF8D00802F03CFED2
S315080017304FF40071DFF8B80802F033FE052003F015
S3150800174018F94FF48051DFF8AC0802F02AFE0020A1
S315080017500500EDB20C2D01DA6D1CFAE74FF4805145
S31508001760DFF8900802F020FE00200500EDB20C2DEF
S3150800177001DA6D1CFAE74FF48051DFF8780802F0B9
S3150800178010FE00200500EDB20C2D01DA6D1CFAE7FB
S315080017904FF48051DFF85C0802F006FE00200500D1
S315080017A0EDB20C2D01DA6D1CFAE74FF40071DFF883
S315080017B0400802F0F9FD4FF40051DFF8400802F046
S315080017C0F0FD052003F0D5F84FF48051DFF8240822
S315080017D002F0E7FD00200500EDB20C2D01DA6D1CC4
S315080017E0FAE74FF48051DFF80C0802F0DDFD01201E
S315080017F003F0D0F831BD2DE9F0410400E4B2200031
S3150800180080B203F0E4FF002080465FFA88F8B8F15A
S315080018100C0F02DA18F10108F7E7002080465FFA94
S3150800182088F8B8F10C0F02DA18F10108F7E700207A
S31508001830070000200500EDB2102D2BDA4FF40061E9
S31508001840DFF8B00702F0ADFD002080465FFA88F8A1
S31508001850B8F10C0F02DA18F10108F7E71021DFF8E2
S31508001860980702F08EFD0600B6B216FA05F0074391
S315080018704FF40061DFF87C0702F096FD00208046F1
S315080018805FFA88F8B8F10C0F02DA18F10108F7E7E1
S315080018906D1CD0E7380080B2BDE8F0817F0B0020D0
S315080018A0E2010100F8B5172003F091FF00200700B8
S315080018B0FFB20C2F01DA7F1CFAE700200700FFB2FF
S315080018C00C2F01DA7F1CFAE700200600002004002E
S315080018D0E4B2102C25DA4FF40061DFF8180702F09D
S315080018E060FD00200700FFB20C2F01DA7F1CFAE723
S315080018F01021DFF8040702F044FD0500ADB215FA21
S3150800190004F006434FF40061DFF8E80602F04CFDE8
S3150800191000200700FFB20C2F01DA7F1CFAE7641CCF
S31508001920D6E7300080B2F2BD7E0B002020210100F0
S31508001930204101002DE9F0410400162003F047FF7D
S31508001940002080465FFA88F8B8F10C0F02DA18F121
S315080019500108F7E7002080465FFA88F8B8F10C0F0F
S3150800196002DA18F10108F7E700200500EDB2102D9C
S3150800197035DAA4B254FA05F00600B6B2F00706D571
S315080019804FF48051DFF86C0602F00BFD05E04FF4CA
S315080019908051DFF8600602F007FD4FF40061DFF8BA
S315080019A0540602F0FEFC002080465FFA88F8B8F17B
S315080019B00C0F02DA18F10108F7E74FF40061DFF8B7
S315080019C0340602F0F1FC002080465FFA88F8B8F188
S315080019D00C0F02DA18F10108F7E76D1CC6E7924802
S315080019E0008843F2014188420BD08F48008843F2B1
S315080019F08101884205D08C48008843F21631884216
S31508001A0007D11320FFF7F7FE0600B6B2A4B2A64226
S31508001A106CD1192003F0DBFE00200500EDB2082D7D
S31508001A2021DA002080465FFA88F8B8F10C0F02DA4E
S31508001A3018F10108F7E74FF40061DFF8B80502F07E
S31508001A40B0FC002080465FFA88F8B8F10C0F02DA7D
S31508001A5018F10108F7E74FF40061DFF8980502F07E
S31508001A60A3FC6D1CDAE7704890F8280002280AD112
S31508001A70002007001021DFF8800502F082FC00280C
S31508001A800DD07F1CF6E76848808A02F072FF664828
S31508001A90808A02F06EFF6448808A02F06AFF00209E
S31508001AA00500EDB2082D21DA002080465FFA88F895
S31508001AB0B8F10C0F02DA18F10108F7E74FF40061E4
S31508001AC0DFF8300502F06DFC002080465FFA88F8E2
S31508001AD0B8F10C0F02DA18F10108F7E74FF40061C4
S31508001AE0DFF8100502F060FC6D1CDAE7BDE8F0814E
S31508001AF02DE9F04104000D00152003F068FE0020D2
S31508001B0080465FFA88F8B8F10C0F02DA18F1010876
S31508001B10F7E7002080465FFA88F8B8F10C0F02DA7A
S31508001B2018F10108F7E700200600F6B2102E35DA9C
S31508001B30A4B254FA06F00700BFB2F80706D54FF468
S31508001B408051DFF8B00402F02CFC05E04FF4805118
S31508001B50DFF8A00402F028FC4FF40061DFF89404D3
S31508001B6002F01FFC002080465FFA88F8B8F10C0FD7
S31508001B7002DA18F10108F7E74FF40061DFF8740498
S31508001B8002F012FC002080465FFA88F8B8F10C0FC4
S31508001B9002DA18F10108F7E7761CC6E7280080B2D2
S31508001BA0FFF7C8FEBDE8F081F8B50400152003F07C
S31508001BB00EFE00200500EDB2102D2FDAA4B254FA5D
S31508001BC005F00600B6B2F00706D54FF48051DFF8E7
S31508001BD0240402F0E6FB05E04FF48051DFF8140414
S31508001BE002F0E2FB4FF40061DFF8080402F0D9FBCB
S31508001BF000200700FFB20C2F01DA7F1CFAE74FF42A
S31508001C000061DFF8F00302F0CFFB00200700FFB207
S31508001C100C2F01DA7F1CFAE76D1CCCE7FFF742FEB2
S31508001C200600300080B2F2BD6C010020248101005C
S31508001C30810B0020830B00202DE9F84F04000D00CE
S31508001C4016005FF080090220FFF78EFC012002F0E3
S31508001C50A1FE0A2003F0BBFD00200700FFB2052FF6
S31508001C6004DA002001F0A8FB7F1CF7E743F674406E
S31508001C7001F0A2FB45F2F97001F09EFB4FF470509B
S31508001C8001F09AFB45F2FA7001F096FBDFF8DC0CDE
S31508001C90C08A42F62101884240F09E80DFF8D00CC7
S31508001CA003F0F8F8012828D1D0480078804643F692
S31508001CB0FF4001F081FB45F2FB7001F07DFB5FFA06
S31508001CC088F818F5705080B201F076FB45F2FC7082
S31508001CD001F072FB43F6014001F06EFB45F2F87025
S31508001CE001F06AFB002001F067FB0A2002F052FEB1
S31508001CF0102080460020070005E0DFF8600D092166
S31508001D0001700020F2E0FFB2042F53DA5FFA88F878
S31508001D1018F5705080B201F04FFB45F2FC7001F0E7
S31508001D204BFBFF2000F0E6F8DFF8340D008882460A
S31508001D30002000F0DFF8DFF8280D008883465FFAF8
S31508001D4088F8B8F11E0F04D05FFA88F8B8F1020FC8
S31508001D5015D11FFA8AFA40F63E00824505DB1FFABE
S31508001D608BFB40F63D00834524DB5FFA88F8B8F123
S31508001D70020F02D10420804601E00020B6E01FFAD7
S31508001D808AFA40F63E0082450ADB1FFA8BFB40F6CC
S31508001D903D00834504DA1020384138EA000803E09C
S31508001DA01020384150EA08080820384150EA080847
S31508001DB07F1CA8E75FFA88F8B8F1040F01D018F17C
S31508001DC001085FFA88F818F5705080B201F0F4FA45
S31508001DD045F2FC7001F0F0FA43F6014001F0ECFA26
S31508001DE045F2F87001F0E8FA002001F0E5FA0A2059
S31508001DF002F0D0FD80208146DFF8680C00210170D2
S31508001E0000200700FFB2082F1EDA4846C0B200F0CD
S31508001E1071F8DFF84C0C0088B6B2B04214D0DFF87F
S31508001E20400C0088B6B2B04204D28020384150EA4D
S31508001E30090903E08020384139EA00094020384181
S31508001E4050EA09097F1CDDE719F10100C0B200F06C
S31508001E5051F8DFF80C0C008882464846C0B200F0FC
S31508001E6049F8DFF8FC0B008883461FFA8AFAB6B2EF
S31508001E70BAEB0600B6B21FFA8BFBB6EB0B0188422B
S31508001E8005DA19F10109DFF8D80BA0F800A0DFF888
S31508001E90D00B0088ADB285421BD3DFF8C40B00888F
S31508001EA0A4B2A04215D3DFF8C40AC08A42F62101BB
S31508001EB0884204D1DFF8AC0B80F8008003E0DFF835
S31508001EC0A40BFF210170DFF8A00B80F80090012019
S31508001ED00CE0DFF8900BFF210170DFF88C0BFF2177
S31508001EE00170DFF8780B032101700020BDE8F28F3E
S31508001EF0800B00207CB504004FF47055DFF86C0A9F
S31508001F00008843F2810188420CD1E4B214F53060AE
S31508001F100500280080B201F04FFA41F2FB5001F0AB
S31508001F204BFA1CE0DFF8440A008843F20141884274
S31508001F300BD1E4B214F580600500280080B201F0E8
S31508001F403BFABB2001F038FA09E0E4B2651928002B
S31508001F5080B201F031FA45F2FB7001F02DFA00204B
S31508001F6001F02AFA052002F015FD00200600B6B297
S31508001F70032E29DA0021DFF8F40A04F0FEF800211E
S31508001F80DFF8EC0A04F0F9F80121DFF8E00A04F0BA
S31508001F9011F90121DFF8D80A04F0A6F80121DFF8C3
S31508001FA0CC0A04F0A1F80121DFF8C00A04F0E9F828
S31508001FB00028F8D0DFF8B80A04F0E1F8B6B200A9AC
S31508001FC021F81600761CD2E7BDF80000BDF802100D
S31508001FD00818BDF804100818032190FBF1F0DFF883
S31508001FE0801A088073BD00006E0B0020870B002046
S31508001FF0000801400014014000180140001001408B
S315080020002DE9F14F0C0015005FF080090220FFF75B
S31508002010ABFA012002F0BEFC4FF6FF70FFF7C4FDD5
S3150800202083460A2003F0D3FBDFF84009008843F211
S31508002030014188420BD14FF40051DFF8380A02F00B
S31508002040B3F94FF40071DFF8300A02F0AAF901205B
S3150800205002F0A0FC00200600F6B20A2E04DA0020E0
S3150800206001F0AAF9761CF7E7DFF80009008843F2C1
S315080020700141884240F0878040F2054001F09CF912
S31508002080BA2001F099F9DFF8F40902F003FF0128F4
S3150800209021D1DFF8EC0900780700FFB217F5806058
S315080020A080B201F089F9B92001F086F940F20F40B3
S315080020B001F082F9BC2001F07FF94FF4906001F03D
S315080020C07BF9BB2001F078F9DFF8B80902F0E2FEE7
S315080020D0012811D105E0DFF88409092101700020E3
S315080020E0F2E2DFF89C0900780700DFF89C0902F0A5
S315080020F0D1FE012827D105E0DFF860090921017022
S315080021000020E1E2DFF8780900788046DFF8580910
S3150800211007705FFA88F818F5806080B201F04CF90C
S31508002120BE2001F049F9FFB217F5806080B201F0D0
S3150800213043F9BD2001F040F9DFF8500902F0AAFE84
S3150800214001281AD101E00020BEE2DFF83409007840
S315080021500700FFB217F5806080B201F02DF9312033
S3150800216001F02AF940F2014001F026F9B82001F001
S3150800217023F9002001F020F98EE0DFF8E0080921B4
S3150800218001700020A0E2DFF8F40802F083FE0128BF
S315080021902CD1DFF8EC0800780700FFB217F530609D
S315080021A080B201F009F941F2F95001F005F940F65B
S315080021B0353001F001F941F2FA5001F0FDF84FF41B
S315080021C0386001F0F9F841F2FB5001F0F5F840F6F5
S315080021D0363001F0F1F841F2FC5001F0EDF8DFF885
S315080021E0A40802F057FE012811D105E0DFF86C08B3
S315080021F009210170002067E2DFF8840800780700EB
S31508002200DFF8840802F046FE012829D105E0DFF848
S315080022104C0809210170002056E2DFF864080078AE
S315080022208046DFF844080770FFB217F5306080B2C1
S3150800223001F0C2F841F2FD5001F0BEF85FFA88F8E5
S3150800224018F5306080B201F0B7F841F2FE5001F09F
S31508002250B3F8DFF8380802F01DFE01281AD101E0AC
S31508002260002031E2DFF81808007880465FFA88F81F
S3150800227018F5306080B201F09FF841F2C15001F0C4
S315080022809BF840F6013001F097F841F2F85001F05A
S3150800229093F801E0002017E2002001F08DF80020F5
S315080022A001F08AF80A2002F075FBDFF8B80700216A
S315080022B0017000200600F6B2082E1EDA4846C0B2A3
S315080022C0FFF718FEDFF898070088ADB2A84214D0C9
S315080022D0DFF88C070088ADB2A84204D280203041CE
S315080022E050EA090903E08020304139EA0009402014
S315080022F0304150EA0909761CDDE74846C0B2FFF7C7
S31508002300F9FDDFF86806008843F20141884240F08B
S31508002310E38019F10100C0B2FFF7ECFDDFF84007D2
S31508002320008882464846C0B2FFF7E4FDDFF830076A
S31508002330008883461FFA8AFAADB2BAEB0500ADB239
S315080023401FFA8BFBB5EB0B01884205DA19F1010977
S31508002350DFF80C07A0F800A0DFF804070088A4B28D
S3150800236084420CD3DFF8F8060088BDF800108842CE
S3150800237005D3DFF8F00680F800900120A4E1DFF825
S31508002380040702F087FD01280DD1DFF8F40600786E
S315080023900700DFF8D4060770DFF8E00602F07AFDDA
S315080023A001280ED101E000208EE1DFF8D40600787E
S315080023B00700FFB23F0917F00707FFB2022F0AD13D
S315080023C001E0002080E1DFF8A0060078401CDFF875
S315080023D09816087006E0DFF890060078401EDFF8C9
S315080023E088160870DFF88006007810F5806080B2DD
S315080023F000F0E2FFBD2000F0DFFF002000F0DCFF68
S31508002400002000F0D9FF0A2002F0C4FA8020814695
S3150800241000200600F6B2082E1EDA4846C0B2FFF7BC
S3150800242069FDDFF83C060088ADB2A84214D0DFF893
S3150800243030060088ADB2A84204D28020304150EA66
S31508002440090903E08020304139EA0009402030417B
S3150800245050EA0909761CDDE719F10100C0B2FFF759
S3150800246049FDDFF8FC05008882464846C0B2FFF7FA
S3150800247041FDDFF8EC05008883461FFA8AFAADB2FB
S31508002480BAEB0500ADB21FFA8BFBB5EB0B01884220
S3150800249005DA19F10109DFF8C805A0F800A0DFF888
S315080024A0C0050088A4B284420CD3DFF8B4050088BE
S315080024B0BDF80010884205D3DFF8A80580F800901B
S315080024C0012001E1DFF89C05FF210170DFF898057E
S315080024D0FF2101700020F7E0DFF89004008843F23E
S315080024E08101884240F0E78019F10100C0B2FFF788
S315080024F001FDDFF86C05008882464846C0B2FFF742
S31508002500F9FCDFF85C05008883461FFA8AFAADB243
S31508002510BAEB0500ADB21FFA8BFBB5EB0B0188428F
S3150800252005DA19F10109DFF83805A0F800A0DFF887
S3150800253030050088A4B284420CD3DFF8240500884D
S31508002540BDF80010884205D3DFF8180580F800901A
S315080025500120B9E0DFF82C0502F09CFC01280DD11A
S31508002560DFF81C0500780700DFF8FC040770DFF8C1
S315080025700C0502F08FFC01280ED101E00020A3E033
S31508002580DFF8FC0400780700FFB23F0917F00707D9
S31508002590FFB2052F02D104E0002095E0FFB2022F1A
S315080025A007D1DFF8C4040078401CDFF8BC140870B3
S315080025B006E0DFF8B4040078401EDFF8AC140870B3
S315080025C0DFF8A404007810F5306080B200F0F4FE5D
S315080025D041F2FD5000F0F0FE002000F0EDFE002074
S315080025E000F0EAFE0A2002F0D5F980208146002094
S315080025F00600F6B2082E1EDA4846C0B2FFF77AFC85
S31508002600DFF85C040088ADB2A84214D0DFF85004A5
S315080026100088ADB2A84204D28020304150EA0909A8
S3150800262003E08020304139EA00094020304150EA71
S315080026300909761CDDE719F10100C0B2FFF75AFC5B
S31508002640DFF81C04008882464846C0B2FFF752FCF1
S31508002650DFF80C04008883461FFA8AFAADB2BAEB93
S315080026600500ADB21FFA8BFBB5EB0B01884205DA04
S3150800267019F10109DFF8E803A0F800A0DFF8E00384
S315080026800088A4B284420CD3DFF8D4030088BDF8CE
S315080026900010884205D3DFF8CC0380F800900120AB
S315080026A012E0DFF8C003FF210170DFF8BC03FF2149
S315080026B00170002008E0DFF8AC03FF210170DFF8A5
S315080026C0A803FF2101700020BDE8F28F2DE9F84F1D
S315080026D004000D0016004FF4806081460220FEF7C4
S315080026E043FF012002F056F90A2003F070F8DFF8DC
S315080026F0C00C02F0CFFB01280BD1DFF88403007869
S315080027008DF80000DFF8AC0C02F0C4FB01280BD1F1
S3150800271004E0D24809210170002024E1D848007855
S3150800272080460020070004E0CC48092101700020FB
S3150800273019E1FFB2052F04DA002000F03DFE7F1CE8
S31508002740F7E74FF6017000F037FE9DF80000B0F588
S3150800275060608246504680B200F02EFE5FFA88F826
S31508002760B8F5C0608246504680B200F025FEBD48E6
S3150800277000210170BC480021017000200700FFB24B
S315080027800B2F22DA1021484680B200F0F3F8DFF862
S3150800279094070088B6B2B04217D0DFF888070088D9
S315080027A0B6B2B04205D24FF48060384150EA090902
S315080027B004E04FF48060384139EA00094FF40070AC
S315080027C0384150EA09097F1CD9E7102119F101009F
S315080027D080B200F0CFF8DFF84C0700888246102157
S315080027E0484680B200F0C6F8DFF838070088834606
S315080027F01FFA8AFAB6B2BAEB0600B6B21FFA8BFB14
S31508002800B6EB0B01884205DA19F10109DFF814075E
S31508002810A0F800A0DFF80C070088ADB285421FD3E8
S31508002820DFF800070088A4B2A04219D31FFA89F975
S315080028304FF4807099FBF0F08A490870894800784F
S3150800284050F01000874908701FFA89F94FF4807014
S3150800285099FBF0F101FB109183480170012082E099
S315080028608048002101708048002101704FF4806083
S31508002870814600200700FFB20B2F22DA18214846AE
S3150800288080B200F077F8DFF89C060088B6B2B0424E
S3150800289017D0DFF890060088B6B2B04205D24FF4DA
S315080028A08060384150EA090904E04FF480603841F5
S315080028B039EA00094FF40070384150EA09097F1CCB
S315080028C0D9E7182119F1010080B200F053F8DFF8B2
S315080028D05406008882461821484680B200F04AF815
S315080028E0DFF84006008883461FFA8AFAB6B2BAEBC2
S315080028F00600B6B21FFA8BFBB6EB0B01884205DA67
S3150800290019F10109DFF81C06A0F800A0DFF8140683
S315080029100088ADB285421FD3DFF808060088A4B246
S31508002920A04219D31FFA89F94FF4807099FBF0F089
S315080029304C4908704B48007850F01800494908700F
S315080029401FFA89F94FF4807099FBF0F101FB109199
S3150800295045480170012006E04248FF2101704248BF
S31508002960FF2101700020BDE8F28F00006C010020F5
S31508002970032101002DE9FC4704000D004FF47046C1
S31508002980A4B24FF4807094FBF0F00700A4B24FF4A1
S31508002990807094FBF0F101FB10418846DFF8E00AED
S315080029A002F078FA012802D13548007881465FFAA4
S315080029B088F8B8F580500600300080B200F0FCFCBC
S315080029C019F0800955EA090957EA09095FFA89F9E8
S315080029D0B9F570600600300080B200F0EDFC052005
S315080029E001F0D8FF002082461FFA8AFABAF1030FCF
S315080029F024DA00211D4803F0C0FB00211C4803F01F
S31508002A00BCFB0121194803F0D5FB0121184803F046
S31508002A106BFB0121154803F067FB0121134803F0FE
S31508002A20B0FB0028F9D0124803F0A9FB1FFA8AFA6E
S31508002A3000A921F81A001AF1010AD5E7BDF8000025
S31508002A40BDF802100818BDF804100818032190FBF9
S31508002A50F1F0DFF8D0140880BDE8F387830B002077
S31508002A606C0B00207E0B00207F0B0020000400402A
S31508002A700008004000100140000801402021010024
S31508002A80870B0020242101002521010027210100B0
S31508002A902DE9F14F0C0015004FF4806081460220A5
S31508002AA0FEF762FD012001F075FF0A2002F08FFE95
S31508002AB000200600F6B2052E04DA002000F07CFCA1
S31508002AC0761CF7E7DFF8BC09008843F2163188421E
S31508002AD040F0CB80DFF8B00902F0DCF901280AD112
S31508002AE0DFF8A80900780700DFF8A40902F0D2F990
S31508002AF001282AD105E0DFF89C0909210170002088
S31508002B000EE2DFF88809007880465FFA88F818F53B
S31508002B1070508146484680B200F04EFC45F2FB7084
S31508002B2000F04AFCFFB217F570508146484680B25D
S31508002B3000F042FC45F2FA7000F03EFCDFF8580956
S31508002B4002F0A8F9012811D105E0DFF848090921A2
S31508002B5001700020E4E1DFF8340900780700DFF8A7
S31508002B603C0902F097F901282ED105E0DFF824097F
S31508002B70092101700020D3E1DFF8100900788046AA
S31508002B80DFF81C0980F800805FFA88F818F570509D
S31508002B908146484680B200F00FFC45F2FD7000F011
S31508002BA00BFCFFB217F570508146484680B200F01C
S31508002BB003FC45F2FC7000F0FFFBDFF8E80802F0C2
S31508002BC069F9012811D105E0DFF8C8080921017063
S31508002BD00020A5E1DFF8B40800780700DFF8C80888
S31508002BE002F058F901283AD105E0DFF8A8080921CA
S31508002BF00170002094E1DFF894080078804658F0C8
S31508002C0018085FFA88F818F570508146484680B269
S31508002C1000F0D2FB45F2FF7000F0CEFBFFB217F5CD
S31508002C2070508146484680B200F0C6FB45F2FE70F9
S31508002C3000F0C2FB002000F0BFFB002000F0BCFB48
S31508002C4043F6014000F0B8FB45F2F77000F0B4FB1C
S31508002C50002000F0B1FB002000F0AEFB28E0DFF812
S31508002C6034080921017000205AE14FF4986000F0F9
S31508002C70A3FB40F6C12000F09FFB4FF4896000F0EB
S31508002C809BFB40F6F92000F097FB40F2024000F06B
S31508002C9093FB40F6FA2000F08FFB40F2014000F06B
S31508002CA08BFB40F6F82000F087FB002000F084FB41
S31508002CB04FF480608146DFF8F40700210170DFF8E1
S31508002CC0F0070021017000200600F6B20B2E22DA6A
S31508002CD0DFF8CC070178484680B200F025F991481C
S31508002CE00088ADB2A84216D08E480088ADB2A84278
S31508002CF005D24FF48060304150EA090904E04FF4E8
S31508002D008060304139EA00094FF40070304150EADA
S31508002D100909761CD9E7DFF88807017819F1010057
S31508002D2080B200F001F97F4800888246DFF8700714
S31508002D300178484680B200F0F7F87A48008883465A
S31508002D401FFA8AFAADB2BAEB0500ADB21FFA8BFBD1
S31508002D50B5EB0B01884204DA19F101097148A0F8AC
S31508002D6000A070480088A4B284421BD36D4800882E
S31508002D70BDF80010884215D31FFA89F94FF4807000
S31508002D8099FBF0F0DFF8241708701FFA89F94FF459
S31508002D90807099FBF0F101FB1091DFF818070170BC
S31508002DA00120BDE0DFF8DC06008843F216318842D0
S31508002DB010D1DFF8EC06007810F00700DFF8E0160F
S31508002DC00870DFF8DC06007850F05000DFF8D016FF
S31508002DD008701FE04FF4986000F0EEFA40F6C12044
S31508002DE000F0EAFA4FF4996000F0E6FA40F6F920A6
S31508002DF000F0E2FA40F2024000F0DEFA40F6FA206D
S31508002E0000F0DAFA40F2014000F0D6FA40F6F8206F
S31508002E1000F0D2FA002000F0CFFA4FF48060814625
S31508002E20DFF8880600210170DFF8840601210170A9
S31508002E3000200600F6B20B2E22DADFF864060178C7
S31508002E40484680B200F070F836480088ADB2A8420D
S31508002E5016D034480088ADB2A84205D24FF4806037
S31508002E60304150EA090904E04FF48060304139EAFC
S31508002E7000094FF40070304150EA0909761CD9E779
S31508002E80DFF81C06017819F1010080B200F04CF851
S31508002E90244800888246DFF808060178484680B24A
S31508002EA000F042F81F48008883461FFA8AFAADB236
S31508002EB0BAEB0500ADB21FFA8BFBB5EB0B018842E6
S31508002EC004DA19F101091748A0F800A01548008886
S31508002ED0A4B284421BD313480088BDF80010884268
S31508002EE015D31FFA89F94FF4807099FBF0F0DFF8D3
S31508002EF0BC1508701FFA89F94FF4807099FBF0F138
S31508002F0001FB1091DFF8AC050170012008E0DFF83D
S31508002F109C05FF210170DFF89C05FF210170002048
S31508002F20BDE8F28F6C0B00202DE9F04383B0040056
S31508002F300D004FF48066A4B24FF4807094FBF0F055
S31508002F400700A4B24FF4807094FBF0F101FB104126
S31508002F508846DFF83005008843F2163188421CD1CE
S31508002F6015F0F805EF195FFA88F818F5705006009D
S31508002F70300080B200F020FA45F2FC7000F01CFA2E
S31508002F80FFB217F570500600300080B200F014FA50
S31508002F9045F2FD7000F010FA18E05FFA88F818F5A7
S31508002FA080600600300080B200F006FA40F6FB208A
S31508002FB000F002FAFFB217F580600600300080B212
S31508002FC000F0FAF940F6FC2000F0F6F9002000F0CF
S31508002FD0F3F9052001F0DEFC002081461FFA89F985
S31508002FE0B9F1030F2BDA0021DFF8CC0403F0C5F89A
S31508002FF00021DFF8C80403F0C0F80121DFF8B8049F
S3150800300003F0D8F80121DFF8B40403F06DF80121C4
S31508003010DFF8A40403F068F80121DFF89C0403F044
S31508003020B0F80028F8D0DFF8940403F0A8F81FFADF
S3150800303089F900A921F8190019F10109CEE7BDF8A7
S315080030400000BDF802100818BDF80410081803217E
S3150800305090FBF1F0DFF868140880BDE8F7832DE9E6
S31508003060F04704000D001600DFF8580401F012FFBF
S31508003070012805D0DFF81C0409210170002028E189
S315080030800220FEF771FA012001F084FC0A2002F002
S315080030909EFB00200700FFB2052F04DA002000F08F
S315080030A08BF97F1CF7E743F6704000F085F945F287
S315080030B0F97000F081F943F61C4000F07DF945F2FD
S315080030C0FA7000F079F94FF4705000F075F945F28E
S315080030D0FB7000F071F943F6FC4000F06DF945F21B
S315080030E0FC7000F069F943F6074000F065F945F20F
S315080030F0FD7000F061F943F6014000F05DF945F214
S31508003100F87000F059F9002000F056F9DFF89C0332
S3150800311000210170DFF89803002101704FF4105068
S31508003120804600200700FFB20B2F21DA404680B206
S3150800313000F0D1F8DFF888030088B6B2B04217D09D
S31508003140DFF87C030088B6B2B04205D24FF480603F
S31508003150384150EA080804E04FF48060384138EAFC
S3150800316000084FF40070384150EA08087F1CDAE777
S3150800317018F1010080B200F0AEF8D1480088814607
S31508003180404680B200F0A7F8CD48008882461FFA6C
S3150800319089F9B6B2B9EB0600B6B21FFA8AFAB6EBE7
S315080031A00A01884204DA18F10108C548A0F8009017
S315080031B0C3480088ADB2854218D3C1480088A4B276
S315080031C0A04213D31FFA88F84FF4807098FBF0F0EA
S315080031D0B64908701FFA88F84FF4807098FBF0F12A
S315080031E001FB1081B3480170012072E0AF4800214D
S315080031F00170AF48012101704FF43050804600201D
S315080032000700FFB20B2F1FDA404680B200F063F8C2
S31508003210AB480088B6B2B04216D0A9480088B6B204
S31508003220B04205D24FF48060384150EA080804E0FD
S315080032304FF48060384138EA00084FF4007038418E
S3150800324050EA08087F1CDCE718F1010080B200F09C
S3150800325042F89B4800888146404680B200F03BF819
S315080032609748008882461FFA89F9B6B2B9EB060074
S31508003270B6B21FFA8AFAB6EB0A01884204DA18F1DE
S3150800328001088F48A0F800908D480088ADB28542A5
S3150800329018D38B480088A4B2A04213D31FFA88F823
S315080032A04FF4807098FBF0F0804908701FFA88F890
S315080032B04FF4807098FBF0F101FB10817D48017096
S315080032C0012006E07948FF2101707A48FF21017044
S315080032D00020BDE8F0872DE9FC4104004FF4705545
S315080032E0A4B24FF4807094FBF0F00600A4B24FF439
S315080032F0807094FBF0F101FB10410F00FFB217F547
S3150800330070500500280080B200F056F845F2FB70B0
S3150800331000F052F8F6B216F570500500280080B293
S3150800332000F04AF845F2FC7000F046F8002000F07C
S3150800333043F8052001F02EFB002080461FFA88F886
S31508003340B8F1030F24DA00215B4802F016FF0021CA
S315080033505A4802F012FF0121574802F02BFF0121BB
S31508003360564802F0C1FE0121534802F0BDFE012174
S31508003370514802F006FF0028F9D0504802F0FFFE37
S315080033801FFA88F800A921F8180018F10108D5E7EE
S31508003390BDF80000BDF802100818BDF8041008189A
S315080033A0032190FBF1F046490880BDE8F38100004F
S315080033B0E4010100F4010100F8B50400002005004D
S315080033C0EDB2102D2BDAA4B254FA05F00600B6B207
S315080033D0F00705D54FF480513B4800F0E2FF04E0C2
S315080033E04FF48051384800F0DFFF4FF4006136484B
S315080033F000F0D7FF00200700FFB20C2F01DA7F1C70
S31508003400FAE74FF40061304800F0CEFF00200700CD
S31508003410FFB20C2F01DA7F1CFAE76D1CD0E74FF4D8
S315080034200061294800F0BDFF00200700FFB20C2FFD
S3150800343001DA7F1CFAE74FF40061234800F0B4FF75
S3150800344000200700FFB20C2F01DA7F1CFAE74FF4C1
S3150800345000611D4800F0A5FF00200700FFB20C2FF1
S3150800346001DA7F1CFAE74FF40061174800F09CFF69
S3150800347000200700FFB20C2F01DA7F1CFAE7F1BD26
S31508003480E20101006C0100202B810100870B00205E
S3150800349025810100830B0020268101002781010078
S315080034A0800B002028810100298101007E0B002065
S315080034B0810B00207F0B002000040040000800401C
S315080034C06C0B0020234101000014014038B50400AC
S315080034D00021002001F04FF8012001F05BFA4FF4BB
S315080034E00061DFF8080A00F05FFF4FF48051DFF84B
S315080034F0FC0900F059FFE4B2012C0AD10121DFF8DA
S31508003500F00900F04EFF4FF48041DFF8E80900F0BB
S3150800351048FF4FF40051DFF8E00900F045FF0520A9
S3150800352001F027FA012001F035FA00200500EDB276
S315080035300C2D01DA6D1CFAE74FF40061DFF8AC09CF
S3150800354000F02FFF4FF48051DFF8A00900F029FFA3
S3150800355000200500EDB20C2D01DA6D1CFAE74FF4D8
S315080035600061DFF8880900F01FFF00200500EDB2B2
S315080035700C2D01DA6D1CFAE74FF40061DFF86C09CF
S3150800358000F00FFF4FF48051DFF8600900F00CFFE0
S3150800359000200500EDB20C2D01DA6D1CFAE74FF498
S315080035A00061DFF8480900F0FFFE00200500EDB2D3
S315080035B00C2D01DA6D1CFAE74FF40061DFF82C09CF
S315080035C000F0EFFE4FF48051DFF8200900F0E9FE25
S315080035D000200500EDB20C2D01DA6D1CFAE74FF458
S315080035E00061DFF8080900F0DFFE00200500EDB2F3
S315080035F00C2D01DA6D1CFAE74FF40061DFF8EC08D0
S3150800360000F0CFFE00200500EDB20C2D01DA6D1C8E
S31508003610FAE74FF40061DFF8D40800F0C5FE002091
S315080036200500EDB20C2D01DA6D1CFAE74FF40061C6
S31508003630DFF8B80800F0B5FE4FF48051DFF8AC08A3
S3150800364000F0B2FE00200500EDB20C2D01DA6D1C6B
S31508003650FAE74FF40061DFF8940800F0A5FE0020B1
S315080036600500EDB20C2D01DA6D1CFAE74FF4006186
S31508003670DFF8780800F095FE4FF48051DFF86C0803
S3150800368000F08FFE00200500EDB20C2D01DA6D1C4E
S31508003690FAE74FF40061DFF8540800F085FE0020D1
S315080036A00500EDB20C2D01DA6D1CFAE74FF4006146
S315080036B0DFF8380800F075FE00200500EDB20C2D85
S315080036C001DA6D1CFAE74FF40061DFF8200800F014
S315080036D06BFE00200500EDB20C2D01DA6D1CFAE731
S315080036E04FF40061DFF8040800F05BFE00200500D7
S315080036F0EDB20C2D01DA6D1CFAE74FF40061DFF824
S31508003700EC0700F051FE00200500EDB20C2D01DAA1
S315080037106D1CFAE700200500EDB20C2D01DA6D1CD0
S31508003720FAE74FF40061DFF8C40700F03AFE4FF4F9
S315080037308051DFF8B80700F037FE00200500EDB22B
S315080037400C2D01DA6D1CFAE74FF40061DFF89C07CF
S3150800375000F02AFE00200500EDB20C2D01DA6D1CE2
S31508003760FAE74FF40061DFF8840700F01AFE4FF419
S315080037708051DFF8780700F014FE00200500EDB24E
S315080037800C2D01DA6D1CFAE74FF40061DFF85C07CF
S3150800379000F00AFE00200500EDB20C2D01DA6D1CC2
S315080037A0FAE74FF40061DFF8440700F0FAFD00205D
S315080037B00500EDB20C2D01DA6D1CFAE74FF4006135
S315080037C0DFF8280700F0F0FD00200500EDB20C2D0B
S315080037D001DA6D1CFAE74FF40061DFF8100700F014
S315080037E0E0FD00200500EDB20C2D01DA6D1CFAE7AC
S315080037F04FF40061DFF8F40600F0D6FD002005005E
S31508003800EDB20C2D01DA6D1CFAE74FF40061DFF812
S31508003810DC0600F0C6FD4FF48051DFF8D00600F054
S31508003820C3FD00200500EDB20C2D01DA6D1CFAE788
S315080038304FF40061DFF8B40600F0B6FD002005007D
S31508003840EDB20C2D01DA6D1CFAE74FF40061DFF8D2
S315080038509C0600F0A6FD4FF48051DFF8900600F0B4
S31508003860A0FD00200500EDB20C2D01DA6D1CFAE76B
S315080038704FF40061DFF8740600F096FD002005009D
S31508003880EDB20C2D01DA6D1CFAE74FF40061DFF892
S315080038905C0600F086FD4FF48051DFF8500600F014
S315080038A083FD00200500EDB20C2D01DA6D1CFAE748
S315080038B04FF40061DFF8340600F076FD00200500BD
S315080038C0EDB20C2D01DA6D1CFAE74FF40061DFF852
S315080038D01C0600F066FD4FF48051DFF8100600F074
S315080038E060FD00200500EDB20C2D01DA6D1CFAE72B
S315080038F04FF40061DFF8F40500F056FD00200500DE
S31508003900EDB20C2D01DA6D1CFAE74FF48051DFF8A1
S31508003910DC0500F049FD00200500EDB20C2D01DAAA
S315080039206D1CFAE700200500EDB20C2D01DA6D1CBE
S31508003930FAE731BD2DE9F34F81B0140080208146A6
S31508003940002082465FFA8AFABAF1080F80F2B5803B
S315080039500120FFF7BBFD4FF40051DFF89C0500F08E
S3150800396023FD012001F016F800200700FFB2052FFD
S3150800397004DA0020FFF720FD7F1CF7E7DFF87C0557
S31508003980008846F26001884230D15FF4C03001F009
S3150800399081FA8346DFF8680501F07CFA01281FD111
S315080039A0DFF860050078804618F0070050F09008A8
S315080039B04FF47040FFF700FD4FF47140FFF7FCFC31
S315080039C04FF2AF30FFF7F8FC5FFA88F8B8F5606099
S315080039D00500280080B2FFF7EFFC902006003CE0C7
S315080039E0DFF8240509210170002057E1DFF81C05DE
S315080039F001F050FA01280BD1DFF8080500788DF898
S31508003A000200DFF80C0501F045FA01281FD105E090
S31508003A10DFF8F4040921017000203FE1DFF8E4042F
S31508003A20007880469DF80200B0F560600500280021
S31508003A3080B2FFF7C1FC5FFA88F8B8F5C0600500E8
S31508003A40280080B2FFF7B8FC1020060005E0DFF872
S31508003A50B80409210170002020E1DFF8B80400212C
S31508003A600170DFF8B404002101703100C9B248467C
S31508003A7080B202F041FCDFF8A4040088A4B2A04298
S31508003A801BD0DFF898040088A4B2A04206D24FF4EF
S31508003A90806050FA0AF050EA090905E04FF48060A0
S31508003AA050FA0AF039EA00094FF4007050FA0AF0A1
S31508003AB050EA09091AF1010A44E73100C9B219F1B5
S31508003AC0010080B202F018FCDFF8500400880500F7
S31508003AD03100C9B2484680B202F00EFCDFF83C0459
S31508003AE00088ADF80000ADB2A4B2281BA4B2BDF898
S31508003AF00010611A884204DA19F10109DFF81C047A
S31508003B000580BDF80800DFF814140988884223D315
S31508003B10DFF808040088BDF8041088421CD31FFA91
S31508003B2089F94FF4807099FBF0F0DFF8E813087014
S31508003B30DFF8E00300783043DFF8D81308701FFA7F
S31508003B4089F94FF4807099FBF0F101FB1091DFF8C9
S31508003B50C80301700120A1E0DFF8B8030021017055
S31508003B60DFF8B403002101704FF48060814618F035
S31508003B70070050F088084FF47040FFF71DFC4FF41B
S31508003B807140FFF719FC4FF2AF3002F02DFB5FFAD8
S31508003B9088F8B8F560600500280080B202F024FBBA
S31508003BA088200600002082465FFA8AFABAF10B0FCF
S31508003BB027DA3100C9B2484680B202F09DFBDFF829
S31508003BC05C030088A4B2A0421BD0DFF8500300882B
S31508003BD0A4B2A04206D24FF4806050FA0AF050EA26
S31508003BE0090905E04FF4806050FA0AF039EA00093D
S31508003BF04FF4007050FA0AF050EA09091AF1010A5E
S31508003C00D2E73100C9B219F1010080B202F074FBA3
S31508003C10C248008805003100C9B2484680B202F0A1
S31508003C206BFBBE480088ADF80000ADB2A4B2281BF5
S31508003C30A4B2BDF80010611A884203DA19F1010925
S31508003C40B6480580BDF80800B449098888421ED3DD
S31508003C50B2480088BDF80410884218D31FFA89F9BB
S31508003C604FF4807099FBF0F0AA490870A9480078CB
S31508003C703043A84908701FFA89F94FF4807099FBF8
S31508003C80F0F101FB1091A4480170012006E0A1485B
S31508003C90FF210170A048FF2101700020BDE8FE8FBA
S31508003CA02DE9F84F00245FF0000B5FF000095FF084
S31508003CB0000A924890F8220000280FD18F48428ABD
S31508003CC08E48C1898D48008AFFF734FE83465FFA1D
S31508003CD08BFBBBF1000F01D1002005E14FF4004139
S31508003CE0844800F061FB0021002000F044FC052018
S31508003CF000F050FE0120FFF7E9FB4FF400517E4823
S31508003D0000F052FB4FF6FF70FDF74EFF05007B48AB
S31508003D100088ADB2854204D07B480421017000209A
S31508003D20E2E04FF40040FDF73FFF060012200500D1
S31508003D30280080B2FDF7FEFD0021002000F01BFCE4
S31508003D40642000F027FE0120FFF7C0FB4FF4005166
S31508003D50694800F029FB4FF6FF70FDF725FF0500BF
S31508003D6066480088ADB2854204D0674804210170D0
S31508003D700020B9E0FDF796FD0600604890F8270098
S31508003D800F21084200F0A780002081464FF4805199
S31508003D90634800F009FB5948808800F57F40FF30EA
S31508003DA001F045F95748007805000020FDF7FCFEAC
S31508003DB00600524880885B4908805048C08859499F
S31508003DC009888842C0F0828000F0E3FF4D480078F9
S31508003DD00700FFB217EB090900F0DBFF4948007836
S31508003DE080465FFA88F818EB09095FFA88F84FF4F5
S31508003DF08070FFB200FB087005004A48008802215F
S31508003E0090FBF1F0ADF8000046480088801C454953
S31508003E10088044480088E2280CD142480088FDF70B
S31508003E20C3FE0600B6B2FF2E03D13B480078050054
S31508003E3000E035003B480088E4280CD13948008862
S31508003E40FDF7B2FE0600B6B2FF2E03D13148007860
S31508003E50050000E0350033480088E6280BD13148D4
S31508003E600088FDF7A1FE0600B6B2FF2E02D1AF20EC
S31508003E70050000E0350000200400601C0400C0B204
S31508003E8006289ADAADB24FF6FF70854208D05FFA77
S31508003E908AFABAF1000F03D1280080B2FDF74AFD6D
S31508003EA0FDF700FD0600B6B2ADB2AE4202D1002063
S31508003EB0040082E7E4B2042CDFD11348082101701C
S31508003EC01848BDF80010018000200DE04FF480511D
S31508003ED0134800F066FA0121054800F065FA00214A
S31508003EE0002000F048FB0120BDE8F28F00140140D5
S31508003EF00008014000180140001001406C01002034
S31508003F00E4000100870B0020830B0020E401010078
S31508003F10F40101007E0B00207F0B00206C0B0020B3
S31508003F20000C01406E0B002038B50400002100206B
S31508003F3000F021FB012000F02DFD4FF40061BD4883
S31508003F4000F032FA4FF48051BA4800F02DFAE4B284
S31508003F50012C08D10121B84800F023FA4FF480411A
S31508003F60B64800F01EFA4FF40051B54800F01CFAA6
S31508003F704FF40071B04800F014FA052000F0F9FC7F
S31508003F80012000F007FD00200500EDB20C2D01DA36
S31508003F906D1CFAE74FF48051A64800F002FA00209B
S31508003FA00500EDB20C2D01DA6D1CFAE74FF48051CD
S31508003FB0A04800F0F9F900200500EDB20C2D01DA51
S31508003FC06D1CFAE74FF480519A4800F0EAF9002090
S31508003FD00500EDB20C2D01DA6D1CFAE74FF480519D
S31508003FE0944800F0E1F900200500EDB20C2D01DA45
S31508003FF06D1CFAE74FF480518E4800F0D2F9002084
S315080040000500EDB20C2D01DA6D1CFAE74FF480516C
S31508004010884800F0C9F900200500EDB20C2D01DA38
S315080040206D1CFAE74FF48051824800F0BAF9002077
S315080040300500EDB20C2D01DA6D1CFAE74FF480513C
S315080040407C4800F0B1F900200500EDB20C2D01DA2C
S315080040506D1CFAE74FF40071774800F0A5F94FF4A4
S315080040600051774800F09DF9052000F082FC0120F8
S3150800407000F090FC00200500EDB20C2D01DA6D1C55
S31508004080FAE74FF480516B4800F08BF900200500E1
S31508004090EDB20C2D01DA6D1CFAE74FF48051654834
S315080040A000F082F900200500EDB20C2D01DA6D1C36
S315080040B0FAE74FF40051624800F076F94FF40071C0
S315080040C05D4800F06EF9052000F053FC012000F071
S315080040D061FC00200500EDB20C2D01DA6D1CFAE733
S315080040E04FF48051534800F05CF900200500EDB20A
S315080040F00C2D01DA6D1CFAE74FF480514D4800F09B
S3150800410053F900200500EDB20C2D01DA6D1CFAE713
S315080041104FF48051474800F044F900200500EDB2FD
S315080041200C2D01DA6D1CFAE74FF48051414800F076
S315080041303BF900200500EDB20C2D01DA6D1CFAE7FB
S315080041404FF400713C4800F02FF94FF400513C48F9
S3150800415000F027F9052000F00CFC012000F01AFCFD
S3150800416000200500EDB20C2D01DA6D1CFAE74FF4BC
S315080041708051304800F015F900200500EDB20C2DED
S3150800418001DA6D1CFAE74FF480512A4800F00CF961
S31508004190012000F0FFFB00200500EDB20C2D01DA2E
S315080041A06D1CFAE731BD38B50025264890F822007F
S315080041B000280DD12348428A2248C1892148008A0D
S315080041C0FFF7B8FB0500EDB2002D01D1002030E065
S315080041D04FF40041194800F0E7F80021002000F0EC
S315080041E0CAF9052000F0D6FB0120FFF79DFE4FF423
S315080041F00051134800F0D8F84FF400710E4800F04B
S31508004200D0F84FF6FF70FDF7CFFC04000D48008884
S31508004210A4B2844204D00C4804210170002008E0AE
S315080042200121054800F0C0F80021002000F0A3F99C
S31508004230012032BD00140140000801400018014069
S31508004240001001406C010020830B0020F0B5002708
S315080042500022002300240025002691F803C01CF044
S315080042600F0C674691F803C05FEACC6C03D591F84A
S3150800427002C05CEA070791F800C05FEA0C6C3AD006
S31508004280D0F800C065465FF0000C6346082B31D2B3
S315080042905FF0010C1CFA03FC6446B1F800C014EA8E
S315080042A00C0C6246A24223D15FEA830C64465FF097
S315080042B00F0C1CFA04FC6646B54317FA04FC5CEAC4
S315080042C0050591F803C0BCF1280F06D15FF0010C73
S315080042D01CFA03FCC0F814C00AE091F803C0BCF14C
S315080042E0480F05D15FF0010C1CFA03FCC0F810C09A
S315080042F05B1CCBE70560B1F800C0BCF1FF0F3FDDE2
S31508004300D0F804C065465FF0000C6346082B36D229
S315080043105FF0010C13F1080E1CFA0EFC6446B1F8A6
S3150800432000C014EA0C0C6246A24226D15FEA830C4E
S3150800433064465FF00F0C1CFA04FC6646B54317FA90
S3150800434004FC5CEA050591F803C0BCF1280F07D107
S315080043505FF0010C13F1080E1CFA0EFCC0F814C02D
S3150800436091F803C0BCF1480F07D15FF0010C13F1B7
S31508004370080E1CFA0EFCC0F810C05B1CC6E74560A8
S31508004380F0BD02000020936889B20B4202D00123D7
S31508004390180001E000231800C0B27047806880B298
S315080043A0704789B20161704789B241617047F0B4BC
S315080043B00022002300250024002803D51E4E366857
S315080043C0350002E01D4E36683500C0F3034634005A
S315080043D086B2320010F44016B6F5401F08D135F003
S315080043E07065164E366836F07066144F3E6010E0FB
S315080043F0C60206D50326A64033009D4355F07065D0
S3150800440007E0460DF6B2360112FA06F6B54355F040
S315080044107065C9B2002905D0460DF6B2360112FA02
S3150800442006F63543002802D5034E356001E0034EF3
S315080044303560F0BC704700001C00014004000140D4
S3150800444080B540F22160ADF8000002208DF8020028
S3150800445010208DF8030000A95C48FFF7F7FE4FF41B
S315080044600040ADF8000002208DF8020010208DF8FB
S31508004470030000A95648FFF7E9FE4FF48040ADF85F
S31508004480000002208DF8020010208DF8030000A914
S315080044904F48FFF7DBFE20214C48FFF785FF4FF416
S315080044A000714A48FFF780FF01214848FFF77CFF63
S315080044B04FF400414648FFF777FF4FF480414448E0
S315080044C0FFF772FF01BD38B504000D00E4B2012CF8
S315080044D00AD14FF400513F48FFF766FF4FF40071C9
S315080044E03A48FFF75EFF04E04FF400713748FFF7DC
S315080044F05BFFEDB2012D11D14FF400413448FFF7AF
S3150800450050FF012000F046FA01213048FFF74CFF22
S315080045104FF480412E48FFF744FF1DE0EDB2022D0F
S3150800452011D101212948FFF73CFF4FF400412848E3
S31508004530FFF73AFF072000F02DFA4FF48041244890
S31508004540FFF732FF08E04FF400412148FFF72CFF40
S3150800455001211E48FFF728FF4FF400611E48FFF7A8
S3150800456020FF4FF480511C48FFF71BFF40211948D4
S31508004570FFF717FF31BD38B504000D00E4B2002C73
S3150800458004D14FF400711148FFF70EFFEDB2002D6C
S315080045900DD101210D48FFF707FF4FF400410C48E4
S315080045A0FFF702FF4FF480410948FFF7FDFE4FF47D
S315080045B000610948FFF7F8FE4FF480510648FFF7F7
S315080045C0F3FE40210348FFF7EFFE31BD0008014026
S315080045D000180140001001400014014000B589B0E0
S315080045E00121112002F0EFFB0121022002F0FAFB63
S315080045F001216E48FFF7DBFE8020ADF80000182089
S315080046008DF8030003208DF8020000A96848FFF71B
S315080046101DFE40216648FFF7C4FE0020ADF81400D1
S315080046206020ADF816006348408A10F56160ADF861
S3150800463018000020ADF81A0009208DF81C0005A9FD
S315080046405D4801F0BFFC6020ADF804000120ADF81C
S3150800465006000020ADF808000020ADF80C00002088
S31508004660ADF80E000020ADF810000020ADF81200DD
S315080046704FF46160ADF80A0001A94F4801F0ECFC5F
S3150800468009B000BD00B589B00120ADF800000420CE
S315080046908DF8030003208DF8020000A94748FFF7AC
S315080046A0D5FD0121042002F09DFB4FF6FF70ADF801
S315080046B008000020ADF804000020ADF80600002030
S315080046C0ADF80A0001A93E4801F07CFC002300224F
S315080046D000213B4801F032FD0021394801F04DFD2B
S315080046E00121022002F07EFB48F6A040ADF8080042
S315080046F01320ADF804000020ADF806000020ADF840
S315080047000A0001A92C4801F05DFC6020ADF81000F4
S315080047100120ADF812000020ADF814000220ADF813
S3150800472018004FF46160ADF8160004A9224801F09C
S3150800473093FC0121204801F0E5FC40211C48FFF7C5
S3150800474033FE00211C4801F018FD012201211A48F8
S3150800475001F0E9FC00211A4801F0C6FC00211648C0
S3150800476001F0C2FC09B000BD80B54FF44070ADF849
S31508004770000003208DF8020010208DF8030000A920
S315080047800B48FFF763FD4FF480710948FFF70CFEED
S315080047904FF400710648FFF707FE40210448FFF76B
S315080047A003FE80210248FFF7FFFD01BD000C1A0039
S315080047B0001001406C010020000400400018014070
S315080047C00008004080B502F029FB0121042002F010
S315080047D0FAFA0121082002F0F6FA0121102002F067
S315080047E0F2FA0121202002F0EEFA0121402002F01F
S315080047F0EAFA002002F005FB01BD80B54FF4F85037
S31508004800ADF8000014208DF8030002208DF8020090
S3150800481000A9DFF81404FFF719FD4FF40150ADF8AD
S31508004820000010208DF8030003208DF8020000A96F
S31508004830DFF8F403FFF70AFD4FF40051DFF8E80349
S31508004840FFF7B2FD40F2FF40ADF8000048208DF8B2
S31508004850030002208DF8020000A9DFF8D003FFF755
S31508004860F5FC4FF48070ADF8000018208DF80300B1
S3150800487003208DF8020000A9DFF8B403FFF7E6FC71
S315080048800220ADF8000010208DF8030003208DF8F3
S31508004890020000A9DFF89C03FFF7D8FC6020ADF8FA
S315080048A0000014208DF8030003208DF8020000A9EB
S315080048B0DFF88003FFF7CAFC0221DFF87803FFF769
S315080048C070FD01BD10B50400E4B2012C26D14FF4E9
S315080048D00061D548FFF765FD4FF48061D248FFF7C0
S315080048E063FD4FF48061D248FFF75BFD042003F0B7
S315080048F0C7FA0121D048006802F0BEFF4FF4806174
S31508004900CB48FFF751FD0021CC48008802F0B4FFE0
S31508004910062003F0B5FA03F0B2F829E04FF48061F7
S31508004920C148FFF73EFD4FF40061BF48FFF73CFD65
S315080049304FF48061BE48FFF734FD0A2000F02AF8DC
S31508004940042003F09DFA4FF48061B948FFF72CFD67
S31508004950BB48007803F01DF84FF48061B448FFF7B0
S3150800496020FD03F00BF94FF48061B148FFF71CFDF9
S3150800497010BD00231A0092B280B2824209D24FF4C7
S315080049804873190089B2002901D0491EFAE7521C5A
S31508004990F1E7704700231A0092B280B2824209D228
S315080049A042F23413190089B2002901D0491EFAE7E8
S315080049B0521CF1E7704710B58EB0A24800F06AFAAB
S315080049C0012802D1A048007804004FF48051994884
S315080049D0FFF7EAFCE4B2FF2C03D19C4800F027FB62
S315080049E002E09B4800F023FB00200400E4B2362CCA
S315080049F008DA00F0CEF9E4B200A893490978215400
S31508004A00641CF3E74FF480518A48FFF7CAFC9148C3
S31508004A109DF8001001709DF801004FF480719DF813
S31508004A20022001FB00208C4908808B489DF8031062
S31508004A3081709DF804004FF480719DF8052001FBF4
S31508004A400020854988809DF806004FF480719DF8FE
S31508004A50072001FB00208049C8809DF808004FF414
S31508004A6080719DF8092001FB00207B4908817A485E
S31508004A709DF80A10817278489DF80B10C172764825
S31508004A809DF80C10017374489DF80D1041739DF83C
S31508004A900E004FF480719DF80F2001FB00206E492F
S31508004AA0C8819DF810004FF480719DF8112001FB14
S31508004AB00020694908829DF812004FF480719DF81C
S31508004AC0132001FB0020644948829DF814004FF426
S31508004AD080719DF8152001FB00205F4988829DF8AA
S31508004AE016004FF480719DF8172001FB00205A49E3
S31508004AF0C8829DF818004FF480719DF8192001FBB3
S31508004B000020554908839DF81A004FF480719DF8D6
S31508004B101B2001FB0020504948839DF81C004FF4D8
S31508004B2080719DF81D2001FB00204B4988839DF864
S31508004B301E004FF480719DF81F2001FB0020464996
S31508004B40C8839DF820004FF480719DF8212001FB51
S31508004B5000204149088440489DF8221080F8221018
S31508004B609DF823004FF480719DF8242001FB002056
S31508004B703949888438489DF8251080F82610364823
S31508004B809DF8261080F8271033489DF8271080F8DE
S31508004B90281031489DF8281080F829102E489DF8CD
S31508004BA0291080F82A102C489DF82A1080F82B1016
S31508004BB029489DF82B1080F82C1027489DF82C10B2
S31508004BC080F82D1024489DF82D1080F82E102248C4
S31508004BD09DF82E1080F82F101F489DF82F1080F88A
S31508004BE030101D489DF8301080F831101A489DF88D
S31508004BF0311080F83210194800F04CF9012802D11A
S31508004C00114800780400E4B2392C0AD00C480F2168
S31508004C100170FF21002003F0E5FBFF21002003F0CF
S31508004C20E1FB0EB010BD0000001001400014014069
S31508004C3000080140000C0140440B0020700B0020C6
S31508004C40830B0020008D0100870B0020FF7C0100EC
S31508004C50FF8C01007C0B00206C010020707D010098
S31508004C6000B587B001214FF4804002F0BBF84FF43D
S31508004C706040ADF8000003208DF8020018208DF87A
S31508004C80030000A9DFF80805FFF7E0FA4FF48050A3
S31508004C90ADF8000003208DF8020014208DF80300FB
S31508004CA000A9DFF8EC04FFF7D1FA4FF48051DFF8DA
S31508004CB0E004FFF776FB4FF40060ADF80000032030
S31508004CC08DF8020010208DF8030000A9DFF8C00453
S31508004CD0FFF7BCFA4FF40061DFF8B404FFF761FB95
S31508004CE02820ADF810000120ADF80C000220ADF820
S31508004CF00A000720ADF814000020ADF808000020CF
S31508004D00ADF804000020ADF812004FF48270ADF83B
S31508004D1006004FF40070ADF80E0001A9DFF8740420
S31508004D2003F0B8FB0121DFF86C0403F0D3FB07B0EE
S31508004D3000BD38B5040000250221DFF8580403F049
S31508004D40DBFB002808D16D1C280080B24EF66121D5
S31508004D508842F1DB00201BE0E4B2210089B2DFF8CB
S31508004D60340403F0C5FB0121DFF8280403F0C4FB73
S31508004D70002808D16D1C280080B24EF661218842B1
S31508004D80F1DB002004E0DFF80C0403F0B3FB01209C
S31508004D9032BD10B500240221DFF8F80303F0ACFB9E
S31508004DA0002808D1641C200080B24EF66121884292
S31508004DB0F1DB00201CE0AA21DFF8D80303F098FBFA
S31508004DC00121DFF8D00303F097FB002808D1641C03
S31508004DD0200080B24EF661218842F1DB002007E010
S31508004DE0DFF8B00303F086FBDFF8AC130870012088
S31508004DF010BD38B504000D004FF40061DFF89003CC
S31508004E00FFF7D2FA2000C0B2FFF793FF2800C0B21E
S31508004E10FFF78FFF4FF40061DFF87403FFF7C1FA5D
S31508004E200120FFF7A6FD31BD70B504000D00002670
S31508004E304FF48051DFF85803FFF7B6FA0620FFF75C
S31508004E4078FF4FF48051DFF84803FFF7AAFAB6B2A5
S31508004E50C82E01DA761CFAE74FF48051CC48FFF7E2
S31508004E60A3FA0220FFF765FF200CC0B2FFF761FF27
S31508004E70200AC0B2FFF75DFF2000C0B2FFF759FF56
S31508004E802800C0B2FFF755FF4FF48051C048FFF71E
S31508004E9088FA70BD38B5040000254FF48051BC4827
S31508004EA0FFF782FA0320FFF744FF200CC0B2FFF792
S31508004EB040FF200AC0B2FFF73CFF2000C0B2FFF750
S31508004EC038FFFFF766FF012802D10120050001E03F
S31508004ED0002005004FF48051AD48FFF762FA28001C
S31508004EE0C0B232BD10B500244FF48051A848FFF770
S31508004EF05BFA0620FFF71DFF4FF48051A448FFF721
S31508004F0050FAE4B2C82C01DA641CFAE7002004005F
S31508004F104FF480519E48FFF747FA6020FFF709FFD4
S31508004F20E4B2C82C01DA641CFAE74FF480519848B9
S31508004F30FFF737FA00F009F8002801D0012000E051
S31508004F400020C0B20028F5D110BD10B54FF480512D
S31508004F508F48FFF729FA0520FFF7EBFEFFF719FF41
S31508004F60012802D18C48007804004FF48051884803
S31508004F70FFF717FA2000C0B210BD38B504000025A7
S31508004F804FF480518248FFF70FFA5020FFF7D1FE01
S31508004F904FF480517E48FFF704FAEDB2C82D01DAC6
S31508004FA06D1CFAE74FF480517948FFF7FDF90120A7
S31508004FB0FFF7BFFE2000C0B2FFF7BBFE4FF48051DB
S31508004FC07348FFF7EEF931BD38B5002400254FF4D4
S31508004FD080516F48FFF7E8F99020FFF7AAFE0020F6
S31508004FE0FFF7A7FE0020FFF7A4FE0020FFF7A1FEAB
S31508004FF0FFF7CFFE012802D1674800780400FFF7C3
S31508005000C8FE012802D16448007805004FF4805193
S315080050105F48FFF7C6F9E4B2BF2C06D1EDB2492DB9
S3150800502001D1012002E0002000E0002032BD38B5A1
S31508005030040000250320FFF77CFE200CC0B2FFF712
S3150800504078FE200AC0B2FFF774FE2000C0B2FFF750
S3150800505070FEFFF79EFE012802D10120050001E03F
S31508005060002005002800C0B232BD70B500244B48A8
S31508005070008843F21631884210D14948FFF70AFFE3
S31508005080002802D04448007805004648FFF702FF8A
S31508005090002813D04048007806000FE04248FFF782
S315080050A0F9FE002802D03C48007805003F48FFF783
S315080050B0F1FE002802D0384800780600ADB24FF459
S315080050C08070B6B200FB0560344988803348808812
S315080050D04FF6FF71884201D1002058E02F4800881A
S315080050E043F2163188420ED13148FFF7D3FE050048
S315080050F02948007805002F48FFF7CCFE0600264809
S31508005100007806000DE02C48FFF7C4FE050022488B
S31508005110007805002948FFF7BDFE06001E480078FE
S315080051200600ADB24FF48070B6B200FB05601B49AD
S31508005130C8801A48C088002801D1002027E04FF40B
S3150800514080511348FFF730F91448808800F57F40EE
S31508005150FF30FFF76CFF11488088194908800F480F
S31508005160C0881749098888420AD3FFF712FE0A48F9
S315080051700078041912480088401C11490880EEE797
S315080051804FF480510248FFF70CF9200080B270BD39
S31508005190000C014000380040870B00206C010020FD
S315080051A0048D0100058D0100047D0100057D0100C7
S315080051B0068D0100078D0100067D0100077D0100AF
S315080051C06E0B00202DE9F04F87B000240027002041
S315080051D08DF801005FF0000900208DF80000DFF867
S315080051E0140C90F82200012812D1DFF8080C428A24
S315080051F0DFF8000CC189DFF8FC0B008A00F01FFD00
S315080052008DF801009DF80100002801D10020DBE29D
S3150800521000210020FFF7AFF94FF40061DFF8640DB5
S31508005220FFF7C2F84FF48051DFF8580DFFF7BCF8C6
S315080052304FF40041DFF8C00BFFF7B3F80120FFF782
S31508005240A9FB4FF48041DFF8B00BFFF7AAF80A2054
S31508005250FFF7A0FB4FF40051DFF82C0DFFF7A4F879
S315080052604FF40071DFF8240DFFF79BF80520FFF7D0
S3150800527091FB03F09FF9002801D10020A4E243F630
S31508005280FF7000F05AFC0500DFF8680B0088ADB225
S31508005290854205D0DFF8F80C04210170002093E25E
S315080052A0DFF8500B90F827000F21084200F07381B1
S315080052B0002081464FF48051DFF8D80CFFF774F8C8
S315080052C0DFF8300B808800F57F40FF30FFF7AFFE30
S315080052D0DFF8C40C00780500DFF8C00C40788DF8BC
S315080052E00000DFF8B80C8078DFF8B01CC97811EB3D
S315080052F00020ADF81400DFF8A40C0079DFF89C1C38
S31508005300497911EB0020ADF80600DFF8900C80799A
S31508005310DFF8881CC97911EB0020ADF80400DFF826
S315080053207C0C007ADFF8741C497A11EB0020ADF882
S315080053300200DFF8680C807ADFF8601CC97A090475
S3150800534011EB0060DFF8541C097B10EB0120DFF835
S315080053504C1C497B08180290DFF8400CC07BDFF82C
S315080053603C1C097C090411EB0060DFF8301C497C01
S3150800537010EB0120DFF8241C897C08180490DFF85C
S315080053801C0CC07EDFF8141C097F090411EB0060B1
S31508005390DFF8081C497F10EB0120DFF8001C897F25
S315080053A00818039003980299884217D2DFF8EC0B85
S315080053B0DFF8E81BC97D8172DFF8E00BDFF8DC1B3C
S315080053C0097EC172DFF8D40BDFF8D01B497E017362
S315080053D0DFF8C80BDFF8C41B897E4173DFF8BC0B06
S315080053E000780A280BD1DFF8B80B006804998842C0
S315080053F005D3DFF89C0B0E2101700020E4E10020A4
S3150800540000F09BFB0600DFF8EC098088DFF8941BA8
S315080054100880DFF8E009C088DFF8881B0988884219
S31508005420C0F0B380FFF7B5FCDFF86C0B0078804658
S315080054305FFA88F818EB0909FFF7ABFCDFF8580B99
S31508005440007882465FFA8AFA1AEB09091AF03F0AC7
S315080054505FFA8AFA4FF480705FFA88F800FB0A80D0
S315080054600500DFF8400B0088022190FBF1F0834627
S31508005470DFF8300B0088801CDFF8281B0880DFF86F
S315080054801C0B00780A284ED1BDF814001FFA8BFBB6
S3150800549083450AD15FFA8AFA4FF48070DFF8FC1A5E
S315080054A0497B00FB0A1005003DE0BDF806001FFA1F
S315080054B08BFB83450ED19DF8000002280ADB5FFAB4
S315080054C08AFA4FF48070DFF8D41A097B00FB0A10B9
S315080054D0050028E0BDF804001FFA8BFB83450ED1B2
S315080054E09DF8000003280ADB5FFA8AFA4FF48070F9
S315080054F0DFF8A81AC97A00FB0A10050013E0BDF800
