S0180000455A50726F3130305F4150505F7632302E7372656334
S31508004000980F0020157101085D6C01085F6C0108A6
S31508004010616C0108636C0108656C0108000000000A
S31508004020000000000000000000000000676C0108A6
S31508004030696C0108000000006B6C01086D6C0108D2
S31508004040C9710108CD710108D1710108D57101083E
S31508004050D9710108DD710108E1710108E5710108EE
S31508004060E9710108ED710108F1710108F57101089E
S31508004070F9710108FD71010801720108057201084C
S31508004080097201080D7201081172010815720108FA
S315080040906F6C01081D72010821720108257201085A
S315080040A0297201082D72010831720108357201085A
S315080040B0397201083D72010841720108457201080A
S315080040C0497201084D7201085172010855720108BA
S315080040D0597201085D72010861720108657201086A
S315080040E0697201086D72010871720108757201081A
S315080040F0797201087D7201088172010885720108CA
S31508004100897201088D720108917201089572010879
S31508004110997201089D720108A1720108A572010829
S31508004120A9720108AD720108B1720108B5720108D9
S3150800413080B51C48008846F26001884205D104F023
S31508004140EBFB00282BD001202AE01648008848F20D
S315080041503211884205D106F0FBF900281FD001204C
S315080041601EE01048008843F22221884205D107F054
S315080041702FF9002813D0012012E00A48008847F2D8
S315080041802201884205D107F0DBFC002807D0012070
S3150800419006E000F009F8002801D0012000E0002020
S315080041A002BD00006C0100202DE9F04F89B0002403
S315080041B00020ADF808000020ADF80C0000208DF8AE
S315080041C0010000208DF80000002700208DF80A0065
S315080041D05FF00009DFF8E00D90F82200012840F0B2
S315080041E0B480DFF8D40D008843F29431884206D0B3
S315080041F0DFF8C40D008843F2783188420DD1DFF824
S31508004200B80D428ADFF8B00DC189DFF8AC0D008A17
S3150800421003F02EFE8DF801008CE0DFF89C0D008877
S3150800422049F2290188420DD1DFF88C0D428ADFF860
S31508004230880DC189DFF8800D008A02F017FE8DF817
S31508004240010077E0DFF8700D008843F2111188420B
S3150800425006D0DFF8640D008843F2163188420DD186
S31508004260DFF8540D428ADFF8500DC189DFF8480D92
S31508004270008A02F0DBFF8DF801005BE0DFF8380DFD
S31508004280008845F21231884216D1DFF82C0D428A91
S31508004290DFF8240DC189DFF8200D008A03F012FA31
S315080042A08DF801009DF80100DFF8101D0978884295
S315080042B040D1002001F023BCDFF8FC0C008843F253
S315080042C08101884206D0DFF8F00C008843F20141EC
S315080042D088420DD1DFF8E00C428ADFF8DC0CC18990
S315080042E0DFF8D40C008A02F059FA8DF8010021E0B3
S315080042F0DFF8C40C008846F2600188420DD1DFF869
S31508004300B80C428ADFF8B00CC189DFF8AC0C008A19
S3150800431005F04AFB8DF801000CE0DFF89C0C428A98
S31508004320DFF8940CC189DFF8900C008A02F059F87E
S315080043308DF801009DF80100002806D1DFF87C0CF5
S3150800434003210170002001F0DABB0121DFF8700CAF
S3150800435007F064FF0021002008F047F808F0CCF8C1
S31508004360052008F07AFADFF8500C008843F29431F9
S31508004370884230D0DFF8400C008843F27831884212
S3150800438029D0DFF8340C008849F22901884222D066
S31508004390DFF8240C008843F2111188421BD0DFF89D
S315080043A0180C008843F20141884214D0DFF8080C43
S315080043B0008843F2163188420DD0DFF8FC0B0088DE
S315080043C045F21231884206D0DFF8EC0B008845F238
S315080043D08811884203D1022001F09EFB13E0DFF822
S315080043E0D80B008843F26421884209D1DFF8C80B4C
S315080043F090F82800022803D1022001F08DFB02E084
S31508004400012001F089FB012008F027FA4FF400513A
S31508004410DFF8B00B07F002FF4FF40071DFF8A00BCE
S3150800442007F0F9FE0A2008F018FA4FF6FF7001F0B7
S315080044304FFF8046DFF8800B00881FFA88F8804512
S3150800444006D0DFF8780B04210170002001F057BB75
S31508004450DFF8640B008843F2783188421AD148F2B3
S31508004460080001F035FF80461FFA88F843F27430D9
S31508004470804507D1DFF8400B407B74280AD000201E
S3150800448001F03DBBDFF8300B407B742802D10020D9
S3150800449001F035BBDFF8200B90F82800022840F021
S315080044A0C180002004004FF6FF708046601C04009F
S315080044B0C0B2062824DA414689B2DFF8FC0A008928
S315080044C001F0AAFEDFF8F00A008901F001FF0500F5
S315080044D0ADB21FFA88F8454502D1002004000FE066
S315080044E0E4B2042CE2D1DFF8D00A0089DFF8541DC3
S315080044F00880DFF8C80A0A210170002001F0FFBA17
S31508004500601C0400C0B2062828DA414689B2DFF8E2
S31508004510A80A0089401C80B201F07EFEDFF8980ADE
S315080045200089401C80B201F0D3FE0500ADB21FFA27
S3150800453088F8454502D1002004000FE0E4B2042CB7
S31508004540DED1DFF8740A0089DFF8F81C0880DFF886
S315080045506C0A0A210170002001F0D1BA601C04001F
S31508004560C0B2062828DA414689B2DFF84C0A008923
S31508004570801C80B201F050FEDFF83C0A0089801CDE
S3150800458080B201F0A5FE0500ADB21FFA88F84545D0
S3150800459002D1002004000FE0E4B2042CDED1DFF8DB
S315080045A0180A0089DFF89C1C0880DFF8100A0A211F
S315080045B00170002001F0A3BA0121DFF8040A07F010
S315080045C02DFE0021002007F010FF07F095FF0A20B6
S315080045D008F043F9022001F09FFA012008F03DF99E
S315080045E04FF40051DFF8DC0907F018FE4FF40071AC
S315080045F0DFF8CC0907F00FFE0A2008F02EF94FF66F
S31508004600FF7001F065FE8046DFF8AC0900881FFAE6
S3150800461088F8804506D0DFF8A40904210170002037
S3150800462001F06DBADFF89009008843F21631884226
S3150800463040F0818000200400DFF80C0C01900198FE
S3150800464008F098FB012806D1DFF8000C0078060070
S31508004650F6B2B04602E0002001F051BA601C040030
S31508004660C0B2062833DA414689B24FF4004001F059
S31508004670D3FD002082465FFA8AFABAF1030F0FDAF1
S315080046805046C0B201F028FC0500ADB21FFA88F802
S31508004690454502D019F1010902E01AF1010AEAE7D3
S315080046A05FFA8AFABAF1030F02D1002004000EE07D
S315080046B0E4B2042CD2D1DFF88C0B4FF40041018010
S315080046C0DFF8F8080A210170002001F018BA012164
S315080046D0DFF8EC0807F0A2FD0021002007F085FEB0
S315080046E00A2008F0BAF8022001F016FA012008F0AC
S315080046F0B4F84FF40051DFF8CC0807F08FFD4FF4FB
S315080047000071DFF8BC0807F086FD0A2008F0A5F856
S315080047104FF6FF7001F0DCFD8046DFF89C08008844
S315080047201FFA88F8804506D0DFF890080421017042
S31508004730002001F0E4B9DFF8800890F827000F217F
S31508004740084200F0B283002007004FF48051DFF8DA
S31508004750740D07F063FDDFF86008808800F57F4078
S31508004760FF3008F0D4FBDFF8E40A00788046DFF86B
S31508004770580D40788DF80A00DFF84C0D8078DFF880
S31508004780481DC97811EB0020ADF81C00DFF8380D7C
S315080047900079DFF8341D497911EB0020ADF81200D5
S315080047A0DFF8240D8079DFF8201DC97911EB002088
S315080047B0ADF81000DFF8100D007ADFF80C1D497A05
S315080047C011EB0020ADF80E00DFF8FC0C807ADFF85C
S315080047D0F81CC97A090411EB0060DFF8EC1C097BA8
S315080047E010EB0120DFF8E01C497B08180690DFF87B
S315080047F0D80CC07BDFF8D01C097C090411EB0060DB
S31508004800DFF8C41C497C10EB0120DFF8BC1C897C4E
S3150800481008180190DFF8B00CC07EDFF8AC1C097FE1
S31508004820090411EB0060DFF8A01C497F10EB01209A
S31508004830DFF8941C897F0818059005980699884220
S3150800484017D2DFF8840CDFF8801CC97D8172DFF887
S31508004850780CDFF8741C097EC172DFF86C0CDFF87F
S31508004860681C497E0173DFF8600CDFF85C1C897EE2
S315080048704173DFF8540C00780A280CD1DFF8700D64
S3150800488000680199884206D3DFF830070E210170C7
S31508004890002001F034B9002001F01AFD0500DFF808
S315080048A018078088DFF89C190880DFF80C07C0888D
S315080048B0DFF8901909888842C0F0AC8108F0D9F968
S315080048C0DFF8880900780600F6B2F71908F0D1F97A
S315080048D0DFF87809007883465FFA8BFB1BEB07073E
S315080048E05FFA8BFB4FF48070F6B200FB0B608046D4
S315080048F0DFF850090088022190FBF1F0ADF80200BC
S31508004900DFF840090088801CDFF838190880DFF8CE
S31508004910B80B00780A284ED1BDF80200BDF81C1065
S3150800492088420AD15FFA8BFB4FF48070DFF8981B38
S31508004930497B00FB0B1080463DE0BDF80200BDF840
S31508004940121088420ED19DF80A0002280ADB5FFA87
S315080049508BFB4FF48070DFF8701B097B00FB0B1094
S31508004960804628E0BDF80200BDF8101088420ED136
S315080049709DF80A0003280ADB5FFA8BFB4FF4807068
S31508004980DFF8441BC97A00FB0B10804613E0BDF81C
S315080049900200BDF80E1088420DD19DF80A000428C1
S315080049A009DB5FFA8BFB4FF48070DFF81C1B897AF2
S315080049B000FB0B108046DFF8940880F80080002082
S315080049C00400601C0400C0B2062880F2EA800020B9
S315080049D08DF80000DFF8E005008843F211118842DF
S315080049E00CD11FFA88F84FF6FF70804506D15FEAAA
S315080049F0C8485FEAD84801208DF80000DFF8B805F6
S31508004A00008843F2014188420BD11FFA88F84FF615
S31508004A10FF70804505D141F6FF70804601208DF86C
S31508004A200000DFF89405008843F2810188420BD123
S31508004A301FFA88F84FF6FF70804505D143F6FF70D8
S31508004A40804601208DF800001FFA88F84FF6FF709F
S31508004A50804502D101208DF80000DFF85C0500884A
S31508004A6043F28101884203D15FEA88485FEA9848A1
S31508004A709DF80000002803D1404680B201F0E4FA10
S31508004A80DFF83405008843F21111884222D0DFF896
S31508004A902805008843F2783188421BD0DFF81805CC
S31508004AA0008843F20141884214D0DFF80C050088DB
S31508004AB043F2163188420DD0DFF8FC04008845F22F
S31508004AC01231884206D0DFF8F004008849F229013D
S31508004AD088424BD1DFF8E004008849F22901884270
S31508004AE003D102208DF80B0002E003208DF80B009D
S31508004AF0002082469DF80B005FFA8AFA82451CD28E
S31508004B00DFF8B404008849F22901884205D15046E5
S31508004B10C0B208F072FB050004E05046C0B201F0CE
S31508004B20DBF90500ADB21FFA88F8454502D019F140
S31508004B30010902E01AF1010ADCE79DF80B005FFAA9
S31508004B408AFA824502D1002004002AE0E4B2042C45
S31508004B507FF437AFDFF8640408210170DFF8E40654
S31508004B60BDF802100180002000F0C9BF01F06BF902
S31508004B700500ADB21FFA88F8454502D100200400A9
S31508004B800FE0E4B2042C7FF41CAFDFF830040821F0
S31508004B900170DFF8B006BDF802100180002000F0B1
S31508004BA0AEBFDFF8A0060088DFF80C14C988884273
S31508004BB0BFF47BAE142009F068FCDFF8FC0300881C
S31508004BC043F2014188420ED0DFF8EC03008843F235
S31508004BD08101884207D0DFF8E003008843F21631E6
S31508004BE088427FF462AE122001F0DAF8ADF80200CE
S31508004BF0BDF80200DFF84C160988022291FBF2F193
S31508004C0088423FF452AEDFF8B40310210170002049
S31508004C1000F075BF4FF48051DFF8A80807F0FBFADB
S31508004C20DFF89403008849F22901884240F03D8163
S31508004C304FF48051DFF88C0807F0F0FADFF89C0C87
S31508004C4008F065F9F22001F043FB0500DFF8F405EA
S31508004C504FF4F2710180DFF8EC050088B0F5007FAB
S31508004C6074DA08F006F8DFF8E40500780600F6B20C
S31508004C70F71907F0FEFFDFF8D405007883465FFAD8
S31508004C808BFB1BEB07075FFA8BFB4FF48070F6B2C2
S31508004C9000FB0B608046DFF8AC050088022190FB1C
S31508004CA0F1F0ADF80200DFF89C050088801CDFF8FB
S31508004CB094150880DFF8940580F800800020040029
S31508004CC0601C0400C0B2062836DA1FFA88F84FF6C8
S31508004CD0FF70804503D0404680B201F0B5F9002048
S31508004CE082465FFA8AFABAF1020F0FDA5046C0B264
S31508004CF008F083FA0500ADB21FFA88F8454502D0D8
S31508004D0019F1010902E01AF1010AEAE75FFA8AFADB
S31508004D10BAF1020F02D1002004000DE0E4B2042C1F
S31508004D20CED1A64808210170DFF81805BDF8021093
S31508004D300180002000F0E3BEDFF808050088B0F522
S31508004D40FF7F88DC142009F0A0FB84E74FF480512C
S31508004D50DFF8700707F05FFADFF8280D007880465D
S31508004D609548008901F0B4FA0500ADB2FF2D39D196
S31508004D70601C0400C0B2062834DA414689B28E485F
S31508004D80008901F049FA002082465FFA8AFABAF1E8
S31508004D90020F11DA884801895046C0B208F0E4F9D2
S31508004DA00500ADB21FFA88F8454502D019F1010988
S31508004DB002E01AF1010AE8E75FFA8AFABAF1020F85
S31508004DC002D1002004000DE0E4B2042CD0D17A48C8
S31508004DD00089DFF87014088078480A2101700020DD
S31508004DE000F08DBEDFF81C0D0190019807F0C2FF98
S31508004DF0012815D1DFF854040078804618F0800899
S31508004E00DFF8040D007850EA08086B480089401C52
S31508004E1080B201F05DFA0500ADB2FF2D45D105E07F
S31508004E20664809210170002000F069BE601C040074
S31508004E30C0B2062839DA414689B25F480089401C63
S31508004E4080B201F0E9F9002082465FFA8AFABAF1DF
S31508004E50020F13DA58480089411C89B25046C0B27D
S31508004E6008F082F90500ADB21FFA88F8454502D068
S31508004E7019F1010902E01AF1010AE6E75FFA8AFA6E
S31508004E80BAF1020F02D1002004000EE0E4B2042CAD
S31508004E90CCD149480089401CDFF8A8130880474848
S31508004EA00A210170002000F02ABE434890F8270026
S31508004EB0F021084200F019863F48008843F2212174
S31508004EC0884223D03C48008847F2105188421DD0BA
S31508004ED03948008843F26421884217D0364800884A
S31508004EE043F21111884211D03348008843F28101F8
S31508004EF088420BD03048008843F20141884205D0E9
S31508004F002D48008845F28811884203D1DFF8FC0B4A
S31508004F10019002E0DFF8F80B01902748008845F277
S31508004F208811884240F04A81019807F023FF01283A
S31508004F300BD1C64800780600F6B2B6F580708046F2
S31508004F401D484FF40041018102E0002000F0D7BD62
S31508004F50601C0400C0B206281FDA414689B216480A
S31508004F60008901F059F91448008901F0B1F90500E2
S31508004F70ADB21FFA88F8454502D1002004000CE0BE
S31508004F80E4B2042CE4D10C480089AE4908800B48E9
S31508004F900A210170002000F0B2BD0198401C07F0FC
S31508004FA0E9FE012810D1A94800780600F6B2B6F540
S31508004FB0807080460BE000BF6C010020870B002044
S31508004FC00008014000100140002000F098BD601C58
S31508004FD00400C0B2062828DA414689B2DFF8340B45
S31508004FE00089401C80B201F017F9DFF8280B008908
S31508004FF0401C80B201F06CF90500ADB21FFA88F8C2
S31508005000454502D1002004000FE0E4B2042CDED1AD
S31508005010DFF8000B0089401C8A490880DFF87C0D00
S315080050200A210170002000F06ABD0198801C07F073
S31508005030A1FE012807D1854800780600F6B2B6F524
S315080050408070804602E0002000F059BD601C040014
S31508005050C0B2062828DA414689B2DFF8B80A0089BC
S31508005060801C80B201F0D8F8DFF8A80A0089801CF5
S3150800507080B201F02DF90500ADB21FFA88F8454552
S3150800508002D1002004000FE0E4B2042CDED1DFF8E0
S31508005090840A0089801C6B490880DFF8000D0A2104
S315080050A00170002000F02BBD0198C01C07F062FEBD
S315080050B0012807D1654800780600F6B2B6F5807073
S315080050C0804602E0002000F01ABD601C0400C0B251
S315080050D0062828DA414689B2DFF8380A0089C01C52
S315080050E080B201F099F8DFF82C0A0089C01C80B25A
S315080050F001F0EEF80500ADB21FFA88F8454502D171
S31508005100002004000FE0E4B2042CDED1DFF8040A24
S315080051100089C01C4B490880DFF8800C0A21017001
S31508005120002000F0ECBC0198001D07F023FE0128C2
S3150800513007D1464800780600F6B2B6F58070804674
S3150800514002E0002000F0DBBC601C0400C0B20628A8
S3150800515028DA414689B2DFF8BC090089001D80B209
S3150800516001F05AF8DFF8AC090089001D80B201F099
S31508005170AFF80500ADB21FFA88F8454502D1002000
S3150800518004000FE0E4B2042CDED1DFF888090089B8
S31508005190001D2C490880DFF8040C0A210170002044
S315080051A000F0ADBC0121DFF8240D07F037F8002127
S315080051B0002007F01AF9012000F0A1BCDFF8540915
S315080051C0008843F21631884202D1DFF8040D0190B7
S315080051D0DFF84009008845F21231884202D1DFF82B
S315080051E02C090190019807F0C5FD012809D1174837
S315080051F0007806000198401C07F0BCFD01280ED176
S3150800520002E0002000F07BBC104800788346DFF8F7
S315080052100409008843F2111188421BD106E0DFF821
S315080052207C0B09210170002000F069BC1BF0F00B13
S315080052305BF0020BDFF89C0C0078002808D116F00A
S315080052407F0607E06E0B0020208101008C0B0020F2
S3150800525056F080065FFA8BFB4FF48070F6B200FBBF
S315080052600B608046601C0400C0B2062877DA414607
S3150800527089B2DFF8A008008900F0CEFFDFF89408AD
S31508005280008843F2111188421BD0DFF8880800888D
S3150800529043F27831884214D0DFF87808008843F260
S315080052A0014188420DD0DFF86C08008843F21631B8
S315080052B0884206D0DFF85C08008845F21231884239
S315080052C030D1002082465FFA8AFABAF1030F12DA61
S315080052D0DFF8400801895046C0B201F039F80500E8
S315080052E0ADB21FFA88F8454502D019F1010902E066
S315080052F01AF1010AE7E75FFA8AFABAF1030F02D14F
S31508005300002004002BE0E4B2042CABD1DFF804083B
S315080053100089DFF82C1D0880DFF8800A0A21017051
S315080053200020ECE3DFF8EC07008900F0D1FF050068
S31508005330ADB21FFA88F8454502D1002004000EE0F8
S31508005340E4B2042C8ED1DFF8CC070089DFF8F01C14
S315080053500880DFF8480A0A2101700020CFE3DFF849
S31508005360B407807A0228C0F28F83DFF8A80790F87E
S31508005370220002284BD1DFF89C07808C00F0A8FF9A
S315080053800500ADB24FF4807095FBF0F0DFF87817A2
S315080053900870ADB24FF4807095FBF0F101FB105127
S315080053A0DFF8E0060170DFF860070078FF2804D010
S315080053B0DFF854070078002829D1DFF85807808CD1
S315080053C0801E80B200F084FF0500ADB24FF48070F5
S315080053D095FBF0F0DFF830170870ADB24FF4807027
S315080053E095FBF0F101FB1051DFF898060170DFF824
S315080053F018070078FF2804D0DFF80C070078002883
S3150800540005D1DFF898090C210170002077E3DFF851
S315080054100407008843F2810188421CD10198801D47
S3150800542007F0A8FC012810D1DFF8180C00788DF8D1
S315080054300000DFF8E00600899DF80010081880B221
S3150800544000F046FFADF808001EE0DFF85009092114
S315080054500170002053E3DFF8BC060089401C80B2C7
S3150800546000F036FFADF80800DFF8A806008845F218
S315080054701231884208D1DFF89C060089801C80B268
S3150800548000F026FFADF80C00DFF88806008843F226
S315080054901111884206D0DFF87C06008843F20141E4
S315080054A0884203D141F6FF70804612E0DFF86406B1
S315080054B0008843F28101884208D143F6FF7080468E
S315080054C007E000BF000C0140080B00204FF6FF70F4
S315080054D08046DFF84006008845F21231884226D118
S315080054E0BDF808001FFA88F8404517D1BDF80C002A
S315080054F04FF6FE71084211D0DFF80C060078834695
S31508005500DFF8800500780600DFF8080D0078DFF878
S31508005510F815097851EAC000834695E0BDF80800F9
S315080055200600BDF8080080B2000A83468CE0BDF884
S3150800553008001FFA88F840455CD1DFF8D8050088CE
S3150800554043F28101884255D0DFF8BC0500788346CE
S31508005550DFF8300500780600DFF8B805008843F262
S315080055600141884203D1DFF8A00500780600DFF87C
S31508005570A405008843F22121884206D0DFF8940565
S31508005580008847F2105188420ED1DFF88805808CD2
S3150800559000F09EFE80461FFA88F85FEA18208346C8
S315080055A0DFF8E00400780600DFF86805008843F2B3
S315080055B0163188420BD1DFF85C0C007810F0F80041
S315080055C08346DFF84405007850EA0B0B3CE0DFF829
S315080055D04405008845F21231884235D1DFF8340C8B
S315080055E00078DFF82415097851EAC00083462BE0D5
S315080055F0440B0020DFF81C05008843F2810188422D
S315080056001AD1BDF808001FFA88F8404514D1DFF80A
S31508005610F804007806000198C01C07F0ABFB0128C7
S3150800562004D1DFF8200A007883460DE0DFF86C071E
S3150800563009210170002062E2BDF808000600BDF8E5
S31508005640080080B2000A83465FFA8BFB4FF480702D
S31508005650F6B200FB0B608046DFF8B804008843F218
S31508005660111188421AD10198C01C07F083FB012842
S315080056700ED1DFF8D009007883461BF0180B5FFAC5
S315080056808BFB4FF4807000FB0BF050EA08082EE005
S31508005690DFF8080709210170002030E2DFF87404FA
S315080056A0008843F26421884206D0DFF8680400883F
S315080056B043F2014188421AD10198C01C07F05AFBEF
S315080056C001280ED1DFF87C09007883465FFA88F84E
S315080056D05FFA8BFB4FF4807000FB0BF050EA08086A
S315080056E005E0DFF8B80609210170002007E2601C12
S315080056F00400C0B2062880F2A380DFF818040088E8
S3150800570043F2111188421BD0DFF80804008843F2DF
S315080057107831884214D0DFF8FC03008843F201414F
S3150800572088420DD0DFF8EC03008843F21631884230
S3150800573006D0DFF8E003008845F2123188423CD1F2
S31508005740414689B2DFF8CC030089401C80B200F0DC
S3150800575063FD002082465FFA8AFABAF1030F14DA6B
S31508005760DFF8B0030089411C89B25046C0B200F088
S31508005770EFFD0500ADB21FFA88F8454502D019F1CC
S31508005780010902E01AF1010AE5E75FFA8AFABAF1B5
S31508005790030F02D10020040052E0E4B2042CA6D183
S315080057A0DFF8F8050A210170DFF868030089401C54
S315080057B0DFF88C1808800020A1E1DFF8580300887C
S315080057C043F28101884214D1414689B2DFF8440385
S315080057D000899DF80020101880B200F01DFDCD4804
S315080057E000899DF80010081880B200F071FD0500C8
S315080057F00EE0414689B2C7480089401C80B200F0D5
S315080058000BFDC4480089401C80B200F061FD05000C
S31508005810ADB21FFA88F8454502D1002004000FE012
S31508005820E4B2042C7FF463AFDFF870050A21017037
S31508005830B8480089401CDFF80818088000205EE197
S31508005840B448008843F27831884224D0B1480088A9
S3150800585043F2943188421ED0AE48008843F2642150
S31508005860884218D0AB48008843F20141884212D0DA
S31508005870A848008843F2810188420CD0A5480088D0
S3150800588043F21631884206D0A248008845F2123102
S31508005890884240F0F9800198001D07F06BFA01284C
S315080058A02ED1DFF8A007007806009A48008845F24E
S315080058B0123188421DD1BDF808004FF6FF718842A3
S315080058C00ED1BDF80C004FF6FE71084208D0DFF87D
S315080058D04409007860F300060BE000BFE30101000D
S315080058E0BDF80C00C00702D556F0010601E016F017
S315080058F0FE060198401D07F03DFA012811D105E082
S31508005900DFF89804092101700020F8E0DFF8340771
S31508005910007883467F48008843F28101884202D195
S3150800592007E00020EBE07B48008843F2014188420B
S3150800593002D15448007806005FFA8BFB4FF480705A
S31508005940F6B200FB0B608046601C0400C0B2062855
S3150800595080F29A806F48008843F27831884211D0E5
S315080059606C48008843F2014188420BD06948008898
S3150800597043F21631884205D06648008845F212314E
S3150800598088423BD1414689B262480089801C80B270
S3150800599000F042FC002082465FFA8AFABAF1030F49
S315080059A013DA5C480089811C89B25046C0B200F0FF
S315080059B0CFFC0500ADB21FFA88F8454502D019F1AB
S315080059C0010902E01AF1010AE6E75FFA8AFABAF172
S315080059D0030F02D10020040056E0E4B2042CB3D130
S315080059E0002004004B480089801CDFF85416088004
S315080059F0DFF8A8030A210170002080E045480088E6
S31508005A0043F28101884215D1414689B2414800894D
S31508005A109DF800201018401C80B200F0FDFB3D48A0
S31508005A2000899DF800100818401C80B200F050FC50
S31508005A3005000EE0414689B236480089801C80B2CE
S31508005A4000F0EAFB33480089801C80B200F040FC75
S31508005A500500ADB21FFA88F8454502D100200400BA
S31508005A6012E0E4B2042C7FF46FAF0020040029484A
S31508005A700089801CDFF8C8150880C8480A2101700B
S31508005A8000203CE0830B0020601C0400C0B2032801
S31508005A9029DA2048008843F28101884223D01D482C
S31508005AA0008843F2014188421DD01A48008843F213
S31508005AB01631884217D01748008845F212318842B5
S31508005AC008D1390089B213480089C01D80B200F098
S31508005AD0A3FBD9E7390089B20E4800890F3080B296
S31508005AE000F09AFBD0E7002004000121DFF8DC0370
S31508005AF006F094FB0021002006F077FC012009B08F
S31508005B00BDE8F08FE2010100820B00202021010090
S31508005B10204101006C01002038B504000021002056
S31508005B2006F063FC642006F098FE4FF40061DFF887
S31508005B30600C06F073FB4FF48051DFF8540C06F046
S31508005B406DFBE4B2012C13D14FF40041DFF8440C8D
S31508005B5006F061FB00200500EDB20C2D01DA6D1C84
S31508005B60FAE74FF48041DFF82C0C06F054FB09E005
S31508005B700121D64806F04FFB4FF48041DFF8140C9C
S31508005B8006F04CFB00200500EDB20C2D01DA6D1C69
S31508005B90FAE74FF40051DFF8000C06F03FFB4FF42C
S31508005BA00071CA4806F037FB052006F025FE4FF4BB
S31508005BB08051DFF8DC0B06F02EFB00200500EDB265
S31508005BC00C2D01DA6D1CFAE74FF48051DFF8C00B93
S31508005BD006F024FB00200500EDB20C2D01DA6D1C41
S31508005BE0FAE74FF48051DFF8A80B06F014FB002003
S31508005BF00500EDB20C2D01DA6D1CFAE74FF4805161
S31508005C00DFF88C0B06F00AFB00200500EDB20C2D20
S31508005C1001DA6D1CFAE74FF48051DFF8740B06F0D1
S31508005C20FAFA00200500EDB20C2D01DA6D1CFAE730
S31508005C304FF48051DFF8580B06F0F0FA0020050003
S31508005C40EDB20C2D01DA6D1CFAE74FF48051DFF83E
S31508005C50400B06F0E0FA00200500EDB20C2D01DA43
S31508005C606D1CFAE74FF48051DFF8240B06F0D6FADC
S31508005C7000200500EDB20C2D01DA6D1CFAE74FF491
S31508005C800071924806F0CAFA4FF40051DFF8080B83
S31508005C9006F0C1FA052006F0AFFD4FF48051DFF893
S31508005CA0F00A06F0B8FA00200500EDB20C2D01DA6C
S31508005CB06D1CFAE74FF48051DFF8D40A06F0AEFA05
S31508005CC000200500EDB20C2D01DA6D1CFAE74FF441
S31508005CD00051DFF8C40A06F0A1FA4FF400717B48B8
S31508005CE006F099FA052006F087FD4FF48051DFF893
S31508005CF0A00A06F090FA00200500EDB20C2D01DA94
S31508005D006D1CFAE74FF48051DFF8840A06F086FA2C
S31508005D1000200500EDB20C2D01DA6D1CFAE74FF4F0
S31508005D208051DFF86C0A06F076FA00200500EDB21D
S31508005D300C2D01DA6D1CFAE74FF48051DFF8500A92
S31508005D4006F06CFA00200500EDB20C2D01DA6D1C88
S31508005D50FAE74FF400715D4806F060FA4FF4005117
S31508005D60DFF8340A06F057FA052006F045FD4FF429
S31508005D708051DFF81C0A06F04EFA00200500EDB245
S31508005D800C2D01DA6D1CFAE74FF48051DFF8000A92
S31508005D9006F044FA012006F060FD31BD870B0020AD
S31508005DA02DE9F0410400E4B2200080B208F06DFB52
S31508005DB0002080465FFA88F8B8F10C0F02DA18F16D
S31508005DC00108F7E7002080465FFA88F8B8F10C0F5B
S31508005DD002DA18F10108F7E700200700002005009D
S31508005DE0EDB2102D2BDA4FF40061DFF8A40906F0A6
S31508005DF012FA002080465FFA88F8B8F10C0F02DA2A
S31508005E0018F10108F7E71021DFF8880906F0F3F919
S31508005E100600B6B216FA05F007434FF40061DFF83C
S31508005E20700906F0FBF9002080465FFA88F8B8F199
S31508005E300C0F02DA18F10108F7E76D1CD0E73800F5
S31508005E4080B2BDE8F081F8B5172008F01EFB0020E7
S31508005E500700FFB20C2F01DA7F1CFAE700200700C3
S31508005E60FFB20C2F01DA7F1CFAE70020060000209B
S31508005E700400E4B2102C25DA4FF40061DFF81009AB
S31508005E8006F0C9F900200700FFB20C2F01DA7F1CC3
S31508005E90FAE71021DFF8FC0806F0ADF90500ADB207
S31508005EA015FA04F006434FF40061DFF8E40806F03B
S31508005EB0B5F900200700FFB20C2F01DA7F1CFAE7BC
S31508005EC0641CD6E7300080B2F2BD0000000801402D
S31508005ED024810100850B00202DE9F04104002000F3
S31508005EE0C0B200F04EF8172008F0CFFA002080461E
S31508005EF05FFA88F8B8F10C0F02DA18F10108F7E72B
S31508005F00002080465FFA88F8B8F10C0F02DA18F11B
S31508005F100108F7E70020070000200500EDB2102D64
S31508005F202BDA4FF40061DFF8680806F074F90020F0
S31508005F3080465FFA88F8B8F10C0F02DA18F1010802
S31508005F40F7E71021DFF84C0806F055F90600B6B257
S31508005F5016FA05F007434FF40061DFF8340806F037
S31508005F605DF9002080465FFA88F8B8F10C0F02DA6E
S31508005F7018F10108F7E76D1CD0E7380080B2BDE8D4
S31508005F80F0812DE9F0410400E4B2002C02D1002092
S31508005F9007000AE0E4B2012C02D10620070004E05B
S31508005FA0E4B2022C01D1052007001A2008F06DFA88
S31508005FB000200600F6B20C2E01DA761CFAE700205D
S31508005FC00600F6B20C2E01DA761CFAE70020050068
S31508005FD0EDB2102D31DABFB257FA05F080461FFA36
S31508005FE088F85FEAC87006D54FF48051DFF8A00735
S31508005FF006F011F905E04FF48051DFF8940706F032
S315080060000DF94FF40061DFF8880706F004F900205F
S315080060100600F6B20C2E01DA761CFAE74FF4006198
S31508006020DFF86C0706F0FAF800200600F6B20C2E28
S3150800603001DA761CFAE76D1CCAE7BDE8F0810000B4
S315080060406E0B00208C0B00202DE9F0410400162071
S3150800605008F01BFA002080465FFA88F8B8F10C0FA2
S3150800606002DA18F10108F7E7002080465FFA88F897
S31508006070B8F10C0F02DA18F10108F7E7002005005D
S31508006080EDB2102D35DAA4B254FA05F00600B6B210
S31508006090F00706D54FF48051DFF8F40606F0BBF892
S315080060A005E04FF48051DFF8E80606F0B7F84FF43C
S315080060B00061DFF8DC0606F0AEF8002080465FFADD
S315080060C088F8B8F10C0F02DA18F10108F7E74FF46F
S315080060D00061DFF8BC0606F0A1F8002080465FFAEA
S315080060E088F8B8F10C0F02DA18F10108F7E76D1C09
S315080060F0C6E7DFF8740D008843F2014188420DD0E7
S31508006100DFF8640D008843F28101884206D0DFF883
S31508006110580D008843F21631884207D11320FFF73D
S315080061203FFE0600B6B2A4B2A64270D1192008F006
S31508006130ACF900200500EDB2082D21DA00208046D2
S315080061405FFA88F8B8F10C0F02DA18F10108F7E7D8
S315080061504FF40061DFF8380606F05DF80020804647
S315080061605FFA88F8B8F10C0F02DA18F10108F7E7B8
S315080061704FF40061DFF8180606F050F86D1CDAE7F0
S31508006180DFF8E40C90F8280002280AD1002007005E
S315080061901021DFF8000606F02EF8002810D07F1C24
S315080061A0F6E7DFF8C40C808A06F026FBDFF8B80CA1
S315080061B0808A06F021FBDFF8B00C808A06F01CFB0B
S315080061C000200500EDB2082D21DA002080465FFA8E
S315080061D088F8B8F10C0F02DA18F10108F7E74FF45E
S315080061E00061DFF8AC0506F016F8002080465FFA75
S315080061F088F8B8F10C0F02DA18F10108F7E74FF43E
S315080062000061DFF88C0506F009F86D1CDAE7BDE8D1
S31508006210F0810000840B00202DE9F04104000D00F8
S31508006220152008F032F9002080465FFA88F8B8F1A0
S315080062300C0F02DA18F10108F7E7002080465FFA2A
S3150800624088F8B8F10C0F02DA18F10108F7E7002010
S315080062500600F6B2102E35DAA4B254FA06F0070094
S31508006260BFB2F80706D54FF48051DFF8240505F0CC
S31508006270D2FF05E04FF48051DFF8140505F0CEFF94
S315080062804FF40061DFF8080505F0C5FF00208046D9
S315080062905FFA88F8B8F10C0F02DA18F10108F7E787
S315080062A04FF40061DFF8E80405F0B8FF00208046E7
S315080062B05FFA88F8B8F10C0F02DA18F10108F7E767
S315080062C0761CC6E7280080B2FFF7BEFEBDE8F0815F
S315080062D0F8B50400152008F0D8F800200500EDB23E
S315080062E0102D2FDAA4B254FA05F00600B6B2F0075C
S315080062F006D54FF48051DFF8980405F08CFF05E0C9
S315080063004FF48051DFF8880405F088FF4FF40061E8
S31508006310DFF87C0405F07FFF00200700FFB20C2F92
S3150800632001DA7F1CFAE74FF40061DFF8640405F030
S3150800633075FF00200700FFB20C2F01DA7F1CFAE771
S315080063406D1CCCE7FFF77FFD0600300080B2F2BD7A
S315080063502DE9F04104000D002000C0B2FFF711FE40
S31508006360152008F092F800200600F6B2102E31DA51
S31508006370ADB255FA06F080461FFA88F85FEAC8708B
S3150800638006D54FF48051DFF8080405F044FF05E010
S315080063904FF48051DFF8F80305F040FF4FF4006131
S315080063A0DFF8EC0305F037FF00200700FFB20C2FDB
S315080063B001DA7F1CFAE74FF40061DFF8D40305F031
S315080063C02DFF00200700FFB20C2F01DA7F1CFAE729
S315080063D0761CCAE7FFF737FD8046404680B2BDE81F
S315080063E0F0812DE9F84F04000D0016005FF08009D2
S315080063F00220FFF791FB012006F02FFA0A2008F089
S3150800640044F800200700FFB2052F04DA002001F047
S31508006410DDFE7F1CF7E743F6744001F0D7FE45F230
S31508006420F97001F0D3FE4FF4705001F0CFFE45F23B
S31508006430FA7001F0CBFEDFF8300AC08A42F6210175
S31508006440884240F09F80DFF8C00C06F093FC0128D4
S3150800645029D1DFF8B80C0078804643F6FF4001F0F2
S31508006460B5FE45F2FB7001F0B1FE5FFA88F818F543
S31508006470705080B201F0AAFE45F2FC7001F0A6FE4B
S3150800648043F6014001F0A2FE45F2F87001F09EFEC7
S31508006490002001F09BFE0A2006F0DFF91020804656
S315080064A00020070005E0DFF8540D092101700020DF
S315080064B0F2E0FFB2042F53DA5FFA88F818F5705045
S315080064C080B201F083FE45F2FC7001F07FFEFF20EA
S315080064D000F0E4F8DFF8280D00888246002000F076
S315080064E0DDF8DFF81C0D008883465FFA88F8B8F1F6
S315080064F01E0F04D05FFA88F8B8F1020F15D11FFAFB
S315080065008AFA40F63E00824505DB1FFA8BFB40F609
S315080065103D00834524DB5FFA88F8B8F1020F02D103
S315080065200420804601E00020B6E01FFA8AFA40F609
S315080065303E0082450ADB1FFA8BFB40F63D00834589
S3150800654004DA1020384138EA000803E01020384100
S3150800655050EA08080820384150EA08087F1CA8E7CE
S315080065605FFA88F8B8F1040F01D018F101085FFA4C
S3150800657088F818F5705080B201F028FE45F2FC70D4
S3150800658001F024FE43F6014001F020FE45F2F870C2
S3150800659001F01CFE002001F019FE0A2006F05DF944
S315080065A080208146DFF85C0C00210170002007007E
S315080065B0FFB2082F1EDA4846C0B200F06FF8DFF8BF
S315080065C0400C0088B6B2B04214D0DFF8340C00880C
S315080065D0B6B2B04204D28020384150EA090903E035
S315080065E08020384139EA00094020384150EA090933
S315080065F07F1CDDE719F10100C0B200F04FF8DFF8A3
S31508006600000C008882464846C0B200F047F8DFF81A
S31508006610F00B008883461FFA8AFAB6B2BAEB060070
S31508006620B6B21FFA8BFBB6EB0B01884205DA19F1F5
S315080066300109DFF8CC0BA0F800A0DFF8C40B00882E
S31508006640ADB285421BD3DFF8B80B0088A4B2A042CE
S3150800665015D3DFF81408C08A42F62101884204D10E
S31508006660DFF8A00B80F8008003E0DFF8980BFF2125
S315080066700170DFF8940B80F8009001200CE0DFF839
S31508006680840BFF210170DFF8800BFF210170DFF812
S315080066906C0B032101700020BDE8F28F7CB5040065
S315080066A04FF47055DFF8C007008843F2810188422D
S315080066B00CD1E4B214F530600500280080B201F070
S315080066C085FD41F2FB5001F081FD1CE0DFF89807DB
S315080066D0008843F2014188420BD1E4B214F5806088
S315080066E00500280080B201F071FDBB2001F06EFDA7
S315080066F009E0E4B26519280080B201F067FD45F2A9
S31508006700FB7001F063FD002001F060FD052006F036
S31508006710A4F800200600B6B2032E29DA0021DFF815
S31508006720EC0A08F088FB0021DFF8E40A08F083FB8E
S315080067300121DFF8D80A08F09BFB0121DFF8D00A0F
S3150800674008F030FB0121DFF8C40A08F02BFB012111
S31508006750DFF8B80A08F073FB0028F8D0DFF8B00AAB
S3150800676008F06BFBB6B200A921F81600761CD2E732
S31508006770BDF80000BDF802100818BDF80410081886
S31508006780032190FBF1F0DFF8781A088073BD00004A
S315080067900014014000180140001001402DE9F14F96
S315080067A00C0015005FF080090220FFF7B5F90120FB
S315080067B006F053F84FF6FF70FFF78AFD83460A2066
S315080067C007F063FEDFF8A006008843F2014188421D
S315080067D00BD14FF40051DFF83C0A05F01FFD4FF4CA
S315080067E00071DFF8340A05F016FD012006F035F8C9
S315080067F000200600F6B20A2E04DA002001F0E6FCB4
S31508006800761CF7E7DFF86006008843F20141884204
S3150800681040F0878040F2054001F0D8FCBA2001F02C
S31508006820D5FCDFF8F80906F0A5FA012821D1DFF82A
S31508006830DC0800780700FFB217F5806080B201F027
S31508006840C5FCB92001F0C2FC40F20F4001F0BEFCC5
S31508006850BC2001F0BBFC4FF4906001F0B7FCBB20F4
S3150800686001F0B4FCDFF8B80906F084FA012811D162
S3150800687005E0DFF88809092101700020F1E2DFF858
S315080068808C0800780700DFF89C0906F073FA0128DF
S3150800689027D105E0DFF86409092101700020E0E24C
S315080068A0DFF8680800788046DFF85C0907705FFA49
S315080068B088F818F5806080B201F088FCBE2001F0E7
S315080068C085FCFFB217F5806080B201F07FFCBD2021
S315080068D001F07CFCDFF8500906F04CFA01281AD1C1
S315080068E001E00020BDE2DFF8240800780700FFB2C7
S315080068F017F5806080B201F069FC312001F066FC72
S3150800690040F2014001F062FCB82001F05FFC002073
S3150800691001F05CFC8EE0DFF8E40809210170002034
S315080069209FE2DFF8F80806F025FA01282CD1DFF8EF
S31508006930DC0700780700FFB217F5306080B201F077
S3150800694045FC41F2F95001F041FC40F6353001F0C2
S315080069503DFC41F2FA5001F039FC4FF4386001F081
S3150800696035FC41F2FB5001F031FC40F6363001F0BF
S315080069702DFC41F2FC5001F029FCDFF8A40806F0D2
S31508006980F9F9012811D105E0DFF87008092101702D
S31508006990002066E2DFF8740700780700DFF884084D
S315080069A006F0E8F9012829D105E0DFF850080921A1
S315080069B00170002055E2DFF8540700788046DFF8BA
S315080069C048080770FFB217F5306080B201F0FEFB89
S315080069D041F2FD5001F0FAFB5FFA88F818F53060CD
S315080069E080B201F0F3FB41F2FE5001F0EFFBDFF855
S315080069F0380806F0BFF901281AD101E0002030E274
S31508006A00DFF80807007880465FFA88F818F53060DE
S31508006A1080B201F0DBFB41F2C15001F0D7FB40F632
S31508006A20013001F0D3FB41F2F85001F0CFFB01E051
S31508006A30002016E2002001F0C9FB002001F0C6FB89
S31508006A400A2005F00AFFDFF8BC07002101700020C4
S31508006A500600F6B2082E1EDA4846C0B2FFF71EFE3A
S31508006A60DFF89C070088ADB2A84214D0DFF890077B
S31508006A700088ADB2A84204D28020304150EA090904
S31508006A8003E08020304139EA00094020304150EACD
S31508006A900909761CDDE74846C0B2FFF7FFFDDFF8B7
S31508006AA0C803008843F20141884240F0E38019F1A7
S31508006AB00100C0B2FFF7F2FDDFF8440700888246FE
S31508006AC04846C0B2FFF7EAFDDFF834070088834678
S31508006AD01FFA8AFAADB2BAEB0500ADB21FFA8BFB04
S31508006AE0B5EB0B01884205DA19F10109DFF8100741
S31508006AF0A0F800A0DFF808070088A4B284420CD3E7
S31508006B00DFF8FC060088BDF80010884205D3DFF8D8
S31508006B10F40680F800900120A3E1DFF8040706F0E8
S31508006B2029F901280DD1DFF8E40500780700DFF818
S31508006B30D8060770DFF8E40606F01CF901280ED11E
S31508006B4001E000208DE1DFF8C40500780700FFB2F8
S31508006B503F0917F00707FFB2022F0AD101E000200C
S31508006B607FE1DFF8A4060078401CDFF89C16087061
S31508006B7006E0DFF894060078401EDFF88C160870E9
S31508006B80DFF88406007810F5806080B201F01EFBFD
S31508006B90BD2001F01BFB002001F018FB002001F0CE
S31508006BA015FB0A2005F059FE8020814600200600C4
S31508006BB0F6B2082E1EDA4846C0B2FFF76FFDDFF8B8
S31508006BC040060088ADB2A84214D0DFF83406008823
S31508006BD0ADB2A84204D28020304150EA090903E048
S31508006BE08020304139EA00094020304150EA09093D
S31508006BF0761CDDE719F10100C0B2FFF74FFDDFF89B
S31508006C000006008882464846C0B2FFF747FDDFF80F
S31508006C10F005008883461FFA8AFAADB2BAEB05007A
S31508006C20ADB21FFA8BFBB5EB0B01884205DA19F1F9
S31508006C300109DFF8CC05A0F800A0DFF8C405008834
S31508006C40A4B284420CD3DFF8B8050088BDF800105A
S31508006C50884205D3DFF8AC0580F80090012000E1F2
S31508006C60DFF8A005FF210170DFF89C05FF21017000
S31508006C700020F6E07C48008843F28101884240F013
S31508006C80E78019F10100C0B2FFF708FDDFF87005CB
S31508006C90008882464846C0B2FFF700FDDFF8600567
S31508006CA0008883461FFA8AFAADB2BAEB0500ADB280
S31508006CB01FFA8BFBB5EB0B01884205DA19F10109BE
S31508006CC0DFF83C05A0F800A0DFF834050088A4B278
S31508006CD084420CD3DFF828050088BDF800108842E6
S31508006CE005D3DFF8200580F800900120B9E0DFF829
S31508006CF0300506F03FF801280DD1DFF810040078BA
S31508006D000700DFF804050770DFF8100506F032F80B
S31508006D1001280ED101E00020A3E0DFF8F003007897
S31508006D200700FFB23F0917F00707FFB2052F02D188
S31508006D3004E0002095E0FFB2022F07D1DFF8C8046F
S31508006D400078401CDFF8C014087006E0DFF8B804C5
S31508006D500078401EDFF8B0140870DFF8AC0400783D
S31508006D6010F5306080B201F031FA41F2FD5001F0C1
S31508006D702DFA002001F02AFA002001F027FA0A204D
S31508006D8005F06BFD8020814600200600F6B2082E2D
S31508006D901EDA4846C0B2FFF781FCDFF864040088B3
S31508006DA0ADB2A84214D0DFF858040088ADB2A842A4
S31508006DB004D28020304150EA090903E0802030419E
S31508006DC039EA00094020304150EA0909761CDDE716
S31508006DD019F10100C0B2FFF761FCDFF8240400884E
S31508006DE082464846C0B2FFF759FCDFF8140400880B
S31508006DF083461FFA8AFAADB2BAEB0500ADB21FFA9E
S31508006E008BFBB5EB0B01884205DA19F10109DFF8AE
S31508006E10F003A0F800A0DFF8E8030088A4B28442D3
S31508006E200CD3DFF8DC030088BDF80010884205D3D0
S31508006E30DFF8D00380F80090012012E0DFF8C403E1
S31508006E40FF210170DFF8C003FF210170002008E070
S31508006E50DFF8B003FF210170DFF8AC03FF210170F2
S31508006E600020BDE8F28F00006C0100202DE9F84FE4
S31508006E7004000D0016004FF4806081460220FEF7DC
S31508006E804BFE012005F0E9FC0A2007F0FEFADFF8C0
S31508006E90140D05F06FFF01280AD19C4800788DF87B
S31508006EA00000DFF8040D05F065FF01280BD104E0AA
S31508006EB0D24809210170002024E1944800788046D0
S31508006EC00020070004E0CD4809210170002019E1DF
S31508006ED0FFB2052F04DA002001F078F97F1CF7E7E6
S31508006EE04FF6017001F072F99DF80000B0F5606088
S31508006EF08246504680B201F069F95FFA88F8B8F51B
S31508006F00C0608246504680B201F060F9BD48002153
S31508006F100170BD480021017000200700FFB20B2F49
S31508006F2022DA1021484680B200F0F2F8DFF890071E
S31508006F300088B6B2B04217D0DFF884070088B6B228
S31508006F40B04205D24FF48060384150EA090904E09E
S31508006F504FF48060384139EA00094FF4007038412F
S31508006F6050EA09097F1CD9E7102119F1010080B2FE
S31508006F7000F0CEF8DFF84807008882461021484618
S31508006F8080B200F0C5F8DFF83807008883461FFA94
S31508006F908AFAB6B2BAEB0600B6B21FFA8BFBB6EBA4
S31508006FA00B01884205DA19F10109DFF81407A0F880
S31508006FB000A0DFF80C070088ADB285421FD3DFF8C2
S31508006FC000070088A4B2A04219D31FFA89F94FF422
S31508006FD0807099FBF0F08B4908708A48007850F069
S31508006FE01000884908701FFA89F94FF4807099FBD8
S31508006FF0F0F101FB109184480170012082E081487C
S31508007000002101708048002101704FF4806081469C
S3150800701000200700FFB20B2F22DA1821484680B25B
S3150800702000F076F8DFF898060088B6B2B04217D0B6
S31508007030DFF88C060088B6B2B04205D24FF48060FD
S31508007040384150EA090904E04FF48060384139EACA
S3150800705000094FF40070384150EA09097F1CD9E746
S31508007060182119F1010080B200F052F8DFF8500635
S31508007070008882461821484680B200F049F8DFF8B1
S315080070804006008883461FFA8AFAB6B2BAEB0600AB
S31508007090B6B21FFA8BFBB6EB0B01884205DA19F17B
S315080070A00109DFF81C06A0F800A0DFF8140600881E
S315080070B0ADB285421FD3DFF808060088A4B2A04205
S315080070C019D31FFA89F94FF4807099FBF0F04D49EE
S315080070D008704C48007850F018004A4908701FFAA2
S315080070E089F94FF4807099FBF0F101FB109146483D
S315080070F00170012006E04348FF2101704248FF2144
S3150800710001700020BDE8F28F032101008C0B0020DE
S315080071102DE9FC4704000D004FF47046A4B24FF465
S31508007120807094FBF0F00700A4B24FF4807094FBD3
S31508007130F0F101FB10418846DFF8100D05F01AFE44
S31508007140012803D1DFF8080D007881465FFA88F830
S31508007150B8F580500600300080B201F037F819F013
S31508007160800955EA090957EA09095FFA89F9B9F55B
S3150800717070600600300080B201F028F8052005F09E
S315080071806CFB002082461FFA8AFABAF1030F24DA4A
S3150800719000211E4807F04FFE00211D4807F04BFE50
S315080071A001211A4807F064FE0121194807F0FAFD83
S315080071B00121164807F0F6FD0121144807F03FFEA5
S315080071C00028F9D0124807F038FE1FFA8AFA00A9F3
S315080071D021F81A001AF1010AD5E7BDF80000BDF832
S315080071E002100818BDF804100818032190FBF1F0E6
S315080071F0DFF8CC140880BDE8F3870000870B002071
S315080072006C0B0020820B0020830B0020000400403A
S31508007210000800400010014000080140202101003C
S315080072202421010025210100272101002DE9F14F24
S315080072300C0015004FF4806081460220FEF76CFCB6
S31508007240012005F00AFB0A2007F01FF900200600B6
S31508007250F6B2052E04DA002000F0B8FF761CF7E730
S31508007260DFF8F00B008843F21631884240F0CB80F5
S31508007270DFF8E40B05F07EFD01280AD1DFF8D00B14
S3150800728000780700DFF8D40B05F074FD01282AD131
S3150800729005E0DFF8CC0B0921017000200EE2DFF8CB
S315080072A0B00B007880465FFA88F818F5705081466A
S315080072B0484680B200F08AFF45F2FB7000F086FF70
S315080072C0FFB217F570508146484680B200F07EFF3F
S315080072D045F2FA7000F07AFFDFF8880B05F04AFDF0
S315080072E0012811D105E0DFF8780B0921017000208B
S315080072F0E4E1DFF85C0B00780700DFF86C0B05F0BB
S3150800730039FD01282ED105E0DFF8540B092101705B
S315080073100020D3E1DFF8380B00788046DFF84C0B05
S3150800732080F800805FFA88F818F57050814648465C
S3150800733080B200F04BFF45F2FD7000F047FFFFB248
S3150800734017F570508146484680B200F03FFF45F277
S31508007350FC7000F03BFFDFF88C0D05F00BFD0128F3
S3150800736011D105E0DFF8F80A092101700020A5E12E
S31508007370DFF8DC0A00780700DFF86C0D05F0FAFC88
S3150800738001283AD105E0DFF8D80A09210170002062
S3150800739094E1DFF8BC0A0078804658F018085FFACE
S315080073A088F818F570508146484680B200F00EFFFE
S315080073B045F2FF7000F00AFFFFB217F570508146DC
S315080073C0484680B200F002FF45F2FE7000F0FEFE6D
S315080073D0002000F0FBFE002000F0F8FE43F6014016
S315080073E000F0F4FE45F2F77000F0F0FE002000F021
S315080073F0EDFE002000F0EAFE28E0DFF8640A092125
S31508007400017000205AE14FF4986000F0DFFE40F664
S31508007410C12000F0DBFE4FF4896000F0D7FE40F68D
S31508007420F92000F0D3FE40F2024000F0CFFE40F60D
S31508007430FA2000F0CBFE40F2014000F0C7FE40F60D
S31508007440F82000F0C3FE002000F0C0FE4FF4806074
S315080074508146DFF8700D00210170DFF86C0D002100
S31508007460017000200600F6B20B2E22DADFF8FC09BE
S315080074700178484680B200F099FB91480088ADB281
S31508007480A84216D08E480088ADB2A84205D24FF45D
S315080074908060304150EA090904E04FF480603041C9
S315080074A039EA00094FF40070304150EA0909761CA0
S315080074B0D9E7DFF8B809017819F1010080B200F0C0
S315080074C075FB7F4800888246DFF8A00901784846A0
S315080074D080B200F06BFB7A48008883461FFA8AFA66
S315080074E0ADB2BAEB0500ADB21FFA8BFBB5EB0B01DB
S315080074F0884204DA19F101097148A0F800A0704819
S315080075000088A4B284421BD36D480088BDF80010D9
S31508007510884215D31FFA89F94FF4807099FBF0F069
S31508007520DFF8A01C08701FFA89F94FF4807099FBE0
S31508007530F0F101FB1091DFF85C0D01700120BDE050
S31508007540DFF81009008843F21631884210D1DFF8B7
S315080075501C09007810F00700DFF810190870DFF82A
S315080075600C09007850F05000DFF8001908701FE089
S315080075704FF4986000F02AFE40F6C12000F026FE7F
S315080075804FF4996000F022FE40F6F92000F01EFE46
S3150800759040F2024000F01AFE40F6FA2000F016FE0D
S315080075A040F2014000F012FE40F6F82000F00EFE10
S315080075B0002000F00BFE4FF480608146DFF8040CD3
S315080075C000210170DFF8000C01210170002006007F
S315080075D0F6B20B2E22DADFF894080178484680B214
S315080075E000F0E4FA36480088ADB2A84216D034480E
S315080075F00088ADB2A84205D24FF48060304150EA07
S31508007600090904E04FF48060304139EA00094FF473
S315080076100070304150EA0909761CD9E7DFF84C08B2
S31508007620017819F1010080B200F0C0FA24480088F8
S315080076308246DFF838080178484680B200F0B6FA84
S315080076401F48008883461FFA8AFAADB2BAEB0500CE
S31508007650ADB21FFA8BFBB5EB0B01884204DA19F1C0
S3150800766001091748A0F800A015480088A4B284426A
S315080076701BD313480088BDF80010884215D31FFA9B
S3150800768089F94FF4807099FBF0F0DFF8381B087021
S315080076901FFA89F94FF4807099FBF0F101FB1091FC
S315080076A0DFF8F00B0170012008E0DFF8180BFF2166
S315080076B00170DFF8E00BFF2101700020BDE8F28FB2
S315080076C06C0B00202DE9F34F83B014004FF4805162
S315080076D0DFF8C40B04F0A2FD4FF480608146022057
S315080076E0FEF71AFA012005F0B8F8DFF8B00B05F036
S315080076F041FB01280AD1DFF8580700780600DFF8B1
S31508007700A00B05F037FB012823D10BE0DFF8500763
S31508007710092101704FF48051DFF87C0B04F07BFDE2
S3150800772000203CE2DFF82807007807008DF80160A2
S3150800773017F007008DF8000048F20200FEF7C8FDB2
S31508007740ADF80600BDF806004FF6FF7188420CD169
S3150800775028E0DFF80C07092101704FF48051DFF8A3
S31508007760380B04F058FD002019E2BDF806004FF466
S31508007770807190FBF1F0804618F007089DF800002C
S315080077805FFA88F840450DD0DFF8D4061521017058
S315080077904FF48051DFF8000B04F03DFDDFF8C0061A
S315080077A00078FCE10A2006F070FE00200500EDB224
S315080077B0052D04DA002000F009FD6D1CF7E79DF899
S315080077C00000002811D10A2082460920834640F28B
S315080077D0E240040040F2DE40ADF80C0040F2E6401C
S315080077E0ADF81000702006006CE09DF80000012836
S315080077F011D1122082461120834640F2E24004004D
S3150800780040F2DE40ADF80C0040F2E640ADF810005C
S315080078106020060056E09DF80000022811D12920B4
S3150800782082462A20834640F2E240040040F2DE40C7
S31508007830ADF80C0040F2E640ADF810005020060006
S3150800784040E09DF80000032811D13F2082463E20E3
S31508007850834640F2E240040040F2DE40ADF80C00F8
S3150800786040F2E640ADF81000402006002AE09DF8F8
S315080078700000042811D13F2082463E20834640F26C
S31508007880E240040040F2DE40ADF80C0040F2E6406B
S31508007890ADF810003020060014E09DF80000052819
S315080078A010D13F2082463E20834640F6E30004007E
S315080078B040F6DC00ADF80C0040F6EA00ADF8100022
S315080078C010200600F6B216F570508146484680B27A
S315080078D000F07CFC45F2F97000F078FC57F0D80708
S315080078E0FFB217F570508146484680B200F06EFC2C
S315080078F045F2FE7000F06AFC9DF8010050F0FD00AC
S315080079000600F6B216F570508146484680B200F079
S315080079105DFC45F2FD7000F059FCDFF88809FFB2FE
S315080079200780DFF8800900880002DFF878190880E8
S31508007930DFF870090088F6B23018DFF86819088091
S31508007940002000F043FC002000F040FC43F6014014
S3150800795000F03CFC45F2F87000F038FC002000F01E
S3150800796035FC002000F032FC4FF480608146DFF8D9
S31508007970540800210170DFF81C0900210170DFF8A6
S3150800798048080021017000200500EDB20B2D23DA0E
S315080079905146C9B2484680B200F0A2F9DFF8080994
S315080079A00088A4B2A04217D0DFF8FC080088A4B269
S315080079B0A04205D24FF48060284150EA090904E044
S315080079C04FF48060284139EA00094FF400702841D5
S315080079D050EA09096D1CD8E75146C9B2484680B233
S315080079E000F07EF9DFF8C0080088ADF804005146BB
S315080079F0C9B219F1010080B200F072F9DFF8A808DF
S31508007A000088ADF80200BDF80200A4B2001BA4B2BB
S31508007A10BDF80410611A884206DA19F10109DFF87F
S31508007A208808BDF802100180BDF81000DFF8781844
S31508007A300988884220D3DFF870080088BDF80C1042
S31508007A40884219D31FFA89F94FF4807099FBF0F030
S31508007A50DFF8701708701FFA89F94FF4807099FBE0
S31508007A60F0F101FB1091DFF82C080170DFF8FC0338
S31508007A7080F800A0012092E04FF480608146DFF88C
S31508007A80440700210170DFF80C0800210170DFF8B7
S31508007A9038070121017000200500EDB20B2D23DA0D
S31508007AA05946C9B2484680B200F01AF9DFF8F80715
S31508007AB00088A4B2A04217D0DFF8EC070088A4B269
S31508007AC0A04205D24FF48060284150EA090904E033
S31508007AD04FF48060284139EA00094FF400702841C4
S31508007AE050EA09096D1CD8E75946C9B219F10100CF
S31508007AF080B200F0F5F8DFF8B0070088ADF80200AC
S31508007B005946C9B2484680B200F0EAF8DFF8980745
S31508007B100088ADF80400BDF80200A4B2001BA4B2A8
S31508007B20BDF80410611A884206DA19F10109DFF86E
S31508007B307807BDF802100180BDF81000DFF8681755
S31508007B40098888421FD3DFF860070088BDF80C1043
S31508007B50884218D31FFA89F94FF4807099FBF0F020
S31508007B60DFF8601608701FFA89F94FF4807099FBE0
S31508007B70F0F101FB1091DFF81C070170BB4880F893
S31508007B8000B001200BE0DFF83C06FF210170DFF8AA
S31508007B900407FF210170B548FF210170002005B0D8
S31508007BA0BDE8F08FE4010100F40101002DE9F0437E
S31508007BB083B004000D004FF48066A4B24FF48070C1
S31508007BC094FBF0F00700A4B24FF4807094FBF0F138
S31508007BD001FB104188469F48008843F216318842C7
S31508007BE01CD115F0F805EF195FFA88F818F57050EA
S31508007BF00600300080B200F0E9FA45F2FC7000F0A9
S31508007C00E5FAFFB217F570500600300080B200F0B2
S31508007C10DDFA45F2FD7000F0D9FA18E05FFA88F847
S31508007C2018F580600600300080B200F0CFFA40F602
S31508007C30FB2000F0CBFAFFB217F580600600300093
S31508007C4080B200F0C3FA40F6FC2000F0BFFA00202C
S31508007C5000F0BCFA052004F000FE002081461FFA59
S31508007C6089F9B9F1030F2BDA0021DFF8400607F08E
S31508007C70E2F80021DFF8380607F0DDF80121DFF821
S31508007C802C0607F0F5F80121DFF8240607F08AF834
S31508007C900121DFF8180607F085F80121DFF80C0640
S31508007CA007F0CDF80028F8D0DFF8040607F0C5F885
S31508007CB01FFA89F900A921F8190019F10109CEE777
S31508007CC0BDF80000BDF802100818BDF80410081821
S31508007CD0032190FBF1F0DFF8D0150880BDE8F783A3
S31508007CE02DE9F04F83B004000D004FF48066EDB225
S31508007CF0A4B26005400D10EBC52082461FFA8AFA29
S31508007D005FEA1A200700504680465FFA88F818F599
S31508007D1070500600300080B200F058FA45F2FB7049
S31508007D2000F054FA002000F051FAFFB217F570502F
S31508007D300600300080B200F049FA45F2FC7000F007
S31508007D4045FA002000F042FAC5F34010C0B2DFF849
S31508007D50541509884FF6FE721140084382461FFAE9
S31508007D608AFA5FEA1A200700504680465FFA88F8C2
S31508007D7018F570500600300080B200F027FA00208F
S31508007D8083465FFA8BFBBBF10A0F02DA1BF1010B84
S31508007D90F7E745F2FD7000F019FA002000F016FA30
S31508007DA0FFB217F570500600300080B200F00EFAE8
S31508007DB045F2FE7000F00AFA002000F007FA0520E6
S31508007DC004F04BFD002081461FFA89F9B9F1030F2B
S31508007DD02BDA0021DFF8D40407F02DF80021DFF8AC
S31508007DE0D00407F028F80121DFF8C00407F040F8AE
S31508007DF00121DFF8BC0406F0D5FF0121DFF8AC0449
S31508007E0006F0D0FF0121DFF8A40407F018F80028CF
S31508007E10F8D0DFF89C0407F010F81FFA89F900A9D2
S31508007E2021F8190019F10109CEE7BDF80000BDF8DF
S31508007E3002100818BDF804100818032190FBF1F089
S31508007E40DFF864140880BDE8F78F0000E20101003E
S31508007E508C0B00206C0100202B810100258101007C
S31508007E60870B00202681010027810100840B002052
S31508007E702DE9F04704000D001600DFF8380404F079
S31508007E8079FF012805D0DFF83004092101700020A8
S31508007E9025E10220FDF740FE012004F0DEFC0A2061
S31508007EA006F0F3FA00200700FFB2052F04DA0020D7
S31508007EB000F08CF97F1CF7E743F6704000F086F96E
S31508007EC045F2F97000F082F943F61C4000F07EF99D
S31508007ED045F2FA7000F07AF94FF4705000F076F92E
S31508007EE045F2FB7000F072F943F6FC4000F06EF9BB
S31508007EF045F2FC7000F06AF943F6074000F066F9AF
S31508007F0045F2FD7000F062F943F6014000F05EF9B3
S31508007F1045F2F87000F05AF9002000F057F9A94820
S31508007F2000210170A848002101704FF410508046C6
S31508007F3000200700FFB20B2F20DA404680B200F07F
S31508007F40D5F8DFF864030088B6B2B04216D0D64832
S31508007F500088B6B2B04205D24FF48060384150EA84
S31508007F60080804E04FF48060384138EA00084FF406
S31508007F700070384150EA08087F1CDBE718F1010059
S31508007F8080B200F0B3F8C84800888146404680B2FF
S31508007F9000F0ACF8C448008882461FFA89F9B6B2E0
S31508007FA0B9EB0600B6B21FFA8AFAB6EB0A0188429E
S31508007FB004DA18F10108BC48A0F80090BA4800880D
S31508007FC0ADB2854218D3B8480088A4B2A04213D3EC
S31508007FD01FFA88F84FF4807098FBF0F0794908701A
S31508007FE01FFA88F84FF4807098FBF0F101FB1081B6
S31508007FF0A8480170012072E0724800210170724899
S31508008000012101704FF43050804600200700FFB26E
S315080080100B2F1FDA404680B200F068F8A2480088A5
S31508008020B6B2B04216D0A0480088B6B2B04205D261
S315080080304FF48060384150EA080804E04FF4806045
S31508008040384138EA00084FF40070384150EA080809
S315080080507F1CDCE718F1010080B200F047F892486F
S3150800806000888146404680B200F040F88E48008875
S3150800807082461FFA89F9B6B2B9EB0600B6B21FFAFC
S315080080808AFAB6EB0A01884204DA18F1010886482A
S31508008090A0F8009084480088ADB2854218D382487B
S315080080A00088A4B2A04213D31FFA88F84FF4807050
S315080080B098FBF0F0434908701FFA88F84FF480706F
S315080080C098FBF0F101FB108172480170012006E06F
S315080080D03C48FF2101706F48FF2101700020BDE870
S315080080E0F087000028810100298101002DE9FC4163
S315080080F004004FF47055A4B24FF4807094FBF0F06E
S315080081000600A4B24FF4807094FBF0F101FB104115
S315080081100F00FFB217F570500500280080B200F076
S3150800812055F845F2FB7000F051F8F6B216F57050A6
S315080081300500280080B200F049F845F2FC7000F00E
S3150800814045F8002000F042F8052004F086FB0020E0
S3150800815080461FFA88F8B8F1030F24DA002153483D
S3150800816006F069FE0021524806F065FE01214F48D7
S3150800817006F07EFE01214E4806F014FE01214B480A
S3150800818006F010FE0121494806F059FE0028F9D0EC
S31508008190474806F052FE1FFA88F800A921F8180089
S315080081A018F10108D5E7BDF80000BDF80210081857
S315080081B0BDF804100818032190FBF1F03A4908802D
S315080081C0BDE8F381820B0020850B0020F8B504007A
S315080081D000200500EDB2102D2BDAA4B254FA05F0F2
S315080081E00600B6B2F00705D54FF48051334804F0BF
S315080081F012F804E04FF48051304804F00FF84FF4B9
S3150800820000612E4804F007F800200700FFB20C2F83
S3150800821001DA7F1CFAE74FF40061284803F0FEFFF5
S3150800822000200700FFB20C2F01DA7F1CFAE76D1C4D
S31508008230D0E74FF40061214803F0EDFF0020070066
S31508008240FFB20C2F01DA7F1CFAE74FF400611B48D6
S3150800825003F0E4FF00200700FFB20C2F01DA7F1CB1
S31508008260FAE74FF40061154803F0D5FF0020070030
S31508008270FFB20C2F01DA7F1CFAE74FF400610F48B2
S3150800828003F0CCFF00200700FFB20C2F01DA7F1C99
S31508008290FAE7F1BD830B0020000C01402421010000
S315080082A025210100740B00206C0B002000040040FF
S315080082B00008004023410100870B002000140140FC
S315080082C02DE9FC4704000D00EDB215F03F00A4B2FD
S315080082D0E1B211EB002082461FFA8AFA5FEA1A20F9
S315080082E00700504680465FFA88F818F530600600A1
S315080082F0300080B2FFF76AFF41F2FB5006003000FB
S3150800830080B2FFF763FFFFB217F530600600300052
S3150800831080B2FFF75BFF41F2FC500600300080B2E6
S31508008320FFF754FF0020FFF751FF052004F095FAE8
S31508008330002081461FFA89F9B9F1030F2BDA0021CB
S31508008340DFF8A40506F077FD0021DFF8A00506F0A2
S3150800835072FD0121DFF8900506F08AFD0121DFF89C
S315080083608C0506F01FFD0121DFF87C0506F01AFDD5
S315080083700121DFF8740506F062FD0028F8D0DFF861
S315080083806C0506F05AFD1FFA89F900A921F81900AB
S3150800839019F10109CEE7BDF80000BDF8021008186A
S315080083A0BDF804100818032190FBF1F0DFF840151A
S315080083B00880BDE8F3872DE9F84F04000D00160084
S315080083C01F005FF0800BDFF82C0500210170DFF835
S315080083D0280500210170002080465FFA88F8B8F168
S315080083E0080F24DA2100C9B2584680B2FFF768FFA1
S315080083F0DFF8FC040088ADB2A84218D0DFF8F00414
S315080084000088ADB2A84205D2802050FA08F050EA9A
S315080084100B0B04E0802050FA08F03BEA000B4020E2
S3150800842050FA08F050EA0B0B18F10108D5E72100BD
S31508008430C9B2584680B2FFF743FFDFF8B404008894
S3150800844082462100C9B21BF1010080B2FFF738FF4E
S31508008450DFF89C04008881461FFA89F9ADB2B9EBAA
S315080084600500ADB21FFA8AFAB5EB0A01884205DAA9
S315080084701BF1010BDFF87804A0F80090DFF8700410
S315080084800088BFB287420ED3DFF864040088B6B20C
S31508008490B04208D3DFF86404A0F800B0DFF860043F
S315080084A00470012000E00020BDE8F28F2DE9F34FAB
S315080084B083B0140000208DF806004FF48051DFF8D1
S315080084C0440403F0ABFEDFF8400404F053FCDFF885
S315080084D03C04007810F00700DFF830140870DFF865
S315080084E02C040078042804D0DFF820040078022839
S315080084F003D104208DF8060007E0DFF810040078A1
S31508008500032802D108208DF806009DF80600DFF83A
S31508008510F81311EB400004F02DFC012830D1DFF8E8
S31508008520EC030078060016F007008DF80000DFF867
S31508008530D80304F01FFCDFF8D403007810F0170006
S315080085408146DFF8CC0304F015FC00208DF80700FF
S315080085509DF807004FF480715FFA89F901FB0090D6
S31508008560ADF80400DFF8AC030089FDF7B1FE8346D9
S315080085701BF0070B1FFA8BFBBBF1030F17D105E0A6
S31508008580DFF8580D092101700020AAE1BDF80400A2
S31508008590400705D5DFF8440D082101700020A0E149
S315080085A048F20800FDF794FEADF8040032E01FFA21
S315080085B08BFBBBF1020F14D1BDF8040010F00700C5
S315080085C01FFA8BFB584505D0DFF8100D08210170FE
S315080085D0002086E148F20400FDF77AFEADF80400B3
S315080085E018E01FFA8BFBBBF1040F13D1BDF804008A
S315080085F010F007001FFA8BFB584505D0DFF8DC0C96
S315080086000821017000206CE148F20400FDF760FEC5
S31508008610ADF80400BDF8040043F6FF7188421DD08A
S31508008620BDF804004FF4807190FBF1F202FB1102D1
S31508008630914619F007099DF800005FFA89F948453F
S315080086400CD0DFF8980C152101704FF48051AD4815
S3150800865003F0E1FDDFF8840C007842E10A2005F01A
S3150800866014FF00200500EDB2052D04DA0020FFF7FF
S31508008670ADFD6D1CF7E79DF80000002816D109200E
S315080086808DF8030008208DF802000A208DF80100F5
S315080086904FF41B60ADF80C0040F6C410040040F619
S315080086A0D810ADF810002020804685E09DF800001F
S315080086B0012816D112208DF8030011208DF802002A
S315080086C013208DF801004FF41B60ADF80C0040F63E
S315080086D0C410040040F6D810ADF8100040208046BB
S315080086E06AE09DF80000022816D118208DF80300CC
S315080086F017208DF8020019208DF801004FF49B60B1
S31508008700ADF80C0040F2E240040040F2EC40ADF84F
S315080087101000402080464FE09DF80000032816D13F
S315080087202C208DF803002B208DF802000D208DF8E3
S3150800873001004FF41B60ADF80C0040F6C4100400AD
S3150800874040F6D810ADF810008020804634E09DF839
S315080087500000042816D116208DF8030015208DF880
S31508008760020017208DF801004FF41B60ADF80C00CD
S3150800877040F6C410040040F6D810ADF81000A0204A
S31508008780804619E09DF80000052815D119208DF8B6
S31508008790030018208DF802001A208DF8010040F613
S315080087A0D100ADF80C0040F6E300040040F6F500F1
S315080087B0ADF81000C020804658F01F085FFA88F808
S315080087C018F530608246504680B2FFF7FFFC41F24A
S315080087D0F9508246504680B2FFF7F8FC56F0D806A4
S315080087E0F6B216F530608246504680B2FFF7EEFCC8
S315080087F041F2FF508246504680B2FFF7E7FCDFF8A9
S31508008800E00A04F0B7FA012836D140480078070094
S3150800881017F0100050F0EE07FFB217F530608246E9
S31508008820504680B2FFF7D2FC41F2FE5082465046CF
S3150800883080B2FFF7CBFC0020FFF7C8FC0020FFF74B
S31508008840C5FC40F60130FFF7C1FC41F2F850FFF7CE
S31508008850BDFC0020FFF7BAFC0020FFF7B7FCBDF807
S315080088601030BDF80C20210089B29DF80300FFF7EF
S31508008870A2FD00280BD10CE0DFF8600A092101707F
S315080088804FF480511F4803F0C6FC002029E0012060
S3150800889027E0BDF81030BDF80C20210089B29DF8FC
S315080088A00200FFF788FD002801D0012019E0BDF875
S315080088B01030BDF80C20210089B29DF80100FFF7A1
S315080088C07AFD002801D001200BE00C484FF6FF7115
S315080088D001800B48FF210170DFF8000A03210170AF
S315080088E0002005B0BDE8F08F0004004000080040F5
S315080088F06C0B0020820B0020830B0020760B0020D7
S315080089008A0B0020000C0140202101008C0B00205E
S31508008910212101006C0100202DE9F04F87B00024C9
S3150800892000208DF806005FF0000A5FF0000B0020BB
S315080089308DF8000000208DF801000121DFF8A40958
S3150800894003F06CFC0021002003F04FFD0A2003F021
S3150800895084FF022000F0D8FC012003F07EFF4FF6CA
S31508008960FF70FDF7B5FC0600B6B246F26000864217
S3150800897006D0DFF8680904210170002000F0AABCBF
S315080089804FF48051DFF8600903F048FCDFF85C0912
S315080089900089FDF79DFC070017F00707DFF8500967
S315080089A004F0E8F9DFF84C09007810F00700DFF862
S315080089B044190870BFB2032F0BD1DFF838090078C5
S315080089C004282ED1DFF8140908210170002000F0D0
S315080089D081BCBFB2022F10D1DFF81809007804282D
S315080089E004D0DFF81009007803281AD1DFF8EC085C
S315080089F008210170002000F06DBCBFB2042F10D111
S31508008A00DFF8F0080078032804D0DFF8E8080078D3
S31508008A10022806D1DFF8C40808210170002000F0FA
S31508008A2059BCBFB2072F4FD0DFF8C8080078042812
S31508008A3004D0DFF8C0080078022803D104208DF896
S31508008A40000007E0DFF8AC080078032802D1082008
S31508008A508DF800009DF80000B0F5004080B2FDF7E3
S31508008A6037FC0600DFF8900804F084F901280CD0DA
S31508008A70DFF86808092101704FF48051DFF86808AB
S31508008A8003F0C9FB002000F025BCB6B243F6FF7020
S31508008A90864219D0B6B24FF4807096FBF0F101FB0E
S31508008AA01061884618F00708DFF84808007810F0C3
S31508008AB007005FFA88F8404506D0DFF82008152138
S31508008AC00170002000F006BC4FF48051DFF818084A
S31508008AD003F0A1FBDFF8140890F8220001281CD146
S31508008AE0DFF80808008846F26001884211D1DFF8ED
S31508008AF0FC07428ADFF8F407C189DFF8F007008A25
S31508008B00FFF7D4FC8DF806009DF80600002804D16E
S31508008B1001E00020DEE30020DCE30121DFF8C407E2
S31508008B2003F07CFB0021002003F05FFC0A2003F021
S31508008B3094FE022000F0E8FB012003F08EFE4FF6BB
S31508008B40FF70FDF7C5FB06004FF40051DFF82C094E
S31508008B5003F064FB4FF40071DFF8880703F05BFB52
S31508008B608021DFF8180903F056FB0A2003F075FE8A
S31508008B70B6B246F26000864205D0DFF860070421E7
S31508008B8001700020A6E3DFF8680704F0F3F8DFF8C1
S31508008B906407007810F017008046DFF8600704F0D5
S31508008BA0E9F8002081465FFA89F94FF480705FFA88
S31508008BB088F800FB09800600DFF830074FF400410B
S31508008BC0018100200400601C0400C0B206282EDAC9
S31508008BD0310089B2DFF814070089FDF71DFB002074
S31508008BE00500EDB2032D0DDADFF80007018928002C
S31508008BF0C0B2FDF7ADFB0700BFB2B6B2B74201D1AE
S31508008C006D1CEEE7EDB2032D02D1002004000EE044
S31508008C10E4B2042CD7D1DFF8D4060089DFF8E016D1
S31508008C200880DFF8B8060A210170002052E35FFACF
S31508008C3088F8B8F1120F07D100208DF8000040F22D
S31508008C40FF30ADF8020020E05FFA88F8B8F1130F9C
S31508008C5007D104208DF8000040F2FF30ADF802007D
S31508008C6013E05FFA88F8B8F1150F04D05FFA88F8B0
S31508008C70B8F1140F07D100208DF8000040F2FF70FC
S31508008C80ADF8020001E0002024E30121DFF85406D4
S31508008C9003F0C4FA0021002003F0A7FB0A2003F022
S31508008CA0DCFD022000F030FB012003F0D6FD4FF674
S31508008CB0FF70FDF70DFB06004FF40051DFF8BC0707
S31508008CC003F0ACFA4FF40071DFF8180603F0A3FAC4
S31508008CD08021DFF8A80703F09EFA0A2003F0BDFDFD
S31508008CE0DFF8B00C40788DF80100DFF8A80C807822
S31508008CF0DFF8A01CC97811EB0020ADF80E00DFF8EC
S31508008D00940C0079DFF88C1C497911EB0020ADF83A
S31508008D100C00DFF8800C8079DFF8781CC97911EB34
S31508008D200020ADF80A00DFF86C0C007ADFF8641C46
S31508008D30497A11EB0020ADF80800DFF8580C807A64
S31508008D40DFF8501CC97A090411EB0060DFF8441CEF
S31508008D50097B10EB0120DFF83C1C497B08180590BD
S31508008D60DFF8300CC07BDFF82C1C097C090411EBFA
S31508008D700060DFF8201C497C10EB0120DFF8141C8A
S31508008D80897C08180690DFF80C0CC07EDFF8041CF6
S31508008D90097F090411EB0060DFF8F81B497F10EB27
S31508008DA00120DFF8F01B897F0818049004980599BC
S31508008DB0884217D2DFF8DC0BDFF8D81BC97D817231
S31508008DC0DFF8D00BDFF8CC1B097EC172DFF8C40BC5
S31508008DD0DFF8C01B497E0173DFF8B80BDFF8B41B58
S31508008DE0897E4173DFF8AC0B00780A280BD1DFF8CF
S31508008DF0A80B00680699884205D3DFF8E0040E211F
S31508008E000170002066E2DFF8E40490F827000F21DD
S31508008E10084200F00581002082464FF48051DFF8B1
S31508008E20C80403F0FBF9DFF8C40400218180BDF80B
S31508008E300200ADF802004FF6FF7004F068F8DFF89C
S31508008E40AC048088FDF744FA0700DFF8A0048088A0
S31508008E50DFF8AC140880BDF80200DFF8A41409880E
S31508008E608842C0F0D88003F004FFDFF88804007851
S31508008E7080465FFA88F818EB0A0A03F0FAFEDFF86C
S31508008E807404007881465FFA89F919EB0A0A5FFAD1
S31508008E9089F94FF480705FFA88F800FB09800600AC
S31508008EA0DFF85C040088022190FBF1F0ADF80400BD
S31508008EB0DFF84C040088801CDFF844140880DFF8CB
S31508008EC0D40A00780A284ED1BDF80400BDF80E1061
S31508008ED088420AD15FFA89F94FF48070DFF8B41A2C
S31508008EE0497B00FB091006003DE0BDF80400BDF80B
S31508008EF00C1088420ED19DF8010002280ADB5FFAA1
S31508008F0089F94FF48070DFF88C1A097B00FB091089
S31508008F10060028E0BDF80400BDF80A1088420ED104
S31508008F209DF8010003280ADB5FFA89F94FF480707F
S31508008F30DFF8601AC97A00FB0910060013E0BDF8CD
S31508008F400400BDF8081088420DD19DF801000428D8
S31508008F5009DB5FFA89F94FF48070DFF8381A897AE5
S31508008F6000FB09100600DFF88C03067000200400D9
S31508008F70601C0400C0B2062842DA00208346DFF8E7
S31508008F806C03008846F26001884209D1B6B24FF6F2
S31508008F90FF70864204D143F6FF700600012083461F
S31508008FA0B6B24FF6FF70864208D05FFA8BFBBBF16C
S31508008FB0000F03D1300080B2FDF746F80020070005
S31508008FC000200500EDB2032D0CDA2800C0B2FCF72C
S31508008FD083FF0700BFB2B6B2B004800C874201D146
S31508008FE06D1CEFE7EDB2032D02D10020040007E067
S31508008FF0E4B2042CBCD1B94808210170002069E10B
S31508009000BF480088BDF802108842BFF424AF142078
S3150800901005F03BFA1FE74FF48051B34803F0FBF81D
S31508009020DFF8780903F0A6FEDFF8740900888046A1
S31508009030DFF8700903F09EFEAE4800788146B14815
S31508009040007881465FFA89F94FF480705FFA88F8EC
S3150800905000FB098006009DF8000047F6FE71401ADD
S31508009060A2490881A1480089FDF732F90700BFB275
S3150800907043F6FF70874200D03E0000200400601CC3
S315080090800400C0B206282BDA310089B29748008955
S31508009090FDF7C2F800200500EDB2032D0EDA93485D
S315080090A001892800C0B2FDF753F90700BFB2B6B26E
S315080090B0B004800C874201D16D1CEDE7EDB2032D9B
S315080090C002D1002004000BE0E4B2042CD7D1834877
S315080090D00A21017085480089894908800020F9E03D
S315080090E0DFF8840C03F046FE8248007880467C4808
S315080090F003F040FE7F48007881465FFA89F94FF40D
S3150800910080705FFA88F800FB098006009DF8000069
S3150800911047F6FD71401A7549088100200400601C55
S315080091200400C0B206282BDA310089B26F480089DC
S31508009130FDF772F800200500EDB2032D0EDA6B4834
S3150800914001892800C0B2FDF703F90700BFB2B6B21D
S31508009150B004800C874201D16D1CEDE7EDB2032DFA
S3150800916002D1002004000BE0E4B2042CD7D15B48FE
S315080091700A2101705D480089614908800020A9E03C
S315080091805D4803F0F7FD5B4800788046DFF8700C11
S3150800919003F0F0FD5748007881465FFA89F94FF4E5
S315080091A080705FFA88F800FB098006009DF80000C9
S315080091B047F6FC71401A4D49088100200400601CDE
S315080091C00400C0B206282BDA310089B24748008964
S315080091D0FDF722F800200500EDB2032D0EDA43480C
S315080091E001892800C0B2FDF7B3F80700BFB2B6B2CE
S315080091F0B004800C874201D16D1CEDE7EDB2032D5A
S3150800920002D1002004000BE0E4B2042CD7D1334885
S315080092100A2101703548008939490880002059E03B
S31508009220DFF8E00B03F0A6FD324800788046DFF849
S31508009230D80B03F09FFD2F48007881465FFA89F91D
S315080092404FF480705FFA88F800FB098006009DF8E5
S31508009250000047F6FF71401A2449088100200400DF
S31508009260601C0400C0B206282BDA310089B21F48F8
S315080092700089FCF7D1FF00200500EDB2032D0EDAB8
S315080092801A4801892800C0B2FDF762F80700BFB284
S31508009290B6B2B004800C874201D16D1CEDE7EDB281
S315080092A0032D02D1002004000BE0E4B2042CD7D130
S315080092B00A480A2101700D480089114908800020D2
S315080092C008E00121074802F0A9FF0021002003F069
S315080092D08CF8012007B0BDE8F08F0000870B00204E
S315080092E02721010000080140000C01406C01002004
S315080092F0202101008C0B00202821010021210100DA
S315080093006E0B00208A0B002038B5040000210020CF
S3150800931003F06BF8642003F0A0FA4FF40061DFF85D
S31508009320EC0A02F07BFF4FF48051DFF8E00A02F006
S3150800933075FFE4B2012C13D14FF40041DFF8D00ACF
S3150800934002F069FF00200500EDB20C2D01DA6D1C54
S31508009350FAE74FF48041DFF8B80A02F05CFF0AE04A
S315080093600121DFF8B00A02F056FF4FF48041DFF81A
S31508009370A00A02F053FF4021404802F04FFF0020A8
S315080093800500EDB20C2D01DA6D1CFAE70020050088
S31508009390EDB20C2D01DA6D1CFAE700200500EDB2DE
S315080093A00C2D01DA6D1CFAE700200500EDB20C2D34
S315080093B001DA6D1CFAE700200500EDB20C2D01DA82
S315080093C06D1CFAE700200500EDB20C2D01DA6D1CC4
S315080093D0FAE700200500EDB20C2D01DA6D1CFAE75C
S315080093E000200500EDB20C2D01DA6D1CFAE74021CC
S315080093F0224802F010FF4FF40051204802F00EFFF9
S315080094004FF40071DFF80C0A02F005FF0020050092
S31508009410EDB20C2D01DA6D1CFAE700200500EDB25D
S315080094200C2D01DA6D1CFAE700200500EDB20C2DB3
S3150800943001DA6D1CFAE700200500EDB20C2D01DA01
S315080094406D1CFAE700200500EDB20C2D01DA6D1C43
S31508009450FAE700200500EDB20C2D01DA6D1CFAE7DB
S315080094608021064802F0D7FE052003F0E6F9002021
S315080094700500EDB20C2D03DA6D1CFAE70010014069
S3150800948000200500EDB20C2D01DA6D1CFAE700206C
S315080094900500EDB20C2D01DA6D1CFAE70020050077
S315080094A0EDB20C2D01DA6D1CFAE700200500EDB2CD
S315080094B00C2D01DA6D1CFAE700200500EDB20C2D23
S315080094C001DA6D1CFAE700200500EDB20C2D01DA71
S315080094D06D1CFAE700200500EDB20C2D01DA6D1CB3
S315080094E0FAE700200500EDB20C2D01DA6D1CFAE74B
S315080094F000200500EDB20C2D01DA6D1CFAE74FF4D9
