S0180000455A50726F3130305F4150505F7632302E7372656334
S31508004000880F002045DF0008E5DE0008E7DE000827
S31508004010E9DE0008EBDE0008EDDE0008000000001F
S31508004020000000000000000000000000EFDE0008AD
S31508004030F1DE000800000000F3DE0008F5DE0008E7
S315080040408DDF000891DF000895DF000899DF00087A
S315080040509DDF0008A1DF0008A5DF0008A9DF00082A
S31508004060ADDF0008B1DF0008B5DF0008B9DF0008DA
S31508004070BDDF0008C1DF0008C5DF0008C9DF00088A
S31508004080CDDF0008D1DF0008D5DF0008D9DF00083A
S31508004090F7DE0008E1DF0008E5DF0008E9DF0008D1
S315080040A0EDDF0008F1DF0008F5DF0008F9DF00089A
S315080040B0FDDF000801E0000805E0000809E0000847
S315080040C00DE0000811E0000815E0000819E00008F6
S315080040D01DE0000821E0000825E0000829E00008A6
S315080040E02DE0000831E0000835E0000839E0000856
S315080040F03DE0000841E0000845E0000849E0000806
S315080041004DE0000851E0000855E0000859E00008B5
S315080041105DE0000861E0000865E0000869E0000865
S315080041206DE0000871E0000875E0000879E0000815
S31508004130F8B500F055FE012301220021DFF8440CF2
S3150800414000F0D7FE112301220021DFF83C0C00F015
S31508004150D0FE212301220021DFF8300C00F07DFE7D
S31508004160292005000020060000200400A4B20A2C1D
S3150800417029D2A4B2DFF8180C201890F829002A28AA
S315080041801FD3A4B2DFF8080C201890F829007B2862
S3150800419017D2A4B2E000060016F1290005002B008C
S315080041A0DBB201220021A4B2DFF8E40B201890F854
S315080041B02900DFF8E07B17EB800050F8C00C00F010
S315080041C04CFE641CD2E700F0E1F9DFF8CC0B00786E
S315080041D00A2817D1DFF8C00BC07CDFF8BC1B097DA5
S315080041E0090411EB0060DFF8B01B497D10EB0120D4
S315080041F0DFF8A41B897D0818DFF8A01B086000F00B
S315080042000FFC03E0DFF8940B002101600121DFF8C1
S315080042108C0B006800F000FB0021002000F0FCFA7F
S31508004220F1BD80B500F0DCFD012301220021DFF895
S31508004230700B00F012FE092301220021DFF8640B3F
S3150800424000F00BFE112301220021DFF85C0B00F0C1
S3150800425004FE192301220021DFF8500B00F0FDFDB2
S31508004260212301220021DFF8480B00F0F6FD29235F
S3150800427001220021DFF83C0B00F0EFFD312301227B
S315080042800021DFF8340B00F0E8FD39230122002174
S31508004290DFF8100B00F0E1FD412301220021DFF8D1
S315080042A01C0B00F0DAFD492301220021DFF8100B70
S315080042B000F0D3FD512301220021DFF8080B00F09E
S315080042C0CCFD592301220021DFF8FC0A00F0C5FDC8
S315080042D0612301220021DFF8E40A00F0BEFD69230C
S315080042E001220021DFF8DC0A00F0B7FD7123012264
S315080042F00021DFF8CC0A00F0B0FD79230122002165
S31508004300DFF8B80A00F0A9FD01BDF8B504000D00F4
S31508004310012303220221DFF8B40A00F09EFD0923D7
S3150800432003220221DFF8A80A00F097FD11230322D1
S315080043300221DFF89C0A00F090FDDFF8980AB4FB2A
S31508004340F0F00600DFF88C0AB4FBF0F100FB114030
S315080043500700192303220221DFF8300A00F07DFD49
S31508004360202303220221DFF8700A50F8260000F005
S3150800437074FD42F21070B7FBF0F0060042F21070BE
S31508004380B7FBF0F100FB1177292303220221DFF89E
S31508004390480A50F8260000F060FD31230322022166
S315080043A0DFF8200A00F059FD4FF47A70B7FBF0F0F9
S315080043B006004FF47A70B7FBF0F100FB11700400A9
S315080043C06420B4FBF0F00700392303220221DFF84A
S315080043D0080A50F8260000F040FD41230322022176
S315080043E0DFF8F40950F8270000F037FD49230322C7
S315080043F00221DFF8D80900F030FDDFF8D809B5FB4F
S31508004400F0F00600DFF8CC09B5FBF0F100FB11501F
S315080044100700012305220421DFF8B00900F01DFD7D
S31508004420092305220421DFF8B40900F016FD11233B
S3150800443005220421DFF8A40900F00FFD192305223F
S3150800444004210FF6483000F008FD21230522042137
S31508004450DFF8400950F8260000F0FFFC42F2107021
S31508004460B7FBF0F0060042F21070B7FBF0F100FB64
S315080044701177292305220421DFF8180950F82600A8
S3150800448000F0EBFC312305220421DFF8380900F09F
S31508004490E4FC4FF47A70B7FBF0F006004FF47A703C
S315080044A0B7FBF0F100FB117005006420B5FBF0F0D6
S315080044B00700392305220421DFF8D80850F826001A
S315080044C000F0CBFC412305220421DFF8C80850F888
S315080044D0270000F0C2FC492305220421DFF8EC0876
S315080044E000F0BBFCF1BD10B504000123072206212C
S315080044F0DFF8880B00F0B1FC092307220621DFF854
S315080045007C0B00F0AAFC1123072206210FF6BC201B
S3150800451000F0A3FC1923072206210FF6802000F0DD
S315080045209CFC2123072206210FF6802000F095FC2B
S315080045302923072206210FF6842000F08EFC31235A
S3150800454007220621DFF8380B00F087FC39230722FB
S315080045500621DFF8300B00F080FC412307220621F4
S31508004560DFF8240B00F079FC4923072206210FF611
S315080045701C2000F072FC512307220621E4B2DFF862
S31508004580580850F8240000F068FC10BD38B501231F
S3150800459003220221DFF8F40A00F05FFC0923032254
S315080045A00221DFF8EC0A00F058FC1123032202214D
S315080045B00FF6D81000F051FCDFF80C0C00884FF409
S315080045C0805190FBF1F00400DFF8FC0B00884FF4F3
S315080045D0805190FBF1F202FB110215001923032208
S315080045E002210FF6082000F038FC202303220221BE
S315080045F0DFF8D80B00F031FC292303220221A4B2EC
S31508004600DFF8D40750F8240000F027FCADB24FF4C9
S31508004610807095FBF0F00400ADB24FF4807128006D
S3150800462090FBF1F505FB1105312303220221A4B203
S31508004630DFF8A40750F8240000F00FFCADB21020F4
S3150800464095FBF0F00400ADB21021280090FBF1F5BF
S3150800465005FB1105392303220221A4B2DFF87807E6
S3150800466050F8240000F0F9FB412303220221ADB2E1
S31508004670DFF8640750F8250000F0EFFBDFF81007B5
S315080046808078032809D1DFF8480B00F015FF0400ED
S31508004690DFF8400B0078040008E0DFF83C0B00F078
S315080046A00BFF0400DFF82C0B00780400A4B21020DE
S315080046B094FBF0F00500A4B21021200090FBF1F461
S315080046C004FB11044923032202210FF6882000F077
S315080046D0C4FB5123032202210FF6101000F0BDFB84
S315080046E05923032202210FF6DC1000F0B6FB6123E2
S315080046F003220221ADB2DFF8E00650F8250000F0EB
S31508004700ACFB692303220221A4B2DFF8CC0650F8D9
S31508004710240000F0A2FB7123032202210FF63420A5
S3150800472000F09BFB7923032202210FF6282000F0D4
S3150800473094FB31BD80B50123072206210FF604201C
S3150800474000F08BFB0923072206210FF6681000F0FC
S3150800475084FB1123072206210FF6481000F07DFB83
S315080047601923072206210FF6540000F076FB2123B1
S31508004770072206210FF6240000F06FFB29230722E3
S3150800478006210FF6601000F068FB31230722062188
S315080047900FF6480000F061FB3923072206210FF2C5
S315080047A0FC7000F05AFB4123072206210FF604107D
S315080047B000F053FB4923072206210FF6E80000F014
S315080047C04CFB512307220621DFF8100A00F045FBAF
S315080047D05923072206210FF6FC0000F03EFB612351
S315080047E0072206210FF6140000F037FB692307227B
S315080047F006210FF6080000F030FB71230722062178
S315080048000FF2F87000F029FB7923072206210FF230
S31508004810EC7000F022FB01BDF0B583B004000D007A
S3150800482000200600F6B2062E0CD20A20B4FBF0F1E0
S3150800483000FB1140F6B200A970540A20B4FBF0F44C
S31508004840761CEFE700200700EDB2012D38D10123D1
S31508004850052204210FF6DC0000F0FFFA09230522E1
S3150800486004210FF6B00000F0F8FA112305220421FE
S315080048700FF2187000F0F1FA05200600F6B2012EC4
S3150800488010D317F11903DBB205220421F6B200A8EA
S31508004890305CDFF800C55CF8200000F0DEFA083767
S315080048A0761EEBE717F11903DBB2052204219DF802
S315080048B00000DFF8E0C45CF8200000F0CEFA37E02C
S315080048C04E23052204210FF65C0000F0C6FA562393
S315080048D0052204210FF62C0000F0BFFA5C230522FE
S315080048E004210FF2A86000F0B8FA02200600F6B21A
S315080048F0012E10D317F16403DBB205220421F6B2A8
S3150800490000A8305CDFF88CC45CF8200000F0A5FA3B
S315080049100837761EEBE717F16403DBB2052204219C
S315080049209DF80000DFF86CC45CF8200000F095FAEA
S31508004930F7BDF8B50700FFB2642097FBF0F0060054
S31508004940FFB2642097FBF0F100FB1177FFB20A2053
S3150800495097FBF0F00500FFB20A2097FBF0F100FB89
S31508004960117004000123052204210FF6800000F0CF
S31508004970C0FA1123052204210FF6900000F0B9FAB7
S315080049802123052204210FF6A40000F0B2FA3123F0
S31508004990052204210FF6B40000F0ABFA41230522E4
S315080049A004210FF2E85000F058FA492305220421A1
S315080049B00FF2A07000F051FA5123052204210FF2DC
S315080049C0947000F04AFA592305220421F6B2DFF85A
S315080049D0C40350F8260000F040FA6123052204219A
S315080049E0EDB2DFF8B00350F8250000F036FA692377
S315080049F005220421E4B2DFF89C0350F8240000F0F5
S31508004A002CFA7123052204210FF2487000F025FACA
S31508004A107923052204210FF23C7000F01EFAF1BD3D
S31508004A20FEB500240026DFF8700300780A286AD14C
S31508004A30DFF86403807ADFF86013C97A090411EB9A
S31508004A400060DFF85413097B10EB0120DFF84813E8
S31508004A50497B0818040000200500EDB20A2D0CD287
S31508004A60EDB200A81021B4FBF1F202FB11422A5460
S31508004A702409002C01D06D1CEFE70123072206212B
S31508004A800FF2F87000F0E9F90923072206210FF260
S31508004A90646000F0E2F91123072206210FF2EC40C8
S31508004AA000F0DBF91923072206210FF2405000F027
S31508004AB0D4F92123072206210FF2086000F0CDF968
S31508004AC000200600EDB2012D10D316F12903DBB242
S31508004AD007220621EDB200A8285CDFF8FC7257F819
S31508004AE0200000F0BAF908366D1EEBE716F1290327
S31508004AF0DBB2072206219DF80000DFF8DC7257F8C2
S31508004B00200000F0AAF9F7BD38B5012307220621CF
S31508004B100FF2587000F0A1F90923072206210FF2B7
S31508004B20745000F09AF91123072206210FF28450D7
S31508004B3000F093F91923072206210FF2504000F0DE
S31508004B408CF9DFF89C0600884FF4805190FBF1F051
S31508004B500400DFF88C0600884FF4805190FBF1F2D0
S31508004B6002FB110215002123072206210FF27C40C1
S31508004B7000F073F92923072206210FF2485000F0A6
S31508004B806CF9312307220621A4B2934850F8240071
S31508004B9000F063F9ADB24FF4807095FBF0F00400B5
S31508004BA0ADB24FF48071280090FBF1F505FB1105B5
S31508004BB0392307220621A4B2874850F8240000F0BA
S31508004BC04CF9ADB2102095FBF0F00400ADB21021FF
S31508004BD0280090FBF1F505FB110541230722062164
S31508004BE0A4B27D4850F8240000F037F9492307227B
S31508004BF00621ADB2784850F8250000F02EF9512369
S31508004C00072206210FF24C5000F027F9DFF8C405F9
S31508004C100078102190FBF1F00400DFF8B805007861
S31508004C20102190FBF1F202FB11021500592307220D
S31508004C300621A4B2684850F8240000F00EF9612352
S31508004C4007220621ADB2644850F8250000F005F9A0
S31508004C506923072206210FF28C4000F0FEF8DFF8E0
S31508004C6084050078102190FBF1F00400DFF8740544
S31508004C700078102190FBF1F202FB11021500712356
S31508004C8007220621A4B2544850F8240000F0E5F89B
S31508004C90792307220621ADB24F4850F8250000F0C7
S31508004CA0DCF831BD10B582B04FF45460ADF80000A1
S31508004CB010208DF8030002208DF8020000A9DFF805
S31508004CC0280500F05DFD4FF48071DFF81C0500F043
S31508004CD003FE4FF40061DFF8100500F0FDFD01202A
S31508004CE000F017FF4FF48071DFF8FC0400F0F7FDC1
S31508004CF0012000F01FFF4FF48071DFF8EC0400F08C
S31508004D00EBFD00200400E4B28D2C01D2641CFAE706
S31508004D10E22000F07BF92C2000F078F9002004004E
S31508004D20E4B28D2C01D2641CFAE72E2000F06EF94D
S31508004D3000200400E4B28D2C01D2641CFAE72F206F
S31508004D4000F064F900200400E4B28D2C01D2641C42
S31508004D50FAE7232000F05AF9812000F057F92720B6
S31508004D6000F054F9A22000F051F9C82000F04EF9DD
S31508004D70A02000F04BF9602000F048F9AF2000F0C1
S31508004D8045F913BDD0D40008F0D400088C4F0008AC
S31508004D906C01002000000020240B00203C0B0020A2
S31508004DA0CC4F00089C4F0008AC4F0008BC4F0008C9
S31508004DB0A0D60008C0D500089450000830D70008CF
S31508004DC050D70008FC4F0008EC4F0008DC4F0008DD
S31508004DD0F4500008A08601002C010020B0D6000877
S31508004DE038B500200400E4B2092C16D2B4F15000FC
S31508004DF0C0B200F00BF9102000F008F9012000F00D
S31508004E0005F900200500EDB2802D04D2002000F03F
S31508004E10A9F96D1CF7E7641CE5E731BD70B5040018
S31508004E2000200500EDB2022D16D260195038C0B226
S31508004E3000F0ECF8102000F0E9F8012000F0E6F8A0
S31508004E4000200600F6B2802E04D2002000F08AF96F
S31508004E50761CF7E76D1CE5E770BD2DE9F047040001
S31508004E600D0016001F00FFB2102097FBF0F08146D8
S31508004E70FFB2102097FBF0F101FB10718A46B5F1DD
S31508004E805000C0B200F0C2F819F11000C0B200F02C
S31508004E90BDF85046C0B200F0B9F8002080465FFA67
S31508004EA088F8B8F1080F06D2207800F05BF9641C80
S31508004EB018F10108F3E7B6F15000C0B200F0A6F801
S31508004EC019F11000C0B200F0A1F85046C0B200F0C7
S31508004ED09DF8002080465FFA88F8B8F1080F06D2D8
S31508004EE0207800F03FF9641C18F10108F3E7BDE8E3
S31508004EF0F0872DE9F04704000D0016001F00FFB2E9
S31508004F00102097FBF0F08146FFB2102097FBF0F1D6
S31508004F1001FB10718A46B5F15000C0B200F076F870
S31508004F2019F11000C0B200F071F85046C0B200F096
S31508004F306DF8002080465FFA88F8B8F1100F06D29F
S31508004F40207800F00FF9641C18F10108F3E7B6F1B0
S31508004F505000C0B200F05AF819F11000C0B200F0C3
S31508004F6055F85046C0B200F051F8002080465FFA66
S31508004F7088F8B8F1100F06D2207800F0F3F8641C10
S31508004F8018F10108F3E7BDE8F0870000000000C04B
S31508004F90C0000000000000303000000000008080E3
S31508004FA080800000001F2222222213000000808039
S31508004FB0808080000033242424241900008080E0A7
S31508004FC0808000000000001F20200000180808F854
S31508004FD0080818000000203F200000000878880014
S31508004FE000C83808000007380E01000000E0100865
S31508004FF00810E000000F102020100F00000000002D
S3150800500000000000003030000000000038B5040041
S315080050104021754800F063FC00200500EDB28D2D97
S3150800502001D26D1CFAE700200500EDB2082D1FD24B
S315080050304FF400616C4800F052FC200605D54FF489
S315080050408061694800F048FC04E04FF480616648D6
S3150800505000F045FC012000F05CFD4FF40061624859
S3150800506000F03AFC012000F054FD64006D1CDCE7FA
S315080050704FF400615C4800F02FFC31BD5451000824
S3150800508024510008F0D50008A0D5000840D600082D
S31508005090E0D60008000000808088F800000E112085
S315080050A020103F2000809898000000000020203F34
S315080050B020200000808080008080800020203F2102
S315080050C02000010000808000808080000020312EB2
S315080050D00E312000808080000080808080818E7064
S315080050E01806010000000000000000000001010190
S315080050F00101010108F808080810E000203F2020F7
S3150800510020100F00C03008080838000007182020B3
S31508005110221E020008F888C028180800203F20012F
S315080051202638200008F830C00008F808203F20007C
S3150800513007183F00E01008080810E0000F102020AC
S3150800514020100F00F80800F80008F800033C0700D4
S31508005150073C0300000000000000000000000000FB
S315080051600000000038B5040040211F4800F0B4FBD9
S3150800517000200500EDB28D2D01D26D1CFAE7002046
S315080051800500EDB2082D19D24FF40061164800F05B
S31508005190A6FB200605D54FF48061134800F09CFB5A
S315080051A004E04FF48061104800F099FB4FF4006169
S315080051B00D4800F091FB64006D1CE2E74FF40061B6
S315080051C0094800F089FB31BD6A0B0020C45000086D
S315080051D0204101007C0B00202021010040D5000859
S315080051E0660B0020770B0020001801404030EF24A2
S315080051F06448487F4848487F4848400001017F2165
S315080052001100FF4949494949FF0000004042CC00C6
S3150800521000809E92929292929E80000000007F20CB
S3150800522094844424140F142444848400008060F871
S31508005230072020207FA0101116101000010000FF83
S315080052400000000000030C102040F8000484E45C11
S3150800525044C40002F2828282FE80800002017F102E
S31508005260103F00080808084888403F000000C0387A
S31508005270E0000000203C230202273820000808F836
S31508005280080800000020203F2020000000B587B055
S3150800529001214FF4804000F0BBFD4FF46040ADF8AB
S315080052A0000003208DF8020018208DF8030000A9DD
S315080052B0DFF8A80400F064FA4FF48050ADF8000057
S315080052C003208DF8020014208DF8030000A9DFF8EA
S315080052D08C0400F055FA4FF48051DFF8800400F092
S315080052E0FBFA4FF40060ADF8000003208DF80200C9
S315080052F010208DF8030000A9DFF8600400F040FADA
S315080053004FF40061DFF8540400F0E6FA2820ADF8FF
S3150800531010000120ADF80C000220ADF80A000720A5
S31508005320ADF814000020ADF808000020ADF8040020
S315080053300020ADF812004FF48270ADF806004FF465
S315080053400070ADF80E0001A9DFF8140400F07CFD2A
S315080053500121DFF80C0400F097FD07B000BD38B551
S31508005360040000250221DFF8F80300F09FFD00285D
S3150800537008D16D1C28004EF6612180B28842F1D30F
S3150800538000201BE0E4B2210089B2DFF8D40300F064
S3150800539089FD0121DFF8C80300F088FD002808D13F
S315080053A06D1C28004EF6612180B28842F1D3002098
S315080053B004E0DFF8AC0300F077FD012032BD10B53C
S315080053C000240221DFF8980300F070FD002808D1B8
S315080053D0641C20004EF6612180B28842F1D3002079
S315080053E01CE0AA21DFF8780300F05CFD0121DFF854
S315080053F0700300F05BFD002808D1641C20004EF6FF
S31508005400612180B28842F1D3002007E0DFF850031B
S3150800541000F04AFDDFF84C130870012010BD38B5BE
S3150800542004000D004FF40061CC4800F058FA200043
S31508005430C0B2FFF794FF2800C0B2FFF790FF4FF401
S315080054400061C64800F048FA012000F062FB31BD51
S3150800545070B504000D0000264FF48051BF4800F0D7
S315080054603EFA0620FFF77BFF4FF48051BB4800F059
S3150800547033FAB6B2C82E01D2761CFAE74FF4805139
S31508005480B64800F02CFA0220FFF769FF200CC0B2DC
S31508005490FFF765FF200AC0B2FFF761FF2000C0B220
S315080054A0FFF75DFF2800C0B2FFF759FF4FF48051A0
S315080054B0AA4800F011FA70BD38B5040000254FF46B
S315080054C08051A64800F00BFA0320FFF748FF200C8E
S315080054D0C0B2FFF744FF200AC0B2FFF740FF200022
S315080054E0C0B2FFF73CFFFFF76AFF012802D101208F
S315080054F0050001E0002005004FF48051974800F0B0
S31508005500EBF92800C0B232BD10B500244FF4805123
S31508005510924800F0E4F90620FFF721FF4FF4805186
S315080055208E4800F0D9F9E4B2C82C01D2641CFAE717
S31508005530002004004FF48051884800F0D0F960201C
S31508005540FFF70DFFE4B2C82C01D2641CFAE74FF44A
S315080055508051824800F0C0F900F009F8002801D00F
S31508005560012000E00020C0B20028F5D110BD10B51A
S315080055704FF48051794800F0B2F90520FFF7EFFEA5
S31508005580FFF71DFF012802D17648007804004FF482
S315080055908051724800F0A0F92000C0B210BD38B59D
S315080055A0040000254FF480516C4800F098F950200B
S315080055B0FFF7D5FE4FF48051684800F08DF9EDB23B
S315080055C0C82D01D26D1CFAE74FF48051634800F0EC
S315080055D086F90120FFF7C3FE2000C0B2FFF7BFFE21
S315080055E04FF480515D4800F077F931BD38B5002495
S315080055F000254FF48051594800F071F99020FFF7C3
S31508005600AEFE0020FFF7ABFE0020FFF7A8FE002045
S31508005610FFF7A5FEFFF7D3FE012802D1514800780F
S315080056200400FFF7CCFE012802D14E480078050099
S315080056304FF48051494800F04FF9E4B2BF2C06D127
S31508005640EDB2492D01D1012002E0002000E0002042
S3150800565032BD38B5040000250320FFF780FE200C74
S31508005660C0B2FFF77CFE200AC0B2FFF778FE200022
S31508005670C0B2FFF774FEFFF7A2FE012802D101208F
S31508005680050001E0002005002800C0B232BD70B553
S3150800569000243548FFF710FF002802D0314800786B
S315080056A005003248FFF708FF002802D02D48007889
S315080056B00600ADB24FF48070B6B200FB05602C4907
S315080056C088802B4880884FF6FF71884201D10020D8
S315080056D043E02848FFF7F0FE050022480078050059
S315080056E02548FFF7E9FE06001E4800780600ADB219
S315080056F04FF48070B6B200FB05601D49C8801C488F
S31508005700C088002801D1002027E04FF480511348B3
S3150800571000F0E5F81648808800F57F40FF30FFF76F
S3150800572098FF13488088154908801148C08813498E
S31508005730098888420AD3FFF742FE0A480078041906
S315080057400E480088401C0D490880EEE74FF480514A
S31508005750024800F0C1F8200080B270BD000C01407C
S31508005760003800407C0B0020047D0100057D010007
S315080057706C010020067D0100077D0100660B0020F4
S31508005780F0B500270022002300240025002691F802
S3150800579003C01CF00F0C674691F803C05FEACC6C97
S315080057A003D591F802C05CEA070791F800C05FEAE2
S315080057B00C6C3AD0D0F800C065465FF0000C634622
S315080057C0082B31D25FF0010C1CFA03FC6446B1F8D1
S315080057D000C014EA0C0C6246A24223D15FEA830C8D
S315080057E064465FF00F0C1CFA04FC6646B54317FACC
S315080057F004FC5CEA050591F803C0BCF1280F06D144
S315080058005FF0010C1CFA03FCC0F814C00AE091F81A
S3150800581003C0BCF1480F05D15FF0010C1CFA03FC6C
S31508005820C0F810C05B1CCBE70560B1F800C04FF4A8
S31508005830807EF4453FD3D0F804C065465FF0000C7F
S315080058406346082B36D25FF0010C13F1080E1CFADA
S315080058500EFC6446B1F800C014EA0C0C6246A2427B
S3150800586026D15FEA830C64465FF00F0C1CFA04FC31
S315080058706646B54317FA04FC5CEA050591F803C0C9
S31508005880BCF1280F07D15FF0010C13F1080E1CFAC2
S315080058900EFCC0F814C091F803C0BCF1480F07D13C
S315080058A05FF0010C13F1080E1CFA0EFCC0F810C0CC
S315080058B05B1CC6E74560F0BD0200002093689BB2FA
S315080058C00B4202D00123180001E000231800C0B2E1
S315080058D07047806880B2704789B20161704789B2A3
S315080058E041617047F0B400220023002500240028F7
S315080058F003D51E4E3668350002E01D4E3668350063
S31508005900C0F30346340086B2320010F44016B6F5EA
S31508005910401F08D135F07065154E366836F070664A
S31508005920134F3E6010E0C60206D50326A640330094
S315080059309D4355F0706507E0460DF6B2360112FA3A
S3150800594006F6B54355F07065C9B2002905D0460D6F
S31508005950F6B2360112FA06F63543002802D5034E8A
S31508005960356001E0024E3560F0BC70471C0001400E
S315080059700400014080B500F0A5FA0121042000F0DA
S3150800598038FA0121082000F034FA0121102000F02D
S3150800599030FA0121202000F02CFA0121402000F0E5
S315080059A028FA002000F043FA01BD80B54FF4F850FC
S315080059B0ADF8000014208DF8030002208DF80200CF
S315080059C000A9DFF8E403FFF7DBFE4020ADF800008E
S315080059D010208DF8030003208DF8020000A9DFF8D7
S315080059E0C803FFF7CDFE40F2FF40ADF8000048209F
S315080059F08DF8030002208DF8020000A9DFF8AC0339
S31508005A00FFF7BEFE4FF48070ADF8000018208DF841
S31508005A10030003208DF8020000A9DFF89403FFF7BE
S31508005A20AFFE0220ADF8000010208DF80300032019
S31508005A308DF8020000A9DFF87C03FFF7A1FE6020BD
S31508005A40ADF8000014208DF8030003208DF802003D
S31508005A5000A9DFF86003FFF793FE0221D548FFF798
S31508005A603BFF01BD10B50400E4B2012C26D14FF46A
S31508005A700061CD48FFF730FF4FF48061CA48FFF751
S31508005A802EFF4FF48061CA48FFF726FF0420FFF770
S31508005A90C5F90121C8480068FEF7BEFE4FF48061CB
S31508005AA0C348FFF71CFF0021C4480088FEF7B4FE70
S31508005AB00620FFF7B3F9FEF7B3FF29E04FF480613C
S31508005AC0B948FFF709FF4FF40061B748FFF707FF2A
S31508005AD04FF48061B648FFF7FFFE0A2000F02AF867
S31508005AE00420FFF79BF94FF48061B148FFF7F7FEF2
S31508005AF0B3480078FEF71DFF4FF48061AC48FFF706
S31508005B00EBFEFFF701F84FF48061A948FFF7E7FEBF
S31508005B1010BD00231A0092B280B2824209D24FF415
S31508005B204873190089B2012901D3491EFAE7521CA4
S31508005B30F1E7704700231A0092B280B2824209D276
S31508005B4042F23413190089B2012901D3491EFAE732
S31508005B50521CF1E7704710B58EB04FF48051954846
S31508005B60FFF7BDFE9748FFF774FD00200400E4B276
S31508005B70362C08D2FFF723FCE4B200A8924909782C
S31508005B802154641CF3E74FF480518A48FFF7A4FEBA
S31508005B908E489DF8001001709DF801004FF4807141
S31508005BA09DF8022001FB00208949088088489DF855
S31508005BB0031081709DF804004FF480719DF805204C
S31508005BC001FB0020824988809DF806004FF4807109
S31508005BD09DF8072001FB00207D49C8809DF8080034
S31508005BE04FF480719DF8092001FB0020784908814F
S31508005BF077489DF80A10817275489DF80B10C17296
S31508005C0073489DF80C10017371489DF80D10417387
S31508005C109DF80E004FF480719DF80F2001FB0020BF
S31508005C206B49C8819DF810004FF480719DF81120CA
S31508005C3001FB0020664908829DF812004FF4807126
S31508005C409DF8132001FB0020614948829DF8140045
S31508005C504FF480719DF8152001FB00205C4988826D
S31508005C609DF816004FF480719DF8172001FB00205F
S31508005C705749C8829DF818004FF480719DF819207D
S31508005C8001FB0020524908839DF81A004FF48071E1
S31508005C909DF81B2001FB00204D4948839DF81C00F8
S31508005CA04FF480719DF81D2001FB00204849888328
S31508005CB09DF81E004FF480719DF81F2001FB0020FF
S31508005CC04349C8839DF820004FF480719DF8212030
S31508005CD001FB00203E4908843D489DF8221080F8C3
S31508005CE022109DF823004FF480719DF8242001FBB3
S31508005CF000203749888436489DF8251080F82610F4
S31508005D0033489DF8261080F8271031489DF827104B
S31508005D1080F828102E489DF8281080F829102C485D
S31508005D209DF8291080F82A1029489DF82A1080F82D
S31508005D302B1027489DF82B1080F82C1024489DF826
S31508005D402C1080F82D1022489DF82D1080F82E1062
S31508005D501F489DF82E1080F82F101D489DF82F100B
S31508005D6080F830101A489DF8301080F8311018481D
S31508005D709DF8311080F832101648FFF79DFB012870
S31508005D8002D1114800780400E4B2392C0AD00C4834
S31508005D900F210170FF21002000F098FAFF21002052
S31508005DA000F094FA0EB010BD001001400014014036
S31508005DB000080140000C01403C0B0020680B002045
S31508005DC0780B0020FF7C01007C0B0020740B002060
S31508005DD06C010020707D010017490860704700219A
S31508005DE0144A1268110031F440410143114A116006
S31508005DF07047C9B2002905D0104A126802430F4BF2
S31508005E001A6004E00D4A126882430C4B1A60704708
S31508005E10C9B2002905D00A4A12680243084B1A601B
S31508005E2004E0074A12688243054B1A607047054921
S31508005E300870704704100240D80042421810024009
S31508005E401C1002400710024010B4002203881A00F2
S31508005E5012F441520B884C8823438C882343CC8800
S31508005E6023430C8923434C8923438C892343CC89B8
S31508005E7023431A430280838B4FF2FF7423408383A4
S31508005E800B8A038210BC7047C9B2002904D0028865
S31508005E9052F04002028004E002884FF6BF731A40AF
S31508005EA00280704781817047808970470200002010
S31508005EB013890B4202D00123180001E000231800C1
S31508005EC0C0B2704780B54E48006850F001004C4992
S31508005ED008604C4800684C4908404A4908604848E8
S31508005EE000684A490840464908604548006830F451
S31508005EF08020434908604348006830F4FE00414961
S31508005F00086043485FF41F01016000F004F8414847
S31508005F104149016001BD80B500F001F801BD82B0BC
S31508005F2000200190002000903548006850F4803029
S31508005F30334908603248006810F400300090019830
S31508005F40401C01900098002803D10198B0F5A06F75
S31508005F50F0D12B480068800302D50120009001E0AB
S31508005F60002000900098012847D12C48006850F07E
S31508005F7010002A49086029480068800880002749D7
S31508005F8008602648006850F00200244908601D4849
S31508005F901C49096801601B481A49096801601948C3
S31508005FA0006850F48060174908601648006830F4A5
S31508005FB07C10144908601348006850F4E810114929
S31508005FC008600F48006850F080700D4908600C485A
S31508005FD000688001FBD50B480068800880000949E5
S31508005FE008600848006850F002000649086005483D
S31508005FF0006810F00C000828F9D102B070470000BC
S3150800600000100240041002400000FFF8FFFFF6FEF1
S315080060100810024008ED00E0004000080020024099
S31508006020F8B500240025A548807B0600A34800781B
S315080060300A2840F08280A148807AA049C97A0904D2
S3150800604011EB00609D49097B10EB01209B49497BB8
S31508006050081804009948C07B9849097C090411EB83
S3150800606000609649497C10EB01209449897C081800
S315080060700500F6B2341991484078012801D1E4B2F6
S315080060800CE08E484078022801D1A4B206E08B487D
S315080060904078032802D12402240AFFE700200700DB
S315080060A0FFB2042F40D22100C9B20D2000F00EF92C
S315080060B0210AC9B20C2000F009F9210CC9B20B203B
S315080060C000F004F9210EC9B20A2000F0FFF87C4856
S315080060D00168C9B2162000F0F9F879480068010A83
S315080060E0C9B2152000F0F2F875480068010CC9B26B
S315080060F0142000F0EBF872480068010EC9B21320AC
S3150800610000F0E4F8162000F000F90600F6B26C4834
S315080061100078C0B2864207D0FFB2032FC0D16948C3
S315080061200D210170002009E065480068854204D207
S3150800613064480E210170002000E00120F2BD010034
S3150800614089B2012908D305231A0092B2012A01D37C
S31508006150521EFAE7491EF3E7704780B520215A48D0
S31508006160FFF7BAFB40215848FFF7B6FB0120FFF7B7
S31508006170E6FF20215448FFF7B2FB0120FFF7DFFFB7
S3150800618040215148FFF7ABFB01BD80B520214E48A1
S31508006190FFF7A5FB40214C48FFF79EFB0120FFF7C0
S315080061A0CEFF20214848FFF797FB01BD10B54FF4F5
S315080061B0FA7440214448FFF78FFB20214248FFF735
S315080061C07BFB002803D0641EA4B2022CF5D2012062
S315080061D0FFF7B5FF40213C48FFF781FB10BD80B5AE
S315080061E020213948FFF778FB40213748FFF774FB31
S315080061F00120FFF7A4FF40213348FFF770FB01BDDC
S3150800620038B5040008200500EDB2012D1CD3402145
S315080062102D48FFF764FBE4B2200604D520212A485E
S31508006220FFF75AFB03E020212748FFF758FB6400D5
S315080062300120FFF784FF40212348FFF74DFB01208B
S31508006240FFF77DFF6D1EDFE740211F48FFF747FB7D
S3150800625020211D48FFF740FB0A20FFF770FF31BDDC
S3150800626038B5002520211848FFF736FB082004001A
S31508006270E4B2012C16D36D0040211348FFF72FFB1B
S315080062800120FFF75CFF40210F48FFF725FB01209F
S31508006290FFF755FF20210C48FFF70EFB28430500A2
S315080062A0641EE5E740210848FFF719FB0120FFF7C0
S315080062B046FF2800C0B232BD00000000240B0020B3
S315080062C03C0B0020780B0020000C014070B5040040
S315080062D00D0020000600FFF740FFA020FFF790FF03
S315080062E0FFF764FF3000C0B2FFF78AFFFFF75EFFD3
S315080062F02800C0B2FFF784FFFFF758FFFFF745FFF6
S3150800630042F21070FFF71BFF70BD70B50400200045
S315080063100600FFF722FFA020FFF772FFFFF746FFF0
S315080063203000C0B2FFF76CFFFFF740FFFFF715FF1D
S31508006330A120FFF765FFFFF739FFFFF791FF05007B
S31508006340FFF74DFFFFF721FF2800C0B270BD10B45C
S3150800635050F8041B81B102681218001D50F8043B5E
S31508006360DC0744BFA9F10104E31852F8044B43F8CB
S31508006370044B091FF9D1EBE710BC70472DE9F04F24
S3150800638085B00024002600208DF801005FF0000982
S3150800639000208DF80000DFF8D00C90F822000128C4
S315080063A012D1DFF8C40C428ADFF8BC0CC189DFF8C9
S315080063B0B80C008A00F0BEFC8DF801009DF80100BB
S315080063C0002801D100207CE20021002000F004FF13
S315080063D04FF40061DFF8940CFFF781FA4FF480510F
S315080063E0DFF8880CFFF77BFA4FF40041DFF8800CE2
S315080063F0FFF772FA0120FFF79DFB4FF48041DFF8A3
S31508006400700CFFF769FA0A20FFF794FB4FF4007146
S31508006410DFF8600CFFF760FA0520FFF78BFB00F04A
S3150800642061FF002801D100204BE243F6FF7000F01F
S31508006430FFFB8246DFF8300C00881FFA8AFA82458D
S3150800644005D0DFF8340C04210170002039E2DFF8AA
S31508006450180C90F827000F21084200F01A81002036
S3150800646081464FF48051DFF8140CFFF738FADFF84D
S31508006470F80B808800F57F40FF30FFF7EAF8DFF871
S31508006480000C00788246DFF8FC0B40788DF8000097
S31508006490DFF8F00B8078DFF8EC1BC97811EB0020E9
S315080064A0ADF80C00DFF8DC0B0079DFF8D81B49796A
S315080064B011EB0020ADF80600DFF8C80B8079DFF88D
S315080064C0C41BC97911EB0020ADF80400DFF8B40B42
S315080064D0007ADFF8B01B497A11EB0020ADF802000C
S315080064E0DFF8A00BC07BDFF89C1B097C090411EBC5
S315080064F00060DFF8901B497C10EB0120DFF8841B55
S31508006500897C08180290DFF87C0B00780A280BD1E2
S31508006510DFF8740B00680299884205D3DFF8580B38
S315080065200E2101700020CCE1002000F081FB05005F
S31508006530DFF8340B8088DFF8541B0880DFF8280B57
S31508006540C088DFF8481B09888842C0F09C80FEF79F
S3150800655036FFDFF82C0B00780700FFB217EB0909A6
S31508006560FEF72DFFDFF8180B007880465FFA88F8EB
S3150800657018EB09095FFA88F84FF48070FFB200FB40
S31508006580087082465FEA8A4A5FEA9A4ADFF8FC0A96
S315080065900088801CDFF8F41A0880DFF8F00A008803
S315080065A080B240088346DFF8DC0A00780A2836D12C
S315080065B0BDF80C001FFA8BFB834504D1DFF8C40A2B
S315080065C0407B82462BE0BDF806001FFA8BFB83450D
S315080065D008D19DF80000022804D3DFF8A80A007B3A
S315080065E082461CE0BDF804001FFA8BFB834508D1E0
S315080065F09DF80000032804D3DFF8880AC07A82468B
S315080066000DE0BDF802001FFA8BFB834507D19DF804
S315080066100000042803D3DFF86C0A807A8246DFF884
S31508006620600A80F800A000200400601C0400C0B2C4
S3150800663006281BD2504680B200F0FAF900F082F91B
S315080066400500ADB21FFA8AFA554502D100200400AA
S315080066500CE0E4B2042CE8D1DFF81C0A072101702B
S31508006660DFF8280AA0F800B000202AE1DFF81C0AA3
S315080066700088DFF8F419C9888842BFF45FAF142090
S3150800668000F022F95AE74FF48051DFF8F009FFF7D6
S3150800669023F9DFF8D40990F82700F021084200F022
S315080066A00681DFF8EC09FEF707FF01280AD1DFF8B3
S315080066B0D00900780700DFF8DC09FEF7FDFE01289F
S315080066C013D101E00020FCE0DFF8B4090078804629
S315080066D05FFA88F84FF48070FFB200FB08708246B4
S315080066E05FEA8A4A5FEA9A4A01E00020E9E0601C0C
S315080066F00400C0B206281FD2514689B2DFF86809DD
S31508006700008900F00DFADFF86009008900F090FAB8
S315080067100500ADB21FFA8AFA554502D100200400D9
S315080067200AE0E4B2042CE2D1DFF83C090089DFF87C
S315080067305C1908800020C4E0DFF82C09807A02285A
S3150800674042D3DFF8240990F8220002282BD1DFF87B
S315080067501809808C00F06CFADFF83C190870DFF82D
S3150800676038090078FF2804D0DFF82C0900780028BB
S3150800677019D1DFF8F408808C801E80B200F058FA30
S31508006780DFF814190870DFF810090078FF2804D01C
S31508006790DFF804090078002805D1DFF8DC080C21A9
S315080067A0017000208DE042F2010000F041FA060077
S315080067B0F6B2B6B2FF2E04D1DFF8DC08007807007F
S315080067C012E0300007000FE0DFF89C0890F822007E
S315080067D0012804D1DFF8C0080078070004E042F277
S315080067E0010000F025FA0700DFF8B008FEF764FE9E
S315080067F001280CD1DFF88808007880465FFA88F807
S315080068004FF48070FFB200FB0870824601E000205A
S3150800681057E0601C0400C0B2062824D2514689B24B
S31508006820DFF844080089401C80B200F079F9DFF8E7
S3150800683038080089401C80B200F0FAF90500ADB2AC
S315080068401FFA8AFA554502D1002004000BE0E4B28B
S31508006850042CDED1DFF810080089401CDFF82C185C
S31508006860088000202DE0601C0400C0B203281CD25A
S315080068701FFA89F95FEA19208046484607005FFA39
S3150800688088F8414689B2DFF8E00700890E3080B201
S3150800689000F046F9FFB2390089B2DFF8CC07008963
S315080068A00F3080B200F03CF9DDE70020040001213A
S315080068B0DFF8C007FFF713F80021002000F08CFC72
S315080068C0012005B0BDE8F08FF8B504004FF400616B
S315080068D0DFF89807FFF703F800200500EDB2062D4C
S315080068E02FD24FF40061DFF88407FEF7F5FFA4B254
S315080068F054FA05F00600F6B2F00706D54FF48051B3
S31508006900DFF86807FEF7E8FF05E04FF48051DFF887
S315080069105C07FEF7E4FF00200700FFB2062F01D24E
S315080069207F1CFAE74FF40061DFF84007FEF7D7FF50
S3150800693000200700FFB2062F01D27F1CFAE76D1C64
S31508006940CCE7F1BDF8B51720FFF7BEFF002007001A
S31508006950FFB2062F01D27F1CFAE700200700FFB21C
S31508006960062F01D27F1CFAE74FF40061DFF8FC0618
S31508006970FEF7B2FF00200700FFB2062F01D27F1CE8
S31508006980FAE74FF40061DFF8E406FEF7A8FF0020F7
S315080069900700FFB2062F01D27F1CFAE70020060087
S315080069A000200400E4B20E2C25D24FF40061DFF873
S315080069B0BC06FEF791FF00200700FFB2062F01D2A2
S315080069C07F1CFAE71021DFF8A806FEF775FF050019
S315080069D0ADB215FA04F006434FF40061DFF88C06F1
S315080069E0FEF77DFF00200700FFB2062F01D27F1CAD
S315080069F0FAE7641CD6E74FF40061DFF87006FEF785
S31508006A006BFF00200700FFB2062F01D27F1CFAE7B2
S31508006A104FF40061DFF85406FEF761FF0020070017
S31508006A20FFB2062F01D27F1CFAE7300080B2F2BD12
S31508006A30F8B504001620FFF747FF4FF40061DFF8AA
S31508006A402C06FEF749FF00200700FFB2062F01D2E9
S31508006A507F1CFAE74FF40061DFF81006FEF73FFFE8
S31508006A6000200700FFB2062F01D27F1CFAE700209C
S31508006A700500EDB20E2D2FD24FF40061DFF8EC05BC
S31508006A80FEF72AFFA4B254FA05F00600B6B2F007DC
S31508006A9006D54FF48051DFF8D405FEF71DFF05E053
S31508006AA04FF48051DFF8C405FEF719FF00200700F0
S31508006AB0FFB2062F01D27F1CFAE74FF40061DFF818
S31508006AC0AC05FEF70CFF00200700FFB2062F01D227
S31508006AD07F1CFAE76D1CCCE74FF40061DFF88C05E4
S31508006AE0FEF7FAFE00200700FFB2062F01D27F1C30
S31508006AF0FAE74FF40061DFF87405FEF7F0FE0020B0
S31508006B000700FFB2062F01D27F1CFAE71920FFF70C
S31508006B10DBFE0320FEF7FDFF1A20FFF7D5FEF1BDC9
S31508006B202DE9F04104000D001520FFF7CDFE4FF4C6
S31508006B300061DFF83805FEF7CFFE002080465FFAD1
S31508006B4088F8B8F1060F02D218F10108F7E74FF4F2
S31508006B500061DFF81805FEF7C2FE002080465FFADE
S31508006B6088F8B8F1060F02D218F10108F7E70020F5
S31508006B700600F6B20E2E35D24FF40061DFF8EC04AB
S31508006B80FEF7AAFEA4B254FA06F00700BFB2F80749
S31508006B9006D54FF48051DFF8D404FEF79DFE05E0D4
S31508006BA04FF48051DFF8C404FEF799FE00208046B2
S31508006BB05FFA88F8B8F1060F02D218F10108F7E76C
S31508006BC04FF40061DFF8A404FEF789FE0020804632
S31508006BD05FFA88F8B8F1060F02D218F10108F7E74C
S31508006BE0761CC6E74FF40061DFF88004FEF774FEF2
S31508006BF0002080465FFA88F8B8F1060F02D218F12D
S31508006C000108F7E74FF40061DFF86004FEF767FE56
S31508006C10002080465FFA88F8B8F1060F02D218F10C
S31508006C200108F7E7280080B2FFF702FFBDE8F08108
S31508006C30F8B504001520FFF747FE00200700FFB24D
S31508006C40062F01D27F1CFAE700200700FFB2062FA5
S31508006C5001D27F1CFAE74FF40061DFF81004FEF753
S31508006C603BFE00200700FFB2062F01D27F1CFAE781
S31508006C704FF40061DFF8F403FEF731FE0020070049
S31508006C80FFB2062F01D27F1CFAE700200500EDB2FD
S31508006C900E2D2FD24FF40061DFF8D003FEF71CFE4D
S31508006CA0A4B254FA05F00600B6B2F00706D54FF4BA
S31508006CB08051DFF8B803FEF70FFE05E04FF4805168
S31508006CC0DFF8A803FEF70BFE00200700FFB2062F29
S31508006CD001D27F1CFAE74FF40061DFF89003FEF754
S31508006CE0FEFD00200700FFB2062F01D27F1CFAE73F
S31508006CF06D1CCCE74FF40061DFF87003FEF7ECFD7E
S31508006D0000200700FFB2062F01D27F1CFAE74FF4D6
S31508006D100061DFF85803FEF7E2FD00200700FFB226
S31508006D20062F01D27F1CFAE7FFF70CFE060030009B
S31508006D3080B2F2BD2DE9F04104000D00160080274F
S31508006D400021002000F048FA4FF40061C748FEF71A
S31508006D50C6FD4FF48051C548FEF7C1FD0121C5485F
S31508006D60FEF7BAFD0120FEF7E5FE4FF48041C04864
S31508006D70FEF7B5FD0A20FEF7DDFE4FF40071BD48AB
S31508006D80FEF7AAFD0520FEF7D5FE0A20FFF79CFDB3
S31508006D90002080465FFA88F8B8F1050F05D2002072
S31508006DA000F09DF818F10108F4E74FF4316000F09F
S31508006DB096F841F2F25000F092F84FF4366000F07F
S31508006DC08EF841F2F05000F08AF8B34800210170BD
S31508006DD0002080465FFA88F8B8F1080F1DD23800FF
S31508006DE0C0B200F032F8AE480088B6B2B04214D04D
S31508006DF0AB480088B6B2B04204D2802050FA08F0F8
S31508006E00074303E0802050FA08F08743402050FAF1
S31508006E1008F0074318F10108DCE73800C0B200F0B3
S31508006E2014F89F480088ADB2854208D39C4800886C
S31508006E30A4B2A04203D398480770012003E09648FD
S31508006E40FF2101700020BDE8F0817CB504004FF4F5
S31508006E503065E4B26519280080B200F040F841F2C6
S31508006E60F15000F03CF8002000F039F80A20FEF74F
S31508006E7061FE00200600B6B2032E22D20021894800
S31508006E8000F05DFB0021884800F059FB0121854888
S31508006E9000F072FB0121844800F008FB01218148BB
S31508006EA000F004FB01217F4800F04DFB0028F9D0D3
S31508006EB07D4800F046FBB6B200A921F81600761CFC
S31508006EC0D9E7BDF80000BDF802100818BDF804108F
S31508006ED00818032190FBF1F07149088073BDF8B5D5
S31508006EE004004FF400616148FEF7F6FC0020070035
S31508006EF0FFB2062F01D27F1CFAE74FF400615B4808
S31508006F00FEF7EDFC00200700FFB2062F01D27F1C1A
S31508006F10FAE700200500EDB20E2D2BD24FF40061E2
S31508006F205248FEF7D9FCA4B254FA05F00600B6B2E8
S31508006F30F00705D54FF480514C48FEF7CDFC04E028
S31508006F404FF480514948FEF7CAFC00200700FFB2FB
S31508006F50062F01D27F1CFAE74FF400614348FEF77B
S31508006F60BEFC00200700FFB2062F01D27F1CFAE7FD
S31508006F706D1CD0E74FF400613C48FEF7ADFC0020DD
S31508006F800700FFB2062F01D27F1CFAE74FF4006113
S31508006F903648FEF7A4FC00200700FFB2062F01D2F0
S31508006FA07F1CFAE74FF400613048FEF795FC002095
S31508006FB00700FFB2062F01D27F1CFAE74FF40061E3
S31508006FC02A48FEF78CFC00200700FFB2062F01D2E4
S31508006FD07F1CFAE74FF400612448FEF77DFC002089
S31508006FE00700FFB2062F01D27F1CFAE74FF40061B3
S31508006FF01E48FEF774FC00200700FFB2062F01D2D8
S315080070007F1CFAE74FF400611848FEF765FC00207C
S315080070100700FFB2062F01D27F1CFAE74FF4006182
S315080070201248FEF75CFC00200700FFB2062F01D2CB
S315080070307F1CFAE74FF400610C48FEF74DFC002070
S315080070400700FFB2062F01D27F1CFAE74FF4006152
S315080070500648FEF744FC00200700FFB2062F01D2BF
S315080070607F1CFAE7F1BD00006C0100200014014006
S315080070700018014000080140780B0020000C014070
S315080070807C0B0020240B00203C0B0020660B002004
S315080070902021010021210100760B00202321010077
S315080070A0640B0020000400400008004080B540F250
S315080070B02160ADF8000002208DF8020010208DF83E
S315080070C0030000A95A48FEF75BFB4FF40040ADF8F1
S315080070D0000002208DF8020010208DF8030000A998
S315080070E05448FEF74DFB4FF48040ADF800000220EF
S315080070F08DF8020010208DF8030000A94D48FEF710
S315080071003FFB20214A48FEF7EAFB4FF40071484846
S31508007110FEF7E5FB01214648FEF7E1FB4FF4004187
S315080071204448FEF7DCFB4FF480414248FEF7D7FBA4
S3150800713001BD38B504000D00E4B2012C05D14FF4A9
S3150800714000713B48FEF7C8FB04E04FF4007138486D
S31508007150FEF7C5FBEDB2012D11D14FF400413548BC
S31508007160FEF7BAFB0120FEF7E5FC01213048FEF7E1
S31508007170B6FB4FF480412F48FEF7AEFB1DE0EDB29B
S31508007180022D11D101212A48FEF7A6FB4FF4004132
S315080071902848FEF7A4FB0720FEF7CCFC4FF48041F5
S315080071A02448FEF79CFB08E04FF400412148FEF70F
S315080071B096FB01211E48FEF792FB4FF400611E481C
S315080071C0FEF78AFB4FF480511B48FEF785FB4021EA
S315080071D01A48FEF781FB31BD38B504000D00E4B24C
S315080071E0002C04D14FF400711148FEF778FBEDB27C
S315080071F0002D0DD101210E48FEF771FB4FF4004119
S315080072000C48FEF76CFB4FF480410A48FEF767FB13
S315080072104FF400610848FEF762FB4FF480510648B8
S31508007220FEF75DFB40210548FEF759FB31BD00001E
S3150800723000080140001801400014014000100140F8
S3150800724000B587B00020FEF7CAFD01214FF4017092
S31508007250FEF7CFFD0E20ADF8000000208DF80300E4
S3150800726000A94548FEF78CFA0120ADF80000482031
S315080072708DF8030000A94048FEF782FA0020019025
S3150800728000208DF8080001208DF809005FF46020C1
S3150800729003900020049001208DF8140001A93748B6
S315080072A000F084F9002301220121344800F0E2F9B4
S315080072B00121324800F0A2F9304800F0ACF92F4815
S315080072C000F0AEF90028FAD12C4800F0B5F92B48A1
S315080072D000F0B7F90028FAD10121284800F0BDF9D5
S315080072E007B000BD10B5264890F82800012840D1FF
S315080072F0002301220121214800F0BCF902211F4880
S3150800730000F036FA0028F9D01C4800F02AFA0400E2
S3150800731040F2F350A4B2844204D240F24250A4B2DE
S31508007320844204D2174805210170002022E0002378
S3150800733001220221114800F09DF90120FEF7FAFB0F
S3150800734002210E4800F014FA0028F9D00B4800F084
S3150800735008FA040040F6D820A4B2844204D240F6C3
S315080073609210A4B2844204D2064806210170002075
S3150800737000E0012010BD0000000801400024014083
S315080073806C010020780B0020002203881A00DFF821
S31508007390F031984212D0DFF8003298420ED0B0F1A0
S315080073A0804F0BD0DFF8DC31984207D0DFF8D831B0
S315080073B0984203D0DFF8D431984204D14FF68F7340
S315080073C01A404B881A43DFF8C831984208D0DFF8CC
S315080073D0C431984204D04FF6FF431A40CB881A436B
S315080073E002808B8883850B880385DFF89431984261
S315080073F00FD0DFF8A43198420BD0DFF8A0319842BD
S3150800740007D0DFF89C31984203D0DFF898319842CC
S3150800741001D10B7A038601238382704770B4002357
S3150800742000240022058C4FF6EF7635400584058C3E
S315080074302C0085882A00058B2B0048F6FF752B4003
S315080074404FF6FF452B400D8853EA05234FF6DF75A7
S315080074502C400D8954EA05144D8854EA0514DFF8C2
S315080074602051A84203D0DFF84051A84217D14FF661
S315080074707F752C404D8954EA05144FF6BF752C408C
S315080074808D8854EA05144FF6FF352A404FF2FF75EA
S315080074902A408D8952EA8502CD8952EA8502828080
S315080074A00383CD880587048470BC7047C9B2002958
S315080074B004D0028852F00102028004E002884FF6E6
S315080074C0FE731A4002807047C9B2002906D0B0F888
S315080074D0442052F40042A0F8442005E0B0F84420C5
S315080074E05204520CA0F844207047D2B2002A03D0A6
S315080074F083890B43838102E083898B4383817047A9
S31508007500F8B504000D0016001F003B009BB23200C0
S3150800751092B2290089B2200000F005F8208950F4BB
S3150800752080402081F1BD30B4002405892C00E4B2E6
S3150800753052EA03250D432C43048130BC70478184ED
S315080075407047808C704730B4020000200023002466
S31508007550158A0D402B0095890D402C009BB2002BF7
S3150800756005D0A4B2002C02D00125280001E0002590
S315080075702800C0B230BC704789B2CA43028270473D
S31508007580002C01400004004000080040000C0040A8
S315080075900010004000140040003401400040014043
S315080075A000440140004801400034014030B4002343
S315080075B0002244682300DFF8B04123400C680D79A7
S315080075C054EA05242343436084682300DFF89C417A
S315080075D02340CC688D682C434D7954EA45042343EF
S315080075E08360C46A230033F470030C7C641E224350
S315080075F0D2B253EA0253C36230BC7047C9B20029FB
S3150800760004D0826852F00102826003E08268520860
S31508007610520082607047816851F0080181607047A6
S31508007620010000208A68120702D50122100001E035
S3150800763000221000C0B27047816851F004018160D1
S315080076407047010000208A68520702D501221000FF
S3150800765001E000221000C0B27047C9B2002904D068
S31508007660826852F4A002826003E0826832F4A002C3
S3150800767082607047F0B400250024C9B20A2916D3DF
S31508007680C66835000726B1F10A075FF0030C0CFB44
S3150800769007F7BE403400A543DBB2B1F10A0603275B
S315080076A07E4313FA06F634002543C56011E00669E1
S315080076B035000726032707FB01F7BE403400A5431C
S315080076C0DBB2032606FB01F613FA06F63400254359
S315080076D00561D2B2072A14D2466B35001F26571EFB
S315080076E05FF0050C0CFB07F7BE403400A543C9B292
S315080076F0561E05277E4311FA06F6340025434563D0
S315080077002DE0D2B20D2A14D2066B35001F26D71FDC
S315080077105FF0050C0CFB07F7BE403400A543C9B261
S31508007720D61F05277E4311FA06F63400254305635E
S3150800773015E0C66A35001F26B2F10D075FF0050C85
S315080077400CFB07F7BE403400A543C9B2B2F10D06DB
S3150800775005277E4311FA06F634002543C562F0BCB8
S315080077607047C06C80B27047FFFEF0FFFDF7F1FF6F
S31508007770020000201368DBB20B4202D00123180076
S3150800778001E000231800C0B2704750F8041B61B12D
S3150800779050F8042BD30744BFA9F101039A18002314
S315080077A042F8043B091FFAD1EFE7704710B5040009
S315080077B0A4B2002C06D1DFF8D00B006801210182A3
S315080077C0002008E0DFF8C40B006800688047DFF88F
S315080077D0B80B00680A3010BD80B5DFF8B40B4078E6
S315080077E0DFF8A41B0968C97888421AD3DFF8980B12
S315080077F000688078002814D1DFF88C0B0068808830
S3150800780000280ED1DFF8800B0068DFF87C1B0968BA
S31508007810C9788172DFF8740B0068406880470020D9
S3150800782000E0022002BD10B50400A4B2002C06D167
S31508007830DFF8540B006801210182002008E0DFF818
S315080078404C0B006880688047DFF83C0B00680C30FA
S3150800785010BD10B5DFF8300B0068C178DFF8280BCB
S3150800786000684079DFF8B02B1268926990470400E7
S31508007870DFF8140B0068807A00282AD0E4B2002CBE
S315080078800BD1DFF8040B00680079002805D1DFF872
S31508007890F80A00688078002801D002201AE0E4B2CD
S315080078A0002C16D1DFF8E40A0068C0688047DFF8C4
S315080078B0D80A0068DFF8D01A09684979C172DFF872
S315080078C0C80A0068DFF8C01A0968C9780173002079
S315080078D000E0022010BD10B50400A4B2002C06D1A9
S315080078E0DFF8A40A00680221018200207FE0DFF8A1
S315080078F02C0B00210180DFF8900A006800787F21B0
S3150800790008422AD1DFF8800A0068407A810608D53D
S31508007910DFF8081B097851F00201DFF8002B117017
S3150800792007E0DFF8F81A097811F0FD01DFF8EC2A0C
S315080079301170410608D5DFF8E41A097851F00101FB
S31508007940DFF8D82A11704BE0DFF8D01A097811F061
S31508007950FE01DFF8C82A117042E0DFF82C0A006839
S31508007960007810F07F00012802D1DFF8B00A3EE067
S31508007970DFF8140A0068007810F07F0002282DD17D
S31508007980DFF8041A0968497911F00F0210000A068F
S3150800799011D5C0B2DFF8882A52F8202012F030023A
S315080079A0102A1DD1DFF8742A127852F00102DFF886
S315080079B06C3A1A7014E0C0B2DFF8642A52F8202034
S315080079C012F44052B2F5805F0AD1DFF8502A1278D5
S315080079D052F00102DFF8443A1A7001E0002006E08E
S315080079E0DFF8A809006800698047DFF8300A10BD8B
S315080079F02DE9F843DFF890090068007810F07F0455
S31508007A00002C0BD1DFF880090068407A10F0DF00FF
S31508007A10DFF874190968487200209EE0022C40F0CD
S31508007A209B80DFF8640900684088002805D1DFF8E4
S31508007A30580900680079002801D002208DE0DFF897
S31508007A4050090600DFF8400900684079804638F09A
S31508007A50800081464F46DFF8300900684079000605
S31508007A6007D5DFF8BC0950F8270010F030000500EC
S31508007A7006E0DFF8AC0950F8270010F4405005007E
S31508007A803078814507D2002D05D0DFF8FC0800685C
S31508007A90807A002801D102205FE04046000611D511
S31508007AA0DFF87C0950F8270010F0300010284CD178
S31508007AB03800C0B200F089FD30213800C0B200F0AD
S31508007AC0E4FC42E0DFF8580950F8270010F440506B
S31508007AD0B0F5805F39D1002F1ED1DFF8480990F83C
S31508007AE02C1089B23800C0B200F0D3FDDFF8301987
S31508007AF051F827104BF68F721140080090F4805009
S31508007B0090F40050DFF8181940F4004050F0800057
S31508007B1080B241F8270018E03800C0B200F03CFDFA
S31508007B20DFF8FC1851F827104BF68F721140080041
S31508007B3090F4805090F40050DFF8E41840F40040C8
S31508007B4050F0800080B241F82700DFF8400800684E
S31508007B5040698047002000E00220BDE8F283F8B5BE
S31508007B60DFF8240800684079040034F08000060035
S31508007B703500DFF8140800684079000607D5DFF8F5
S31508007B80A00850F8250010F03000070006E0DFF8DE
S31508007B90900850F8250010F440500700DFF8F00769
S31508007BA0007885420DD2DFF8E00700684088002893
S31508007BB007D1002F05D0DFF8D0070068807A0028A3
S31508007BC001D102202FE02000000613D5DFF8501857
S31508007BD051F8251048F6BF721140080090F01000C1
S31508007BE0DFF83C1840F4004050F0800080B241F8BD
S31508007BF0250012E0DFF8281851F825104BF68F7289
S31508007C001140080090F48050DFF8141840F4004042
S31508007C1050F0800080B241F82500DFF87007006850
S31508007C20806980470020F2BD80B5DFF85C070068F0
S31508007C30407A50F02000DFF8501709684872DFF8DC
S31508007C404C070068C0698047002002BD10B40200D6
S31508007C50DFF834070068408A030092B2002A07D189
S31508007C608888C01ADFF8204724682082002001E0AF
S31508007C700868181810BC7047F8B5DFF80C070068D4
S31508007C8010F1100420880500A06800281BD0002DDC
S31508007C9019D0A0880700BD4200D22F00380080B254
S31508007CA0A168884706002088C01B2080608838188D
S31508007CB06080002000F0D3FC3A0092B2010089B23D
S31508007CC0300000F052FD208800280CD0DFF8580755
S31508007CD04FF4405101800021002000F0CDFCDFF870
S31508007CE04C07302101802088A188884205D3DFF817
S31508007CF098060068032101721DE02088012805D333
S31508007D00DFF8840600680521017214E0208800283F
S31508007D1011D1DFF87406006806210172DFF8100732
S31508007D20006880B2DFF80C17002241F81020DFF84F
S31508007D30FC0630210180F1BD2DE9F041DFF8480647
S31508007D40006810F110042588DFF83C060068067AFA
S31508007D50002D21D1042E1FD1DFF8DC06007801287A
S31508007D6013D1DFF8CC06006880B2DFF8C816002207
S31508007D7041F81020DFF8B4063021018004200600FF
S31508007D80DFF8B4060021017005E007200600DFF8D9
S31508007D909C06102101802EE0A0888046A84501D3C4
S31508007DA0042600E00226454500D2A846404680B291
S31508007DB0A16888470700002000F044FC424692B2BA
S31508007DC0010089B2380000F0B0FC414689B20020B3
S31508007DD000F052FC2088B0EB08002080608818EB81
S31508007DE000006080DFF8440630210180DFF838069D
S31508007DF04FF440510180DFF8900500680672BDE82F
S31508007E00F08170B50224DFF8800500684578DFF850
S31508007E107805006800787F21084255D1092D03D1DD
S31508007E20FFF7DAFC040073E0052D1DD1DFF85805CD
S31508007E300068C078802811D2DFF84C050068807881
S31508007E4000280BD1DFF8400500688088002805D196
S31508007E50DFF834050068807A002802D0082006007A
S31508007E607CE00020040053E0032D12D1DFF818054A
S31508007E700068C078012809D1DFF80C0500688088F9
S31508007E80002803D1FFF7D0FE040041E002200400D9
S31508007E903EE0012D3CD1DFF8F0040068C0780128E7
S31508007EA00FD1DFF8E40400688088002809D1DFF8DC
S31508007EB0D8040068407A800603D5FFF799FD0400C8
S31508007EC026E00220040023E0DFF8BC0400680078FE
S31508007ED010F07F00012805D10B2D19D1FFF7B9FC49
S31508007EE0040015E0DFF8A0040068007810F07F00B1
S31508007EF002280BD1012D03D1FFF77AFD040007E014
S31508007F00032D05D1FFF72BFE040001E00220040033
S31508007F10E4B2002C0DD02800C0B2DFF8FC140968C2
S31508007F20496988470400E4B2032C02D109200600F7
S31508007F3014E0E4B2002C02D0082006000EE0062069
S31508007F400600DFF8EC04006880B2DFF8E8140022C7
S31508007F5041F81020DFF8D40430210180DFF8280426
S31508007F600068067270BD2DE9F04782B0DFF8180484
S31508007F70006846780020040000208146062E27D196
S31508007F80DFF80404006800787F21084240F0D080BA
S31508007F90DFF8F40300688078C0B2012805D1DFF85D
S31508007FA078140968C9690C00C2E0C0B2022805D174
S31508007FB0DFF864140968096A0C00B9E0C0B203283E
S31508007FC040F0B680DFF850140968496A0C00AFE043
S31508007FD0002E78D1DFF8B00300684088002872D1F7
S31508007FE0DFF8A4030068C08802286CD1DFF898037C
S31508007FF000680079002866D1DFF88C0300680078ED
S315080080007F21084209D1DFF88003006880880028AC
S3150800801003D1DFF8280404008AE0DFF86C0300685F
S31508008020007810F07F00012815D10021DFF85803E9
S3150800803000684079DFF8E0231268926990470028C3
S3150800804076D1DFF844030068807A002870D0DFF81C
S31508008050EC0304006CE0DFF830030068007810F0E9
S315080080607F00022864D1DFF820030068407910F009
S315080080700F000700DFF810030068407910F0700061
S315080080808046C14800684079000607D5DFF89003A6
S3150800809050F8270010F03000824606E0DFF880032B
S315080080A050F8270010F440508246B94800788742B5
S315080080B03ED2B8F1000F3BD1BAF1000F38D0DFF845
S315080080C07C03040034E0082E09D1AF480068007824
S315080080D07F2108422CD1DFF86803040028E00A2E25
S315080080E026D1A9480068007810F07F0001281FD122
S315080080F0A5480068807A00281AD0A34800684088F6
S31508008100002815D1A04800680079002810D19E489B
S315080081100068C08801280BD100219B480068407977
S31508008120BD4A126892699047002801D1C5480400E3
S31508008130200000280BD094480068A0F812909248B6
S31508008140006884610020A047002005000FE08E48E3
S3150800815000684078B0490968096988470500EDB2A2
S31508008160032D04D1884800680921017264E0864815
S315080081700068008A4FF6FF71884204D18248006879
S315080081800921017258E0EDB2022D04D07E4800683C
S31508008190008A002804D17C480068082101724BE057
S315080081A079480068007800063ED577480068C08898
S315080081B00090009874490968098A884204D272486E
S315080081C000680099018225E06F480068008A6E49B8
S315080081D00968C98888421DD26B480068008A8E499A
S315080081E0096891F82C1089B2884203D29248002176
S315080081F001700FE064480068008A8749096891F8A9
S315080082002C1090FBF1F201FB1200002802D18A48DB
S31508008210012101705C4800687F49096891F82C10B3
S315080082208182FFF789FD07E057480068032101723C
S315080082307D484FF440510180BDE8F38738B50125E4
S315080082407B48006880B2804931F81000400000F190
S31508008250804010F5C04004004B480068007A0928A1
S3150800826026D04948006821780170641C4648006891
S3150800827021784170641CADB214EB45042000841CBF
S31508008280008800F047FA404909684880ADB214EB07
S3150800829045042000841C008800F03CFA3A49096825
S315080082A08880ADB214EB4504374800682188C18040
S315080082B0354800680121017233480068C0880028E3
S315080082C002D1FFF79EFD01E0FFF74DFE00F062F8D0
S315080082D032BD10B52C480068047A022C01D0042C53
S315080082E006D1FFF729FD28480068007A04001EE039
S315080082F0062C1AD124480068407805280ED1224851
S31508008300006800787F21084208D11F480068C078B5
S3150800831000F05EF81D480068006A80473E4800681D
S31508008320806880470820040001E0082004001648F9
S315080083300068047200F02EF810BD10B512480068E7
S31508008340047A022C01D0042C02D10820040015E07E
S31508008350032C01D0052C06D1FFF78EFC0A480068CD
S31508008360007A04000AE0072C06D12B480068C0688A
S3150800837080470820040001E008200400024800683D
S31508008380047200F007F810BD540B00205C0B0020A7
S315080083908002002080B5234890F82C1089B200206E
S315080083A000F077F929480068007A082806D11E489F
S315080083B04FF4805101801D48102101802348006830
S315080083C0007A092801D1012000E00020C0B202BDD0
S315080083D030B41F4A127800231900914215D20B00B7
S315080083E0DBB20F4C54F8233048F68F7423400C0048
S315080083F0E4B2234343F4004353F080030C00E4B291
S31508008400074D45F82430491CE7E7C0B250F0800311
S31508008410104C236030BC7047580B00204C0B0020D2
S31508008420005C0040A00100206E0B0020700B0020AD
S31508008430505C0040046000407D0B0020D77800089F
S31508008440AD7700082778000808600040540B002024
S31508008450800200204C5C0040704700004FF6F8711F
S315080084600140DFF8982211607047C0B2DFF8902209
S3150800847052F8202048F68F131A400A4392B2C0B227
S31508008480DFF87C3243F82020704710B4C0B2DFF81A
S31508008490703253F8203048F6BF7423401A00CB06D2
S315080084A001D592F010028B0601D592F02002C0B2D7
S315080084B0DFF84C3242F4004252F0800292B243F89E
S315080084C0202010BC704710B4C0B2DFF8343253F81D
S315080084D020304BF68F7423401A00CB0401D592F452
S315080084E080528B0401D592F40052C0B2DFF81032E4
S315080084F042F4004252F0800292B243F8202010BCA7
S315080085007047C0B2DFF8F81151F8200010F03000BB
S315080085107047C0B2DFF8E82152F8202048F6BF734A
S315080085201A40110091F0100191F02001C0B2DFF855
S31508008530D02141F4004151F0800189B242F820105F
S315080085407047C0B2DFF8B82152F820204BF68F7377
S315080085501A40110091F4805191F40051C0B2DFF82D
S31508008560A02141F4004151F0800189B242F820105F
S315080085707047C0B2DFF8881151F8201048F68F62AC
S31508008580114041F4004151F0800189B2C0B2DFF8D0
S31508008590702142F820107047C0B2DFF8641151F814
S315080085A02010490410D5C0B2DFF8541151F8201034
S315080085B048F68F72114041F4404151F08001C0B233
S315080085C0DFF83C2142F820107047C0B2DFF83011BE
S315080085D051F82010490610D5C0B2DFF8241151F819
S315080085E0201048F68F72114041F4004151F0C00145
S315080085F0C0B2DFF80C2142F82010704710B4DFF83B
S31508008600FC20126892B2C0B212EBC002DFF8F43056
S3150800861089B24C08A4B2640043F8124010BC7047F3
S3150800862010B4DFF8D820126892B2C0B212EBC002BA
S31508008630DFF8D43089B24C08A4B2640043F812407B
S3150800864010BC7047DFF8B410096889B2C0B211EBE4
S31508008650C000DFF8B01051F8100080B27047DFF89C
S315080086609C10096889B2C0B211EBC000DFF89810F7
S3150800867051F8100080B27047DFF88020126892B275
S31508008680C0B212EBC002DFF8843089B243F8121088
S31508008690704730B4DFF864301B689BB2C0B213EB86
S315080086A0C003DFF86C4014EB43031A0089B23F2974
S315080086B00CD389B24C0923001F24214200D15B1E2A
S315080086C09BB29B0253F40043136008E089B24C083E
S315080086D02300CC0700D55B1C9BB29B02136030BC01
S315080086E070470649096889B2C0B211EBC00008494B
S315080086F051F810008005800D70470000505C00405E
S31508008700005C0040006000400860004004600040D3
S315080087100C60004001000B001A0089B2D2B21302A5
S3150800872053EA1123180080B27047F0B492B2531C72
S315080087305B1089B25FEA410C0CF1804C1CF5C04C09
S3150800874067461C00002C0ED090F800C06546401CF9
S3150800875090F800C055EA0C2C66463E80BF1CBF1C2C
S31508008760401C641EEEE7F0BC704770B492B2531C0E
S315080087705B1089B24E0006F1804616F5C0463500F4
S315080087801C00002C06D02E6806802D1D401C401C9F
S31508008790641EF6E770BC704780B54FF4C050ADF85C
S315080087A0000002208DF8020010208DF8030000A9B1
S315080087B0DFF8CC0BFCF7E4FF4FF4F060ADF80000EF
S315080087C002208DF8020010208DF8030000A9DFF8BA
S315080087D0B40BFCF7D5FF1220ADF8000002208DF887
S315080087E0020028208DF8030000A9DFF89C0BFCF78F
S315080087F0C7FF4FF40061DFF8880BFDF770F84FF4F8
S315080088008051DFF87C0BFDF76AF88021DFF8740BDE
S31508008810FDF765F84FF48071DFF8680BFDF75FF830
S315080088204FF40071DFF85C0BFDF759F84FF48061DF
S31508008830DFF8500BFDF753F801BD2DE9F0410400B0
S315080088400C25002600275FF000084FF48051DFF85A
S31508008850300BFDF741F84FF40061DFF8240BFDF704
S315080088603EF8002080461FFA88F8B8F1060F02D2B3
S3150800887018F10108F7E74FF40061DFF8040BFDF77C
S315080088802BF8002080461FFA88F8B8F1060F02D2A6
S3150800889018F10108F7E70D200500EDB2012D38D3D0
S315080088A04FF40061DFF8D80AFDF719F8A4B2681E7C
S315080088B054FA00F080461FFA88F85FEAC87006D5B1
S315080088C04FF48051DFF8B80AFDF706F805E04FF4D3
S315080088D08051DFF8AC0AFDF702F8002080461FFA3F
S315080088E088F8B8F1060F02D218F10108F7E74FF435
S315080088F00061DFF88C0AFCF7EFFF002080461FFABC
S3150800890088F8B8F1060F02D218F10108F7E76D1ECC
S31508008910C3E74FF48051DFF8680AFCF7E0FF4FF42D
S315080089200061DFF85C0AFCF7DAFF002080461FFAD0
S3150800893088F8B8F1060F02D218F10108F7E74FF4E4
S315080089400061DFF83C0AFCF7C7FF002080461FFAE3
S3150800895088F8B8F1060F02D218F10108F7E74FF4C4
S315080089600061DFF81C0AFCF7BAFF002080461FFAF0
S3150800897088F8B8F1060F02D218F10108F7E74FF4A4
S315080089800061DFF8FC09FCF7A7FF002080461FFA04
S3150800899088F8B8F1060F02D218F10108F7E74FF484
S315080089A00061DFF8DC09FCF79AFF002080461FFA11
S315080089B088F8B8F1060F02D218F10108F7E74FF464
S315080089C00061DFF8BC09FCF787FF002080461FFA24
S315080089D088F8B8F1060F02D218F10108F7E708205F
S315080089E00500EDB2012D2CD34FF40061DFF8900994
S315080089F0FCF775FF1021DFF89009FCF75DFF06000C
S31508008A00F6B2681E16FA00F00743002080461FFAE1
S31508008A1088F8B8F1060F02D218F10108F7E74FF403
S31508008A200061DFF85C09FCF757FF002080461FFA53
S31508008A3088F8B8F1060F02D218F10108F7E76D1E9B
S31508008A40CFE74FF40061DFF83809FCF748FF00204C
S31508008A5080461FFA88F8B8F1060F02D218F1010805
S31508008A60F7E74FF40061DFF81809FCF735FF002037
S31508008A7080461FFA88F8B8F1060F02D218F10108E5
S31508008A80F7E74FF40061DFF8F808FCF728FF002045
S31508008A9080461FFA88F8B8F1060F02D218F10108C5
S31508008AA0F7E74FF40061DFF8D808FCF715FF002058
S31508008AB080461FFA88F8B8F1060F02D218F10108A5
S31508008AC0F7E74FF40061DFF8B808FCF708FF002065
S31508008AD080461FFA88F8B8F1060F02D218F1010885
S31508008AE0F7E74FF40061DFF89808FCF7F5FE002079
S31508008AF080461FFA88F8B8F1060F02D218F1010865
S31508008B00F7E73800C0B2BDE8F0812DE9F04104006E
S31508008B100C25002600275FF000084FF48051DFF887
S31508008B206008FCF7D9FE4FF40061DFF85408FCF73B
S31508008B30D6FE002080461FFA88F8B8F1060F02D242
S31508008B4018F10108F7E74FF40061DFF83408FCF77D
S31508008B50C3FE002080461FFA88F8B8F1060F02D235
S31508008B6018F10108F7E70D200500EDB2012D38D3FD
S31508008B704FF40061DFF80808FCF7B1FEA4B2681EDE
S31508008B8054FA00F080461FFA88F85FEAC87006D5DE
S31508008B904FF48051DFF8E807FCF79EFE05E04FF436
S31508008BA08051DFF8DC07FCF79AFE002080461FFAA2
S31508008BB088F8B8F1060F02D218F10108F7E74FF462
S31508008BC00061DFF8BC07FCF787FE002080461FFA25
S31508008BD088F8B8F1060F02D218F10108F7E76D1EFA
S31508008BE0C3E74FF48051DFF89807FCF778FE4FF497
S31508008BF00061DFF88C07FCF772FE002080461FFA3A
S31508008C0088F8B8F1060F02D218F10108F7E74FF411
S31508008C100061DFF86C07FCF75FFE1021DFF86807D4
S31508008C20FCF74AFE80461FFA88F8B8F1010F01D111
S31508008C300020EAE0002080461FFA88F8B8F1060FFF
S31508008C4002D218F10108F7E74FF40061DFF83007A0
S31508008C50FCF745FE002080461FFA88F8B8F1060F93
S31508008C6002D218F10108F7E74FF40061DFF81007A0
S31508008C70FCF732FE1021DFF81007FCF71DFE8046D0
S31508008C801FFA88F8B8F1000F01D10020BDE00020D6
S31508008C9080461FFA88F8B8F1060F02D218F10108C3
S31508008CA0F7E74FF40061DFF8D806FCF718FE002056
S31508008CB080461FFA88F8B8F1060F02D218F10108A3
S31508008CC0F7E74FF40061DFF8B806FCF705FE002069
S31508008CD080461FFA88F8B8F1060F02D218F1010883
S31508008CE0F7E708200500EDB2012D2CD34FF40061FB
S31508008CF0DFF88C06FCF7F3FD1021DFF88C06FCF78D
S31508008D00DBFD0600F6B2681E16FA00F007430020DF
S31508008D1080461FFA88F8B8F1060F02D218F1010842
S31508008D20F7E74FF40061DFF85806FCF7D5FD002099
S31508008D3080461FFA88F8B8F1060F02D218F1010822
S31508008D40F7E76D1ECFE74FF40061DFF83406FCF74E
S31508008D50C6FD002080461FFA88F8B8F1060F02D231
S31508008D6018F10108F7E74FF40061DFF81406FCF77D
S31508008D70B3FD002080461FFA88F8B8F1060F02D224
S31508008D8018F10108F7E74FF40061DFF8F405FCF77E
S31508008D90A6FD002080461FFA88F8B8F1060F02D211
S31508008DA018F10108F7E74FF40061DFF8D405FCF77E
S31508008DB093FD002080461FFA88F8B8F1060F02D204
S31508008DC018F10108F7E74FF40061DFF8B405FCF77E
S31508008DD086FD002080461FFA88F8B8F1060F02D2F1
S31508008DE018F10108F7E74FF40061DFF89405FCF77E
S31508008DF073FD002080461FFA88F8B8F1060F02D2E4
S31508008E0018F10108F7E73800C0B2BDE8F0812DE98E
S31508008E10F04104000D0000275FF000084FF4805170
S31508008E20DFF85C05FCF758FD002080461FFA88F835
S31508008E30B8F1060F02D218F10108F7E74FF480518E
S31508008E40DFF83C05FCF74BFD4FF40061DFF8300511
S31508008E50FCF745FD002080461FFA88F8B8F1060F92
S31508008E6002D218F10108F7E74FF40061DFF81005A0
S31508008E70FCF732FD002080461FFA88F8B8F1060F85
S31508008E8002D218F10108F7E70D200600F6B2012E06
S31508008E9038D34FF40061DFF8E804FCF720FDA4B2EC
S31508008EA0701E54FA00F080461FFA88F85FEAC87008
S31508008EB006D54FF48051DFF8C804FCF70DFD05E030
S31508008EC04FF48051DFF8B804FCF709FD002080460E
S31508008ED01FFA88F8B8F1060F02D218F10108F7E769
S31508008EE04FF40061DFF89804FCF7F6FC0020804692
S31508008EF01FFA88F8B8F1060F02D218F10108F7E749
S31508008F00761EC3E74FF40061DFF87404FCF7E7FC4C
S31508008F10002080461FFA88F8B8F1060F02D218F129
S31508008F200108F7E74FF40061DFF85404FCF7D4FCB6
S31508008F30002080461FFA88F8B8F1060F02D218F109
S31508008F400108F7E74FF40061DFF83404FCF7C7FCC3
S31508008F50002080461FFA88F8B8F1060F02D218F1E9
S31508008F600108F7E74FF40061DFF81404FCF7B4FCD6
S31508008F70002080461FFA88F8B8F1060F02D218F1C9
S31508008F800108F7E74FF40061DFF8F403FCF7A7FCE4
S31508008F90002080461FFA88F8B8F1060F02D218F1A9
S31508008FA00108F7E74FF40061DFF8D403FCF794FCF7
S31508008FB0002080461FFA88F8B8F1060F02D218F189
S31508008FC00108F7E708200600F6B2012E38D34FF459
S31508008FD00061DFF8AC03FCF782FCEDB2701E55FAAF
S31508008FE000F080461FFA88F85FEAC87006D54FF485
S31508008FF08051DFF88C03FCF76FFC05E04FF48051D5
S31508009000DFF87C03FCF76BFC002080461FFA88F823
S31508009010B8F1060F02D218F10108F7E74FF400611C
S31508009020DFF85C03FCF758FC002080461FFA88F836
S31508009030B8F1060F02D218F10108F7E7761EC3E762
S315080090404FF40061DFF83803FCF749FC002080463E
S315080090501FFA88F8B8F1060F02D218F10108F7E7E7
S315080090604FF40061C648FCF737FC002080461FFA1B
S3150800907088F8B8F1060F02D218F10108F7E74FF49D
S315080090800061BF48FCF72BFC00200700BF48808A18
S31508009090BFB2874201D27F1CF8E74FF40061B84897
S315080090A0FCF71AFC00200700B848808ABFB287423E
S315080090B001D27F1CF8E74FF40061B148FCF70FFCBA
S315080090C0002080461FFA88F8B8F1060F02D218F178
S315080090D00108F7E74FF40061A948FCF7FDFB0020FB
S315080090E080461FFA88F8B8F1060F02D218F101086F
S315080090F0F7E7BDE8F081F8B504000D001600310069
S31508009100C9B22800C0B2FEF714F8FBF713FB20001B
S3150800911080B2FFF792FB0320FFF7F7FC0700FFB2C8
S31508009120002F01D1002000E00120F2BDF8B500278C
S315080091300122012195480088FFF7DDFF002801D1AB
S31508009140002099E0FEF7CEF8002801D1002093E030
S3150800915000200700FFB2032F58D28C4890F827004A
S315080091600F21084215D089480089FFF7CEFC050073
S315080091708748FCF7A1F9012807D18648007804003A
S31508009180EDB2E4B2A54204D001E0002074E000206C
S3150800919072E07E4890F82700F021084234D04FF458
S315080091A080517848FCF79BFB7848808800F57F401B
S315080091B0FF30FCF74EFA7748007804007348808839
S315080091C006007248C088B6B2B04218D3300080B2E2
S315080091D0FFF79BFC0500FCF7F2F86E4800780400E0
S315080091E0EDB2E4B2A54208D04FF480516548FCF7C9
S315080091F073FB6948068000203EE0761CE1E74FF4E1
S3150800920080516048FCF768FB7F1CA3E75F4890F82D
S315080092102700F02108422AD06048FCF74DF90128BA
S3150800922005D15C48007804000020070001E0002012
S3150800923022E07F1C3800C0B2052818D22100C9B226
S3150800924052480089FFF7E3FD50480089FFF75DFCA7
S31508009250E4B2A04202D10020070008E0FFB2042FC2
S31508009260E7D14A4800894C490880002004E00021DB
S315080092700020FDF7B1FF0120F2BD70B504000D0016
S3150800928016000122012141480088FFF734FF4248B1
S31508009290068041480088FFF738FC41490870404875
S315080092A000783A49097B884201D0002022E03A48F2
S315080092B0048039480088ADB2854213D33648008801
S315080092C0FFF723FC36490870354800782F49097B93
S315080092D0884201D000200DE02F480088401C2E4906
S315080092E00880E6E700210020FDF776FF3220FCF72C
S315080092F021FC012070BD2DE9F04104000D00FCF7AA
S3150800930075F9012801D0002038E00020FCF747F95C
S31508009310FCF7FAF801220121200080B2FFF7EBFEE4
S31508009320002801D1002029E018480089FFF7EDFB45
S3150800933007003900C9B21648FCF78AF8ADB2A84644
S315080093401248C08840450DD3404680B2FFF7DDFB82
S3150800935007003900C9B218F58030FCF779F818F11A
S315080093600108EDE7FFF7E2FE060000210020FDF701
S3150800937033FF3220FCF7DEFB3000C0B2BDE8F081D7
S3150800938000140140000C0140001801406C01002047
S31508009390002101007C0B0020660B00202021010023
S315080093A0770B00202DE9F84300275FF000085FF0EF
S315080093B0000901200400DFF8040A4078801C844272
S315080093C005D2DFF8F809205CC719641CF3E7DFF853
S315080093D0EC09205CFFB2874225D000200500062D47
S315080093E007D2DFF8DC090FF65821695C29546D1C91
S315080093F0F5E7062000F0ADFC4FF40061DFF8C4097C
S31508009400FCF76DFA4FF48051DFF8B809FCF764FAF7
S315080094104FF48061DFF8AC09FCF75EFA0020FCF730
S3150800942021FB00F08EBCDFF894098078012809D169
S31508009430DFF89409F7210170DFF89009012101701E
S3150800944000F07FBCDFF87409807845283FD1DFF843
S31508009450700968210170DFF8680906214170DFF894
S31508009460600946218170DFF858090121C170DFF8CB
S31508009470500905210171DFF848090D214171DFF80E
S31508009480400901218171DFF838091F21C171DFF810
S315080094903009C078DFF8281909790818DFF8201983
S315080094A049790818DFF8181989790818DFF81019A2
S315080094B0C97908184B30DFF808190872DFF800096F
S315080094C0162141720A2000F044FC00F03ABCDFF88D
S315080094D0EC088078032840F0A880DFF8F408807844
S315080094E003280CD1DFF8E8080289DFF8E408C18808
S315080094F0DFF8DC08808801F0ADF980460BE0DFF87C
