S0180000455A50726F3130305F4150505F7632302E7372656334
S31508004000980F0020A15C0108E9570108EB57010841
S31508004010ED570108EF570108F157010800000000A5
S31508004020000000000000000000000000F35701082F
S31508004030F557010800000000F7570108F95701086D
S31508004040555D0108595D01085D5D0108615D01085E
S31508004050655D0108695D01086D5D0108715D01080E
S31508004060755D0108795D01087D5D0108815D0108BE
S31508004070855D0108895D01088D5D0108915D01086E
S31508004080955D0108995D01089D5D0108A15D01081E
S31508004090FB570108A95D0108AD5D0108B15D01087E
S315080040A0B55D0108B95D0108BD5D0108C15D01087E
S315080040B0C55D0108C95D0108CD5D0108D15D01082E
S315080040C0D55D0108D95D0108DD5D0108E15D0108DE
S315080040D0E55D0108E95D0108ED5D0108F15D01088E
S315080040E0F55D0108F95D0108FD5D0108015E01083D
S315080040F0055E0108095E01080D5E0108115E0108EA
S31508004100155E0108195E01081D5E0108215E010899
S31508004110255E0108295E01082D5E0108315E010849
S31508004120355E0108395E01083D5E0108415E0108F9
S3150800413080B51648008846F26001884205D104F029
S31508004140E7F800281FD001201EE01048008848F232
S315080041503211884205D105F01FFE002813D0012030
S3150800416012E00A48008843F22221884205D106F067
S3150800417023FD002807D0012006E000F009F80028F2
S3150800418001D0012000E0002002BD00006C010020E3
S315080041902DE9F04F87B000240020ADF8020000207A
S315080041A0ADF8060000208DF800005FF000085FF00B
S315080041B0000900208DF80100DFF8900D90F8220024
S315080041C0012840F0B480DFF8840D008843F294316A
S315080041D0884206D0DFF8740D008843F278318842A9
S315080041E00DD1DFF8680D428ADFF8600DC189DFF866
S315080041F05C0D008A03F03CFB8DF800008CE0DFF8CC
S315080042004C0D008849F2290188420DD1DFF83C0D92
S31508004210428ADFF8380DC189DFF8300D008A02F0CE
S3150800422023FB8DF8000077E0DFF8200D008843F2C5
S315080042301111884206D0DFF8140D008843F21631B2
S3150800424088420DD1DFF8040D428ADFF8000DC189D6
S31508004250DFF8F80C008A02F0E9FC8DF800005BE054
S31508004260DFF8E80C008845F21231884216D1DFF8EB
S31508004270DC0C428ADFF8D40CC189DFF8D00C008A3E
S3150800428002F020FF8DF800009DF80000DFF8B81D49
S315080042900978884240D1002001F02CBADFF8AC0C2E
S315080042A0008843F28101884206D0DFF8A00C008816
S315080042B043F2014188420DD1DFF8900C428ADFF8BB
S315080042C08C0CC189DFF8840C008A01F067FF8DF831
S315080042D0000021E0DFF8740C008846F2600188428D
S315080042E00DD1DFF8680C428ADFF8600CC189DFF867
S315080042F05C0C008A04F078FF8DF800000CE0DFF80B
S315080043004C0C428ADFF8440CC189DFF8400C008A5D
S3150800431001F062FD8DF800009DF80000002806D126
S31508004320DFF8240D03210170002001F0E3B9012113
S31508004330DFF8180D06F06CFE0021002006F04FFF8E
S3150800434006F0D4FF052007F06FF9DFF8000C0088A7
S3150800435043F29431884230D0DFF8F00B008843F2FC
S315080043607831884229D0DFF8E40B008849F2290120
S31508004370884222D0DFF8D40B008843F21111884214
S315080043801BD0DFF8C80B008843F20141884214D0DD
S31508004390DFF8B80B008843F2163188420DD0DFF8F3
S315080043A0AC0B008845F21231884206D0DFF89C0B28
S315080043B0008845F28811884203D1022001F0A4F949
S315080043C013E0DFF8880B008843F26421884209D19C
S315080043D0DFF8780B90F82800022803D1022001F0B4
S315080043E093F902E0012001F08FF9012007F01CF98A
S315080043F04FF40051DFF8580C06F00AFE4FF400712E
S31508004400DFF8480C06F001FE0A2007F00DF94FF612
S31508004410FF7001F09DFC8246DFF8300B00881FFA1A
S315080044208AFA824506D0DFF8200C042101700020A4
S3150800443001F060B9DFF8140B008843F2783188423E
S315080044401AD148F2080001F083FC82461FFA8AFA5C
S3150800445043F27430824507D1DFF8F00A407B7428AE
S315080044600AD0002001F046B9DFF8E00A407B74283C
S3150800447002D1002001F03EB9DFF8D00A90F82800F2
S31508004480022840F0C180002004004FF6FF708246E3
S31508004490601C0400C0B2062824DA514689B2DFF847
S315080044A0AC0A008901F0F6FBDFF8A00A008901F0E2
S315080044B04FFC0500ADB21FFA8AFA554502D1002015
S315080044C004000FE0E4B2042CE2D1DFF8800A008988
S315080044D0DFF8441D0880DFF8700B0A210170002000
S315080044E001F008B9601C0400C0B2062828DA514653
S315080044F089B2DFF8580A0089401C80B201F0CAFB6D
S31508004500DFF8480A0089401C80B201F021FC05004A
S31508004510ADB21FFA8AFA554502D1002004000FE011
S31508004520E4B2042CDED1DFF8240A0089DFF8E81C9F
S315080045300880DFF8140B0A210170002001F0DAB8B0
S31508004540601C0400C0B2062828DA514689B2DFF892
S31508004550FC090089801C80B201F09CFBDFF8EC099D
S315080045600089801C80B201F0F3FB0500ADB21FFA8A
S315080045708AFA554502D1002004000FE0E4B2042C63
S31508004580DED1DFF8C8090089DFF88C1C0880DFF85F
S31508004590B80A0A210170002001F0ACB80121DFF841
S315080045A0AC0A06F035FD0021002006F018FE06F0DC
S315080045B09DFE0A2007F038F8022001F0A5F8012030
S315080045C007F032F84FF40051DFF8840A06F020FDB0
S315080045D04FF40071DFF8740A06F017FD0A2007F099
S315080045E023F84FF6FF7001F0B3FB8246DFF85C094B
S315080045F000881FFA8AFA824506D0DFF84C0A042199
S315080046000170002001F076B8DFF84009008843F20F
S31508004610163188426ED100200400DFF8F80D834673
S31508004620584607F081FA012806D1DFF8EC0D007824
S315080046300600F6B2B24602E0002001F05BB8601C44
S315080046400400C0B2062821DA514689B24FF4004068
S3150800465001F020FB4FF4004001F07AFB0500ADB2F3
S315080046601FFA8AFA554502D1002004000EE0E4B28A
S31508004670042CE4D1DFF8A00B4FF400410180DFF8E9
S31508004680C8090A210170002001F034B80121DFF8B9
S31508004690BC0906F0BDFC0021002006F0A0FD0A209A
S315080046A006F0C2FF022001F02FF8012006F0BCFF39
S315080046B04FF40051DFF8980906F0AAFC4FF4007190
S315080046C0DFF8880906F0A1FC0A2006F0ADFF4FF6D0
S315080046D0FF7001F03DFB8246DFF8700800881FFA7C
S315080046E08AFA824506D0DFF86009042101700020A5
S315080046F001F000B8DFF8540890F827000F210842A7
S3150800470000F0EC82002081464FF48051DFF8B40DAA
S3150800471006F07EFCDFF83408808800F57F40FF301D
S3150800472007F0CFFADFF8F00C00788246DFF8980D2C
S3150800473040788DF80100DFF8900D8078DFF8881D45
S31508004740C97811EB0020ADF80E00DFF87C0D007972
S31508004750DFF8741D497911EB0020ADF80C00DFF87D
S31508004760680D8079DFF8601DC97911EB0020ADF876
S315080047700A00DFF8540D007ADFF84C1D497A11EB70
S315080047800020ADF80800DFF8400D807ADFF8381D04
S31508004790C97A090411EB0060DFF82C1D097B10EBC0
S315080047A00120DFF8241D497B08180590DFF8180D4D
S315080047B0C07BDFF8141D097C090411EB0060DFF8E3
S315080047C0081D497C10EB0120DFF8FC1C897C0818C1
S315080047D08346DFF8F40CC07EDFF8EC1C097F090479
S315080047E011EB0060DFF8E01C497F10EB0120DFF8D1
S315080047F0D81C897F0818049004980599884217D20E
S31508004800DFF8C40CDFF8C01CC97D8172DFF8B80C6C
S31508004810DFF8B41C097EC172DFF8AC0CDFF8A81CFF
S31508004820497E0173DFF8A00CDFF89C1C897E417372
S31508004830DFF8940C00780A280BD1DFF83C0D0068E5
S31508004840584506D3DFF800080E210170002000F055
S3150800485051BF002001F07CFA0500DFF8F0068088D9
S31508004860DFF8B4190880DFF8E406C088DFF8A8196D
S3150800487009888842C0F01E8107F0D5F8DFF8980B42
S3150800488000780600F6B216EB090907F0CCF8DFF84F
S31508004890880B00780700FFB217EB0909FFB24FF43F
S315080048A08070F6B200FB07608246DFF86C09008864
S315080048B0022190FBF1F0ADF80400DFF85C090088EE
S315080048C0801CDFF854190880DFF8FC0B00780A28EA
S315080048D04AD1BDF80400BDF80E10884209D1FFB2CE
S315080048E04FF48070DFF8E01B497B00FB0710824617
S315080048F03AE0BDF80400BDF80C1088420DD19DF8C9
S315080049000100022809DBFFB24FF48070DFF8B81BFC
S31508004910097B00FB0710824626E0BDF80400BDF8B7
S315080049200A1088420DD19DF80100032809DBFFB261
S315080049304FF48070DFF8901BC97A00FB0710824697
S3150800494012E0BDF80400BDF8081088420CD19DF8A5
S315080049500100042808DBFFB24FF48070DFF8681BFB
S31508004960897A00FB07108246DFF8AC0A80F800A0B7
S3150800497000200400601C0400C0B2062861DA00208A
S315080049808046DFF8C805008843F2111188420BD12A
S315080049901FFA8AFA4FF6FF70824505D15FEACA4ABE
S315080049A05FEADA4A01208046DFF8A005008843F26C
S315080049B0014188420AD11FFA8AFA4FF6FF708245EA
S315080049C004D141F6FF70824601208046DFF87C0557
S315080049D0008843F2810188420AD11FFA8AFA4FF603
S315080049E0FF70824504D143F6FF7082460120804657
S315080049F01FFA8AFA4FF6FF70824508D05FFA88F8E0
S31508004A00B8F1000F03D1504680B201F061F801F009
S31508004A101DF80500ADB21FFA8AFA554502D10020E5
S31508004A2004000EE0E4B2042CA4D1DFF81C06082129
S31508004A300170DFF8E407BDF804100180002000F0DB
S31508004A4059BEDFF8D4070088DFF80015C988884200
S31508004A50BFF409AF142007F004FDDFF8F00400885E
S31508004A6043F2014188420ED0DFF8E004008843F2A1
S31508004A708101884207D0DFF8D404008843F2163152
S31508004A8088427FF4F0AE122000F088FFADF80400EB
S31508004A90BDF80400DFF880170988022291FBF2F1BD
S31508004AA088423FF4E0AEDFF8A0051021017000202F
S31508004AB000F020BE4FF48051DFF8080A06F0A5FA88
S31508004AC0DFF88804008849F22901884240F0068107
S31508004AD04FF48051DFF8EC0906F09AFADFF81C0C5F
S31508004AE007F0EFF8F22001F033F90500DFF82807A0
S31508004AF04FF4F2710180DFF820070088B0F5007FD7
S31508004B0060DA06F090FFDFF8100900780600F6B2C2
S31508004B1016EB090906F087FFDFF8FC08007807009E
S31508004B20FFB217EB0909FFB24FF48070F6B200FB2B
S31508004B3007608246DFF8E0060088022190FBF1F064
S31508004B40ADF80400DFF8D0060088801CDFF8C81628
S31508004B500880DFF8C40880F800A000200400601C64
S31508004B600400C0B2062823DA1FFA8AFA4FF6FF7045
S31508004B70824503D0504680B200F0AAFF00F066FFD7
S31508004B800500ADB21FFA8AFA554502D10020040085
S31508004B900EE0E4B2042CE2D1DFF8AC04082101707F
S31508004BA0DFF87406BDF804100180002000F0A2BDED
S31508004BB0DFF864060088B0F5FF7F9CDC142007F058
S31508004BC050FC98E74FF48051DFF8F80806F01DFA14
S31508004BD0DFF82C0B00788246DFF87003008901F0B5
S31508004BE0B7F80500ADB2FF2D27D1601C0400C0B28E
S31508004BF0062822DA514689B2DFF85003008901F007
S31508004C0049F8D248008901F0A3F80500ADB21FFAA9
S31508004C108AFA554502D1002004000EE0E4B2042CBD
S31508004C20E3D1CA480089DFF8F0150880DFF81804D0
S31508004C300A210170002000F05DBDDFF8C80A83462E
S31508004C40584606F071FF012815D1DFF8CC07007821
S31508004C5082461AF0800ADFF8400D007850EA0A0A00
S31508004C60BA480089401C80B201F072F80500ADB25E
S31508004C70FF2D33D106E0DFF8D003092101700020AB
S31508004C8000F038BD601C0400C0B2062826DA51467A
S31508004C9089B2AE480089401C80B200F0FBFFAB48E1
S31508004CA00089401C80B201F053F80500ADB21FFA26
S31508004CB08AFA554502D1002004000FE0E4B2042C1C
S31508004CC0E0D1A2480089401CDFF84C150880DFF8BF
S31508004CD078030A210170002000F00CBD9B4890F86B
S31508004CE02700F021084200F0FB849848008843F228
S31508004CF0212188421DD09548008843F264218842C4
S31508004D0017D09248008843F21111884211D08F4873
S31508004D10008843F2810188420BD08C48008843F210
S31508004D200141884205D08948008845F288118842A1
S31508004D3003D1DFF8100D834602E0DFF80C0D834639
S31508004D408248008845F28811884240F039815846E1
S31508004D5006F0EAFE01280CD1DFF8BC06007806004A
S31508004D60F6B2B6F58070824678484FF40041018164
S31508004D7002E0002000F0BEBC601C0400C0B2062899
S31508004D8020DA514689B27148008900F083FF6F48DE
S31508004D90008900F0DDFF0500ADB21FFA8AFA554515
S31508004DA002D1002004000DE0E4B2042CE4D16748E7
S31508004DB00089DFF864140880A3480A2101700020DE
S31508004DC000F098BC1BF1010006F0AEFE012808D1E0
S31508004DD0DFF8440600780600F6B2B6F5807082461B
S31508004DE002E0002000F086BC601C0400C0B2062861
S31508004DF025DA514689B255480089401C80B200F030
S31508004E0049FF52480089401C80B200F0A1FF050006
S31508004E10ADB21FFA8AFA554502D1002004000EE009
S31508004E20E4B2042CE0D149480089401CDFF8E813B5
S31508004E30088085480A210170002000F05BBC1BF140
S31508004E40020006F071FE012808D1DFF8CC050078CB
S31508004E500600F6B2B6F58070824602E0002000F041
S31508004E6049BC601C0400C0B2062825DA514689B23E
S31508004E7036480089801C80B200F00CFF3348008950
S31508004E80801C80B200F064FF0500ADB21FFA8AFAF2
S31508004E90554502D1002004000EE0E4B2042CE0D10E
S31508004EA02A480089801CDFF87013088066480A21A2
S31508004EB00170002000F01EBC1BF1030006F034FE52
S31508004EC0012808D1DFF8500500780600F6B2B6F5D5
S31508004ED08070824602E0002000F00CBC601C0400D2
S31508004EE0C0B2062823DA514689B218480089C01C80
S31508004EF080B200F0CFFE15480089C01C80B200F0D1
S31508004F0027FF0500ADB21FFA8AFA554502D10020DF
S31508004F1004000CE0E4B2042CE0D10C480089C01C63
S31508004F20BD49088048480A2101700020E2E31BF1C8
S31508004F30040006F0F9FD01280AD1DFF8DC04007840
S31508004F400600F6B2B6F58070824603E06C010020D2
S31508004F500020CFE3601C0400C0B2062826DA5146BA
S31508004F6089B2DFF8280D0089001D80B200F092FE94
S31508004F70DFF8180D0089001D80B200F0E9FE050073
S31508004F80ADB21FFA8AFA554502D1002004000DE099
S31508004F90E4B2042CDED1DFF8F40C0089001D9E492A
S31508004FA0088029480A2101700020A3E30121274827
S31508004FB006F02EF80021002006F011F9012099E3E9
S31508004FC0DFF8C80C008843F21631884202D1DFF8B0
S31508004FD0C00C8346DFF8B40C008845F212318842CB
S31508004FE002D1DFF8600A8346584606F09DFD01287F
S31508004FF00AD1DFF82404007806001BF1010006F048
S3150800500093FD01280ED101E0002073E3DFF80804C0
S3150800501000780700DFF8740C008843F21111884203
S315080050201AD104E0084809210170002062E317F04C
S31508005030F00757F00207DFF8140D0078002809D1A9
S3150800504016F07F0608E000BF870B00200008014025
S315080050500010014056F08006FFB24FF48070F6B299
S3150800506000FB07608246601C0400C0B2062822DAEC
S31508005070514689B2DFF8140C008900F00BFEDFF800
S315080050800C0C008900F064FE0500ADB21FFA8AFA1E
S31508005090554502D1002004000DE0E4B2042CE2D10B
S315080050A0DFF8E80B00895C490880DFF8240D0A213F
S315080050B0017000201EE3DFF8D40B807A0228C0F2C4
S315080050C0D882DFF8C80B90F8220002284BD1DFF807
S315080050D0BC0B808C00F03CFE0500ADB24FF480702E
S315080050E095FBF0F0DFF8B0180870ADB24FF4807099
S315080050F095FBF0F101FB1051DFF804060170DFF8AB
S3150800510098080078FF2804D0DFF88C080078002873
S3150800511029D1DFF8780B808C801E80B200F018FE4B
S315080051200500ADB24FF4807095FBF0F0DFF8681813
S315080051300870ADB24FF4807095FBF0F101FB105189
S31508005140DFF8BC050170DFF850080078FF2804D0A6
S31508005150DFF844080078002805D1DFF8740C0C2124
S3150800516001700020C6E2DFF8240B008843F28101B3
S3150800517088421BD11BF1060006F0D6FC01280FD188
S31508005180A54800788046DFF8040B00895FFA88F89E
S3150800519018EB000080B200F0DBFDADF802001EE05F
S315080051A0DFF82C0C092101700020A3E2DFF8DC0AE5
S315080051B00089401C80B200F0CBFDADF80200DFF894
S315080051C0CC0A008845F21231884208D1DFF8BC0AB9
S315080051D00089801C80B200F0BBFDADF80600DFF840
S315080051E0AC0A008843F21111884206D0DFF89C0AFF
S315080051F0008843F20141884203D141F6FF70824696
S315080052000FE0DFF8880A008843F28101884205D159
S3150800521043F6FF70824604E06E0B00204FF6FF70DF
S315080052208246DFF8680A008845F21231884226D19C
S31508005230BDF802001FFA8AFA504517D1BDF80600D4
S315080052404FF6FE71084211D0DFF84C0700780700C8
S31508005250DFF8AC0400780600DFF8780B0078DFF892
S315080052603817097851EAC00007008AE0BDF802003D
S315080052700600BDF8020080B2000A070081E0BDF80A
S3150800528002001FFA8AFA504552D1DFF8000A008850
S3150800529043F2810188424BD0DFF8FC06007807000C
S315080052A0DFF85C0400780600DFF8E009008843F2BE
S315080052B00141884203D1DFF8E00600780600DFF8EE
S315080052C0CC09008843F2212188420ED1DFF8BC09B7
S315080052D0808C00F03DFD82461FFA8AFA5FEA1A20A2
S315080052E00700DFF81C0400780600DFF8A00900882C
S315080052F043F2163188420AD1DFF8D80A007810F04E
S31508005300F8000700DFF890060078074339E0DFF871
S315080053107C09008845F21231884232D1DFF8B40A96
S315080053200078DFF87416097851EAC000070028E00B
S31508005330DFF85809008843F28101884219D1BDF87F
S3150800534002001FFA8AFA504513D1DFF84C06007896
S3150800535006001BF1030006F0E7FB012803D12E48DF
S31508005360007807000DE0DFF8680A092101700020BF
S31508005370C0E1BDF802000600BDF8020080B2000ACE
S315080053800700FFB24FF48070F6B200FB0760824652
S31508005390DFF8F808008843F21111884218D11BF18A
S315080053A0030006F0C1FB01280CD11B480078070052
S315080053B017F01807FFB24FF4807000FB07F050EAA9
S315080053C00A0A31E0DFF8080A09210170002091E194
S315080053D0DFF8B808008843F26421884206D0DFF86F
S315080053E0AC08008843F2014188421DD11BF1030035
S315080053F006F09AFB012811D10748007807005FFAE2
S315080054008AFAFFB24FF4807000FB07F050EA0A0AE6
S315080054100AE000BF208101008C0B0020DFF8B009EC
S3150800542009210170002065E1601C0400C0B206284D
S315080054304CDADFF85808008843F28101884217D110
S31508005440514689B2DFF8440800895FFA88F818EBF4
S31508005450000080B200F01EFCDFF8300800895FFA11
S3150800546088F818EB000080B200F072FC050010E026
S31508005470514689B2DFF814080089401C80B200F052
S3150800548009FCDFF808080089401C80B200F060FCBF
S315080054900500ADB21FFA8AFA554502D1002004006C
S315080054A014E0E4B2042CBFD1DFF824090A21017004
S315080054B0DFF8D8070089401CDFF8C81C08800020E0
S315080054C018E100BF000C0140080B0020DFF8BC07FC
S315080054D0008843F2783188422AD0DFF8B00700887E
S315080054E043F29431884223D0DFF8A007008843F2BC
S315080054F0642188421CD0DFF89407008843F20141F2
S31508005500884215D0DFF88407008843F28101884273
S315080055100ED0DFF87807008843F21631884207D0A4
S31508005520DFF86807008845F21231884240F0A1800A
S315080055301BF1040006F0F8FA01282FD1DFF8480C11
S3150800554000780600DFF84407008845F212318842E1
S315080055501DD1BDF802004FF6FF7188420ED1BDF885
S3150800556006004FF6FE71084208D0DFF86808007892
S3150800557060F300060BE000BF440B0020BDF80600F0
S31508005580C00702D556F0010601E016F0FE061BF12B
S31508005590050006F0C9FA012812D105E0DFF830083F
S315080055A0092101700020A5E0DFF8DC0B0078070070
S315080055B0DFF8D806008843F28101884202D108E064
S315080055C0002097E0DFF8C406008843F201418842CC
S315080055D002D14B4800780600FFB24FF48070F6B24D
S315080055E000FB07608246DFF8A406008843F28101C3
S315080055F0884219D1514689B2DFF8900600895FFAC8
S3150800560088F818EB0000401C80B200F043FBDFF876
S315080056107C0600895FFA88F818EB0000401C80B207
S3150800562000F096FB050010E0514689B2DFF85C06EB
S315080056300089801C80B200F02DFBDFF85006008937
S31508005640801C80B200F084FB0500ADB21FFA8AFA0E
S3150800565055450ED000200400DFF830060089801C6E
S31508005660DFF8201B0880DFF868070A210170002090
S3150800567040E0601C0400C0B203282FDADFF80C06ED
S31508005680008843F28101884228D0DFF800060088A6
S3150800569043F20141884221D0DFF8F005008843F241
S315080056A0163188421AD0DFF8E405008845F212312F
S315080056B0884209D0494689B2DFF8D0050089C01D5D
S315080056C080B200F0E7FAD4E7494689B2DFF8BC05AC
S315080056D000890F3080B200F0DDFACAE70020040026
S315080056E00121DFF8A80A05F093FC0021002005F047
S315080056F076FD012007B0BDE8F08F0000E301010048
S31508005700830B0020E201010038B5040000210020C7
S3150800571005F065FD642005F087FF4FF40061DFF8AA
S31508005720700A05F075FC4FF48051DFF8640A05F03D
S315080057306FFCE4B2012C13D14FF40041DFF8540A90
S3150800574005F063FC00200500EDB20C2D01DA6D1C96
S31508005750FAE74FF48041DFF83C0A05F056FC0AE008
S315080057600121DFF8280A05F050FC4FF48041DFF8E4
S31508005770240A05F04DFC00200500EDB20C2D01DAD7
S315080057806D1CFAE74FF40051DFF80C0A05F040FCEF
S315080057904FF40071DFF8F40905F037FC052005F031
S315080057A022FF4FF48051DFF8E80905F02EFC0020AF
S315080057B00500EDB20C2D01DA6D1CFAE74FF48051A5
S315080057C0DFF8CC0905F024FC00200500EDB20C2D0D
S315080057D001DA6D1CFAE74FF48051DFF8B40905F0D9
S315080057E014FC00200500EDB20C2D01DA6D1CFAE759
S315080057F04FF48051DFF8980905F00AFC00200500EF
S31508005800EDB20C2D01DA6D1CFAE74FF48051DFF882
S31508005810800905F0FAFB00200500EDB20C2D01DA2F
S315080058206D1CFAE74FF48051DFF8640905F0F0FBC8
S3150800583000200500EDB20C2D01DA6D1CFAE74FF4D5
S315080058408051DFF84C0905F0E0FB00200500EDB2B9
S315080058500C2D01DA6D1CFAE74FF48051DFF8300998
S3150800586005F0D6FB00200500EDB20C2D01DA6D1C03
S31508005870FAE74FF40071DFF8140905F0C9FB4FF495
S315080058800051DFF8140905F0C0FB052005F0ABFE52
S315080058904FF48051DFF8F80805F0B7FB0020050043
S315080058A0EDB20C2D01DA6D1CFAE74FF48051DFF8E2
S315080058B0E00805F0ADFB00200500EDB20C2D01DA7D
S315080058C06D1CFAE74FF40051DFF8CC0805F0A0FB91
S315080058D04FF40071DFF8B40805F097FB052005F0D2
S315080058E082FE4FF48051DFF8A80805F08EFB0020F1
S315080058F00500EDB20C2D01DA6D1CFAE74FF4805164
S31508005900DFF88C0805F084FB00200500EDB20C2DAD
S3150800591001DA6D1CFAE74FF48051DFF8740805F0D8
S3150800592074FB00200500EDB20C2D01DA6D1CFAE7B8
S315080059304FF48051DFF8580805F06AFB002005008F
S31508005940EDB20C2D01DA6D1CFAE74FF40071DFF8A1
S315080059503C0805F05DFB4FF40051DFF83C0805F004
S3150800596054FB052005F03FFE4FF48051DFF8200870
S3150800597005F04BFB00200500EDB20C2D01DA6D1C7D
S31508005980FAE74FF48051DFF8080805F041FB0120DB
S3150800599005F04AFE31BD0000820B00202DE9F041DA
S315080059A00400E4B2200080B206F05BFD00208046C9
S315080059B05FFA88F8B8F10C0F02DA18F10108F7E770
S315080059C0002080465FFA88F8B8F10C0F02DA18F161
S315080059D00108F7E70020070000200500EDB2102DAA
S315080059E02BDA4FF40061DFF8A80705F00EFB00205C
S315080059F080465FFA88F8B8F10C0F02DA18F1010848
S31508005A00F7E71021DFF88C0705F0EFFA0600B6B2C3
S31508005A1016FA05F007434FF40061DFF8740705F03E
S31508005A20F7FA002080465FFA88F8B8F10C0F02DA18
S31508005A3018F10108F7E76D1CD0E7380080B2BDE819
S31508005A40F08100002021010020410100F8B517204F
S31508005A5006F007FD00200700FFB20C2F01DA7F1CB5
S31508005A60FAE700200700FFB20C2F01DA7F1CFAE7DD
S31508005A700020060000200400E4B2102C25DA4FF4BA
S31508005A800061DFF80C0705F0C0FA00200700FFB236
S31508005A900C2F01DA7F1CFAE71021DFF8F80605F06B
S31508005AA0A4FA0500ADB215FA04F006434FF40061F6
S31508005AB0DFF8DC0605F0ACFA00200700FFB20C2F71
S31508005AC001DA7F1CFAE7641CD6E7300080B2F2BD23
S31508005AD02DE9F0410400162006F0C3FC002080469C
S31508005AE05FFA88F8B8F10C0F02DA18F10108F7E73F
S31508005AF0002080465FFA88F8B8F10C0F02DA18F130
S31508005B000108F7E700200500EDB2102D35DAA4B23A
S31508005B1054FA05F00600B6B2F00706D54FF48051E0
S31508005B20DFF86C0605F071FA05E04FF48051DFF8EE
S31508005B30600605F06DFA4FF40061DFF8540605F0CB
S31508005B4064FA002080465FFA88F8B8F10C0F02DA8A
S31508005B5018F10108F7E74FF40061DFF8340605F09D
S31508005B6057FA002080465FFA88F8B8F10C0F02DA77
S31508005B7018F10108F7E76D1CC6E74448008843F2A8
S31508005B80014188420BD04148008843F2810188428E
S31508005B9005D03E48008843F21631884207D11320C3
S31508005BA0FFF7FCFE0600B6B2A4B2A6426CD11920D5
S31508005BB006F057FC00200500EDB2082D21DA00207A
S31508005BC080465FFA88F8B8F10C0F02DA18F1010876
S31508005BD0F7E74FF40061DFF8B80505F016FA00207C
S31508005BE080465FFA88F8B8F10C0F02DA18F1010856
S31508005BF0F7E74FF40061DFF8980505F009FA6D1C20
S31508005C00DAE7224890F8280002280AD1002007007F
S31508005C101021DFF8800505F0E8F900280DD07F1C73
S31508005C20F6E71A48808A05F0DEFC1848808A05F0EF
S31508005C30DAFC1648808A05F0D6FC00200500EDB28D
S31508005C40082D21DA002080465FFA88F8B8F10C0F93
S31508005C5002DA18F10108F7E74FF40061DFF83005BA
S31508005C6005F0D3F9002080465FFA88F8B8F10C0FE2
S31508005C7002DA18F10108F7E74FF40061DFF81005BA
S31508005C8005F0C6F96D1CDAE7BDE8F0816C01002065
S31508005C90248101002DE9F04104000D00152006F0CD
S31508005CA0E0FB002080465FFA88F8B8F10C0F02DAAC
S31508005CB018F10108F7E7002080465FFA88F8B8F17E
S31508005CC00C0F02DA18F10108F7E700200600F6B211
S31508005CD0102E35DAA4B254FA06F00700BFB2F80758
S31508005CE006D54FF48051DFF8A80405F08EF905E0D3
S31508005CF04FF48051DFF8980405F08AF94FF40061F3
S31508005D00DFF88C0405F081F9002080465FFA88F8F0
S31508005D10B8F10C0F02DA18F10108F7E74FF4006141
S31508005D20DFF86C0405F074F9002080465FFA88F8FD
S31508005D30B8F10C0F02DA18F10108F7E7761CC6E786
S31508005D40280080B2FFF7C4FEBDE8F081850B00206D
S31508005D50F8B50400152006F084FB00200500EDB216
S31508005D60102D2FDAA4B254FA05F00600B6B2F007E1
S31508005D7006D54FF48051DFF8180405F046F905E01A
S31508005D804FF48051DFF8080405F042F94FF400613A
S31508005D90DFF8FC0305F039F900200700FFB20C2FE5
S31508005DA001DA7F1CFAE74FF40061DFF8E40305F037
S31508005DB02FF900200700FFB20C2F01DA7F1CFAE743
S31508005DC06D1CCCE7FFF742FE0600300080B2F2BD3C
S31508005DD0870B0020840B00202DE9F84F04000D00E6
S31508005DE016005FF080090220FFF78EFC012005F0FF
S31508005DF01BFC0A2006F035FB00200700FFB2052F22
S31508005E0004DA002001F0E2FE7F1CF7E743F674404F
S31508005E1001F0DCFE45F2F97001F0D8FE4FF470503F
S31508005E2001F0D4FE45F2FA7001F0D0FEDFF8D80C86
S31508005E30C08A42F62101884240F09E80DFF8CC0CE9
S31508005E4005F072FE012828D1CF480078804643F62F
S31508005E50FF4001F0BBFE45F2FB7001F0B7FE5FFAAA
S31508005E6088F818F5705080B201F0B0FE45F2FC7063
S31508005E7001F0ACFE43F6014001F0A8FE45F2F870C9
S31508005E8001F0A4FE002001F0A1FE0A2005F0CCFBDB
S31508005E90102080460020070005E0DFF85C0D092188
S31508005EA001700020F2E0FFB2042F53DA5FFA88F897
S31508005EB018F5705080B201F089FE45F2FC7001F0C9
S31508005EC085FEFF2000F0E4F8DFF8300D00888246F2
S31508005ED0002000F0DDF8DFF8240D008883465FFA1D
S31508005EE088F8B8F11E0F04D05FFA88F8B8F1020FE7
S31508005EF015D11FFA8AFA40F63E00824505DB1FFADD
S31508005F008BFB40F63D00834524DB5FFA88F8B8F141
S31508005F10020F02D10420804601E00020B6E01FFAF5
S31508005F208AFA40F63E0082450ADB1FFA8BFB40F6EA
S31508005F303D00834504DA1020384138EA000803E0BA
S31508005F401020384150EA08080820384150EA080865
S31508005F507F1CA8E75FFA88F8B8F1040F01D018F19A
S31508005F6001085FFA88F818F5705080B201F02EFE25
S31508005F7045F2FC7001F02AFE43F6014001F026FEC8
S31508005F8045F2F87001F022FE002001F01FFE0A20FB
S31508005F9005F04AFB80208146DFF8640C0021017079
S31508005FA000200700FFB2082F1EDA4846C0B200F0EC
S31508005FB06FF8DFF8480C0088B6B2B04214D0DFF8A4
S31508005FC03C0C0088B6B2B04204D28020384150EA70
S31508005FD0090903E08020384139EA000940203841A0
S31508005FE050EA09097F1CDDE719F10100C0B200F08B
S31508005FF04FF8DFF8080C008882464846C0B200F021
S3150800600047F8DFF8F80B008883461FFA8AFAB6B213
S31508006010BAEB0600B6B21FFA8BFBB6EB0B01884249
S3150800602005DA19F10109DFF8D40BA0F800A0DFF8AA
S31508006030CC0B0088ADB285421BD3DFF8C00B0088B5
S31508006040A4B2A04215D3DFF8C00AC08A42F62101DD
S31508006050884204D1DFF8A80B80F8008003E0DFF857
S31508006060A00BFF210170DFF89C0B80F8009001203F
S315080060700CE0DFF88C0BFF210170DFF8880BFF219D
S315080060800170DFF8740B032101700020BDE8F28F60
S315080060907CB504004FF47055DFF86C0A008843F2AB
S315080060A0810188420CD1E4B214F53060050028005D
S315080060B080B201F08BFD41F2FB5001F087FD1CE038
S315080060C0DFF8440A008843F2014188420BD1E4B262
S315080060D014F580600500280080B201F077FDBB202A
S315080060E001F074FD09E0E4B26519280080B201F0F8
S315080060F06DFD45F2FB7001F069FD002001F066FDBB
S31508006100052005F091FA00200600B6B2032E29DA1A
S315080061100021DFF8F40A06F07AFE0021DFF8EC0A1F
S3150800612006F075FE0121DFF8E00A06F08DFE012172
S31508006130DFF8D80A06F022FE0121DFF8CC0A06F0BD
S315080061401DFE0121DFF8C00A06F065FE0028F8D01A
S31508006150DFF8B80A06F05DFEB6B200A921F8160007
S31508006160761CD2E7BDF80000BDF802100818BDF885
S3150800617004100818032190FBF1F0DFF8801A088054
S3150800618073BD00006E0B00208C0B00200008014038
S315080061900014014000180140001001402DE9F14F9C
S315080061A00C0015005FF080090220FFF7ADFA012008
S315080061B005F03AFA4FF6FF70FFF7CAFD83460A2044
S315080061C006F04FF9DFF84009008843F2014188429A
S315080061D00BD14FF40051DFF8380A04F019FF4FF4D9
S315080061E00071DFF8300A04F010FF012005F01CFAF0
S315080061F000200600F6B20A2E04DA002001F0E6FCBA
S31508006200761CF7E7DFF80009008843F20141884267
S3150800621040F0878040F2054001F0D8FCBA2001F032
S31508006220D5FCDFF8F40905F07FFC012821D1DFF859
S31508006230EC0900780700FFB217F5806080B201F01C
S31508006240C5FCB92001F0C2FC40F20F4001F0BEFCCB
S31508006250BC2001F0BBFC4FF4906001F0B7FCBB20FA
S3150800626001F0B4FCDFF8B80905F05EFC012811D18D
S3150800627005E0DFF88409092101700020F2E2DFF861
S315080062809C0900780700DFF89C0905F04DFC0128F9
S3150800629027D105E0DFF86009092101700020E1E255
S315080062A0DFF8780900788046DFF8580907705FFA42
S315080062B088F818F5806080B201F088FCBE2001F0ED
S315080062C085FCFFB217F5806080B201F07FFCBD2027
S315080062D001F07CFCDFF8500905F026FC01281AD1EC
S315080062E001E00020BEE2DFF8340900780700FFB2BB
S315080062F017F5806080B201F069FC312001F066FC78
S3150800630040F2014001F062FCB82001F05FFC002079
S3150800631001F05CFC8EE0DFF8E0080921017000203E
S31508006320A0E2DFF8F40805F0FFFB01282CD1DFF81E
S31508006330EC0800780700FFB217F5306080B201F06C
S3150800634045FC41F2F95001F041FC40F6353001F0C8
S315080063503DFC41F2FA5001F039FC4FF4386001F087
S3150800636035FC41F2FB5001F031FC40F6363001F0C5
S315080063702DFC41F2FC5001F029FCDFF8A40805F0D9
S31508006380D3FB012811D105E0DFF86C08092101705B
S31508006390002067E2DFF8840800780700DFF8840841
S315080063A005F0C2FB012829D105E0DFF84C080921D0
S315080063B00170002056E2DFF8640800788046DFF8AE
S315080063C044080770FFB217F5306080B201F0FEFB93
S315080063D041F2FD5001F0FAFB5FFA88F818F53060D3
S315080063E080B201F0F3FB41F2FE5001F0EFFBDFF85B
S315080063F0380805F099FB01281AD101E0002031E29E
S31508006400DFF81808007880465FFA88F818F53060D3
S3150800641080B201F0DBFB41F2C15001F0D7FB40F638
S31508006420013001F0D3FB41F2F85001F0CFFB01E057
S31508006430002017E2002001F0C9FB002001F0C6FB8E
S315080064400A2005F0F1F8DFF8B807002101700020EE
S315080064500600F6B2082E1EDA4846C0B2FFF718FE46
S31508006460DFF898070088ADB2A84214D0DFF88C0789
S315080064700088ADB2A84204D28020304150EA09090A
S3150800648003E08020304139EA00094020304150EAD3
S315080064900909761CDDE74846C0B2FFF7F9FDDFF8C3
S315080064A06806008843F20141884240F0E38019F10A
S315080064B00100C0B2FFF7ECFDDFF84007008882460E
S315080064C04846C0B2FFF7E4FDDFF830070088834688
S315080064D01FFA8AFAADB2BAEB0500ADB21FFA8BFB0A
S315080064E0B5EB0B01884205DA19F10109DFF80C074B
S315080064F0A0F800A0DFF804070088A4B284420CD3F1
S31508006500DFF8F8060088BDF80010884205D3DFF8E2
S31508006510F00680F800900120A4E1DFF8040705F0F2
S3150800652003FB01280DD1DFF8F40600780700DFF831
S31508006530D4060770DFF8E00605F0F6FA01280ED152
S3150800654001E000208EE1DFF8D40600780700FFB2EC
S315080065503F0917F00707FFB2022F0AD101E0002012
S3150800656080E1DFF8A0060078401CDFF8981608706E
S3150800657006E0DFF890060078401EDFF888160870F7
S31508006580DFF88006007810F5806080B201F01EFB07
S31508006590BD2001F01BFB002001F018FB002001F0D4
S315080065A015FB0A2005F040F88020814600200600E9
S315080065B0F6B2082E1EDA4846C0B2FFF769FDDFF8C4
S315080065C03C060088ADB2A84214D0DFF83006008831
S315080065D0ADB2A84204D28020304150EA090903E04E
S315080065E08020304139EA00094020304150EA090943
S315080065F0761CDDE719F10100C0B2FFF749FDDFF8A7
S31508006600FC05008882464846C0B2FFF741FDDFF820
S31508006610EC05008883461FFA8AFAADB2BAEB050084
S31508006620ADB21FFA8BFBB5EB0B01884205DA19F1FF
S315080066300109DFF8C805A0F800A0DFF8C005008842
S31508006640A4B284420CD3DFF8B4050088BDF8001064
S31508006650884205D3DFF8A80580F80090012001E1FB
S31508006660DFF89C05FF210170DFF89805FF2101700E
S315080066700020F7E0DFF89004008843F281018842A1
S3150800668040F0E78019F10100C0B2FFF701FDDFF81D
S315080066906C05008882464846C0B2FFF7F9FCDFF869
S315080066A05C05008883461FFA8AFAADB2BAEB050084
S315080066B0ADB21FFA8BFBB5EB0B01884205DA19F16F
S315080066C00109DFF83805A0F800A0DFF830050088D2
S315080066D0A4B284420CD3DFF824050088BDF8001064
S315080066E0884205D3DFF8180580F800900120B9E044
S315080066F0DFF82C0505F018FA01280DD1DFF81C057E
S3150800670000780700DFF8FC040770DFF80C0505F0D1
S315080067100BFA01280ED101E00020A3E0DFF8FC0403
S3150800672000780700FFB23F0917F00707FFB2052FE9
S3150800673002D104E0002095E0FFB2022F07D1DFF86E
S31508006740C4040078401CDFF8BC14087006E0DFF8C3
S31508006750B4040078401EDFF8AC140870DFF8A4040F
S31508006760007810F5306080B201F030FA41F2FD5041
S3150800677001F02CFA002001F029FA002001F026FA8F
S315080067800A2004F051FF8020814600200600F6B258
S31508006790082E1EDA4846C0B2FFF77AFCDFF85C041A
S315080067A00088ADB2A84214D0DFF850040088ADB214
S315080067B0A84204D28020304150EA090903E080202B
S315080067C0304139EA00094020304150EA0909761C6F
S315080067D0DDE719F10100C0B2FFF75AFCDFF81C0427
S315080067E0008882464846C0B2FFF752FCDFF80C0420
S315080067F0008883461FFA8AFAADB2BAEB0500ADB235
S315080068001FFA8BFBB5EB0B01884205DA19F1010972
S31508006810DFF8E803A0F800A0DFF8E0030088A4B2D8
S3150800682084420CD3DFF8D4030088BDF800108842F0
S3150800683005D3DFF8CC0380F80090012012E0DFF8DA
S31508006840C003FF210170DFF8BC03FF21017000209F
S3150800685008E0DFF8AC03FF210170DFF8A803FF2189
S3150800686001700020BDE8F28F2DE9F84F04000D00F5
S3150800687016004FF4806081460220FEF745FF01208E
S3150800688004F0D2FE0A2005F0ECFDDFF8180D05F03D
S315080068904BF901280BD1DFF8840300788DF8000046
S315080068A0DFF8040D05F040F901280BD104E0D248C1
S315080068B009210170002024E1D8480078804600208C
S315080068C0070004E0CC4809210170002019E1FFB255
S315080068D0052F04DA002001F079F97F1CF7E74FF657
S315080068E0017001F073F99DF80000B0F5606082460A
S315080068F0504680B201F06AF95FFA88F8B8F5C060C8
S315080069008246504680B201F061F9BD480021017007
S31508006910BC480021017000200700FFB20B2F22DAC5
S315080069201021484680B200F0F3F8DFF89407008893
S31508006930B6B2B04217D0DFF888070088B6B2B042C0
S3150800694005D24FF48060384150EA090904E04FF453
S315080069508060384139EA00094FF40070384150EA3E
S3150800696009097F1CD9E7102119F1010080B200F04E
S31508006970CFF8DFF84C07008882461021484680B2D7
S3150800698000F0C6F8DFF83807008883461FFA8AFA47
S31508006990B6B2BAEB0600B6B21FFA8BFBB6EB0B0122
S315080069A0884205DA19F10109DFF81407A0F800A0F2
S315080069B0DFF80C070088ADB285421FD3DFF8000761
S315080069C00088A4B2A04219D31FFA89F94FF480703F
S315080069D099FBF0F08A4908708948007850F0100051
S315080069E0874908701FFA89F94FF4807099FBF0F10E
S315080069F001FB109183480170012082E08048002144
S31508006A0001708048002101704FF4806081460020A3
S31508006A100700FFB20B2F22DA1821484680B200F091
S31508006A2077F8DFF89C060088B6B2B04217D0DFF8D0
S31508006A3090060088B6B2B04205D24FF4806038415D
S31508006A4050EA090904E04FF48060384139EA000940
S31508006A504FF40070384150EA09097F1CD9E718211C
S31508006A6019F1010080B200F053F8DFF854060088E7
S31508006A7082461821484680B200F04AF8DFF84006F8
S31508006A80008883461FFA8AFAB6B2BAEB0600B6B28F
S31508006A901FFA8BFBB6EB0B01884205DA19F10109DF
S31508006AA0DFF81C06A0F800A0DFF814060088ADB2CF
S31508006AB085421FD3DFF808060088A4B2A04219D37E
S31508006AC01FFA89F94FF4807099FBF0F04C49087069
S31508006AD04B48007850F01800494908701FFA89F9A0
S31508006AE04FF4807099FBF0F101FB10914548017055
S31508006AF0012006E04248FF2101704248FF2101704B
S31508006B000020BDE8F28F00006C010020032101007F
S31508006B102DE9FC4704000D004FF47046A4B24FF46B
S31508006B20807094FBF0F00700A4B24FF4807094FBD9
S31508006B30F0F101FB10418846DFF8100D04F0F4FF70
S31508006B40012802D13548007881465FFA88F8B8F5F9
S31508006B5080500600300080B201F038F819F080093C
S31508006B6055EA090957EA09095FFA89F9B9F570601A
S31508006B700600300080B201F029F8052004F054FD23
S31508006B80002082461FFA8AFABAF1030F24DA002196
S31508006B901D4806F03CF900211C4806F038F9012189
S31508006BA0194806F051F90121184806F0E7F80121BD
S31508006BB0154806F0E3F80121134806F02CF90028D9
S31508006BC0F9D0124806F025F91FFA8AFA00A921F821
S31508006BD01A001AF1010AD5E7BDF80000BDF802103F
S31508006BE00818BDF804100818032190FBF1F0DFF827
S31508006BF0D0140880BDE8F387870B00206C0B0020B3
S31508006C00820B0020830B002000040040000800408F
S31508006C100010014000080140202101008C0B0020D3
S31508006C202421010025210100272101002DE9F14F2A
S31508006C300C0015004FF4806081460220FEF764FDC3
S31508006C40012004F0F1FC0A2005F00BFC00200600E8
S31508006C50F6B2052E04DA002000F0B8FF761CF7E736
S31508006C60DFF8EC0B008843F21631884240F0CB80FF
S31508006C70DFF8E00B04F058FF01280AD1DFF8D80B3B
S31508006C8000780700DFF8D40B04F04EFF01282AD15C
S31508006C9005E0DFF8CC0B0921017000200EE2DFF8D1
S31508006CA0B80B007880465FFA88F818F57050814668
S31508006CB0484680B200F08AFF45F2FB7000F086FF76
S31508006CC0FFB217F570508146484680B200F07EFF45
S31508006CD045F2FA7000F07AFFDFF8880B04F024FF1B
S31508006CE0012811D105E0DFF8780B09210170002091
S31508006CF0E4E1DFF8640B00780700DFF86C0B04F0BA
S31508006D0013FF01282ED105E0DFF8540B0921017085
S31508006D100020D3E1DFF8400B00788046DFF84C0B03
S31508006D2080F800805FFA88F818F570508146484662
S31508006D3080B200F04BFF45F2FD7000F047FFFFB24E
S31508006D4017F570508146484680B200F03FFF45F27D
S31508006D50FC7000F03BFFDFF88C0D04F0E5FE01281F
S31508006D6011D105E0DFF8F80A092101700020A5E134
S31508006D70DFF8E40A00780700DFF86C0D04F0D4FEAB
S31508006D8001283AD105E0DFF8D80A09210170002068
S31508006D9094E1DFF8C40A0078804658F018085FFACC
S31508006DA088F818F570508146484680B200F00EFF04
S31508006DB045F2FF7000F00AFFFFB217F570508146E2
S31508006DC0484680B200F002FF45F2FE7000F0FEFE73
S31508006DD0002000F0FBFE002000F0F8FE43F601401C
S31508006DE000F0F4FE45F2F77000F0F0FE002000F027
S31508006DF0EDFE002000F0EAFE28E0DFF8640A09212B
S31508006E00017000205AE14FF4986000F0DFFE40F66A
S31508006E10C12000F0DBFE4FF4896000F0D7FE40F693
S31508006E20F92000F0D3FE40F2024000F0CFFE40F613
S31508006E30FA2000F0CBFE40F2014000F0C7FE40F613
S31508006E40F82000F0C3FE002000F0C0FE4FF480607A
S31508006E508146DFF8700D00210170DFF86C0D002106
S31508006E60017000200600F6B20B2E22DADFF8FC09C4
S31508006E700178484680B200F099FB91480088ADB287
S31508006E80A84216D08E480088ADB2A84205D24FF463
S31508006E908060304150EA090904E04FF480603041CF
S31508006EA039EA00094FF40070304150EA0909761CA6
S31508006EB0D9E7DFF8B809017819F1010080B200F0C6
S31508006EC075FB7F4800888246DFF8A00901784846A6
S31508006ED080B200F06BFB7A48008883461FFA8AFA6C
S31508006EE0ADB2BAEB0500ADB21FFA8BFBB5EB0B01E1
S31508006EF0884204DA19F101097148A0F800A070481F
S31508006F000088A4B284421BD36D480088BDF80010DF
S31508006F10884215D31FFA89F94FF4807099FBF0F06F
S31508006F20DFF8A01C08701FFA89F94FF4807099FBE6
S31508006F30F0F101FB1091DFF85C0D01700120BDE056
S31508006F40DFF80C09008843F21631884210D1DFF8C1
S31508006F501C09007810F00700DFF810190870DFF830
S31508006F600C09007850F05000DFF8001908701FE08F
S31508006F704FF4986000F02AFE40F6C12000F026FE85
S31508006F804FF4996000F022FE40F6F92000F01EFE4C
S31508006F9040F2024000F01AFE40F6FA2000F016FE13
S31508006FA040F2014000F012FE40F6F82000F00EFE16
S31508006FB0002000F00BFE4FF480608146DFF8040CD9
S31508006FC000210170DFF8000C012101700020060085
S31508006FD0F6B20B2E22DADFF894080178484680B21A
S31508006FE000F0E4FA36480088ADB2A84216D0344814
S31508006FF00088ADB2A84205D24FF48060304150EA0D
S31508007000090904E04FF48060304139EA00094FF479
S315080070100070304150EA0909761CD9E7DFF84C08B8
S31508007020017819F1010080B200F0C0FA24480088FE
S315080070308246DFF838080178484680B200F0B6FA8A
S315080070401F48008883461FFA8AFAADB2BAEB0500D4
S31508007050ADB21FFA8BFBB5EB0B01884204DA19F1C6
S3150800706001091748A0F800A015480088A4B2844270
S315080070701BD313480088BDF80010884215D31FFAA1
S3150800708089F94FF4807099FBF0F0DFF8381B087027
S315080070901FFA89F94FF4807099FBF0F101FB109102
S315080070A0DFF8F00B0170012008E0DFF8180BFF216C
S315080070B00170DFF8E00BFF2101700020BDE8F28FB8
S315080070C06C0B00202DE9F34F83B014004FF4805168
S315080070D0DFF8C40B03F09CFF4FF480608146022062
S315080070E0FEF712FB012004F09FFADFF8B00B04F05C
S315080070F01BFD01280AD1DFF8600700780600DFF8D3
S31508007100A00B04F011FD012823D10BE0DFF850078E
S31508007110092101704FF48051DFF87C0B03F075FFED
S3150800712000203CE2DFF83007007807008DF80160A0
S3150800713017F007008DF8000048F20200FEF708FE77
S31508007140ADF80600BDF806004FF6FF7188420CD16F
S3150800715028E0DFF80C07092101704FF48051DFF8A9
S31508007160380B03F052FF002019E2BDF806004FF471
S31508007170807190FBF1F0804618F007089DF8000032
S315080071805FFA88F840450DD0DFF8D406152101705E
S315080071904FF48051DFF8000B03F037FFDFF8C00625
S315080071A00078FCE10A2005F05CF900200500EDB244
S315080071B0052D04DA002000F009FD6D1CF7E79DF89F
S315080071C00000002811D10A2082460920834640F291
S315080071D0E240040040F2DE40ADF80C0040F2E64022
S315080071E0ADF81000702006006CE09DF8000001283C
S315080071F011D1122082461120834640F2E240040053
S3150800720040F2DE40ADF80C0040F2E640ADF8100062
S315080072106020060056E09DF80000022811D12920BA
S3150800722082462A20834640F2E240040040F2DE40CD
S31508007230ADF80C0040F2E640ADF81000502006000C
S3150800724040E09DF80000032811D13F2082463E20E9
S31508007250834640F2E240040040F2DE40ADF80C00FE
S3150800726040F2E640ADF81000402006002AE09DF8FE
S315080072700000042811D13F2082463E20834640F272
S31508007280E240040040F2DE40ADF80C0040F2E64071
S31508007290ADF810003020060014E09DF8000005281F
S315080072A010D13F2082463E20834640F6E300040084
S315080072B040F6DC00ADF80C0040F6EA00ADF8100028
S315080072C010200600F6B216F570508146484680B280
S315080072D000F07CFC45F2F97000F078FC57F0D8070E
S315080072E0FFB217F570508146484680B200F06EFC32
S315080072F045F2FE7000F06AFC9DF8010050F0FD00B2
S315080073000600F6B216F570508146484680B200F07F
S315080073105DFC45F2FD7000F059FCDFF88809FFB204
S315080073200780DFF8800900880002DFF878190880EE
S31508007330DFF870090088F6B23018DFF86819088097
S31508007340002000F043FC002000F040FC43F601401A
S3150800735000F03CFC45F2F87000F038FC002000F024
S3150800736035FC002000F032FC4FF480608146DFF8DF
S31508007370540800210170DFF81C0900210170DFF8AC
S3150800738048080021017000200500EDB20B2D23DA14
S315080073905146C9B2484680B200F0A2F9DFF808099A
S315080073A00088A4B2A04217D0DFF8FC080088A4B26F
S315080073B0A04205D24FF48060284150EA090904E04A
S315080073C04FF48060284139EA00094FF400702841DB
S315080073D050EA09096D1CD8E75146C9B2484680B239
S315080073E000F07EF9DFF8C0080088ADF804005146C1
S315080073F0C9B219F1010080B200F072F9DFF8A808E5
S315080074000088ADF80200BDF80200A4B2001BA4B2C1
S31508007410BDF80410611A884206DA19F10109DFF885
S315080074208808BDF802100180BDF81000DFF878184A
S315080074300988884220D3DFF870080088BDF80C1048
S31508007440884219D31FFA89F94FF4807099FBF0F036
S31508007450DFF8701708701FFA89F94FF4807099FBE6
S31508007460F0F101FB1091DFF82C080170DFF8FC033E
S3150800747080F800A0012092E04FF480608146DFF892
S31508007480440700210170DFF80C0800210170DFF8BD
S3150800749038070121017000200500EDB20B2D23DA13
S315080074A05946C9B2484680B200F01AF9DFF8F8071B
S315080074B00088A4B2A04217D0DFF8EC070088A4B26F
S315080074C0A04205D24FF48060284150EA090904E039
S315080074D04FF48060284139EA00094FF400702841CA
S315080074E050EA09096D1CD8E75946C9B219F10100D5
S315080074F080B200F0F5F8DFF8B0070088ADF80200B2
S315080075005946C9B2484680B200F0EAF8DFF898074B
S315080075100088ADF80400BDF80200A4B2001BA4B2AE
S31508007520BDF80410611A884206DA19F10109DFF874
S315080075307807BDF802100180BDF81000DFF868175B
S31508007540098888421FD3DFF860070088BDF80C1049
S31508007550884218D31FFA89F94FF4807099FBF0F026
S31508007560DFF8601608701FFA89F94FF4807099FBE6
S31508007570F0F101FB1091DFF81C070170BB4880F899
S3150800758000B001200BE0DFF83C06FF210170DFF8B0
S315080075900407FF210170B548FF210170002005B0DE
S315080075A0BDE8F08FE4010100F40101002DE9F04384
S315080075B083B004000D004FF48066A4B24FF48070C7
S315080075C094FBF0F00700A4B24FF4807094FBF0F13E
S315080075D001FB104188469E48008843F216318842CE
S315080075E01CD115F0F805EF195FFA88F818F57050F0
S315080075F00600300080B200F0E9FA45F2FC7000F0AF
S31508007600E5FAFFB217F570500600300080B200F0B8
S31508007610DDFA45F2FD7000F0D9FA18E05FFA88F84D
S3150800762018F580600600300080B200F0CFFA40F608
S31508007630FB2000F0CBFAFFB217F580600600300099
S3150800764080B200F0C3FA40F6FC2000F0BFFA002032
S3150800765000F0BCFA052003F0E7FF002081461FFA78
S3150800766089F9B9F1030F2BDA0021DFF8400605F096
S31508007670CEFB0021DFF8380605F0C9FB0121DFF84B
S315080076802C0605F0E1FB0121DFF8240605F076FB60
S315080076900121DFF8180605F071FB0121DFF80C0659
S315080076A005F0B9FB0028F8D0DFF8040605F0B1FBB1
S315080076B01FFA89F900A921F8190019F10109CEE77D
S315080076C0BDF80000BDF802100818BDF80410081827
S315080076D0032190FBF1F0DFF8D0150880BDE8F783A9
S315080076E02DE9F04F83B004000D004FF48066EDB22B
S315080076F0A4B26005400D10EBC52082461FFA8AFA2F
S315080077005FEA1A200700504680465FFA88F818F59F
S3150800771070500600300080B200F058FA45F2FB704F
S3150800772000F054FA002000F051FAFFB217F5705035
S315080077300600300080B200F049FA45F2FC7000F00D
S3150800774045FA002000F042FAC5F34010C0B2DFF84F
S31508007750541509884FF6FE721140084382461FFAEF
S315080077608AFA5FEA1A200700504680465FFA88F8C8
S3150800777018F570500600300080B200F027FA002095
S3150800778083465FFA8BFBBBF10A0F02DA1BF1010B8A
S31508007790F7E745F2FD7000F019FA002000F016FA36
S315080077A0FFB217F570500600300080B200F00EFAEE
S315080077B045F2FE7000F00AFA002000F007FA0520EC
S315080077C003F032FF002081461FFA89F9B9F1030F49
S315080077D02BDA0021DFF8D40405F019FB0021DFF8C5
S315080077E0D00405F014FB0121DFF8C00405F02CFBDA
S315080077F00121DFF8BC0405F0C1FA0121DFF8AC0469
S3150800780005F0BCFA0121DFF8A40405F004FB002802
S31508007810F8D0DFF89C0405F0FCFA1FFA89F900A9EC
S3150800782021F8190019F10109CEE7BDF80000BDF8E5
S3150800783002100818BDF804100818032190FBF1F08F
S31508007840DFF864140880BDE8F78F0000E201010044
S315080078506C0100202B8101008C0B00202581010082
S31508007860870B00202681010027810100840B002058
S315080078702DE9F04704000D001600DFF8380404F07F
S3150800788053F9012805D0DFF83004092101700020DA
S3150800789025E10220FDF738FF012003F0C5FE0A2086
S315080078A004F0DFFD00200700FFB2052F04DA0020F0
S315080078B000F08CF97F1CF7E743F6704000F086F974
S315080078C045F2F97000F082F943F61C4000F07EF9A3
S315080078D045F2FA7000F07AF94FF4705000F076F934
S315080078E045F2FB7000F072F943F6FC4000F06EF9C1
S315080078F045F2FC7000F06AF943F6074000F066F9B5
S3150800790045F2FD7000F062F943F6014000F05EF9B9
S3150800791045F2F87000F05AF9002000F057F9A94826
S3150800792000210170A848002101704FF410508046CC
S3150800793000200700FFB20B2F20DA404680B200F085
S31508007940D5F8DFF864030088B6B2B04216D0D64838
S315080079500088B6B2B04205D24FF48060384150EA8A
S31508007960080804E04FF48060384138EA00084FF40C
S315080079700070384150EA08087F1CDBE718F101005F
S3150800798080B200F0B3F8C84800888146404680B205
S3150800799000F0ACF8C448008882461FFA89F9B6B2E6
S315080079A0B9EB0600B6B21FFA8AFAB6EB0A018842A4
S315080079B004DA18F10108BC48A0F80090BA48008813
S315080079C0ADB2854218D3B8480088A4B2A04213D3F2
S315080079D01FFA88F84FF4807098FBF0F07949087020
S315080079E01FFA88F84FF4807098FBF0F101FB1081BC
S315080079F0A8480170012072E072480021017072489F
S31508007A00012101704FF43050804600200700FFB274
S31508007A100B2F1FDA404680B200F068F8A2480088AB
S31508007A20B6B2B04216D0A0480088B6B2B04205D267
S31508007A304FF48060384150EA080804E04FF480604B
S31508007A40384138EA00084FF40070384150EA08080F
S31508007A507F1CDCE718F1010080B200F047F8924875
S31508007A6000888146404680B200F040F88E4800887B
S31508007A7082461FFA89F9B6B2B9EB0600B6B21FFA02
S31508007A808AFAB6EB0A01884204DA18F10108864830
S31508007A90A0F8009084480088ADB2854218D3824881
S31508007AA00088A4B2A04213D31FFA88F84FF4807056
S31508007AB098FBF0F0434908701FFA88F84FF4807075
S31508007AC098FBF0F101FB108172480170012006E075
S31508007AD03C48FF2101706F48FF2101700020BDE876
S31508007AE0F087000028810100298101002DE9FC4169
S31508007AF004004FF47055A4B24FF4807094FBF0F074
S31508007B000600A4B24FF4807094FBF0F101FB10411B
S31508007B100F00FFB217F570500500280080B200F07C
S31508007B2055F845F2FB7000F051F8F6B216F57050AC
S31508007B300500280080B200F049F845F2FC7000F014
S31508007B4045F8002000F042F8052003F06DFD0020FE
S31508007B5080461FFA88F8B8F1030F24DA0021534843
S31508007B6005F055F90021524805F051F901214F4811
S31508007B7005F06AF901214E4805F000F901214B4844
S31508007B8005F0FCF80121494805F045F90028F9D027
S31508007B90474805F03EF91FFA88F800A921F81800A9
S31508007BA018F10108D5E7BDF80000BDF8021008185D
S31508007BB0BDF804100818032190FBF1F03A49088033
S31508007BC0BDE8F381820B0020850B0020F8B5040080
S31508007BD000200500EDB2102D2BDAA4B254FA05F0F8
S31508007BE00600B6B2F00705D54FF48051334803F0C6
S31508007BF00CFA04E04FF48051304803F009FA4FF4C8
S31508007C0000612E4803F001FA00200700FFB20C2F8E
S31508007C1001DA7F1CFAE74FF40061284803F0F8F907
S31508007C2000200700FFB20C2F01DA7F1CFAE76D1C53
S31508007C30D0E74FF40061214803F0E7F90020070078
S31508007C40FFB20C2F01DA7F1CFAE74FF400611B48DC
S31508007C5003F0DEF900200700FFB20C2F01DA7F1CC3
S31508007C60FAE74FF40061154803F0CFF90020070042
S31508007C70FFB20C2F01DA7F1CFAE74FF400610F48B8
S31508007C8003F0C6F900200700FFB20C2F01DA7F1CAB
S31508007C90FAE7F1BD830B0020000C01402421010006
S31508007CA025210100740B00206C0B00200004004005
S31508007CB00008004023410100870B00200014014002
S31508007CC02DE9FC4704000D00EDB215F03F00A4B203
S31508007CD0E1B211EB002082461FFA8AFA5FEA1A20FF
S31508007CE00700504680465FFA88F818F530600600A7
S31508007CF0300080B2FFF76AFF41F2FB500600300001
S31508007D0080B2FFF763FFFFB217F530600600300058
S31508007D1080B2FFF75BFF41F2FC500600300080B2EC
S31508007D20FFF754FF0020FFF751FF052003F07CFC06
S31508007D30002081461FFA89F9B9F1030F2BDA0021D1
S31508007D40DFF8A80505F063F80021DFF8A40505F0BB
S31508007D505EF80121DFF8940505F076F80121DFF8D1
S31508007D60900505F00BF80121DFF8800505F006F807
S31508007D700121DFF8780505F04EF80028F8D0DFF87D
S31508007D80700505F046F81FFA89F900A921F81900C7
S31508007D9019F10109CEE7BDF80000BDF80210081870
S31508007DA0BDF804100818032190FBF1F0DFF844151C
S31508007DB00880BDE8F3872DE9F84F04000D0016008A
S31508007DC01F005FF0800BDFF8300500210170DFF837
S31508007DD02C0500210170002080465FFA88F8B8F16A
S31508007DE0080F24DA2100C9B2584680B2FFF768FFA7
S31508007DF0DFF800050088ADB2A84218D0DFF8F40411
S31508007E000088ADB2A84205D2802050FA08F050EAA0
S31508007E100B0B04E0802050FA08F03BEA000B4020E8
S31508007E2050FA08F050EA0B0B18F10108D5E72100C3
S31508007E30C9B2584680B2FFF743FFDFF8B804008896
S31508007E4082462100C9B21BF1010080B2FFF738FF54
S31508007E50DFF8A004008881461FFA89F9ADB2B9EBAC
S31508007E600500ADB21FFA8AFAB5EB0A01884205DAAF
S31508007E701BF1010BDFF87C04A0F80090DFF874040E
S31508007E800088BFB287420ED3DFF868040088B6B20E
S31508007E90B04208D3DFF86804A0F800B0DFF8840D14
S31508007EA00470012000E00020BDE8F28F2DE9F34FB1
S31508007EB083B0140000208DF806004FF48051DFF8D7
S31508007EC0440403F0A5F8DFF8400403F02DFEDFF8BC
S31508007ED03C04007810F00700DFF830140870DFF86B
S31508007EE02C040078042804D0DFF82004007802283F
S31508007EF003D104208DF8060007E0DFF810040078A7
S31508007F00032802D108208DF806009DF80600DFF840
S31508007F10F81311EB400003F007FE012830D1DFF813
S31508007F20EC030078060016F007008DF80000DFF86D
S31508007F30D80303F0F9FDDFF8D403007810F0170032
S31508007F408146DFF8E40C03F0EFFD00208DF807000A
S31508007F509DF807004FF480715FFA89F901FB0090DC
S31508007F60ADF80400DFF8C40C0089FDF7F1FE83467E
S31508007F701BF0070B1FFA8BFBBBF1030F17D105E0AC
S31508007F80DFF8AC0C092101700020ABE1BDF8040054
S31508007F90400705D5DFF8980C082101700020A1E1FB
S31508007FA048F20800FDF7D4FEADF8040032E01FFAE7
S31508007FB08BFBBBF1020F14D1BDF8040010F00700CB
S31508007FC01FFA8BFB584505D0DFF8640C08210170B1
S31508007FD0002087E148F20400FDF7BAFEADF8040078
S31508007FE018E01FFA8BFBBBF1040F13D1BDF8040090
S31508007FF010F007001FFA8BFB584505D0DFF8300C48
S315080080000821017000206DE148F20400FDF7A0FE8A
S31508008010ADF80400BDF8040043F6FF7188421DD090
S31508008020BDF804004FF4807190FBF1F202FB1102D7
S31508008030914619F007099DF800005FFA89F9484545
S315080080400CD0DFF8EC0B152101704FF48051AD48C8
S3150800805002F0DBFFDFF8D80B007843E10A2004F0D2
S3150800806000FA00200500EDB2052D04DA0020FFF71E
S31508008070ADFD6D1CF7E79DF80000002816D1092014
S315080080808DF8030008208DF802000A208DF80100FB
S315080080904FF41B60ADF80C0040F6C410040040F61F
S315080080A0D810ADF810002020804685E09DF8000025
S315080080B0012816D112208DF8030011208DF8020030
S315080080C013208DF801004FF41B60ADF80C0040F644
S315080080D0C410040040F6D810ADF8100040208046C1
S315080080E06AE09DF80000022816D118208DF80300D2
S315080080F017208DF8020019208DF801004FF49B60B7
S31508008100ADF80C0040F2E240040040F2EC40ADF855
S315080081101000402080464FE09DF80000032816D145
S315080081202C208DF803002B208DF802000D208DF8E9
S3150800813001004FF41B60ADF80C0040F6C4100400B3
S3150800814040F6D810ADF810008020804634E09DF83F
S315080081500000042816D116208DF8030015208DF886
S31508008160020017208DF801004FF41B60ADF80C00D3
S3150800817040F6C410040040F6D810ADF81000A02050
S31508008180804619E09DF80000052815D119208DF8BC
S31508008190030018208DF802001A208DF8010040F619
S315080081A0D100ADF80C0040F6E300040040F6F500F7
S315080081B0ADF81000C020804658F01F085FFA88F80E
S315080081C018F530608246504680B2FFF7FFFC41F250
S315080081D0F9508246504680B2FFF7F8FC56F0D806AA
S315080081E0F6B216F530608246504680B2FFF7EEFCCE
S315080081F041F2FF508246504680B2FFF7E7FCDFF8AF
S31508008200340A03F091FC012836D14048007807006B
S3150800821017F0100050F0EE07FFB217F530608246EF
S31508008220504680B2FFF7D2FC41F2FE5082465046D5
S3150800823080B2FFF7CBFC0020FFF7C8FC0020FFF751
S31508008240C5FC40F60130FFF7C1FC41F2F850FFF7D4
S31508008250BDFC0020FFF7BAFC0020FFF7B7FCBDF80D
S315080082601030BDF80C20210089B29DF80300FFF7F5
S31508008270A2FD00280BD10CE0DFF8B4090921017032
S315080082804FF480511F4802F0C0FE00202AE001206A
S3150800829028E0BDF81030BDF80C20210089B29DF801
S315080082A00200FFF788FD002801D001201AE0BDF87A
S315080082B01030BDF80C20210089B29DF80100FFF7A7
S315080082C07AFD002801D001200CE00D484FF6FF7119
S315080082D00180DFF85009FF210170DFF854090321F6
S315080082E00170002005B0BDE8F08F000000040040D2
S315080082F0000800406C0B0020820B0020830B002036
S31508008300760B0020000C0140202101008C0B002078
S315080083102DE9F04F87B0002400208DF801005FF0AA
S3150800832000095FF0000A5FF0000B00208DF80000DE
S315080083300121DFF8040902F06BFE0021002002F09B
S315080083404EFF0A2003F070F9022000F07DFC0120A0
S3150800835003F06AF94FF6FF70FDF7FAFC0500ADB2B7
S3150800836046F26000854206D0DFF8C4080421017091
S31508008370002000F053BC4FF48051DFF8C00802F02B
S3150800838047FEDFF8A8080089FDF7E2FC060016F0AC
S315080083900706DFF8AC0803F0C7FBDFF8A808007883
S315080083A010F00700DFF89C180870B6B2032E0BD140
S315080083B0DFF89008007804282ED1DFF87408082121
S315080083C00170002000F02ABCB6B2022E10D1DFF8E8
S315080083D074080078042804D0DFF8680800780328B1
S315080083E01AD1DFF84C0808210170002000F016BCED
S315080083F0B6B2042E10D1DFF84C080078032804D052
S31508008400DFF840080078022806D1DFF8240808219A
S315080084100170002000F002BCB6B2072E4ED0DFF87D
S3150800842024080078042804D0DFF818080078022801
S3150800843002D10420834606E0DFF8080800780328FE
S3150800844001D1082083465FFA8BFBBBF5004080B25A
S31508008450FDF77EFC05005FFA8BFBDFF8E40710EBFF
S315080084604B0003F061FB01280BD0DFF8C407092194
S3150800847001704FF48051DFF8C40702F0C6FD0020F2
S31508008480CCE3ADB243F6FF70854217D0ADB24FF4D8
S31508008490807095FBF0F101FB10510F0017F00707EC
S315080084A0DFF8A007007810F00700FFB2B84205D041
S315080084B0DFF87C07152101700020AFE34FF48051E7
S315080084C0DFF8780702F0A1FDDFF8600790F82200D0
S315080084D001281CD1DFF85407008846F2600188425B
S315080084E011D1DFF84807428ADFF84007C189DFF86B
S315080084F03C07008AFFF7DAFC8DF801009DF80100B9
S31508008500002804D101E0002088E3002086E3012149
S31508008510DFF8240702F07CFD0021002002F05FFE50
S315080085200A2003F081F8022000F08EFB012003F0F8
S315080085307BF84FF6FF70FDF70BFC05004FF4005172
S31508008540DFF8940C02F064FD4FF40071DFF8E806DA
S3150800855002F05BFD8021DFF8800C02F056FD0A2050
S3150800856003F062F8ADB246F26000854205D0DFF846
S31508008570C00604210170002050E3DFF8C40603F0AA
S31508008580D3FADFF8C006007810F017000700DFF806
S31508008590980603F0C9FA002080465FFA88F84FF477
S315080085A08070FFB200FB08700500DFF880064FF404
S315080085B00041018100200400601C0400C0B20628A6
S315080085C01EDA290089B2DFF864060089FDF762FB26
S315080085D0DFF858060089FDF7BBFB0600B6B2ADB258
S315080085E0AE4202D1002004000AE0E4B2042CE3D132
S315080085F0DFF838060089DFF8E41B088000200DE361
S31508008600FFB2122F06D10020834640F2FF30ADF8A4
S31508008610020018E0FFB2132F06D10420834640F269
S31508008620FF30ADF802000EE0FFB2152F02D0FFB200
S31508008630142F06D10020834640F2FF70ADF80200E1
S3150800864001E00020EAE20121DFF8EC0502F0E0FC97
S315080086500021002002F0C3FD0A2002F0E5FF0220F7
S3150800866000F0F2FA012002F0DFFF4FF6FF70FDF787
S315080086706FFB05004FF40051DFF85C0B02F0C8FCF5
S315080086804FF40071DFF8B00502F0BFFC8021DFF877
S31508008690480B02F0BAFC0A2002F0C6FFDFF8400BCE
S315080086A040788DF80000DFF8380B8078DFF8301B4B
S315080086B0C97811EB0020ADF81800DFF8240B007913
S315080086C0DFF81C1B497911EB0020ADF80A00DFF82A
S315080086D0100B8079DFF8081BC97911EB0020ADF87B
S315080086E00800DFF8FC0A007ADFF8F41A497A11EB79
S315080086F00020ADF80600DFF8E80A807ADFF8E01A0D
S31508008700C97A090411EB0060DFF8D41A097B10EB6B
S315080087100120DFF8CC1A497B08180490DFF8C00A54
S31508008720C07BDFF8BC1A097C090411EB0060DFF88E
S31508008730B01A497C10EB0120DFF8A41A897C0818C6
S315080087400590DFF89C0AC07EDFF8941A097F0904B1
S3150800875011EB0060DFF8881A497F10EB0120DFF87B
S31508008760801A897F0818039003980499884217D2BB
S31508008770DFF86C0ADFF8681AC97D8172DFF8600ACB
S31508008780DFF85C1A097EC172DFF8540ADFF8501A5E
S31508008790497E0173DFF8480ADFF8441A897E417377
S315080087A0DFF83C0A00780A280BD1DFF8380A006897
S315080087B00599884205D3DFF878040E210170002058
S315080087C02CE2DFF8680490F827000F21084200F031
S315080087D0F680002081464FF48051DFF8600402F0ED
S315080087E017FCDFF8480400218180BDF80200ADF8C7
S315080087F002004FF6FF7003F064FADFF83004808851
S31508008800FDF7A6FA0600DFF824048088DFF8CC19FD
S315080088100880BDF80200DFF8C41909888842C0F04C
S31508008820C98003F000F9DFF81C0400780700FFB2DE
S3150800883017EB090903F0F7F8DFF808040078804613
S315080088405FFA88F818EB09095FFA88F84FF4807020
S31508008850FFB200FB08700500DFF8800900880221D6
S3150800886090FBF1F0ADF80400DFF870090088801C71
S31508008870DFF868190880DFF8680900780A284ED1F9
S31508008880BDF80400BDF8181088420AD15FFA88F8C6
S315080088904FF48070DFF84819497B00FB0810050083
S315080088A03DE0BDF80400BDF80A1088420ED19DF8D7
S315080088B0000002280ADB5FFA88F84FF48070DFF8B8
S315080088C02019097B00FB0810050028E0BDF8040004
S315080088D0BDF8081088420ED19DF8000003280ADB6F
S315080088E05FFA88F84FF48070DFF8F418C97A00FB4D
S315080088F00810050013E0BDF80400BDF8061088420C
S315080089000DD19DF80000042809DB5FFA88F84FF4BA
S315080089108070DFF8CC18897A00FB08100500C94872
S31508008920057000200400601C0400C0B2062835DA71
S3150800893000208246BD48008846F26001884209D177
S31508008940ADB24FF6FF70854204D143F6FF700500BD
S3150800895001208246ADB24FF6FF70854208D05FFA15
S315080089608AFABAF1000F03D1280080B2FDF7B0F8F1
S3150800897000200600FDF76AF80600B6B2ADB2A804F4
S31508008980800C864202D10020040007E0E4B2042CE1
S31508008990C9D1A7480821017000203FE1DFF83C084B
S315080089A00088BDF802108842BFF433AF142003F0E4
S315080089B058FD2EE74FF48051A04802F026FBDFF859
S315080089C07C0C03F0B1F8DFF8780C00880700DFF8B4
S315080089D0740C03F0A9F89B48007880469148007803
S315080089E080465FFA88F84FF48070FFB200FB087083
S315080089F005005FFA8BFB47F6FE70BBEB00008B4960
S31508008A0008818A480089FDF7A3F90600B6B243F63D
S31508008A10FF70864200D0350000200400601C040068
S31508008A20C0B2062820DA290089B280480089FDF7F5
S31508008A3031F97E480089FDF78BF90600B6B2ADB26A
S31508008A40A804800C864202D1002004000CE0E4B29F
S31508008A50052CE3D176480A21017074480089DFF8AD
S31508008A607C1708800020D9E0DFF8DC0B03F05CF8FF
S31508008A707448007807006F4803F056F87148007884
S31508008A8080465FFA88F84FF48070FFB200FB0870E2
S31508008A9005005FFA8BFB47F6FD70BBEB00006349E8
S31508008AA0088100200400601C0400C0B2062820DAF1
S31508008AB0290089B25D480089FDF7ECF85B48008912
S31508008AC0FDF746F90600B6B2ADB2A804800C864298
S31508008AD002D1002004000CE0E4B2052CE3D154488E
S31508008AE00A21017051480089DFF8F0160880002035
S31508008AF094E0DFF8580B03F017F85248007807009F
S31508008B00DFF84C0B03F010F84E48007880465FFA01
S31508008B1088F84FF48070FFB200FB087005005FFA12
S31508008B208BFB47F6FC70BBEB000040490881002030
S31508008B300400601C0400C0B2062820DA290089B2A5
S31508008B403A480089FDF7A6F838480089FDF700F984
S31508008B500600B6B2ADB2A804800C864202D1002047
S31508008B6004000CE0E4B2052CE3D131480A21017077
S31508008B702E480089DFF86416088000204EE0DFF8EA
S31508008B80D40A02F0D1FF2F4800780700DFF8C80A98
S31508008B9002F0CAFF2B48007880465FFA88F84FF43F
S31508008BA08070FFB200FB087005005FFA8BFB47F682
S31508008BB0FF70BBEB00001D49088100200400601C03
S31508008BC00400C0B2062820DA290089B217480089AD
S31508008BD0FDF760F815480089FDF7BAF80600B6B241
S31508008BE0ADB2A804800C864202D1002004000CE035
S31508008BF0E4B2052CE3D10E480A2101700B4800891E
S31508008C00DFF8D8150880002008E001210A4802F09C
S31508008C10FFF90021002002F0E2FA012007B0BDE8C2
S31508008C20F08F00008A0B0020212101006C01002032
S31508008C30870B00202721010000080140000C014095
S31508008C40202101008C0B002038B5040000210020EB
S31508008C5002F0C5FA642002F0E7FC4FF40061DFF881
S31508008C60FC0902F0D5F94FF48051DFF8F00902F05B
S31508008C70CFF9E4B2012C13D14FF40041DFF8E00933
S31508008C8002F0C3F900200500EDB20C2D01DA6D1CC7
S31508008C90FAE74FF48041DFF8C80902F0B6F90AE0AE
S31508008CA00121DFF8C00902F0B0F94FF48041DFF87E
S31508008CB0B00902F0ADF94021DFF81C0502F0A8F969
S31508008CC000200500EDB20C2D01DA6D1CFAE7002034
S31508008CD00500EDB20C2D01DA6D1CFAE7002005003F
S31508008CE0EDB20C2D01DA6D1CFAE700200500EDB295
S31508008CF00C2D01DA6D1CFAE700200500EDB20C2DEB
S31508008D0001DA6D1CFAE700200500EDB20C2D01DA38
S31508008D106D1CFAE700200500EDB20C2D01DA6D1C7A
S31508008D20FAE700200500EDB20C2D01DA6D1CFAE712
S31508008D304021DFF8A40402F068F94FF40051DFF887
S31508008D40980402F065F94FF40071DFF8180902F08B
S31508008D505CF900200500EDB20C2D01DA6D1CFAE76E
S31508008D6000200500EDB20C2D01DA6D1CFAE7002093
S31508008D700500EDB20C2D01DA6D1CFAE7002005009E
S31508008D80EDB20C2D01DA6D1CFAE700200500EDB2F4
S31508008D900C2D01DA6D1CFAE700200500EDB20C2D4A
S31508008DA001DA6D1CFAE78021DFF82C0402F02DF9B0
S31508008DB0052002F018FC00200500EDB20C2D01DAA2
S31508008DC06D1CFAE700200500EDB20C2D01DA6D1CCA
S31508008DD0FAE700200500EDB20C2D01DA6D1CFAE762
S31508008DE000200500EDB20C2D01DA6D1CFAE7002013
S31508008DF00500EDB20C2D01DA6D1CFAE7002005001E
S31508008E00EDB20C2D01DA6D1CFAE700200500EDB273
S31508008E100C2D01DA6D1CFAE700200500EDB20C2DC9
S31508008E2001DA6D1CFAE700200500EDB20C2D01DA17
S31508008E306D1CFAE700200500EDB20C2D01DA6D1C59
S31508008E40FAE74FF48051DFF8140802F0DEF84FF421
S31508008E500061DFF8080802F0D8F8012002F0C3FB29
S31508008E604FF40061DFF8F40702F0D2F8012002F0AF
S31508008E70BAFB4FF48051DFF8E40702F0C9F84FF463
S31508008E800061DFF8D80702F0C0F8012002F0ABFB5A
S31508008E904FF40061DFF8C40702F0BAF8012002F0C7
S31508008EA0A2FB4FF48051DFF8B40702F0AEF84FF496
S31508008EB00061DFF8A80702F0A8F8012002F093FB8A
S31508008EC04FF40061DFF8940702F0A2F8012002F0DF
S31508008ED08AFB4FF48051DFF8840702F096F84FF4C6
S31508008EE00061DFF8780702F090F8012002F07BFBBA
S31508008EF04FF40061DFF8640702F08AF8012002F0F7
S31508008F0072FB4FF48051DFF8540702F081F84FF4F2
S31508008F100061DFF8480702F078F8012002F063FBE9
S31508008F204FF40061DFF8340702F072F8012002F00E
S31508008F305AFB4FF48051DFF8240702F066F84FF425
S31508008F400061DFF8180702F060F8012002F04BFB19
S31508008F504FF40061DFF8040702F05AF8012002F026
S31508008F6042FB4FF48051DFF8F40602F04EF84FF456
S31508008F700061DFF8E80602F048F8012002F033FB4A
S31508008F804FF40061DFF8D40602F042F8012002F03F
S31508008F902AFB4FF48051DFF8C40602F036F84FF486
S31508008FA00061DFF8B80602F030F8012002F01BFB7A
S31508008FB04FF40061DFF8A40602F02AF8012002F057
S31508008FC012FB4FF48051DFF8940602F021F84FF4B3
S31508008FD00061DFF8880602F018F8012002F003FBAA
S31508008FE04FF40061DFF8740602F012F8012002F06F
S31508008FF0FAFA4FF48051DFF8640602F006F84FF4E7
S315080090000061DFF8580602F000F8012002F0EBFADA
S315080090104FF40061DFF8440601F0FAFF012002F080
S31508009020E2FA4FF48051DFF8340601F0EEFF4FF410
S315080090300061DFF8280601F0E8FF012002F0D3FA04
S315080090404FF40061DFF8140601F0E2FF012002F098
S31508009050CAFA4FF48051DFF8040601F0D6FF4FF440
S315080090600061DFF8F80501F0D0FF012002F0BBFA35
S315080090704FF40061DFF8E40501F0CAFF012002F0B1
S31508009080B2FA4FF48051DFF8D40501F0C1FF4FF46E
S315080090900061DFF8C80501F0B8FF012002F0A3FA65
S315080090A04FF40061DFF8B40501F0B2FF012002F0C9
S315080090B09AFA4FF48051DFF8A40501F0A6FF4FF4A1
S315080090C00061DFF8980501F0A0FF012002F08BFA95
S315080090D04FF40061DFF8840501F09AFF012002F0E1
S315080090E082FA4FF48051DFF8740501F091FF4FF4CE
S315080090F00061DFF8680501F088FF012002F073FAC5
S315080091004FF40061DFF8540501F082FF012002F0F8
S315080091106AFA4FF48051DFF8440501F076FF4FF400
S315080091200061DFF8380501F070FF012002F05BFAF4
S315080091304FF40061DFF8240501F06AFF012002F010
S3150800914052FA012002F070FA00200500EDB20C2D4B
S3150800915001DA6D1CFAE700200500EDB20C2D01DAE4
S315080091606D1CFAE700200500EDB20C2D01DA6D1C26
S31508009170FAE700200500EDB20C2D01DA6D1CFAE7BE
S3150800918000200500EDB20C2D01DA6D1CFAE700206F
S315080091900500EDB20C2D01DA6D1CFAE7002005007A
S315080091A0EDB20C2D01DA6D1CFAE700200500EDB2D0
S315080091B00C2D01DA6D1CFAE700200500EDB20C2D26
S315080091C001DA6D1CFAE700200500EDB20C2D01DA74
S315080091D06D1CFAE731BD0000001001406E0B00203F
S315080091E0080B0020440B00202DE9F14F82B00C003B
S315080091F015005FF080084FF4306B4FF41B60ADF834
S31508009200080040F6C410050040F6D81004000121F5
S31508009210DFF8500401F0FCFE0021002001F0DFFF1A
S315080092200A2002F001FA0220FFF70EFD012002F0E3
S31508009230FBF94FF6FF70FCF78BFDADF80200BDF8A1
S31508009240020046F26001884205D0DFF81C040421BA
S3150800925001700020A6E10A2003F003F900200600A9
S31508009260F6B2052E04DA0020FEF7B0FC761CF7E706
S3150800927040F63E30FEF7AAFC41F2FE50FEF7A6FC89
S3150800928040F62E30FEF7A2FC41F2FA50FEF79EFC9D
S315080092900020FEF79BFCDFF8B40302F045FCDFF87C
S315080092A0CC0300780700DFF8C403007850F01800F4
S315080092B010F53060814617F00707E24802F034FCE3
S315080092C0DFF8A803007810EB0B0BDFF8A40302F015
S315080092D02BFCDFF89803007810F010008DF80600D4
S315080092E09DF8060050F02A0010F530608246FFB25D
S315080092F0002F20D1484680B2FEF768FC41F2FF50A5
S31508009300FEF764FC504680B2FEF760FC41F2FE5060
S31508009310FEF75CFC584680B2FEF758FC41F2FC505A
S31508009320FEF754FC4FF43260FEF750FC41F2F95058
S31508009330FEF74CFCC6E0FFB2012F20D1484680B2AA
S31508009340FEF744FC41F2FF50FEF740FC504680B25F
S31508009350FEF73CFC41F2FE50FEF738FC584680B258
S31508009360FEF734FC41F2FC50FEF730FC4FF4346053
S31508009370FEF72CFC41F2F950FEF728FCA2E0FFB2FA
S31508009380022F2AD1484680B2FEF720FC41F2FF5050
S31508009390FEF71CFC504680B2FEF718FC41F2FE5060
S315080093A0FEF714FC584680B2FEF710FC41F2FC505A
S315080093B0FEF70CFC4FF43460FEF708FC41F2F95056
S315080093C0FEF704FC4FF49B60ADF8080040F2E2405B
S315080093D0050040F2EC40040074E0FFB2032F20D1F0
S315080093E0484680B2FEF7F2FB41F2FF50FEF7EEFB6D
S315080093F0504680B2FEF7EAFB41F2FE50FEF7E6FB66
S31508009400584680B2FEF7E2FB41F2FC50FEF7DEFB5F
S315080094104FF43860FEF7DAFB41F2F950FEF7D6FB57
S3150800942050E0FFB2042F20D1484680B2FEF7CEFBAB
S3150800943041F2FF50FEF7CAFB504680B2FEF7C6FB64
S3150800944041F2FE50FEF7C2FB584680B2FEF7BEFB5D
S3150800945041F2FC50FEF7BAFB4FF43A60FEF7B6FB52
S3150800946041F2F950FEF7B2FB2CE0FFB2052F29D1E5
S31508009470484680B2FEF7AAFB41F2FF50FEF7A6FB6C
S31508009480504680B2FEF7A2FB41F2FE50FEF79EFB65
S31508009490584680B2FEF79AFB41F2FC50FEF796FB5F
S315080094A04FF43C60FEF792FB41F2F950FEF78EFB53
S315080094B040F6D100ADF8080040F6E300050040F696
S315080094C0F500040040F60130FEF780FB41F2F85043
S315080094D0FEF77CFB0020FEF779FB0A2002F0A4F8D1
S315080094E08020804663480021017000200600F6B2FD
S315080094F0082E1CDA4046C0B200F056F85E480088CE
