S0180000455A50726F3130305F4150505F7632302E7372656334
S31508004000980F0020157101085D6C01085F6C0108A6
S31508004010616C0108636C0108656C0108000000000A
S31508004020000000000000000000000000676C0108A6
S31508004030696C0108000000006B6C01086D6C0108D2
S31508004040C9710108CD710108D1710108D57101083E
S31508004050D9710108DD710108E1710108E5710108EE
S31508004060E9710108ED710108F1710108F57101089E
S31508004070F9710108FD71010801720108057201084C
S31508004080097201080D7201081172010815720108FA
S315080040906F6C01081D72010821720108257201085A
S315080040A0297201082D72010831720108357201085A
S315080040B0397201083D72010841720108457201080A
S315080040C0497201084D7201085172010855720108BA
S315080040D0597201085D72010861720108657201086A
S315080040E0697201086D72010871720108757201081A
S315080040F0797201087D7201088172010885720108CA
S31508004100897201088D720108917201089572010879
S31508004110997201089D720108A1720108A572010829
S31508004120A9720108AD720108B1720108B5720108D9
S3150800413080B51C48008846F26001884205D104F023
S31508004140DFFB00282BD001202AE01648008848F219
S315080041503211884205D106F0EFF900281FD0012058
S315080041601EE01048008843F22221884205D107F054
S3150800417023F9002813D0012012E00A48008847F2E4
S315080041802201884205D107F0CFFC002807D001207C
S3150800419006E000F009F8002801D0012000E0002020
S315080041A002BD00006C0100202DE9F04F89B0002403
S315080041B00020ADF802000020ADF80C0000208DF8B4
S315080041C0010000208DF800005FF0000B00208DF83C
S315080041D00A005FF00009DFF8D40D90F822000128E4
S315080041E040F0B480DFF8C40D008843F29431884269
S315080041F006D0DFF8B80D008843F2783188420DD131
S31508004200DFF8A80D428ADFF8A40DC189DFF89C0DF6
S31508004210008A03F03FFE8DF801008CE0DFF88C0D74
S31508004220008849F2290188420DD1DFF8800D428ABB
S31508004230DFF8780DC189DFF8740D008A02F028FED0
S315080042408DF8010077E0DFF8640D008843F211115C
S31508004250884206D0DFF8540D008843F216318842AA
S315080042600DD1DFF8480D428ADFF8400DC189DFF825
S315080042703C0D008A02F0ECFF8DF801005BE0DFF8E8
S315080042802C0D008845F21231884216D1DFF81C0D34
S31508004290428ADFF8180DC189DFF8100D008A03F08D
S315080042A023FA8DF801009DF80100DFF8041D09784E
S315080042B0884240D1002001F036BCDFF8F00C0088B7
S315080042C043F28101884206D0DFF8E00C008843F209
S315080042D0014188420DD1DFF8D40C428ADFF8CC0CB4
S315080042E0C189DFF8C80C008A02F06AFA8DF8010065
S315080042F021E0DFF8B80C008846F2600188420DD14B
S31508004300DFF8A80C428ADFF8A40CC189DFF89C0CF8
S31508004310008A05F03DFB8DF801000CE0DFF88C0CF7
S31508004320428ADFF8880CC189DFF8800C008A02F01F
S315080043306BF88DF801009DF80100002806D1DFF81A
S31508004340700C03210170002001F0EDBB0121DFF89C
S31508004350640C07F05DFF0021002008F040F808F023
S31508004360C5F8052008F073FADFF8400C008843F218
S315080043709431884230D0DFF8340C008843F2783123
S31508004380884229D0DFF8240C008849F2290188429E
S3150800439022D0DFF8180C008843F2111188421BD08E
S315080043A0DFF8080C008843F20141884214D0DFF890
S315080043B0FC0B008843F2163188420DD0DFF8EC0B6F
S315080043C0008845F21231884206D0DFF8E00B0088F3
S315080043D045F28811884203D1022001F0B3FB13E0AD
S315080043E0DFF8C80B008843F26421884209D1DFF858
S315080043F0BC0B90F82800022803D1022001F0A2FB8A
S3150800440002E0012001F09EFB012008F020FA4FF49B
S315080044100051DFF8A40B07F0FBFE4FF40071DFF83C
S31508004420940B07F0F2FE0A2008F011FA4FF6FF7017
S3150800443001F061FF8046DFF8740B00881FFA88F8E0
S31508004440804506D0DFF8680B04210170002001F0D2
S315080044506ABBDFF8580B008843F2783188421AD1D4
S3150800446048F2080001F047FF80461FFA88F843F231
S315080044707430804507D1DFF8340B407B74280AD0A6
S31508004480002001F050BBDFF8240B407B742802D1D2
S31508004490002001F048BBDFF8140B90F8280002282A
S315080044A040F0C180002004004FF6FF708046601C73
S315080044B00400C0B2062824DA414689B2DFF8EC0ABD
S315080044C0008901F0BCFEDFF8E40A008901F013FF59
S315080044D00500ADB21FFA88F8454502D10020040050
S315080044E00FE0E4B2042CE2D1DFF8C00A0089DFF855
S315080044F0481D0880DFF8B80A0A210170002001F07B
S3150800450012BB601C0400C0B2062828DA414689B2EC
S31508004510DFF8980A0089401C80B201F090FEDFF8A7
S315080045208C0A0089401C80B201F0E5FE0500ADB298
S315080045301FFA88F8454502D1002004000FE0E4B2CE
S31508004540042CDED1DFF8640A0089DFF8EC1C088049
S31508004550DFF85C0A0A210170002001F0E4BA601C49
S315080045600400C0B2062828DA414689B2DFF83C0AB8
S315080045700089801C80B201F062FEDFF8300A0089EB
S31508004580801C80B201F0B7FE0500ADB21FFA88F8AC
S31508004590454502D1002004000FE0E4B2042CDED128
S315080045A0DFF8080A0089DFF8901C0880DFF8000A9F
S315080045B00A210170002001F0B6BA0121DFF8F409DA
S315080045C007F026FE0021002007F009FF07F08EFFFE
S315080045D00A2008F03CF9022001F0B4FA012008F09C
S315080045E036F94FF40051DFF8D00907F011FE4FF401
S315080045F00071DFF8C00907F008FE0A2008F027F95D
S315080046004FF6FF7001F077FE8046DFF8A0090088B4
S315080046101FFA88F8804506D0DFF89409042101704E
S31508004620002001F080BADFF88409008843F21631C9
S31508004630884240F0818000200400DFF8000C0190D9
S31508004640019808F091FB012806D1DFF8F40B0078F1
S315080046500600F6B2B04602E0002001F064BA601C1B
S315080046600400C0B2062833DA414689B24FF4004046
S3150800467001F0E5FD002082465FFA8AFABAF1030FD7
S315080046800FDA5046C0B201F03BFC0500ADB21FFA86
S3150800469088F8454502D019F1010902E01AF1010A24
S315080046A0EAE75FFA8AFABAF1030F02D1002004009A
S315080046B00EE0E4B2042CD2D1DFF87C0B4FF40041B3
S315080046C00180DFF8EC080A210170002001F02BBAFE
S315080046D00121DFF8E00807F09BFD0021002007F024
S315080046E07EFE0A2008F0B3F8022001F02BFA01201A
S315080046F008F0ADF84FF40051DFF8BC0807F088FD64
S315080047004FF40071DFF8AC0807F07FFD0A2008F0C7
S315080047109EF84FF6FF7001F0EEFD8046DFF88C0834
S3150800472000881FFA88F8804506D0DFF88408042137
S315080047300170002001F0F7B9DFF8700890F827003B
S315080047400F21084200F0AC83002083464FF48051C5
S31508004750DFF8640D07F05CFDDFF85008808800F587
S315080047607F40FF3008F0CDFBDFF8D40A007880469A
S31508004770DFF8D80D40788DF80A00DFF8D00D80787C
S31508004780DFF8C81DC97811EB0020ADF81C00DFF86A
S31508004790BC0D0079DFF8B41D497911EB0020ADF89E
S315080047A01200DFF8A80D8079DFF8A01DC97911EB92
S315080047B00020ADF81000DFF8940D007ADFF88C1DA4
S315080047C0497A11EB0020ADF80E00DFF8800D807AEB
S315080047D0DFF8781DC97A090411EB0060DFF86C1D53
S315080047E0097B10EB0120DFF8641D497B0818069049
S315080047F0DFF8580DC07BDFF8541D097C090411EB5E
S315080048000060DFF8481D497C10EB0120DFF83C1DED
S31508004810897C08180190DFF8340DC07EDFF82C1D5E
S31508004820097F090411EB0060DFF8201D497F10EBB2
S315080048300120DFF8181D897F081805900598069944
S31508004840884217D2DFF8040DDFF8001DC97D817292
S31508004850DFF8F80CDFF8F41C097EC172DFF8EC0CFF
S31508004860DFF8E81C497E0173DFF8E00CDFF8DC1C92
S31508004870897E4173DFF8D40C00780A280CD1DFF85A
S31508004880A40D00680199884206D3DFF824070E2193
S315080048900170002001F047B9002001F02CFD050049
S315080048A0DFF808078088DFF890190880DFF8FC062B
S315080048B0C088DFF8841909888842C0F0A78108F003
S315080048C0D2F9DFF87C0900780600F6B216EB0B0B76
S315080048D008F0C9F9DFF8680900780700FFB217EB96
S315080048E00B0BFFB24FF48070F6B200FB07608046F0
S315080048F0DFF844090088022190FBF1F0ADF80800C2
S31508004900DFF834090088801CDFF82C190880DFF8E6
S315080049103C0C00780A284AD1BDF80800BDF81C10DE
S31508004920884209D1FFB24FF48070DFF8201C497B1A
S3150800493000FB071080463AE0BDF80800BDF81210E3
S3150800494088420DD19DF80A00022809DBFFB24FF410
S315080049508070DFF8F81B097B00FB0710804626E00D
S31508004960BDF80800BDF8101088420DD19DF80A0060
S31508004970032809DBFFB24FF48070DFF8D01BC97A31
S3150800498000FB0710804612E0BDF80800BDF80E10BF
S3150800499088420CD19DF80A00042808DBFFB24FF4C0
S315080049A08070DFF8A81B897A00FB07108046DFF8BD
S315080049B0900880F8008000200400601C0400C0B243
S315080049C0062880F2EA8000208DF80000DFF8DC0572
S315080049D0008843F2111188420CD11FFA88F84FF665
S315080049E0FF70804506D15FEAC8485FEAD8480120CB
S315080049F08DF80000DFF8B405008843F201418842CB
S31508004A000BD11FFA88F84FF6FF70804505D141F69D
S31508004A10FF70804601208DF80000DFF890050088B9
S31508004A2043F2810188420BD11FFA88F84FF6FF70CE
S31508004A30804505D143F6FF70804601208DF80000B9
S31508004A401FFA88F84FF6FF70804502D101208DF8CD
S31508004A500000DFF85805008843F28101884203D137
S31508004A605FEA88485FEA98489DF80000002803D165
S31508004A70404680B201F0FEFADFF83005008843F2BE
S31508004A801111884222D0DFF82405008843F27831D4
S31508004A9088421BD0DFF81405008843F2014188429A
S31508004AA014D0DFF80805008843F2163188420DD085
S31508004AB0DFF8F804008845F21231884206D0DFF89C
S31508004AC0EC04008849F2290188424BD1DFF8DC045E
S31508004AD0008849F22901884203D102208DF80B008B
S31508004AE002E003208DF80B00002082469DF80B009B
S31508004AF05FFA8AFA82451CD2DFF8B004008849F2C8
S31508004B002901884205D15046C0B208F070FB05005D
S31508004B1004E05046C0B201F0F3F90500ADB21FFA41
S31508004B2088F8454502D019F1010902E01AF1010A8F
S31508004B30DCE79DF80B005FFA8AFA824502D100206D
S31508004B4004002AE0E4B2042C7FF437AFDFF86004EF
S31508004B5008210170DFF8E006BDF808100180002082
S31508004B6000F0E1BF01F086F90500ADB21FFA88F83A
S31508004B70454502D1002004000FE0E4B2042C7FF47E
S31508004B801CAFDFF82C0408210170DFF8AC06BDF86D
S31508004B9008100180002000F0C6BFDFF89C060088D8
S31508004BA0DFF80814C9888842BFF480AE142009F0DB
S31508004BB066FCDFF8F803008843F2014188420ED00C
S31508004BC0DFF8E803008843F28101884207D0DFF85E
S31508004BD0DC03008843F2163188427FF467AE122060
S31508004BE001F0F2F8ADF80800BDF80800DFF848163D
S31508004BF00988022291FBF2F188423FF457AEDFF8AA
S31508004C00B00310210170002000F08DBF4FF48051D1
S31508004C10DFF8A40807F0F9FADFF89003008849F2EC
S31508004C202901884240F03C814FF48051DFF888081A
S31508004C3007F0EEFADFF8D00C08F063F9F22001F07D
S31508004C405AFB0500DFF8F0054FF4F2710180DFF832
S31508004C50E8050088B0F5007F73DA08F004F8DFF895
S31508004C60E00500780600F6B216EB0B0B07F0FBFF23
S31508004C70DFF8CC0500780700FFB217EB0B0BFFB285
S31508004C804FF48070F6B200FB07608046DFF8A8058F
S31508004C900088022190FBF1F0ADF80800DFF89805CE
S31508004CA00088801CDFF890150880DFF8940580F8E6
S31508004CB0008000200400601C0400C0B2062836DA12
S31508004CC01FFA88F84FF6FF70804503D0404680B239
S31508004CD001F0D0F9002082465FFA8AFABAF1020F8B
S31508004CE00FDA5046C0B208F082FA0500ADB21FFAD4
S31508004CF088F8454502D019F1010902E01AF1010ABE
S31508004D00EAE75FFA8AFABAF1020F02D10020040034
S31508004D100DE0E4B2042CCED1A54808210170DFF8D5
S31508004D201805BDF808100180002000F0FCBEDFF869
S31508004D3008050088B0F5FF7F89DC142009F09FFB81
S31508004D4085E74FF48051DFF8700707F05EFADFF861
S31508004D505C0D007880469548008901F0CCFA05007C
S31508004D60ADB2FF2D39D1601C0400C0B2062834DA72
S31508004D70414689B28D48008901F061FA00208246D1
S31508004D805FFA8AFABAF1020F11DA884801895046A1
S31508004D90C0B208F0E3F90500ADB21FFA88F8454538
S31508004DA002D019F1010902E01AF1010AE8E75FFAEF
S31508004DB08AFABAF1020F02D1002004000DE0E4B22B
S31508004DC0042CD0D179480089DFF86C14088078481B
S31508004DD00A210170002000F0A6BEDFF8500D0190F0
S31508004DE0019807F0C1FF012815D1DFF854040078AF
S31508004DF0804618F08008DFF8380D007850EA080871
S31508004E006A480089401C80B201F075FA0500ADB207
S31508004E10FF2D45D105E0664809210170002000F004
S31508004E2082BE601C0400C0B2062839DA414689B23F
S31508004E305E480089401C80B201F001FA00208246D3
S31508004E405FFA8AFABAF1020F13DA58480089411C48
S31508004E5089B25046C0B208F081F90500ADB21FFA12
S31508004E6088F8454502D019F1010902E01AF1010A4C
S31508004E70E6E75FFA8AFABAF1020F02D100200400C7
S31508004E800EE0E4B2042CCCD148480089401CDFF877
S31508004E90A813088046480A210170002000F043BE86
S31508004EA0424890F82700F021084200F032863F4831
S31508004EB0008843F22121884223D03C48008847F2E3
S31508004EC0105188421DD03948008843F2642188422F
S31508004ED017D03648008843F21111884211D033485A
S31508004EE0008843F2810188420BD03048008843F29B
S31508004EF00141884205D02D48008845F2881188422C
S31508004F0003D1DFF8300C019002E0DFF82C0C019099
S31508004F102648008845F28811884240F04981019860
S31508004F2007F022FF01280BD1C54800780600F6B223
S31508004F30B6F5807080461D484FF40041018102E0B5
S31508004F40002000F0F0BD601C0400C0B206281FDA7D
S31508004F50414689B21548008901F071F9134800895C
S31508004F6001F0C9F90500ADB21FFA88F8454502D126
S31508004F70002004000CE0E4B2042CE4D10B480089BC
S31508004F80AD4908800A480A210170002000F0CBBD0F
S31508004F900198401C07F0E8FE01280FD1A8480078C0
S31508004FA00600F6B2B6F5807080460AE06C0100206D
S31508004FB0870B00200008014000100140002000F087
S31508004FC0B2BD601C0400C0B2062828DA414689B280
S31508004FD0DFF8680B0089401C80B201F030F9DFF871
S31508004FE05C0B0089401C80B201F085F90500ADB262
S31508004FF01FFA88F8454502D1002004000FE0E4B204
S31508005000042CDED1DFF8340B0089401C8A4908805D
S31508005010DFF82C0B0A210170002000F084BD0198EE
S31508005020801C07F0A1FE012807D1854800780600F4
S31508005030F6B2B6F58070804602E0002000F073BD37
S31508005040601C0400C0B2062828DA414689B2DFF897
S31508005050EC0A0089801C80B201F0F1F8DFF8DC0A5E
S315080050600089801C80B201F046F90500ADB21FFA2E
S3150800507088F8454502D1002004000FE0E4B2042C6C
S31508005080DED1DFF8B80A0089801C6B490880DFF892
S31508005090B00A0A210170002000F045BD0198C01C25
S315080050A007F062FE012807D1654800780600F6B2C7
S315080050B0B6F58070804602E0002000F034BD601C22
S315080050C00400C0B2062828DA414689B2DFF86C0A1D
S315080050D00089C01C80B201F0B2F8DFF8600A0089C6
S315080050E0C01C80B201F007F90500ADB21FFA88F8B6
S315080050F0454502D1002004000FE0E4B2042CDED1BD
S31508005100DFF8380A0089C01C4B490880DFF8300AE6
S315080051100A210170002000F006BD0198001D07F065
S3150800512023FE012807D1464800780600F6B2B6F5F0
S315080051308070804602E0002000F0F5BC601C040088
S31508005140C0B2062828DA414689B2DFF8F009008994
S31508005150001D80B201F073F8DFF8E0090089001D30
S3150800516080B201F0C8F80500ADB21FFA88F84545C7
S3150800517002D1002004000FE0E4B2042CDED1DFF8EF
S31508005180BC090089001D2C490880DFF8B4090A21EA
S315080051900170002000F0C7BC0121DFF85C0D07F0A4
S315080051A037F80021002007F01AF9012000F0BBBCEF
S315080051B0DFF88809008843F21631884202D1DFF801
S315080051C0B00C0190DFF87409008845F21231884264
S315080051D002D1DFF860090190019807F0C5FD0128A2
S315080051E009D11748007806000198401C07F0BCFD55
S315080051F001280ED102E0002000F095BC1048007886
S315080052000700DFF83809008843F2111188421BD1DC
S3150800521006E0DFF82C0909210170002000F083BCA4
S3150800522017F0F00757F00207DFF8D00C00780028CF
S3150800523008D116F07F0607E06E0B002020810100DA
S315080052408C0B002056F08006FFB24FF48070F6B241
S3150800525000FB07608046601C0400C0B2062878DAA6
S31508005260414689B2DFF8D408008900F0E8FFDFF884
S31508005270CC08008843F2111188421BD0DFF8BC081D
S31508005280008843F27831884214D0DFF8B0080088E5
S3150800529043F2014188420DD0DFF8A008008843F2A6
S315080052A01631884206D0DFF89408008845F2123194
S315080052B0884231D1002082465FFA8AFABAF1030F92
S315080052C012DADFF8780801895046C0B201F053F8BF
S315080052D00500ADB21FFA88F8454502D019F1010953
S315080052E002E01AF1010AE7E75FFA8AFABAF1030F50
S315080052F002D1002004002CE0E4B2042CABD1DFF884
S315080053003C080089DFF8A41C0880DFF834080A2165
S315080053100170002000F007BCDFF82008008900F0C3
S31508005320EAFF0500ADB21FFA88F8454502D100200C
S3150800533004000EE0E4B2042C8DD1DFF800080089E1
S31508005340DFF8681C0880DFF8F8070A2101700020DA
S31508005350E9E3DFF8E807807A0228C0F2A983DFF8D4
S31508005360DC0790F8220002284BD1DFF8D007808CA2
S3150800537000F0C1FF0500ADB24FF4807095FBF0F068
S31508005380DFF8AC170870ADB24FF4807095FBF0F1FA
S3150800539001FB1051DFF814070170DFF89407007855
S315080053A0FF2804D0DFF888070078002829D1DFF81D
S315080053B08C07808C801E80B200F09DFF0500ADB280
S315080053C04FF4807095FBF0F0DFF864170870ADB203
S315080053D04FF4807095FBF0F101FB1051DFF8CC0615
S315080053E00170DFF84C070078FF2804D0DFF8400783
S315080053F00078002805D1DFF848070C210170002045
S3150800540091E3DFF83807008843F2810188421CD10E
S315080054100198801D07F0A8FC012810D1DFF84C0C74
S3150800542000788DF80000DFF8140700899DF8001051
S31508005430081880B200F05FFFADF802001EE0DFF842
S3150800544000070921017000206DE3DFF8F0060089E6
S31508005450401C80B200F04FFFADF80200DFF8DC0612
S31508005460008845F21231884208D1DFF8D006008953
S31508005470801C80B200F03FFFADF80C00DFF8BC06D8
S31508005480008843F21111884206D0DFF8B00600887A
S3150800549043F20141884203D141F6FF70804610E08D
S315080054A0DFF89806008843F28101884206D143F660
S315080054B0FF70804605E000BF000C01404FF6FF7004
S315080054C08046DFF87806008845F21231884226D1F0
S315080054D0BDF802001FFA88F8404517D1BDF80C0040
S315080054E04FF6FE71084211D0DFF84406007807002F
S315080054F0DFF8B80500780600DFF8740B0078DFF8E7
S315080055003016097851EAC0000700B7E0BDF8020076
S315080055100600BDF8020080B2000A0700AEE0DFF818
S315080055201C06008847F2105188421AD1BDF80200BD
S31508005530C0070DD5DFF8740500780600BDF802002F
S3150800554080B2000A070057F0800797E0080B002092
S31508005550BDF802000600BDF8020080B2000A070086
S315080055608CE0BDF802001FFA88F840455CD1DFF8E8
S31508005570CC05008843F28101884255D0DFF8B00592
S3150800558000780700DFF8240500780600DFF8AC0588
S31508005590008843F20141884203D1DFF89405007878
S315080055A00600DFF89805008843F22121884206D0D4
S315080055B0DFF88805008847F2105188420ED1DFF8D7
S315080055C07C05808C00F097FE80461FFA88F85FEA13
S315080055D018200700DFF8D40400780600DFF85C0519
S315080055E0008843F2163188420AD1DFF8840A007827
S315080055F010F0F8000700DFF83805007807433DE0AB
S31508005600DFF83805008845F21231884236D1DFF8CE
S31508005610600A0078DFF81815097851EAC000070013
S315080056202CE000BF440B0020DFF81005008843F289
S31508005630810188421AD1BDF802001FFA88F8404550
S3150800564014D1DFF8EC04007806000198C01C07F0B6
S315080056508BFB012804D1DFF8140A007807000DE057
S31508005660DFF8DC040921017000205CE2BDF80200C5
S315080056700600BDF8020080B2000A0700FFB24FF428
S315080056808070F6B200FB07608046DFF8B004008839
S3150800569043F21111884219D10198C01C07F064FB26
S315080056A001280DD1DFF8C4090078070017F018079C
S315080056B0FFB24FF4807000FB07F050EA08082DE0AF
S315080056C0DFF87C040921017000202CE2DFF86C0465
S315080056D0008843F26421884206D0DFF86004008817
S315080056E043F20141884219D10198C01C07F03CFBDE
S315080056F001280DD1DFF87409007807005FFA88F8E9
S31508005700FFB24FF4807000FB07F050EA080805E086
S31508005710DFF82C0409210170002004E2601C040053
S31508005720C0B2062880F2A280DFF81004008843F28F
S31508005730111188421BD0DFF80404008843F278313F
S31508005740884214D0DFF8F403008843F20141884206
S315080057500DD0DFF8E803008843F21631884206D0F8
S31508005760DFF8D803008845F2123188423CD1414619
S3150800577089B2DFF8C8030089401C80B200F05FFDDB
S31508005780002082465FFA8AFABAF1030F14DADFF8C4
S31508005790AC030089411C89B25046C0B200F0EBFD4B
S315080057A00500ADB21FFA88F8454502D019F101097E
S315080057B002E01AF1010AE5E75FFA8AFABAF1030F7D
S315080057C002D10020040051E0E4B2042CA6D1DFF88F
S315080057D070030A210170DFF864030089401CDFF8B2
S315080057E0CC17088000209EE1DFF85003008843F2BA
S315080057F08101884214D1414689B2DFF84003008905
S315080058009DF80020101880B200F019FDCB480089D9
S315080058109DF80010081880B200F06DFD05000EE036
S31508005820414689B2C5480089401C80B200F007FD90
S31508005830C2480089401C80B200F05DFD0500ADB28B
S315080058401FFA88F8454502D1002004000EE0E4B2AC
S31508005850042C7FF463AFBA480A210170B74800895F
S31508005860401CDFF84817088000205CE1B348008830
S3150800587043F27831884224D0B048008843F2943104
S3150800588088421ED0AD48008843F26421884218D069
S31508005890AA48008843F20141884212D0A7480088E6
S315080058A043F2810188420CD0A448008843F216319D
S315080058B0884206D0A148008845F21231884240F055
S315080058C0F7800198001D07F04FFA01282ED1DFF85E
S315080058D09C07007806009948008845F212318842EC
S315080058E01DD1BDF802004FF6FF7188420ED1BDF8F2
S315080058F00C004FF6FE71084208D0DFF874070078EE
S3150800590060F300060BE000BFE3010100BDF80C00E0
S31508005910C00702D556F0010601E016F0FE0601980A
S31508005920401D07F021FA012810D104E08448092116
S3150800593001700020F7E0DFF83407007807007F4899
S31508005940008843F28101884202D107E00020EAE09C
S315080059507A48008843F20141884202D153480078C8
S315080059600600FFB24FF48070F6B200FB076080466F
S31508005970601C0400C0B2062880F29A806F4800882E
S3150800598043F27831884211D06C48008843F20141CD
S3150800599088420BD06948008843F21631884205D000
S315080059A06648008845F2123188423AD1414689B2A2
S315080059B062480089801C80B200F041FC00208246C3
S315080059C05FFA8AFABAF1030F13DA5C480089811C78
S315080059D089B25046C0B200F0CEFC0500ADB21FFA3F
S315080059E088F8454502D019F1010902E01AF1010AC1
S315080059F0E6E75FFA8AFABAF1030F02D1002004003B
S31508005A0056E0E4B2042CB3D1002004004B480089C8
S31508005A10801CDFF89815088049480A210170002083
S31508005A2081E04648008843F28101884215D1414603
S31508005A3089B2424800899DF800201018401C80B29F
S31508005A4000F0FDFB3D4800899DF800100818401C31
S31508005A5080B200F050FC05000EE0414689B2374896
S31508005A600089801C80B200F0EAFB34480089801C5B
S31508005A7080B200F040FC0500ADB21FFA88F8454533
S31508005A8002D10020040013E0E4B2042C7FF470AFC6
S31508005A900020040029480089801CDFF810150880BA
S31508005AA027480A21017000203DE000BF830B002033
S31508005AB0601C0400C0B2032829DA2048008843F293
S31508005AC08101884223D01D48008843F2014188425B
S31508005AD01DD01A48008843F21631884217D0174855
S31508005AE0008845F21231884208D1594689B21348CE
S31508005AF00089C01D80B200F0A2FBD9E7594689B2D9
S31508005B000E4800890F3080B200F099FBD0E70020DC
S31508005B1004000121DFF8E00306F07AFB00210020EB
S31508005B2006F05DFC012009B0BDE8F08FE201010036
S31508005B30820B002020210100204101006C01002079
S31508005B40870B002038B504000021002006F047FC2A
S31508005B50642006F07CFE4FF40061DFF8580C06F06E
S31508005B6057FB4FF48051DFF84C0C06F051FBE4B2BA
S31508005B70012C13D14FF40041DFF83C0C06F045FB2D
S31508005B8000200500EDB20C2D01DA6D1CFAE74FF482
S31508005B908041DFF8240C06F038FB09E00121D648DD
S31508005BA006F033FB4FF48041DFF80C0C06F030FBAF
S31508005BB000200500EDB20C2D01DA6D1CFAE74FF452
S31508005BC00051DFF8F80B06F023FB4FF40071CA48C2
S31508005BD006F01BFB052006F009FE4FF48051DFF89E
S31508005BE0D40B06F012FB00200500EDB20C2D01DAED
S31508005BF06D1CFAE74FF48051DFF8B80B06F008FB86
S31508005C0000200500EDB20C2D01DA6D1CFAE74FF401
S31508005C108051DFF8A00B06F0F8FA00200500EDB277
S31508005C200C2D01DA6D1CFAE74FF48051DFF8840B6E
S31508005C3006F0EEFA00200500EDB20C2D01DA6D1C17
S31508005C40FAE74FF48051DFF86C0B06F0DEFA002015
S31508005C500500EDB20C2D01DA6D1CFAE74FF4805100
S31508005C60DFF8500B06F0D4FA00200500EDB20C2D33
S31508005C7001DA6D1CFAE74FF48051DFF8380B06F0AD
S31508005C80C4FA00200500EDB20C2D01DA6D1CFAE706
S31508005C904FF48051DFF81C0B06F0BAFA0020050015
S31508005CA0EDB20C2D01DA6D1CFAE74FF4007192483B
S31508005CB006F0AEFA4FF40051DFF8000B06F0A5FA2D
S31508005CC0052006F093FD4FF48051DFF8E80A06F048
S31508005CD09CFA00200500EDB20C2D01DA6D1CFAE7DE
S31508005CE04FF48051DFF8CC0A06F092FA002005003E
S31508005CF0EDB20C2D01DA6D1CFAE74FF40051DFF80E
S31508005D00BC0A06F085FA4FF400717B4806F07DFA66
S31508005D10052006F06BFD4FF48051DFF8980A06F06F
S31508005D2074FA00200500EDB20C2D01DA6D1CFAE7B5
S31508005D304FF48051DFF87C0A06F06AFA0020050065
S31508005D40EDB20C2D01DA6D1CFAE74FF48051DFF83D
S31508005D50640A06F05AFA00200500EDB20C2D01DAA5
S31508005D606D1CFAE74FF48051DFF8480A06F050FA3E
S31508005D7000200500EDB20C2D01DA6D1CFAE74FF490
S31508005D8000715D4806F044FA4FF40051DFF82C0A1A
S31508005D9006F03BFA052006F029FD4FF48051DFF89E
S31508005DA0140A06F032FA00200500EDB20C2D01DACD
S31508005DB06D1CFAE74FF48051DFF8F80906F028FA67
S31508005DC0012006F044FD31BD2DE9F0410400E4B29E
S31508005DD0200080B208F053FB002080465FFA88F85E
S31508005DE0B8F10C0F02DA18F10108F7E7002080462F
S31508005DF05FFA88F8B8F10C0F02DA18F10108F7E72C
S31508005E000020070000200500EDB2102D2BDA4FF414
S31508005E100061DFF8A00906F0F8F9002080465FFA6D
S31508005E2088F8B8F10C0F02DA18F10108F7E7102123
S31508005E30DFF8840906F0D9F90600B6B216FA05F0B5
S31508005E4007434FF40061DFF86C0906F0E1F900201A
S31508005E5080465FFA88F8B8F10C0F02DA18F10108E3
S31508005E60F7E76D1CD0E7380080B2BDE8F081000086
S31508005E7024810100F8B5172008F001FB002007006F
S31508005E80FFB20C2F01DA7F1CFAE700200700FFB2E9
S31508005E900C2F01DA7F1CFAE7002006000020040018
S31508005EA0E4B2102C25DA4FF40061DFF8080906F091
S31508005EB0ACF900200700FFB20C2F01DA7F1CFAE7C5
S31508005EC01021DFF8F40806F090F90500ADB215FACE
S31508005ED004F006434FF40061DFF8D80806F098F995
S31508005EE000200700FFB20C2F01DA7F1CFAE7641CBA
S31508005EF0D6E7300080B2F2BD00080140850B0020CD
S31508005F002DE9F04104002000C0B200F051F8172036
S31508005F1008F0B5FA002080465FFA88F8B8F10C0F49
S31508005F2002DA18F10108F7E7002080465FFA88F8D8
S31508005F30B8F10C0F02DA18F10108F7E7002007009C
S31508005F4000200500EDB2102D2BDA4FF40061DFF8C2
S31508005F50640806F05AF9002080465FFA88F8B8F116
S31508005F600C0F02DA18F10108F7E71021DFF84808E4
S31508005F7006F03BF90600B6B216FA05F007434FF4E9
S31508005F800061DFF8300806F043F9002080465FFA22
S31508005F9088F8B8F10C0F02DA18F10108F7E76D1C5A
S31508005FA0D0E7380080B2BDE8F08100006E0B002013
S31508005FB02DE9F0410400E4B2002C02D100200700CC
S31508005FC00AE0E4B2012C02D10620070004E0E4B29C
S31508005FD0022C01D1052007001A2008F050FA0020EB
S31508005FE00600F6B20C2E01DA761CFAE70020060047
S31508005FF0F6B20C2E01DA761CFAE700200500EDB29F
S31508006000102D31DABFB257FA05F080461FFA88F824
S315080060105FEAC87006D54FF48051DFF8980706F096
S31508006020F4F805E04FF48051DFF8880706F0F0F839
S315080060304FF40061DFF87C0706F0E7F80020060059
S31508006040F6B20C2E01DA761CFAE74FF40061DFF897
S31508006050640706F0DDF800200600F6B20C2E01DA19
S31508006060761CFAE76D1CCAE7BDE8F0818C0B0020A8
S31508006070840B00202DE9F0410400162008F0FFF9F2
S31508006080002080465FFA88F8B8F10C0F02DA18F19A
S315080060900108F7E7002080465FFA88F8B8F10C0F88
S315080060A002DA18F10108F7E700200500EDB2102D15
S315080060B035DAA4B254FA05F00600B6B2F00706D5EA
S315080060C04FF48051DFF8EC0606F09FF805E04FF430
S315080060D08051DFF8E00606F09BF84FF40061DFF820
S315080060E0D40606F092F8002080465FFA88F8B8F1E0
S315080060F00C0F02DA18F10108F7E74FF40061DFF830
S31508006100B40606F085F8002080465FFA88F8B8F1EC
S315080061100C0F02DA18F10108F7E76D1CC6E7DFF87D
S315080061206C0D008843F2014188420DD0DFF85C0D02
S31508006130008843F28101884206D0DFF8500D0088B6
S3150800614043F21631884207D11320FFF73DFE0600B9
S31508006150B6B2A4B2A64270D1192008F090F9002070
S315080061600500EDB2082D21DA002080465FFA88F88E
S31508006170B8F10C0F02DA18F10108F7E74FF40061DD
S31508006180DFF8300606F041F8002080465FFA88F806
S31508006190B8F10C0F02DA18F10108F7E74FF40061BD
S315080061A0DFF8100606F034F86D1CDAE7DFF8DC0CC9
S315080061B090F8280002280AD1002007001021DFF8ED
S315080061C0F80506F012F8002810D07F1CF6E7DFF86D
S315080061D0BC0C808A06F00AFBDFF8B00C808A06F051
S315080061E005FBDFF8A80C808A06F000FB00200500F6
S315080061F0EDB2082D21DA002080465FFA88F8B8F15A
S315080062000C0F02DA18F10108F7E74FF40061DFF81E
S31508006210A40505F0FAFF002080465FFA88F8B8F171
S315080062200C0F02DA18F10108F7E74FF40061DFF8FE
S31508006230840505F0EDFF6D1CDAE7BDE8F0812DE970
S31508006240F04104000D00152008F019F900208046D9
S315080062505FFA88F8B8F10C0F02DA18F10108F7E7C7
S31508006260002080465FFA88F8B8F10C0F02DA18F1B8
S315080062700108F7E700200600F6B2102E35DAA4B2B8
S3150800628054FA06F00700BFB2F80706D54FF4805156
S31508006290DFF8200505F0B9FF05E04FF48051DFF877
S315080062A0140505F0B5FF4FF40061DFF8080505F0A1
S315080062B0ACFF002080465FFA88F8B8F10C0F02DAC6
S315080062C018F10108F7E74FF40061DFF8E80405F074
S315080062D09FFF002080465FFA88F8B8F10C0F02DAB3
S315080062E018F10108F7E7761CC6E7280080B2FFF721
S315080062F0C1FEBDE8F081F8B50400152008F0BFF826
S3150800630000200500EDB2102D2FDAA4B254FA05F0DC
S315080063100600B6B2F00706D54FF48051DFF89404AC
S3150800632005F073FF05E04FF48051DFF8880405F0A7
S315080063306FFF4FF40061DFF87C0405F066FF00206C
S315080063400700FFB20C2F01DA7F1CFAE74FF4006151
S31508006350DFF8600405F05CFF00200700FFB20C2F91
S3150800636001DA7F1CFAE76D1CCCE7FFF783FD060010
S31508006370300080B2F2BD2DE9F04104000D00200086
S31508006380C0B2FFF715FE152008F079F800200600C0
S31508006390F6B2102E31DAADB255FA06F080461FFA7B
S315080063A088F85FEAC87006D54FF48051DFF8040410
S315080063B005F02BFF05E04FF48051DFF8F80305F0F0
S315080063C027FF4FF40061DFF8EC0305F01EFF0020FD
S315080063D00700FFB20C2F01DA7F1CFAE74FF40061C1
S315080063E0DFF8D00305F014FF00200700FFB20C2FDA
S315080063F001DA7F1CFAE7761CCAE7FFF73BFD804601
S31508006400404680B2BDE8F0812DE9F84F04000D0042
S3150800641016005FF080090220FFF794FB012006F0C2
S3150800642016FA0A2008F02BF800200700FFB2052FFD
S3150800643004DA002001F0DCFE7F1CF7E743F674401F
S3150800644001F0D6FE45F2F97001F0D2FE4FF4705015
S3150800645001F0CEFE45F2FA7001F0CAFEDFF82C0A0A
S31508006460C08A42F62101884240F09F80DFF8BC0CC2
S3150800647006F07AFC012829D1DFF8B40C00788046AA
S3150800648043F6FF4001F0B4FE45F2FB7001F0B0FEA2
S315080064905FFA88F818F5705080B201F0A9FE45F247
S315080064A0FC7001F0A5FE43F6014001F0A1FE45F29D
S315080064B0F87001F09DFE002001F09AFE0A2006F011
S315080064C0C6F9102080460020070005E0DFF8500DC9
S315080064D0092101700020F2E0FFB2042F53DA5FFAB7
S315080064E088F818F5705080B201F082FE45F2FC700B
S315080064F001F07EFEFF2000F0E4F8DFF8280D0088A2
S315080065008246002000F0DDF8DFF8180D0088834683
S315080065105FFA88F8B8F11E0F04D05FFA88F8B8F168
S31508006520020F15D11FFA8AFA40F63E00824505DBAE
S315080065301FFA8BFB40F63D00834524DB5FFA88F89B
S31508006540B8F1020F02D10420804601E00020B6E02F
S315080065501FFA8AFA40F63E0082450ADB1FFA8BFBD1
S3150800656040F63D00834504DA1020384138EA000831
S3150800657003E01020384150EA08080820384150EA5C
S3150800658008087F1CA8E75FFA88F8B8F1040F01D05D
S3150800659018F101085FFA88F818F5705080B201F012
S315080065A027FE45F2FC7001F023FE43F6014001F098
S315080065B01FFE45F2F87001F01BFE002001F018FEE0
S315080065C00A2006F044F980208146DFF85C0C002199
S315080065D0017000200700FFB2082F1EDA4846C0B235
S315080065E000F06FF8DFF83C0C0088B6B2B04214D061
S315080065F0DFF8300C0088B6B2B04204D280203841A9
S3150800660050EA090903E08020384139EA00094020A8
S31508006610384150EA09097F1CDDE719F10100C0B2CB
S3150800662000F04FF8DFF8FC0B008882464846C0B2F7
S3150800663000F047F8DFF8EC0B008883461FFA8AFA61
S31508006640B6B2BAEB0600B6B21FFA8BFBB6EB0B0175
S31508006650884205DA19F10109DFF8C80BA0F800A08D
S31508006660DFF8C00B0088ADB285421BD3DFF8B40B48
S315080066700088A4B2A04215D3DFF81008C08A42F6F3
S315080066802101884204D1DFF8A00B80F8008003E0DE
S31508006690DFF8940BFF210170DFF8900B80F800906B
S315080066A001200CE0DFF8800BFF210170DFF87C0B7E
S315080066B0FF210170DFF8680B032101700020BDE897
S315080066C0F28F7CB504004FF47055DFF8C0070088D8
S315080066D043F2810188420CD1E4B214F5306005001A
S315080066E0280080B201F084FD41F2FB5001F080FDE4
S315080066F01CE0DFF89807008843F2014188420BD175
S31508006700E4B214F580600500280080B201F070FD3F
S31508006710BB2001F06DFD09E0E4B26519280080B2DE
S3150800672001F066FD45F2FB7001F062FD002001F004
S315080067305FFD052006F08BF800200600B6B2032E92
S3150800674029DA0021DFF8E80A08F06FFB0021DFF8F4
S31508006750E40A08F06AFB0121DFF8D40A08F082FB94
S315080067600121DFF8D00A08F017FB0121DFF8C00A7B
S3150800677008F012FB0121DFF8B80A08F05AFB0028D6
S31508006780F8D0DFF8B00A08F052FBB6B200A921F833
S315080067901600761CD2E7BDF80000BDF802100818EE
S315080067A0BDF804100818032190FBF1F0DFF8741AFD
S315080067B0088073BD00140140001801400010014014
S315080067C02DE9F14F0C0015005FF080090220FFF754
S315080067D0B9F9012006F03BF84FF6FF70FFF78BFD7D
S315080067E083460A2007F04BFEDFF8A006008843F22E
S315080067F0014188420BD14FF40051DFF83C0A05F0FD
S3150800680007FD4FF40071DFF8340A05F0FEFC01209D
S3150800681006F01DF800200600F6B20A2E04DA00205B
S3150800682001F0E6FC761CF7E7DFF86006008843F21D
S315080068300141884240F0878040F2054001F0D8FCCB
S31508006840BA2001F0D5FCDFF8F80906F08DFA012820
S3150800685021D1DFF8DC0800780700FFB217F5806061
S3150800686080B201F0C5FCB92001F0C2FC40F20F402D
S3150800687001F0BEFCBC2001F0BBFC4FF4906001F0B7
S31508006880B7FCBB2001F0B4FCDFF8B80906F06CFAD7
S31508006890012811D105E0DFF88809092101700020D7
S315080068A0F1E2DFF88C0800780700DFF89C0906F0AB
S315080068B05BFA012827D105E0DFF864090921017090
S315080068C00020E0E2DFF8680800788046DFF85C0917
S315080068D007705FFA88F818F5806080B201F088FCC6
S315080068E0BE2001F085FCFFB217F5806080B201F08A
S315080068F07FFCBD2001F07CFCDFF8500906F034FA75
S3150800690001281AD101E00020BDE2DFF8240800784A
S315080069100700FFB217F5806080B201F069FC3120EC
S3150800692001F066FC40F2014001F062FCB82001F07B
S315080069305FFC002001F05CFC8EE0DFF8E40809212A
S31508006940017000209FE2DFF8F80806F00DFA01282A
S315080069502CD1DFF8DC0700780700FFB217F53060A6
S3150800696080B201F045FC41F2F95001F041FC40F6D5
S31508006970353001F03DFC41F2FA5001F039FC4FF494
S31508006980386001F035FC41F2FB5001F031FC40F66D
S31508006990363001F02DFC41F2FC5001F029FCDFF8FD
S315080069A0A40806F0E1F9012811D105E0DFF870081E
S315080069B009210170002066E2DFF8740700780700F5
S315080069C0DFF8840806F0D0F9012829D105E0DFF8B8
S315080069D0500809210170002055E2DFF854070078B5
S315080069E08046DFF848080770FFB217F5306080B2B6
S315080069F001F0FEFB41F2FD5001F0FAFB5FFA88F860
S31508006A0018F5306080B201F0F3FB41F2FE5001F058
S31508006A10EFFBDFF8380806F0A7F901281AD101E0DC
S31508006A20002030E2DFF80807007880465FFA88F829
S31508006A3018F5306080B201F0DBFB41F2C15001F07D
S31508006A40D7FB40F6013001F0D3FB41F2F85001F0D4
S31508006A50CFFB01E0002016E2002001F0C9FB002070
S31508006A6001F0C6FB0A2005F0F2FEDFF8BC0700219C
S31508006A70017000200600F6B2082E1EDA4846C0B29B
S31508006A80FFF71FFEDFF89C070088ADB2A84214D0B6
S31508006A90DFF890070088ADB2A84204D280203041C2
S31508006AA050EA090903E08020304139EA000940200C
S31508006AB0304150EA0909761CDDE74846C0B2FFF7BF
S31508006AC000FEDFF8C803008843F20141884240F01F
S31508006AD0E38019F10100C0B2FFF7F3FDDFF84407C0
S31508006AE0008882464846C0B2FFF7EBFDDFF8340758
S31508006AF0008883461FFA8AFAADB2BAEB0500ADB232
S31508006B001FFA8BFBB5EB0B01884205DA19F101096F
S31508006B10DFF81007A0F800A0DFF808070088A4B27D
S31508006B2084420CD3DFF8FC060088BDF800108842C2
S31508006B3005D3DFF8F40680F800900120A3E1DFF81A
S31508006B40040706F011F901280DD1DFF8E4050078ED
S31508006B500700DFF8D8060770DFF8E40606F004F940
S31508006B6001280ED101E000208DE1DFF8C405007888
S31508006B700700FFB23F0917F00707FFB2022F0AD135
S31508006B8001E000207FE1DFF8A4060078401CDFF86A
S31508006B909C16087006E0DFF894060078401EDFF8B9
S31508006BA08C160870DFF88406007810F5806080B2CD
S31508006BB001F01EFBBD2001F01BFB002001F018FBB5
S31508006BC0002001F015FB0A2005F041FE80208146D1
S31508006BD000200600F6B2082E1EDA4846C0B2FFF7B5
S31508006BE070FDDFF840060088ADB2A84214D0DFF881
S31508006BF034060088ADB2A84204D28020304150EA5B
S31508006C00090903E08020304139EA00094020304173
S31508006C1050EA0909761CDDE719F10100C0B2FFF751
S31508006C2050FDDFF80006008882464846C0B2FFF7E6
S31508006C3048FDDFF8F005008883461FFA8AFAADB2E8
S31508006C40BAEB0500ADB21FFA8BFBB5EB0B01884218
S31508006C5005DA19F10109DFF8CC05A0F800A0DFF87C
S31508006C60C4050088A4B284420CD3DFF8B8050088AE
S31508006C70BDF80010884205D3DFF8AC0580F800900F
S31508006C80012000E1DFF8A005FF210170DFF89C056F
S31508006C90FF2101700020F6E07C48008843F281015C
S31508006CA0884240F0E78019F10100C0B2FFF709FDFC
S31508006CB0DFF87005008882464846C0B2FFF701FD36
S31508006CC0DFF86005008883461FFA8AFAADB2BAEB88
S31508006CD00500ADB21FFA8BFBB5EB0B01884205DA4E
S31508006CE019F10109DFF83C05A0F800A0DFF8340522
S31508006CF00088A4B284420CD3DFF828050088BDF8C2
S31508006D000010884205D3DFF8200580F8009001209E
S31508006D10B9E0DFF8300506F027F801280DD1DFF8CD
S31508006D20100400780700DFF804050770DFF810057F
S31508006D3006F01AF801280ED101E00020A3E0DFF8DA
S31508006D40F00300780700FFB23F0917F00707FFB204
S31508006D50052F02D104E0002095E0FFB2022F07D1EB
S31508006D60DFF8C8040078401CDFF8C014087006E095
S31508006D70DFF8B8040078401EDFF8B0140870DFF8B2
S31508006D80AC04007810F5306080B201F031FA41F2B7
S31508006D90FD5001F02DFA002001F02AFA002001F03A
S31508006DA027FA0A2005F053FD8020814600200600B8
S31508006DB0F6B2082E1EDA4846C0B2FFF782FCDFF8A4
S31508006DC064040088ADB2A84214D0DFF858040088DD
S31508006DD0ADB2A84204D28020304150EA090903E046
S31508006DE08020304139EA00094020304150EA09093B
S31508006DF0761CDDE719F10100C0B2FFF762FCDFF887
S31508006E002404008882464846C0B2FFF75AFCDFF8D9
S31508006E101404008883461FFA8AFAADB2BAEB050055
S31508006E20ADB21FFA8BFBB5EB0B01884205DA19F1F7
S31508006E300109DFF8F003A0F800A0DFF8E8030088EE
S31508006E40A4B284420CD3DFF8DC030088BDF8001036
S31508006E50884205D3DFF8D00380F80090012012E0BD
S31508006E60DFF8C403FF210170DFF8C003FF210170BA
S31508006E70002008E0DFF8B003FF210170DFF8AC035B
S31508006E80FF2101700020BDE8F28F00006C01002090
S31508006E902DE9F84F04000D0016004FF48060814676
S31508006EA00220FEF74FFE012005F0D1FC0A2007F06C
S31508006EB0E6FADFF8140D05F057FF01280AD19C48B9
S31508006EC000788DF80000DFF8040D05F04DFF012865
S31508006ED00BD104E0D24809210170002024E194482E
S31508006EE0007880460020070004E0CD48092101709B
S31508006EF0002019E1FFB2052F04DA002001F078F925
S31508006F007F1CF7E74FF6017001F072F99DF8000053
S31508006F10B0F560608246504680B201F069F95FFAC2
S31508006F2088F8B8F5C0608246504680B201F060F92C
S31508006F30BD4800210170BD480021017000200700EE
S31508006F40FFB20B2F22DA1021484680B200F0F2F881
S31508006F50DFF890070088B6B2B04217D0DFF884078A
S31508006F600088B6B2B04205D24FF48060384150EA84
S31508006F70090904E04FF48060384139EA00094FF402
S31508006F800070384150EA09097F1CD9E7102119F128
S31508006F90010080B200F0CEF8DFF848070088824684
S31508006FA01021484680B200F0C5F8DFF83807008897
S31508006FB083461FFA8AFAB6B2BAEB0600B6B21FFAC9
S31508006FC08BFBB6EB0B01884205DA19F10109DFF8EC
S31508006FD01407A0F800A0DFF80C070088ADB28542B8
S31508006FE01FD3DFF800070088A4B2A04219D31FFAFE
S31508006FF089F94FF4807099FBF0F08B4908708A483C
S31508007000007850F01000884908701FFA89F94FF483
S31508007010807099FBF0F101FB109184480170012002
S3150800702082E08148002101708048002101704FF4F8
S315080070308060814600200700FFB20B2F22DA182154
S31508007040484680B200F076F8DFF898060088B6B2AF
S31508007050B04217D0DFF88C060088B6B2B04205D227
S315080070604FF48060384150EA090904E04FF4806023
S31508007070384139EA00094FF40070384150EA0909E5
S315080070807F1CD9E7182119F1010080B200F052F8E7
S31508007090DFF85006008882461821484680B200F07C
S315080070A049F8DFF84006008883461FFA8AFAB6B21E
S315080070B0BAEB0600B6B21FFA8BFBB6EB0B01884299
S315080070C005DA19F10109DFF81C06A0F800A0DFF8B7
S315080070D014060088ADB285421FD3DFF8080600887B
S315080070E0A4B2A04219D31FFA89F94FF4807099FB0C
S315080070F0F0F04D4908704C48007850F018004A499D
S3150800710008701FFA89F94FF4807099FBF0F101FBBA
S31508007110109146480170012006E04348FF2101709E
S315080071204248FF2101700020BDE8F28F03210100CB
S315080071308C0B00202DE9FC4704000D004FF4704627
S31508007140A4B24FF4807094FBF0F00700A4B24FF499
S31508007150807094FBF0F101FB10418846DFF8100DB2
S3150800716005F002FE012803D1DFF8080D00788146F4
S315080071705FFA88F8B8F580500600300080B201F052
S3150800718037F819F0800955EA090957EA09095FFA33
S3150800719089F9B9F570600600300080B201F028F868
S315080071A0052005F054FB002082461FFA8AFABAF138
S315080071B0030F24DA00211E4807F037FE00211D4878
S315080071C007F033FE01211A4807F04CFE0121194841
S315080071D007F0E2FD0121164807F0DEFD01211448FB
S315080071E007F027FE0028F9D0124807F020FE1FFAFC
S315080071F08AFA00A921F81A001AF1010AD5E7BDF89A
S315080072000000BDF802100818BDF80410081803217C
S3150800721090FBF1F0DFF8CC140880BDE8F387000096
S31508007220870B00206C0B0020820B0020830B0020AC
S31508007230000400400008004000100140000801401A
S315080072402021010024210100252101002721010018
S315080072502DE9F14F0C0015004FF48060814602209D
S31508007260FEF770FC012005F0F2FA0A2007F007F98C
S3150800727000200600F6B2052E04DA002000F0B8FF5A
S31508007280761CF7E7DFF8F00B008843F216318842E0
S3150800729040F0CB80DFF8E40B05F066FD01280AD143
S315080072A0DFF8D00B00780700DFF8D40B05F05CFD9B
S315080072B001282AD105E0DFF8CC0B0921017000204E
S315080072C00EE2DFF8B00B007880465FFA88F818F50A
S315080072D070508146484680B200F08AFF45F2FB703E
S315080072E000F086FFFFB217F570508146484680B217
S315080072F000F07EFF45F2FA7000F07AFFDFF8880B9F
S3150800730005F032FD012811D105E0DFF8780B0921D7
S3150800731001700020E4E1DFF85C0B00780700DFF875
S315080073206C0B05F021FD01282ED105E0DFF8540B82
S31508007330092101700020D3E1DFF8380B0078804678
S31508007340DFF84C0B80F800805FFA88F818F5705063
S315080073508146484680B200F04BFF45F2FD7000F0CA
S3150800736047FFFFB217F570508146484680B200F0D5
S315080073703FFF45F2FC7000F03BFFDFF88C0D05F08F
S31508007380F3FC012811D105E0DFF8F80A092101709C
S315080073900020A5E1DFF8DC0A00780700DFF86C0DAD
S315080073A005F0E2FC01283AD105E0DFF8D80A092100
S315080073B00170002094E1DFF8BC0A0078804658F096
S315080073C018085FFA88F818F570508146484680B262
S315080073D000F00EFF45F2FF7000F00AFFFFB217F546
S315080073E070508146484680B200F002FF45F2FE70B2
S315080073F000F0FEFE002000F0FBFE002000F0F8FE84
S3150800740043F6014000F0F4FE45F2F77000F0F0FE96
S31508007410002000F0EDFE002000F0EAFE28E0DFF88C
S31508007420640A0921017000205AE14FF4986000F0BF
S31508007430DFFE40F6C12000F0DBFE4FF4896000F065
S31508007440D7FE40F6F92000F0D3FE40F2024000F0E5
S31508007450CFFE40F6FA2000F0CBFE40F2014000F0E5
S31508007460C7FE40F6F82000F0C3FE002000F0C0FE7C
S315080074704FF480608146DFF8700D00210170DFF857
S315080074806C0D0021017000200600F6B20B2E22DAE0
S31508007490DFF8FC090178484680B200F099FB91486C
S315080074A00088ADB2A84216D08E480088ADB2A84270
S315080074B005D24FF48060304150EA090904E04FF4E0
S315080074C08060304139EA00094FF40070304150EAD3
S315080074D00909761CD9E7DFF8B809017819F101001E
S315080074E080B200F075FB7F4800888246DFF8A00965
S315080074F00178484680B200F06BFB7A4800888346DC
S315080075001FFA8AFAADB2BAEB0500ADB21FFA8BFBC9
S31508007510B5EB0B01884204DA19F101097148A0F8A4
S3150800752000A070480088A4B284421BD36D48008826
S31508007530BDF80010884215D31FFA89F94FF48070F8
S3150800754099FBF0F0DFF8A01C08701FFA89F94FF4D0
S31508007550807099FBF0F101FB1091DFF85C0D01706A
S315080075600120BDE0DFF81009008843F21631884291
S3150800757010D1DFF81C09007810F00700DFF81019A1
S315080075800870DFF80C09007850F05000DFF8001991
S3150800759008701FE04FF4986000F02AFE40F6C120FC
S315080075A000F026FE4FF4996000F022FE40F6F9201E
S315080075B000F01EFE40F2024000F01AFE40F6FA20E5
S315080075C000F016FE40F2014000F012FE40F6F820E8
S315080075D000F00EFE002000F00BFE4FF4806081469E
S315080075E0DFF8040C00210170DFF8000C012101709E
S315080075F000200600F6B20B2E22DADFF8940801788E
S31508007600484680B200F0E4FA36480088ADB2A8428F
S3150800761016D034480088ADB2A84205D24FF480602F
S31508007620304150EA090904E04FF48060304139EAF4
S3150800763000094FF40070304150EA0909761CD9E771
S31508007640DFF84C08017819F1010080B200F0C0FAA1
S31508007650244800888246DFF838080178484680B210
S3150800766000F0B6FA1F48008883461FFA8AFAADB2B8
S31508007670BAEB0500ADB21FFA8BFBB5EB0B018842DE
S3150800768004DA19F101091748A0F800A0154800887E
S31508007690A4B284421BD313480088BDF80010884260
S315080076A015D31FFA89F94FF4807099FBF0F0DFF8CB
S315080076B0381B08701FFA89F94FF4807099FBF0F1AE
S315080076C001FB1091DFF8F00B0170012008E0DFF8EC
S315080076D0180BFF210170DFF8E00BFF210170002075
S315080076E0BDE8F28F6C0B00202DE9F34F83B0140030
S315080076F04FF48051DFF8C40B04F08AFD4FF4806024
S3150800770081460220FEF71EFA012005F0A0F8DFF8F0
S31508007710B00B05F029FB01280AD1DFF858070078D5
S315080077200600DFF8A00B05F01FFB012823D10BE0AC
S31508007730DFF85007092101704FF48051DFF87C0B00
S3150800774004F063FD00203CE2DFF828070078070014
S315080077508DF8016017F007008DF8000048F2020066
S31508007760FEF7C9FDADF80600BDF806004FF6FF7135
S3150800777088420CD128E0DFF80C07092101704FF484
S315080077808051DFF8380B04F040FD002019E2BDF8FF
S3150800779006004FF4807190FBF1F0804618F0070858
S315080077A09DF800005FFA88F840450DD0DFF8D4064A
S315080077B0152101704FF48051DFF8000B04F025FD08
S315080077C0DFF8C0060078FCE10A2006F058FE002023
S315080077D00500EDB2052D04DA002000F009FD6D1C48
S315080077E0F7E79DF80000002811D10A2082460920F3
S315080077F0834640F2E240040040F2DE40ADF80C0059
S3150800780040F2E640ADF81000702006006CE09DF8E6
S315080078100000012811D1122082461120834640F229
S31508007820E240040040F2DE40ADF80C0040F2E640CB
S31508007830ADF810006020060056E09DF8000002280A
S3150800784011D1292082462A20834640F2E2400400CC
S3150800785040F2DE40ADF80C0040F2E640ADF810000C
S315080078605020060040E09DF80000032811D13F2073
S3150800787082463E20834640F2E240040040F2DE4063
S31508007880ADF80C0040F2E640ADF8100040200600C6
S315080078902AE09DF80000042811D13F2082463E20A8
S315080078A0834640F2E240040040F2DE40ADF80C00A8
S315080078B040F2E640ADF810003020060014E09DF8CE
S315080078C00000052810D13F2082463E20834640F618
S315080078D0E300040040F6DC00ADF80C0040F6EA00D0
S315080078E0ADF8100010200600F6B216F57050814665
S315080078F0484680B200F07CFC45F2F97000F078FC4E
S3150800790057F0D807FFB217F570508146484680B23F
S3150800791000F06EFC45F2FE7000F06AFC9DF801006E
S3150800792050F0FD000600F6B216F57050814648463E
S3150800793080B200F05DFC45F2FD7000F059FCDFF8FE
S315080079408809FFB20780DFF8800900880002DFF89F
S3150800795078190880DFF870090088F6B23018DFF861
S3150800796068190880002000F043FC002000F040FC65
S3150800797043F6014000F03CFC45F2F87000F038FC94
S31508007980002000F035FC002000F032FC4FF4806047
S315080079908146DFF8540800210170DFF81C09002130
S315080079A00170DFF848080021017000200500EDB2DB
S315080079B00B2D23DA5146C9B2484680B200F0A2F927
S315080079C0DFF808090088A4B2A04217D0DFF8FC083F
S315080079D00088A4B2A04205D24FF48060284150EA3C
S315080079E0090904E04FF48060284139EA00094FF498
S315080079F00070284150EA09096D1CD8E75146C9B2FA
S31508007A00484680B200F07EF9DFF8C0080088ADF875
S31508007A1004005146C9B219F1010080B200F072F9AA
S31508007A20DFF8A8080088ADF80200BDF80200A4B285
S31508007A30001BA4B2BDF80410611A884206DA19F1CF
S31508007A400109DFF88808BDF802100180BDF81000AA
S31508007A50DFF878180988884220D3DFF8700800888C
S31508007A60BDF80C10884219D31FFA89F94FF48070B3
S31508007A7099FBF0F0DFF8701708701FFA89F94FF4D0
S31508007A80807099FBF0F101FB1091DFF82C0801706A
S31508007A90DFF8FC0380F800A0012092E04FF4806034
S31508007AA08146DFF8440700210170DFF80C08002141
S31508007AB00170DFF838070121017000200500EDB2DA
S31508007AC00B2D23DA5946C9B2484680B200F01AF996
S31508007AD0DFF8F8070088A4B2A04217D0DFF8EC0751
S31508007AE00088A4B2A04205D24FF48060284150EA2B
S31508007AF0090904E04FF48060284139EA00094FF487
S31508007B000070284150EA09096D1CD8E75946C9B2E0
S31508007B1019F1010080B200F0F5F8DFF8B007008827
S31508007B20ADF802005946C9B2484680B200F0EAF8F4
S31508007B30DFF898070088ADF80400BDF80200A4B283
S31508007B40001BA4B2BDF80410611A884206DA19F1BE
S31508007B500109DFF87807BDF802100180BDF81000AA
S31508007B60DFF86817098888421FD3DFF8600700889E
S31508007B70BDF80C10884218D31FFA89F94FF48070A3
S31508007B8099FBF0F0DFF8601608701FFA89F94FF4D0
S31508007B90807099FBF0F101FB1091DFF81C0701706A
S31508007BA0BB4880F800B001200BE0DFF83C06FF2157
S31508007BB00170DFF80407FF210170B548FF21017045
S31508007BC0002005B0BDE8F08FE4010100F4010100D2
S31508007BD02DE9F04383B004000D004FF48066A4B28B
S31508007BE04FF4807094FBF0F00700A4B24FF4807055
S31508007BF094FBF0F101FB104188469F48008843F248
S31508007C00163188421CD115F0F805EF195FFA88F885
S31508007C1018F570500600300080B200F0E9FA45F217
S31508007C20FC7000F0E5FAFFB217F570500600300058
S31508007C3080B200F0DDFA45F2FD7000F0D9FA18E0DE
S31508007C405FFA88F818F580600600300080B200F008
S31508007C50CFFA40F6FB2000F0CBFAFFB217F58060AA
S31508007C600600300080B200F0C3FA40F6FC2000F0AF
S31508007C70BFFA002000F0BCFA052004F0E8FD002059
S31508007C8081461FFA89F9B9F1030F2BDA0021DFF8CB
S31508007C90400607F0CAF80021DFF8380607F0C5F8ED
S31508007CA00121DFF82C0607F0DDF80121DFF82406AC
S31508007CB007F072F80121DFF8180607F06DF80121C0
S31508007CC0DFF80C0607F0B5F80028F8D0DFF8040648
S31508007CD007F0ADF81FFA89F900A921F8190019F17A
S31508007CE00109CEE7BDF80000BDF802100818BDF876
S31508007CF004100818032190FBF1F0DFF8D01508806E
S31508007D00BDE8F7832DE9F04F83B004000D004FF46A
S31508007D108066EDB2A4B26005400D10EBC520824620
S31508007D201FFA8AFA5FEA1A200700504680465FFA69
S31508007D3088F818F570500600300080B200F058FA3E
S31508007D4045F2FB7000F054FA002000F051FAFFB239
S31508007D5017F570500600300080B200F049FA45F277
S31508007D60FC7000F045FA002000F042FAC5F3401016
S31508007D70C0B2DFF8541509884FF6FE721140084361
S31508007D8082461FFA8AFA5FEA1A200700504680469A
S31508007D905FFA88F818F570500600300080B200F0D7
S31508007DA027FA002083465FFA8BFBBBF10A0F02DA3B
S31508007DB01BF1010BF7E745F2FD7000F019FA0020F8
S31508007DC000F016FAFFB217F570500600300080B2C0
S31508007DD000F00EFA45F2FE7000F00AFA002000F0F4
S31508007DE007FA052004F033FD002081461FFA89F9B9
S31508007DF0B9F1030F2BDA0021DFF8D40407F015F8E0
S31508007E000021DFF8D00407F010F80121DFF8C004DC
S31508007E1007F028F80121DFF8BC0406F0BDFF0121B0
S31508007E20DFF8AC0406F0B8FF0121DFF8A40407F078
S31508007E3000F80028F8D0DFF89C0406F0F8FF1FFACF
S31508007E4089F900A921F8190019F10109CEE7BDF849
S31508007E500000BDF802100818BDF804100818032120
S31508007E6090FBF1F0DFF864140880BDE8F78F000096
S31508007E70E20101008C0B00206C0100202B8101001F
S31508007E8025810100870B002026810100278101003A
S31508007E90840B00202DE9F04704000D001600DFF8DA
S31508007EA0380404F061FF012805D0DFF83004092101
S31508007EB00170002025E10220FDF744FE012004F0B0
S31508007EC0C6FC0A2006F0DBFA00200700FFB2052FE1
S31508007ED004DA002000F08CF97F1CF7E743F67040BF
S31508007EE000F086F945F2F97000F082F943F61C4075
S31508007EF000F07EF945F2FA7000F07AF94FF4705006
S31508007F0000F076F945F2FB7000F072F943F6FC4092
S31508007F1000F06EF945F2FC7000F06AF943F6074086
S31508007F2000F066F945F2FD7000F062F943F601408B
S31508007F3000F05EF945F2F87000F05AF9002000F0FA
S31508007F4057F9A94800210170A848002101704FF48B
S31508007F501050804600200700FFB20B2F20DA40465B
S31508007F6080B200F0D5F8DFF864030088B6B2B042F4
S31508007F7016D0D6480088B6B2B04205D24FF4806013
S31508007F80384150EA080804E04FF48060384138EA7E
S31508007F9000084FF40070384150EA08087F1CDBE7F8
S31508007FA018F1010080B200F0B3F8C848008881468D
S31508007FB0404680B200F0ACF8C448008882461FFAF2
S31508007FC089F9B6B2B9EB0600B6B21FFA8AFAB6EB69
S31508007FD00A01884204DA18F10108BC48A0F80090A2
S31508007FE0BA480088ADB2854218D3B8480088A4B20A
S31508007FF0A04213D31FFA88F84FF4807098FBF0F06C
S31508008000794908701FFA88F84FF4807098FBF0F1E8
S3150800801001FB1081A8480170012072E07248002116
S3150800802001707248012101704FF4305080460020DB
S315080080300700FFB20B2F1FDA404680B200F068F83F
S31508008040A2480088B6B2B04216D0A0480088B6B298
S31508008050B04205D24FF48060384150EA080804E07F
S315080080604FF48060384138EA00084FF40070384110
S3150800807050EA08087F1CDCE718F1010080B200F01E
S3150800808047F8924800888146404680B200F040F89A
S315080080908E48008882461FFA89F9B6B2B9EB0600FF
S315080080A0B6B21FFA8AFAB6EB0A01884204DA18F160
S315080080B001088648A0F8009084480088ADB2854239
S315080080C018D382480088A4B2A04213D31FFA88F8AE
S315080080D04FF4807098FBF0F0434908701FFA88F84F
S315080080E04FF4807098FBF0F101FB10817248017023
S315080080F0012006E03C48FF2101706F48FF2101700E
S315080081000020BDE8F08700002881010029810100D0
S315080081102DE9FC4104004FF47055A4B24FF4807069
S3150800812094FBF0F00600A4B24FF4807094FBF0F1D3
S3150800813001FB10410F00FFB217F57050050028002B
S3150800814080B200F055F845F2FB7000F051F8F6B22F
S3150800815016F570500500280080B200F049F845F27F
S31508008160FC7000F045F8002000F042F8052004F005
S315080081706EFB002080461FFA88F8B8F1030F24DA50
S315080081800021534806F051FE0021524806F04DFEE4
S3150800819001214F4806F066FE01214E4806F0FCFD17
S315080081A001214B4806F0F8FD0121494806F041FE39
S315080081B00028F9D0474806F03AFE1FFA88F800A9C1
S315080081C021F8180018F10108D5E7BDF80000BDF838
S315080081D002100818BDF804100818032190FBF1F0E6
S315080081E03A490880BDE8F381820B0020850B002000
S315080081F0F8B5040000200500EDB2102D2BDAA4B264
S3150800820054FA05F00600B6B2F00705D54FF48051CA
S31508008210334803F0FAFF04E04FF48051304803F086
S31508008220F7FF4FF400612E4803F0EFFF0020070028
S31508008230FFB20C2F01DA7F1CFAE74FF400612848D9
S3150800824003F0E6FF00200700FFB20C2F01DA7F1CBF
S31508008250FAE76D1CD0E74FF40061214803F0D5FF1B
S3150800826000200700FFB20C2F01DA7F1CFAE74FF453
S3150800827000611B4803F0CCFF00200700FFB20C2F5B
S3150800828001DA7F1CFAE74FF40061154803F0BDFFD9
S3150800829000200700FFB20C2F01DA7F1CFAE74FF423
S315080082A000610F4803F0B4FF00200700FFB20C2F4F
S315080082B001DA7F1CFAE7F1BD830B0020000C0140B0
S315080082C02421010025210100740B00206C0B0020DD
S315080082D0000400400008004023410100870B0020ED
S315080082E0001401402DE9FC4704000D00EDB215F01D
S315080082F03F00A4B2E1B211EB002082461FFA8AFAC7
S315080083005FEA1A200700504680465FFA88F818F593
S3150800831030600600300080B2FFF76AFF41F2FB507A
S315080083200600300080B2FFF763FFFFB217F5306032
S315080083300600300080B2FFF75BFF41F2FC500600F2
S31508008340300080B2FFF754FF0020FFF751FF0520E9
S3150800835004F07DFA002081461FFA89F9B9F1030F66
S315080083602BDA0021DFF8680506F05FFD0021DFF84B
S31508008370640506F05AFD0121DFF8540506F072FD82
S315080083800121DFF8500506F007FD0121DFF8400559
S3150800839006F002FD0121DFF8380506F04AFD00283F
S315080083A0F8D0DFF8300506F042FD1FFA89F900A972
S315080083B021F8190019F10109CEE7BDF80000BDF84A
S315080083C002100818BDF804100818032190FBF1F0F4
S315080083D0DFF804150880BDE8F3872DE9F84F040097
S315080083E00D0016001F005FF0800BDFF8F004002177
S315080083F00170DFF8EC0400210170002080465FFA66
S3150800840088F8B8F1080F24DA2100C9B2584680B2B4
S31508008410FFF768FFDFF8C0040088ADB2A84218D09D
S31508008420DFF8B4040088ADB2A84205D2802050FA1D
S3150800843008F050EA0B0B04E0802050FA08F03BEAFB
S31508008440000B402050FA08F050EA0B0B18F101080F
S31508008450D5E72100C9B2584680B2FFF743FFDFF8D7
S315080084607804008882462100C9B21BF1010080B257
S31508008470FFF738FFDFF86004008881461FFA89F99C
S31508008480ADB2B9EB0500ADB21FFA8AFAB5EB0A012F
S31508008490884205DA1BF1010BDFF83C04A0F80090CE
S315080084A0DFF834040088BFB287420ED3DFF8280409
S315080084B00088B6B2B04208D3DFF82804A0F800B0A6
S315080084C0DFF8000E0470012000E00020BDE8F28FFE
S315080084D02DE9F34F83B0140000208DF807004FF400
S315080084E08051DFF8040403F093FEDFF8000404F07B
S315080084F03BFC012830D1DFF8F8030078060016F0B7
S3150800850007008DF80000DFF8EC0304F02DFCDFF817
S31508008510E003007810F017008146DFF8DC0304F06A
S3150800852023FC00208DF806009DF806004FF48071A4
S315080085305FFA89F901FB0090ADF80400DFF8BC0387
S315080085400089FDF7D8FE83461BF0070B1FFA8BFB45
S31508008550BBF1030F17D105E0DFF86C0D0921017097
S315080085600020B1E1BDF80400400705D5DFF8580D35
S31508008570082101700020A7E148F20800FDF7BBFEBC
S31508008580ADF8040032E01FFA8BFBBBF1020F14D1E1
S31508008590BDF8040010F007001FFA8BFB584505D0FC
S315080085A0DFF8240D0821017000208DE148F204004F
S315080085B0FDF7A1FEADF8040018E01FFA8BFBBBF12E
S315080085C0040F13D1BDF8040010F007001FFA8BFB47
S315080085D0584505D0DFF8F00C08210170002073E13A
S315080085E048F20400FDF787FEADF8040048F20400DF
S315080085F0FDF781FEADF80400BDF8040043F6FF71EF
S3150800860088421DD0BDF804004FF4807190FBF1F24A
S3150800861002FB1102914619F007099DF800005FFA5E
S3150800862089F948450CD0DFF8A00C152101704FF4E4
S315080086308051AD4803F0E9FDDFF88C0C007843E182
S315080086400A2005F01CFF00200500EDB2052D04DA0E
S315080086500020FFF7CDFD6D1CF7E79DF80000002808
S3150800866016D109208DF8030008208DF802000A208B
S315080086708DF801004FF41B60ADF80C0040F6C410ED
S31508008680040040F6D810ADF810002020804685E09A
S315080086909DF80000012816D112208DF8030011203C
S315080086A08DF8020013208DF801004FF41B60ADF819
S315080086B00C0040F6C410040040F6D810ADF81000BF
S315080086C0402080466AE09DF80000022816D118204E
S315080086D08DF8030017208DF8020019208DF8010087
S315080086E04FF49B60ADF80C0040F2E240040040F203
S315080086F0EC40ADF81000402080464FE09DF80000A1
S31508008700032816D12C208DF803002B208DF80200A3
S315080087100D208DF801004FF41B60ADF80C0040F6F3
S31508008720C410040040F6D810ADF81000802080462A
S3150800873034E09DF80000042816D116208DF80300B1
S3150800874015208DF8020017208DF801004FF41B60E4
S31508008750ADF80C0040F6C410040040F6D810ADF889
S315080087601000A020804619E09DF80000052815D1C4
S3150800877019208DF8030018208DF802001A208DF8AC
S31508008780010040F6D100ADF80C0040F6E300040005
S3150800879040F6F500ADF81000C020804658F01F08D6
S315080087A05FFA88F818F530608246504680B2FFF7BF
S315080087B01FFD41F2F9508246504680B2FFF718FD78
S315080087C056F0D806F6B216F530608246504680B2A4
S315080087D0FFF70EFD41F2FF508246504680B2FFF782
S315080087E007FDDFF8E80A04F0BFFA012836D1404849
S315080087F00078070017F0100050F0EE07FFB217F5E3
S3150800880030608246504680B2FFF7F2FC41F2FE50D5
S315080088108246504680B2FFF7EBFC0020FFF7E8FCE3
S315080088200020FFF7E5FC40F60130FFF7E1FC41F2D6
S31508008830F850FFF7DDFC0020FFF7DAFC0020FFF711
S31508008840D7FCBDF81030BDF80C20210089B29DF880
S315080088500300FFF7C2FD00280BD10CE0DFF8680A19
S31508008860092101704FF480511F4803F0CEFC002007
S315080088702AE0012028E0BDF81030BDF80C202100C0
S3150800888089B29DF80200FFF7A8FD002801D0012053
S315080088901AE0BDF81030BDF80C20210089B29DF809
S315080088A00100FFF79AFD002801D001200CE00D48D1
S315080088B04FF6FF710180DFF80C0AFF210170DFF81F
S315080088C0080A03210170002005B0BDE8F08F0000FA
S315080088D000040040000800406C0B0020820B0020BA
S315080088E0830B0020760B0020000C01402821010094
S315080088F08C0B002020210100212101006C010020A1
S315080089002DE9F04F87B0002400208DF806005FF0AF
S31508008910000A5FF0000B00208DF8000000208DF89B
S3150800892001000121DFF8A80903F072FC00210020EC
S3150800893003F055FD0A2003F08AFF022000F0D8FC58
S31508008940012003F084FF4FF6FF70FDF7D4FC060004
S31508008950B6B246F26000864206D0DFF86C090421FA
S315080089600170002000F0ABBC4FF48051DFF86409B9
S3150800897003F04EFCDFF860090089FDF7BCFC070030
S3150800898017F00707DFF8540904F0EEF9DFF8500985
S31508008990007810F00700DFF848190870BFB2032FF7
S315080089A00BD1DFF83C09007804282ED1DFF8180926
S315080089B008210170002000F082BCBFB2022F10D13E
S315080089C0DFF81C090078042804D0DFF814090078B9
S315080089D003281AD1DFF8F00808210170002000F0FA
S315080089E06EBCBFB2042F10D1DFF8F4080078032854
S315080089F004D0DFF8EC080078022806D1DFF8C808AA
S31508008A0008210170002000F05ABCBFB2072F50D0D1
S31508008A10DFF8CC080078042804D0DFF8C40800780A
S31508008A20022803D100208DF8000007E0DFF8B0081F
S31508008A300078032802D104208DF800009DF8000074
S31508008A4047F6FC71401A80B2FDF755FC0600DFF8C0
S31508008A50940804F089F901280CD0DFF86C0809217C
S31508008A6001704FF48051DFF86C0803F0CEFB00204C
S31508008A7000F025BCB6B243F6FF70864219D0B6B2EE
S31508008A804FF4807096FBF0F101FB1061884618F0F0
S31508008A900708DFF84C08007810F007005FFA88F836
S31508008AA0404506D0DFF8200815210170002000F0A7
S31508008AB006BC4FF48051DFF81C0803F0A6FBDFF86C
S31508008AC0180890F8220001281CD1DFF80C08008845
S31508008AD046F26001884211D1DFF8FC07428ADFF8C6
S31508008AE0F807C189DFF8F007008AFFF7F1FC8DF86F
S31508008AF006009DF80600002804D101E00020DEE308
S31508008B000020DCE30121DFF8C80703F081FB002120
S31508008B10002003F064FC0A2003F099FE022000F00E
S31508008B20E7FB012003F093FE4FF6FF70FDF7E3FB2A
S31508008B3006004FF40051DFF82C0903F069FB4FF4E7
S31508008B400071DFF88C0703F060FB8021DFF8140959
S31508008B5003F05BFB0A2003F07AFEB6B246F2600029
S31508008B60864205D0DFF86007042101700020A6E3DD
S31508008B70DFF8680704F0F8F8DFF86407007810F003
S31508008B8017008046DFF8600704F0EEF800208146FB
S31508008B905FFA89F94FF480705FFA88F800FB09805C
S31508008BA00600DFF834074FF4004101810020040075
S31508008BB0601C0400C0B206282EDA310089B2DFF83C
S31508008BC018070089FDF73BFB00200500EDB2032DD1
S31508008BD00DDADFF8040701892800C0B2FDF7CBFBE0
S31508008BE00700BFB2B6B2B74201D16D1CEEE7EDB2CF
S31508008BF0032D02D1002004000EE0E4B2042CD7D1E4
S31508008C00DFF8D4060089DFF8E4160880DFF8B8062E
S31508008C100A210170002052E35FFA88F8B8F1120FB2
S31508008C2007D100208DF8000040F2FF30ADF80200B1
S31508008C3020E05FFA88F8B8F1130F07D104208DF801
S31508008C40000040F2FF30ADF8020013E05FFA88F842
S31508008C50B8F1150F04D05FFA88F8B8F1140F07D1E8
S31508008C6000208DF8000040F2FF70ADF8020001E028
S31508008C70002024E30121DFF8580603F0C9FA002191
S31508008C80002003F0ACFB0A2003F0E1FD022000F00F
S31508008C902FFB012003F0DBFD4FF6FF70FDF72BFBE2
S31508008CA006004FF40051DFF8BC0703F0B1FA4FF4A1
S31508008CB00071DFF81C0603F0A8FA8021DFF8A40784
S31508008CC003F0A3FA0A2003F0C2FDDFF8B00C4078DF
S31508008CD08DF80100DFF8A40C8078DFF8A01CC978AD
S31508008CE011EB0020ADF80E00DFF8900C0079DFF8E4
S31508008CF08C1C497911EB0020ADF80C00DFF87C0CD0
S31508008D008079DFF8781CC97911EB0020ADF80A00E4
S31508008D10DFF8680C007ADFF8641C497A11EB00204A
S31508008D20ADF80800DFF8540C807ADFF8501CC97AD1
S31508008D30090411EB0060DFF8441C097B10EB0120E5
S31508008D40DFF8381C497B08180590DFF8300CC07B23
S31508008D50DFF8281C097C090411EB0060DFF81C1CED
S31508008D60497C10EB0120DFF8141C897C0818069052
S31508008D70DFF8080CC07EDFF8041C097F090411EB34
S31508008D800060DFF8F81B497F10EB0120DFF8EC1BC9
S31508008D90897F0818049004980599884217D2DFF845
S31508008DA0DC0BDFF8D81BC97D8172DFF8D00BDFF842
S31508008DB0CC1B097EC172DFF8C40BDFF8C01B497EE5
S31508008DC00173DFF8B80BDFF8B41B897E4173DFF84F
S31508008DD0AC0B00780A280BD1DFF8A40B00680699BB
S31508008DE0884205D3DFF8E0040E210170002066E210
S31508008DF0DFF8E40490F827000F21084200F0058107
S31508008E00002082464FF48051DFF8C80403F000FAC8
S31508008E10DFF8C40400218180BDF80200ADF8020025
S31508008E204FF6FF7004F06DF8DFF8AC048088FDF7A4
S31508008E3062FA0700DFF8A0048088DFF8B01408801B
S31508008E40BDF80200DFF8A41409888842C0F0D8806B
S31508008E5003F009FFDFF88804007880465FFA88F88F
S31508008E6018EB0A0A03F0FFFEDFF87404007881465F
S31508008E705FFA89F919EB0A0A5FFA89F94FF48070E3
S31508008E805FFA88F800FB09800600DFF860040088AE
S31508008E90022190FBF1F0ADF80400DFF850040088D9
S31508008EA0801CDFF848140880DFF8D00A00780A2802
S31508008EB04ED1BDF80400BDF80E1088420AD15FFAFB
S31508008EC089F94FF48070DFF8B41A497B00FB091062
S31508008ED006003DE0BDF80400BDF80C1088420ED12E
S31508008EE09DF8010002280ADB5FFA89F94FF48070C1
S31508008EF0DFF8881A097B00FB0910060028E0BDF890
S31508008F000400BDF80A1088420ED19DF80100032816
S31508008F100ADB5FFA89F94FF48070DFF8601AC97ABC
S31508008F2000FB0910060013E0BDF80400BDF80810A0
S31508008F3088420DD19DF80100042809DB5FFA89F9FA
S31508008F404FF48070DFF8341A897A00FB091006009E
S31508008F50DFF88C03067000200400601C0400C0B211
S31508008F60062842DA00208346DFF86C03008846F2BA
S31508008F706001884209D1B6B24FF6FF70864204D125
S31508008F8043F6FF70060001208346B6B24FF6FF701F
S31508008F90864208D05FFA8BFBBBF1000F03D1300085
S31508008FA080B2FDF767F80020070000200500EDB243
S31508008FB0032D0CDA2800C0B2FCF7A2FF0700BFB2E7
S31508008FC0B6B2B004800C874201D16D1CEFE7EDB252
S31508008FD0032D02D10020040007E0E4B2042CBCD122
S31508008FE0B94808210170002069E1C0480088BDF829
S31508008FF002108842BFF424AF142005F040FA1FE798
S315080090004FF48051B34803F000F9DFF8780903F00C
S31508009010ABFEDFF8740900888046DFF8700903F0B4
S31508009020A3FEAF4800788146A648007881465FFAD5
S3150800903089F94FF480705FFA88F800FB098006000A
S315080090409DF8000047F6FE71401AA3490881A24818
S315080090500089FDF750F90700BFB243F6FF70874253
S3150800906000D03E0000200400601C0400C0B20628A0
S315080090702BDA310089B298480089FDF7E0F800201C
S315080090800500EDB2032D0EDA934801892800C0B217
S31508009090FDF771F90700BFB2B6B2B004800C87427B
S315080090A001D16D1CEDE7EDB2032D02D100200400BD
S315080090B00BE0E4B2042CD7D183480A210170864814
S315080090C000898A4908800020F9E0DFF8840C03F05B
S315080090D04BFE8348007880467C4803F045FE80486E
S315080090E0007881465FFA89F94FF480705FFA88F84C
S315080090F000FB098006009DF8000047F6FD71401A3E
S315080091007549088100200400601C0400C0B20628C6
S315080091102BDA310089B270480089FDF790F80020F3
S315080091200500EDB2032D0EDA6B4801892800C0B29E
S31508009130FDF721F90700BFB2B6B2B004800C87422A
S3150800914001D16D1CEDE7EDB2032D02D1002004001C
S315080091500BE0E4B2042CD7D15B480A2101705E48C3
S315080091600089624908800020A9E05E4803F0FCFDFA
S315080091705B4800788046DFF8700C03F0F5FD584828
S31508009180007881465FFA89F94FF480705FFA88F8AB
S3150800919000FB098006009DF8000047F6FC71401A9E
S315080091A04D49088100200400601C0400C0B206284E
S315080091B02BDA310089B248480089FDF740F80020CB
S315080091C00500EDB2032D0EDA434801892800C0B226
S315080091D0FDF7D1F80700BFB2B6B2B004800C8742DB
S315080091E001D16D1CEDE7EDB2032D02D1002004007C
S315080091F00BE0E4B2042CD7D133480A210170364873
S3150800920000893A490880002059E0DFF8E00B03F0AE
S31508009210ABFD334800788046DFF8D40B03F0A4FD95
S315080092202F48007881465FFA89F94FF480705FFA13
S3150800923088F800FB098006009DF8000047F6FF71D4
S31508009240401A2549088100200400601C0400C0B2A9
S3150800925006282BDA310089B21F480089FCF7EFFF90
S3150800926000200500EDB2032D0EDA1B4801892800FF
S31508009270C0B2FDF780F80700BFB2B6B2B004800CE2
S31508009280874201D16D1CEDE7EDB2032D02D1002016
S3150800929004000BE0E4B2042CD7D10B480A21017074
S315080092A00D48008911490880002008E00121084876
S315080092B002F0AEFF0021002003F091F8012007B06C
S315080092C0BDE8F08F8A0B0020870B002027210100BC
S315080092D000080140000C01406C010020202101001B
S315080092E08C0B002028210100212101006E0B002093
S315080092F038B504000021002003F071F8642003F05B
S31508009300A6FA4FF40061DFF8EC0A02F081FF4FF489
S315080093108051DFF8E00A02F07BFFE4B2012C13D19A
S315080093204FF40041DFF8D00A02F06FFF0020050075
S31508009330EDB20C2D01DA6D1CFAE74FF48041DFF827
S31508009340B80A02F062FF0AE00121DFF8B00A02F06B
S315080093505CFF4FF48041DFF8A00A02F059FF402174
S31508009360404802F055FF00200500EDB20C2D01DA49
S315080093706D1CFAE700200500EDB20C2D01DA6D1C14
S31508009380FAE700200500EDB20C2D01DA6D1CFAE7AC
S3150800939000200500EDB20C2D01DA6D1CFAE700205D
S315080093A00500EDB20C2D01DA6D1CFAE70020050068
S315080093B0EDB20C2D01DA6D1CFAE700200500EDB2BE
S315080093C00C2D01DA6D1CFAE700200500EDB20C2D14
S315080093D001DA6D1CFAE74021224802F016FF4FF425
S315080093E00051204802F014FF4FF40071DFF80C0A10
S315080093F002F00BFF00200500EDB20C2D01DA6D1C02
S31508009400FAE700200500EDB20C2D01DA6D1CFAE72B
S3150800941000200500EDB20C2D01DA6D1CFAE70020DC
S315080094200500EDB20C2D01DA6D1CFAE700200500E7
S31508009430EDB20C2D01DA6D1CFAE700200500EDB23D
S315080094400C2D01DA6D1CFAE78021064802F0DDFED4
S31508009450052003F0ECF900200500EDB20C2D03DA27
S315080094606D1CFAE70010014000200500EDB20C2D36
S3150800947001DA6D1CFAE700200500EDB20C2D01DAC1
S315080094806D1CFAE700200500EDB20C2D01DA6D1C03
S31508009490FAE700200500EDB20C2D01DA6D1CFAE79B
S315080094A000200500EDB20C2D01DA6D1CFAE700204C
S315080094B00500EDB20C2D01DA6D1CFAE70020050057
S315080094C0EDB20C2D01DA6D1CFAE700200500EDB2AD
S315080094D00C2D01DA6D1CFAE700200500EDB20C2D03
S315080094E001DA6D1CFAE74FF48051DFF8080902F03B
S315080094F08CFE4FF40061DFF8FC0802F086FE0020BF
