S00B00004941502E737265633F
S31508000000980D00205D280008FD270008FF27000836
S315080000100128000803280008052800080000000039
S31508000020000000000000000000000000072800088B
S3150800003009280008000000000B2800080D28000801
S315080000409D280008A1280008A5280008A928000856
S31508000050AD280008B1280008B5280008B928000806
S31508000060BD280008C1280008C5280008C9280008B6
S31508000070CD280008D1280008D5280008D928000866
S31508000080DD280008E1280008E5280008E928000816
S315080000900F280008F1280008F5280008F9280008A4
S315080000A0FD28000801290008052900080929000873
S315080000B00D29000811290008152900081929000822
S315080000C01D290008212900082529000829290008D2
S315080000D02D29000831290008352900083929000882
S315080000E03D29000841290008452900084929000832
S315080000F04D290008512900085529000859290008E2
S315080001005D29000861290008652900086929000891
S315080001106D29000871290008752900087929000841
S315080001207D290008812900088529000889290008F1
S3150800013010B50400A4B2002C06D1DFF8D00B006875
S3150800014001210182002008E0DFF8C40B006800687E
S315080001508047DFF8B80B00680A3010BD80B5DFF8B5
S31508000160B40B4078DFF8A41B0968C97888421AD30B
S31508000170DFF8980B00688078002814D1DFF88C0B1C
S315080001800068808800280ED1DFF8800B0068DFF849
S315080001907C1B0968C9788172DFF8740B00684068AF
S315080001A08047002000E0022002BD10B50400A4B27A
S315080001B0002C06D1DFF8540B0068012101820020CB
S315080001C008E0DFF84C0B006880688047DFF83C0BD6
S315080001D000680C3010BD10B5DFF8300B0068C17828
S315080001E0DFF8280B00684079DFF8B02B12689269AF
S315080001F090470400DFF8140B0068807A00282AD09C
S31508000200E4B2002C0BD1DFF8040B00680079002853
S3150800021005D1DFF8F80A00688078002801D00220A6
S315080002201AE0E4B2002C16D1DFF8E40A0068C068C8
S315080002308047DFF8D80A0068DFF8D01A09684979D4
S31508000240C172DFF8C80A0068DFF8C01A0968C978F9
S315080002500173002000E0022010BD10B50400A4B20E
S31508000260002C06D1DFF8A40A0068022101820020CA
S315080002707FE0DFF82C0B00210180DFF8900A006888
S3150800028000787F2108422AD1DFF8800A0068407A80
S31508000290810608D5DFF8081B097851F00201DFF856
S315080002A0002B117007E0DFF8F81A097811F0FD0144
S315080002B0DFF8EC2A1170410608D5DFF8E41A097848
S315080002C051F00101DFF8D82A11704BE0DFF8D01A97
S315080002D0097811F0FE01DFF8C82A117042E0DFF84C
S315080002E02C0A0068007810F07F00012802D1DFF898
S315080002F0B00A3EE0DFF8140A0068007810F07F00C4
S3150800030002282DD1DFF8041A0968497911F00F027D
S3150800031010000A0611D5C0B2DFF8882A52F8202044
S3150800032012F03002102A1DD1DFF8742A127852F022
S315080003300102DFF86C3A1A7014E0C0B2DFF8642ADA
S3150800034052F8202012F44052B2F5805F0AD1DFF845
S31508000350502A127852F00102DFF8443A1A7001E086
S31508000360002006E0DFF8A809006800698047DFF882
S31508000370300A10BD2DE9F843DFF8900900680078C7
S3150800038010F07F04002C0BD1DFF880090068407A52
S3150800039010F0DF00DFF874190968487200209EE043
S315080003A0022C40F09B80DFF864090068408800282A
S315080003B005D1DFF8580900680079002801D0022025
S315080003C08DE0DFF850090600DFF84009006840793B
S315080003D0804638F0800081464F46DFF830090068CD
S315080003E04079000607D5DFF8BC0950F8270010F059
S315080003F03000050006E0DFF8AC0950F8270010F4D5
S31508000400405005003078814507D2002D05D0DFF829
S31508000410FC080068807A002801D102205FE0404687
S31508000420000611D5DFF87C0950F8270010F03000D7
S3150800043010284CD13800C0B200F09FFD302138009A
S31508000440C0B200F0FAFC42E0DFF8580950F827007D
S3150800045010F44050B0F5805F39D1002F1ED1DFF877
S31508000460480990F82C1089B23800C0B200F0E9FDAE
S31508000470DFF8301951F827104BF68F721140080033
S3150800048090F4805090F40050DFF8181940F40040BA
S3150800049050F0800080B241F8270018E03800C0B25A
S315080004A000F052FDDFF8FC1851F827104BF68F7252
S315080004B01140080090F4805090F40050DFF8E418DA
S315080004C040F4004050F0800080B241F82700DFF881
S315080004D04008006840698047002000E00220BDE827
S315080004E0F283F8B5DFF8240800684079040034F090
S315080004F0800006003500DFF8140800684079000619
S3150800050007D5DFF8A00850F8250010F030000700DE
S3150800051006E0DFF8900850F8250010F44050070070
S31508000520DFF8F007007885420DD2DFF8E0070068AB
S315080005304088002807D1002F05D0DFF8D0070068CB
S31508000540807A002801D102202FE02000000613D56A
S31508000550DFF8501851F8251048F6BF721140080008
S3150800056090F01000DFF83C1840F4004050F080008E
S3150800057080B241F8250012E0DFF8281851F8251056
S315080005804BF68F721140080090F48050DFF814186B
S3150800059040F4004050F0800080B241F82500DFF8B2
S315080005A070070068806980470020F2BD80B5DFF8D3
S315080005B05C070068407A50F02000DFF85017096899
S315080005C04872DFF84C070068C0698047002002BD02
S315080005D010B40200DFF834070068408A030092B2BC
S315080005E0002A07D18888C01ADFF8204724682082A5
S315080005F0002001E00868181810BC7047F8B5DFF845
S315080006000C07006810F1100420880500A06800286F
S315080006101BD0002D19D0A0880700BD4200D22F009C
S31508000620380080B2A168884706002088C01B208051
S31508000630608838186080002000F0E9FC3A0092B221
S31508000640010089B2300000F068FD208800280CD02F
S31508000650DFF858074FF4405101800021002000F0D0
S31508000660E3FCDFF84C07302101802088A188884206
S3150800067005D3DFF898060068032101721DE020887B
S31508000680012805D3DFF8840600680521017214E005
S315080006902088002811D1DFF8740600680621017247
S315080006A0DFF81007006880B2DFF80C17002241F85F
S315080006B01020DFF8FC0630210180F1BD2DE9F0415C
S315080006C0DFF84806006810F110042588DFF83C06B4
S315080006D00068067A002D21D1042E1FD1DFF8DC062A
S315080006E00078012813D1DFF8CC06006880B2DFF85D
S315080006F0C816002241F81020DFF8B4063021018020
S3150800070004200600DFF8B4060021017005E0072082
S315080007100600DFF89C06102101802EE0A08880469E
S31508000720A84501D3042600E00226454500D2A8467E
S31508000730404680B2A16888470700002000F05AFCAE
S31508000740424692B2010089B2380000F0C6FC414622
S3150800075089B2002000F068FC2088B0EB08002080F1
S31508000760608818EB00006080DFF8440630210180BD
S31508000770DFF838064FF440510180DFF8900500682D
S315080007800672BDE8F08170B50224DFF880050068BE
S315080007904578DFF87805006800787F21084255D14A
S315080007A0092D03D1FFF7DAFC040073E0052D1DD1EE
S315080007B0DFF858050068C078802811D2DFF84C05A4
S315080007C00068807800280BD1DFF84005006880882B
S315080007D0002805D1DFF834050068807A002802D0A1
S315080007E0082006007CE00020040053E0032D12D107
S315080007F0DFF818050068C078012809D1DFF80C056C
S3150800080000688088002803D1FFF7D0FE040041E085
S31508000810022004003EE0012D3CD1DFF8F004006818
S31508000820C07801280FD1DFF8E40400688088002822
S3150800083009D1DFF8D8040068407A800603D5FFF7A7
S3150800084099FD040026E00220040023E0DFF8BC043A
S315080008500068007810F07F00012805D10B2D19D10A
S31508000860FFF7B9FC040015E0DFF8A004006800787B
S3150800087010F07F0002280BD1012D03D1FFF77AFD76
S31508000880040007E0032D05D1FFF72BFE040001E065
S3150800089002200400E4B2002C0DD02800C0B2DFF814
S315080008A0FC140968496988470400E4B2032C02D19C
S315080008B00920060014E0E4B2002C02D00820060045
S315080008C00EE006200600DFF8EC04006880B2DFF8C8
S315080008D0E814002241F81020DFF8D4043021018002
S315080008E0DFF828040068067270BD2DE9F04782B06B
S315080008F0DFF81804006846780020040000208146C6
S31508000900062E27D1DFF80404006800787F21084204
S3150800091040F0D080DFF8F40300688078C0B2012880
S3150800092005D1DFF878140968C9690C00C2E0C0B2BD
S31508000930022805D1DFF864140968096A0C00B9E0D1
S31508000940C0B2032840F0B680DFF850140968496A37
S315080009500C00AFE0002E78D1DFF8B00300684088BD
S31508000960002872D1DFF8A4030068C08802286CD179
S31508000970DFF8980300680079002866D1DFF88C0351
S31508000980006800787F21084209D1DFF880030068F3
S315080009908088002803D1DFF8280404008AE0DFF8FD
S315080009A06C030068007810F07F00012815D100213B
S315080009B0DFF8580300684079DFF8E0231268926987
S315080009C09047002876D1DFF844030068807A00282B
S315080009D070D0DFF8EC0304006CE0DFF83003006841
S315080009E0007810F07F00022864D1DFF82003006841
S315080009F0407910F00F000700DFF81003006840790F
S31508000A0010F070008046C14800684079000607D596
S31508000A10DFF8900350F8270010F03000824606E011
S31508000A20DFF8800350F8270010F440508246B94892
S31508000A30007887423ED2B8F1000F3BD1BAF1000FD9
S31508000A4038D0DFF87C03040034E0082E09D1AF481B
S31508000A50006800787F2108422CD1DFF8680304007B
S31508000A6028E00A2E26D1A9480068007810F07F00F1
S31508000A7001281FD1A5480068807A00281AD0A34803
S31508000A8000684088002815D1A04800680079002829
S31508000A9010D19E480068C08801280BD100219B48C8
S31508000AA000684079BD4A126892699047002801D1CA
S31508000AB0C5480400200000280BD094480068A0F818
S31508000AC012909248006884610020A0470020050023
S31508000AD00FE08E4800684078B04909680969884778
S31508000AE00500EDB2032D04D188480068092101727A
S31508000AF064E086480068008A4FF6FF71884204D190
S31508000B00824800680921017258E0EDB2022D04D02E
S31508000B107E480068008A002804D17C4800680821BD
S31508000B2001724BE079480068007800063ED57748A0
S31508000B300068C0880090009874490968098A884244
S31508000B4004D2724800680099018225E06F4800685F
S31508000B50008A6E490968C98888421DD26B480068B0
S31508000B60008A8E49096891F82C1089B2884203D206
S31508000B709248002101700FE064480068008A87499E
S31508000B80096891F82C1090FBF1F201FB120000287D
S31508000B9002D18A48012101705C4800687F490968CA
S31508000BA091F82C108182FFF789FD07E05748006805
S31508000BB0032101727D484FF440510180BDE8F38757
S31508000BC038B501257B48006880B2804931F81000A5
S31508000BD0400000F1804010F5C04004004B48006812
S31508000BE0007A092826D04948006821780170641CD3
S31508000BF04648006821784170641CADB214EB450480
S31508000C002000841C008800F05DFA40490968488085
S31508000C10ADB214EB45042000841C008800F052FA9B
S31508000C203A4909688880ADB214EB4504374800682C
S31508000C302188C1803548006801210172334800685F
S31508000C40C088002802D1FFF79EFD01E0FFF74DFEA0
S31508000C5000F062F832BD10B52C480068047A022C00
S31508000C6001D0042C06D1FFF729FD28480068007A30
S31508000C7004001EE0062C1AD124480068407805288E
S31508000C800ED12248006800787F21084208D11F4803
S31508000C900068C07800F05EF81D480068006A804762
S31508000CA03E480068806880470820040001E0082064
S31508000CB0040016480068047200F02EF810BD10B53E
S31508000CC012480068047A022C01D0042C02D10820AC
S31508000CD0040015E0032C01D0052C06D1FFF78EFC85
S31508000CE00A480068007A04000AE0072C06D12B4857
S31508000CF00068C06880470820040001E00820040056
S31508000D0002480068047200F007F810BD7809002050
S31508000D1080090020E800002080B5234890F82C10B0
S31508000D2089B2002000F08DF929480068007A082861
S31508000D3006D11E484FF4805101801D4810210180BC
S31508000D4023480068007A092801D1012000E0002024
S31508000D50C0B202BD30B41F4A12780023190091426E
S31508000D6015D20B00DBB20F4C54F8233048F68F74BB
S31508000D7023400C00E4B2234343F4004353F08003BA
S31508000D800C00E4B2074D45F82430491CE7E7C0B229
S31508000D9050F08003104C236030BC70477C0900205B
S31508000DA070090020005C0040000000208A0900202D
S31508000DB08C090020505C0040046000409409002023
S31508000DC05B02000831010008AB010008086000401A
S31508000DD078090020E80000204C5C0040704710B4F9
S31508000DE050F8041B81B102681218001D50F8043B24
S31508000DF0DC0744BFA9F10104E31852F8044B43F891
S31508000E00044B091FF9D1EBE710BC70474FF6F87190
S31508000E100140DFF8982211607047C0B2DFF89022CF
S31508000E2052F8202048F68F131A400A4392B2C0B2ED
S31508000E30DFF87C3243F82020704710B4C0B2DFF8E0
S31508000E40703253F8203048F6BF7423401A00CB0698
S31508000E5001D592F010028B0601D592F02002C0B29D
S31508000E60DFF84C3242F4004252F0800292B243F864
S31508000E70202010BC704710B4C0B2DFF8343253F8E3
S31508000E8020304BF68F7423401A00CB0401D592F418
S31508000E9080528B0401D592F40052C0B2DFF81032AA
S31508000EA042F4004252F0800292B243F8202010BC6D
S31508000EB07047C0B2DFF8F81151F8200010F0300082
S31508000EC07047C0B2DFF8E82152F8202048F6BF7311
S31508000ED01A40110091F0100191F02001C0B2DFF81C
S31508000EE0D02141F4004151F0800189B242F8201026
S31508000EF07047C0B2DFF8B82152F820204BF68F733E
S31508000F001A40110091F4805191F40051C0B2DFF8F3
S31508000F10A02141F4004151F0800189B242F8201025
S31508000F207047C0B2DFF8881151F8201048F68F6272
S31508000F30114041F4004151F0800189B2C0B2DFF896
S31508000F40702142F820107047C0B2DFF8641151F8DA
S31508000F502010490410D5C0B2DFF8541151F82010FA
S31508000F6048F68F72114041F4404151F08001C0B2F9
S31508000F70DFF83C2142F820107047C0B2DFF8301184
S31508000F8051F82010490610D5C0B2DFF8241151F8DF
S31508000F90201048F68F72114041F4004151F0C0010B
S31508000FA0C0B2DFF80C2142F82010704710B4DFF801
S31508000FB0FC20126892B2C0B212EBC002DFF8F4301D
S31508000FC089B24C08A4B2640043F8124010BC7047BA
S31508000FD010B4DFF8D820126892B2C0B212EBC00281
S31508000FE0DFF8D43089B24C08A4B2640043F8124042
S31508000FF010BC7047DFF8B410096889B2C0B211EBAB
S31508001000C000DFF8B01051F8100080B27047DFF862
S315080010109C10096889B2C0B211EBC000DFF89810BD
S3150800102051F8100080B27047DFF88020126892B23B
S31508001030C0B212EBC002DFF8843089B243F812104E
S31508001040704730B4DFF864301B689BB2C0B213EB4C
S31508001050C003DFF86C4014EB43031A0089B23F293A
S315080010600CD389B24C0923001F24214200D15B1EF0
S315080010709BB29B0253F40043136008E089B24C0804
S315080010802300CC0700D55B1C9BB29B02136030BCC7
S3150800109070470649096889B2C0B211EBC000084911
S315080010A051F810008005800D70470000505C004024
S315080010B0005C00400060004008600040046000409A
S315080010C00C60004001000B001A0089B2D2B213026C
S315080010D053EA1123180080B27047F0B492B2531C39
S315080010E05B1089B25FEA410C0CF1804C1CF5C04CD0
S315080010F067461C00002C0ED090F800C06546401CC0
S3150800110090F800C055EA0C2C66463E80BF1CBF1CF2
S31508001110401C641EEEE7F0BC704770B492B2531CD4
S315080011205B1089B24E0006F1804616F5C0463500BA
S315080011301C00002C06D02E6806802D1D401C401C65
S31508001140641EF6E770BC7047DFF87003DFF87013AB
S315080011500160DFF86803DFF86C130160704738B583
S31508001160040004255FF4302000F0C6F90500EDB24E
S31508001170042D20D1DFF85003006850F00200DFF894
S3150800118048130860DFF844030460DFF83C0300688E
S3150800119050F04000DFF8301308605FF4302000F0AC
S315080011A0ABF90500DFF82003006841F6FD71084039
S315080011B0DFF8141308602800C0B232BD38B5A5247C
S315080011C0042500F054F9002801D0002004005FF43B
S315080011D0302000F091F90500EDB2042D53D1DFF867
S315080011E0F002DFF8DC120160DFF8E402DFF8D4125F
S315080011F00160DFF8D402006850F02000DFF8C8125A
S315080012000860DFF8C402006850F04000DFF8B81242
S3150800121008605FF4302000F06FF90500EDB2042D88
S3150800122025D1DFF8A402006841F6DF710840DFF82F
S3150800123098120860DFF89002006850F01000DFF896
S3150800124088120860DFF88C0204804FF4005000F022
S3150800125053F90500EDB2052D15D0DFF86C020068CC
S3150800126041F6EF710840DFF8601208600BE0EDB256
S31508001270052D08D0DFF85002006841F6EF710840E6
S31508001280DFF8441208602800C0B232BD70B582B0DB
S3150800129004000D000426002000904FF4005000F0D2
S315080012A02BF90600F6B2042E2DD1DFF81C020068D1
S315080012B050F00100DFF81012086025804FF4005046
S315080012C000F01AF90600F6B2042E13D1A01C0090FD
S315080012D0280C009908804FF4005000F00DF906001C
S315080012E0DFF8E401006841F6FE710840DFF8D8111E
S315080012F0086008E0DFF8D001006841F6FE71084092
S31508001300DFF8C41108603000C0B276BD2DE9F84395
S3150800131081464FF6FF744FF6FF754FF6FF764FF688
S31508001320FF775FF004087FEA090919F0FF00040057
S31508001330C9F3072005005FEA1940C0B206005FEA54
S31508001340196007004FF4005000F0D6F880465FFA9F
S3150800135088F8B8F1040F4ED15D48594901605C48D8
S31508001360584901605848006850F01000564908600E
S31508001370A4B2FF2C06D0584804804FF4005000F061
S31508001380BBF880465FFA88F8B8F1040F09D1ADB208
S31508001390FF2D06D0514805804FF4005000F0ACF8F8
S315080013A080465FFA88F8B8F1040F09D1B6B2FF2E65
S315080013B006D04B4806804FF4005000F09DF8804652
S315080013C05FFA88F8B8F1040F09D1BFB2FF2F06D02B
S315080013D0444807804FF4005000F08EF880465FFAC4
S315080013E088F8B8F1050F06D03748006841F6EF715E
S315080013F00840354908604046C0B2BDE8F283F8B5F2
S3150800140004000D001600042731482D4901603048B4
S315080014102C4901604FF4005000F06EF80700FFB247
S31508001420042F1AD12848006850F010002649086091
S3150800143056F0F800284320432B4908804FF4005003
S3150800144000F05AF80700FFB2052F06D01E480068BC
S3150800145041F6EF7108401C4908603800C0B2F2BD79
S3150800146022480068800870472148006870470020B5
S315080014701E490968890702D50121080001E00021F3
S315080014800800C0B2704704201A490968C90702D57E
S31508001490012108000FE017490968490702D502210A
S315080014A0080008E013490968C90602D5032108009F
S315080014B001E004210800C0B2704700000420024081
S315080014C023016745AB89EFCD102002401420024066
S315080014D00820024000F8FF1F08F8FF1F0AF8FF1F40
S315080014E00CF8FF1F0EF8FF1F02F8FF1F1C20024012
S315080014F0202002400C20024038B504000425FFF7DE
S31508001500C2FF0500EDB2012D06D1002C04D0FFF76D
S31508001510BAFF0500641EF5E7002C01D10520050079
S315080015202800C0B232BD50F8041B61B150F8042B34
S31508001530D30744BFA9F101039A18002342F8043BD4
S31508001540091FFAD1EFE77047F8B500270220040013
S31508001550A3488078801C844204D2A148205CC7191D
S31508001560641CF5E7D7F1FF079D48205CFFB2874268
S315080015700BD09B48692101709948F221417098481F
S31508001580AA218170032000F0F6F8954840780528CE
S3150800159015D19348692101709148032141709048FB
S315080015A0042181708E480521C1708D480C21017176
S315080015B08B4816214171062000F0DDF8D4E08848F2
S315080015C0407845282FD1864869210170844806212C
S315080015D0417083484621817081480121C170804845
S315080015E0002101717E480C2141717D4808218171D5
S315080015F07B481921C1717A48C07879490979081850
S315080016007749497908187649897908187449C9794A
S3150800161008184B30724908727148162141720A201F
S3150800162000F0A9F8A0E06E484078062813D16C4867
S31508001630692101706B480078012802D100F027F96A
S3150800164002E06748002141706548AA21817003209D
S3150800165000F091F888E062484078072831D14FF4C5
S31508001660404000F07FF96049086060480021016049
S315080016705E4800685C490968884215D25C4800786B
S31508001680042811D15B4800685B490968574A126803
S3150800169002FB0100FFF763FD5549087053480068CF
S315080016A0401C52490860E3E74D48692101704C48DF
S315080016B0072141704A48AA218170032000F05BF88F
S315080016C052E047484078082803D14C484C49016005
S315080016D04AE043484078092846D14148C078060080
S315080016E036023F480079064336023D4840790643AC
S315080016F036023B488079064307200400384880783C
S31508001700801C844227D236482018C07805002D024E
S3150800171033482018807805432D0231482018407830
S3150800172005432D022E48205C054329003000FFF7AB
S31508001730ADFD2F4908703068A84209D028486921AC
S3150800174001702748F2214170022000F014F802E0E7
S31508001750241D361DD2E72248692101702048AA2196
S315080017604170022000F007F8264800210170032086
S31508001770FFF7BFFBF1BD38B504000025E4B2402CE5
S3150800178015D30120FFF795FB2028FAD14022C02166
S31508001790EDB213482818FFF7A0FC40210120FFF7F7
S315080017A043FC0120FFF78DFB4035403CE6E701206E
S315080017B0FFF77FFB2028FAD1E4B2220092B2C021BB
S315080017C0EDB207482818FFF788FCE4B2210089B271
S315080017D00120FFF729FC0120FFF773FB31BD00004C
S315080017E0F008002090090020600900205C0900200C
S315080017F0ED000020E0000020E40000200CED00E0F1
S315080018000400FA059209002080B550480068B0F136
S315080018100060000B4E4908604D4800683E2808D213
S3150800182001204B4909688840401EC0434949086061
S3150800183003E048485FF000610160FFF715FE45497F
S315080018400968084043490968884203D0424801218B
S31508001850017002E040480021017040480078AA283B
S3150800186006D13F480078692802D1FFF76DFEF4E7F4
S315080018703A480078AA28F0D1394800786928ECD087
S315080018803648002101700320FFF733FBE5E72DE911
S31508001890F84300240025012602275FF004085FF0BC
S315080018A00109FFF7E1FD05002A4800682840294993
S315080018B00968884245D0FFF7D3FD0400254800682B
S315080018C0284324490860FFF779FC814621480068C7
S315080018D010F1010F05D01F480068C043FFF716FD39
S315080018E0814614F00700072816D02000C00701D447
S315080018F0002006002000800701D4002007002000F1
S31508001900400701D400208046424692B2390089B287
S31508001910300080B2FFF773FD5FFA89F9B9F1040F59
S315080019200BD10F480121417001214FF4006000F0EE
S315080019303FF84F2000F052F806E0094802214170AE
S3150800194002E0074803214170BDE8F183E00000206A
S315080019505409002058090020900900209209002007
S31508001960F008002010B4010000200A004FF480633C
S31508001970B2FBF3F404FB1324002C03D0930A5B1C7C
S31508001980180001E0930A180010BC70471049086057
S315080019907047C9B2002905D00E4A126802430D4B9A
S315080019A01A6004E00B4A126882430A4B1A607047B1
S315080019B0C9B2002905D0084A12680243064B1A60C4
S315080019C004E0054A12688243034B1A607047000018
S315080019D0D8004242181002401C100240C0B250F013
S315080019E08001014A11607047002C004080B590487C
S315080019F000680021817200F033F900F055F900F013
S31508001A00CAF98C480021016001BD80B58848006884
S31508001A1000218172864800688749C97941728448DD
S31508001A2000680021C1720020FFF7F0F94FF4007139
S31508001A300020FFF7F2F910210020FFF7FEF94021F8
S31508001A400020FFF7C5FA80210020FFF7AFFA002033
S31508001A50FFF767FA794890F82C1089B20020FFF74B
S31508001A60F0FA0020FFF745FA00210120FFF7D5F923
S31508001A70C0210120FFF79AFA20210120FFF7DDF99E
S31508001A8000210120FFF7F7F94FF4C0610220FFF7A4
S31508001A90C4F94FF480710220FFF788FA002102206A
S31508001AA0FFF7E9F920210220FFF7C7F900210320F3
S31508001AB0FFF7B3F94FF488710320FFF789FA40213D
S31508001AC00320FFF7BEFA4FF440510320FFF7D3F97E
S31508001AD000210320FFF7B1F90020FFF73BF955482D
S31508001AE00121016001BD5648817A002902D0514979
S31508001AF005220A6070474F4804210160704780B587
S31508001B0050480078202804D100F046F94D480021B5
S31508001B10017001BD704738B5040000200500E4B225
S31508001B20212C09D142480068007810F07F0021284E
S31508001B3011D1454805000EE0E4B2202C0BD13C48F3
S31508001B400068007810F07F00212801D13F48050081
S31508001B503C48202101702800002801D1022009E014
S31508001B6033480068856132480068002141820020B8
S31508001B70A847002032BD01002D480068007810F003
S31508001B807F00212809D1C9B2022901D1002005E028
S31508001B90C9B2222901D1002000E00220704710B501
S31508001BA004002B49200080B2FEF712FD10BD10B5C7
S31508001BB004002849200080B2FEF70AFD10BD38B59A
S31508001BC004001B480068C578EDB2052D01D3002036
S31508001BD007E0EDB2204810EBC501200080B2FEF701
S31508001BE0F7FC32BD0200C9B2012901D3022005E083
S31508001BF0D2B2022A01D3022000E000207047010079
S31508001C0089B2002905D10A48006808220282002004
S31508001C1000E012487047010089B2002905D104483E
S31508001C20006808220282002000E00C487047000085
S31508001C3078090020840900204C26000800000020AE
S31508001C403009002097090020FF1B0008171C000810
S31508001C50D0000020D800002054000020C800002032
S31508001C6010B5012000F086F8012004000B48A4B244
S31508001C7004600B4800210180084809490988016069
S31508001C8008480021016006484FF4E05101800348E6
S31508001C90034909880160002010BD0000405C00402F
S31508001CA088090020445C0040064800210160064877
S31508001CB04FF4064101800548034909880160002060
S31508001CC070470000445C004088090020405C0040E2
S31508001CD070B504000D00002614F07F00FFF7D9F94F
S31508001CE0060014F07F00FFF792F9320092B2010065
S31508001CF089B22800FFF711FA300070BD80B50121BE
S31508001D000820FFF746FE4FF48040ADF80000032098
S31508001D108DF8020014208DF8030000A9514800F040
S31508001D20ADF801BD80B50020FFF730FE01215FF454
S31508001D300000FFF73DFE01BD80B54FF4C06000F01E
S31508001D404DF914208DF8000001208DF801000020BF
S31508001D508DF8020001208DF8030000A800F043F971
S31508001D6025208DF8000000208DF8010000A800F05D
S31508001D703AF901BD10B50400E4B2002C05D04FF4C1
S31508001D808041384800F026F904E04FF48041354890
S31508001D9000F01DF910BD70470120704738B532486C
S31508001DA0007801285CD031480068B0F5006F02D190
S31508001DB02E48002101602D4800682D49096888428F
S31508001DC003D12948002101704AE0294800682749BB
S31508001DD00968884206D225480068D0F5006025497A
S31508001DE0086006E02248006820490968401A214927
S31508001DF008602048006841280FD31C480068040082
S31508001E0040200500194800684030184908601948FC
S31508001E1000684038174908600FE014480068040055
S31508001E20144800680500114800681249096808182E
S31508001E300E4908600F48002101600B480121017016
S31508001E402A0092B2C021A4B20B482018FFF745F920
S31508001E50290089B20120FFF7E7F80120FFF731F8DA
S31508001E6031BD0000000C01409309002068090020DC
S31508001E70640900206C090020F0000020F0B5002756
S31508001E800022002300240025002691F803C01CF038
S31508001E900F0C674691F803C05FEACC6C03D591F83E
S31508001EA002C05CEA070791F800C05FEA0C6C3AD0FA
S31508001EB0D0F800C065465FF0000C6346082B31D2A7
S31508001EC05FF0010C1CFA03FC6446B1F800C014EA82
S31508001ED00C0C6246A24223D15FEA830C64465FF08B
S31508001EE00F0C1CFA04FC6646B54317FA04FC5CEAB8
S31508001EF0050591F803C0BCF1280F06D15FF0010C67
S31508001F001CFA03FCC0F814C00AE091F803C0BCF13F
S31508001F10480F05D15FF0010C1CFA03FCC0F810C08D
S31508001F205B1CCBE70560B1F800C04FF4807EF44532
S31508001F303FD3D0F804C065465FF0000C6346082B13
S31508001F4036D25FF0010C13F1080E1CFA0EFC64463B
S31508001F50B1F800C014EA0C0C6246A24226D15FEA28
S31508001F60830C64465FF00F0C1CFA04FC6646B54306
S31508001F7017FA04FC5CEA050591F803C0BCF1280FC2
S31508001F8007D15FF0010C13F1080E1CFA0EFCC0F81D
S31508001F9014C091F803C0BCF1480F07D15FF0010CDB
S31508001FA013F1080E1CFA0EFCC0F810C05B1CC6E73D
S31508001FB04560F0BD0200002093689BB20B4202D038
S31508001FC00123180001E000231800C0B2704789B247
S31508001FD00161704789B24161704700001C4901439D
S31508001FE01C4A11607047F0B4002300210F22C47800
S31508001FF0002C20D0174C246814F4E064D4F5E0646F
S31508002000240A2300D3F104042100DA4044788C40E2
S3150800201023008478144023431B0104780E4D63552E
S31508002020047864110D4D0126077817F01F07BE4086
S3150800203045F8246009E004786411094D01260778FB
S3150800204017F01F07BE4045F82460F0BC7047000033
S315080020500000FA050CED00E000E400E000E100E015
S3150800206080E100E080B50020ADF8000089480068EE
S3150800207089490880000440F10B818748008810F0E0
S315080020800F008649087085480078002840F0C4800B
S3150800209083488449096801808148008810F0300027
S315080020A0814908807E48008810F440507C490880A1
S315080020B07C49096889B24BF6BF721140080090F452
S315080020C0005090F0200080B240F4004050F08000AC
S315080020D07449086070480088C00630D471480068A2
S315080020E080B248F60F7108406E490860FEF7B3FDE6
S315080020F06C49096889B24BF6BF72114008006849F5
S315080021000988C90401D590F480506549098889046D
S3150800211001D590F4005064490988C90601D590F0A4
S31508002120100061490988890601D590F0200080B21F
S3150800213040F4004050F080005A490860A8E0594829
S315080021400068ADF80000BDF8000000052FD5554819
S31508002150006840F68F71084052490860FEF730FD66
S315080021605049096889B24BF6BF72114008004C49BC
S315080021700988C90401D590F4805049490988890419
S3150800218001D590F4005048490988C90601D590F050
S31508002190100045490988890601D590F0200080B2CB
S315080021A040F4004050F080003E49086070E0BDF8F9
S315080021B0000000047FF55AAF3A48006840F68F7170
S315080021C0084038490860FEF77AFD3649096889B239
S315080021D04BF6BF721140080031490988C90401D578
S315080021E090F480502E490988890401D590F400504E
S315080021F02D490988C90601D590F010002A49098891
S31508002200890601D590F0200080B240F4004050F0D5
S315080022108000244908603BE020480078214951F8AD
S315080022202000ADF80000BDF80000000414D51B48D6
S3150800223000781C4951F8200040F68F71084017496C
S315080022400978184A42F8210014480078174911EB12
S31508002250800050F8040C8047BDF8000000067FF5A2
S3150800226005AF0E4800780F4951F8200080B248F6AD
S315080022700F710840094909780A4A42F821000748B7
S3150800228000780B4911EB800050F8040C8047EDE606
S3150800229001BD0000445C00408E090020950900201D
S315080022A08A090020005C00408C090020AC00002050
S315080022B09000002080B54E48006850F001004C4957
S315080022C008604C4800684C4908404A490860484834
S315080022D000684A490840464908604548006830F49D
S315080022E08020434908604348006830F4FE004149AD
S315080022F0086043485FF41F01016000F005F8414893
S315080023005FF00061016001BD80B500F001F801BD14
S3150800231082B000200190002000903548006850F4F3
S315080023208030334908603248006810F40030009065
S315080023300198401C01900098002803D10198B0F537
S31508002340A06FF0D12A480068800302D501200090CA
S3150800235001E0002000900098012847D12A4800682B
S3150800236050F0100028490860274800688008800057
S31508002370254908602448006850F002002249086090
S315080023801C481C49096801601A481A49096801600D
S315080023901848006850F480601649086015480068B7
S315080023A030F47C10134908601248006850F4E810AD
S315080023B0104908600E48006850F080700C490860A3
S315080023C00B4800688001FBD50A4800688008800031
S315080023D0084908600748006850F002000549086087
S315080023E00448006810F00C000828F9D102B07047BC
S315080023F000100240041002400000FFF8FFFFF6FE3E
S315080024000810024008ED00E00020024080B5FFF702
S3150800241051FF01210420FFF7BCFA01211120FFF723
S31508002420B8FA01BD80B50120ADF8000010208DF87E
S31508002430030002208DF8020000A92F48FFF71EFDB1
S315080024402E485FF4803101600220ADF80000482074
S315080024508DF8030002208DF8020000A92648FFF730
S315080024600DFD4FF40040ADF8000010208DF8030074
S3150800247003208DF8020000A92148FFF7FFFC214838
S315080024804FF40041016000A91F48FFF7F7FC1F48F9
S315080024904FF4004101601D484FF4804101601B481C
S315080024A05FF00051016001BD10B582B00400E4B2CE
S315080024B0002C12D04FF48060ADF8000010208DF883
S315080024C0030002208DF8020000A90B48FFF7D6FC8E
S315080024D00A484FF4806101600DE04FF48060ADF862
S315080024E0000004208DF8030002208DF8020000A9E0
S315080024F00148FFF7C3FC13BD00080140100801405E
S31508002500000C0140100C0140001001401010014061
S3150800251000231A0092B280B2824209D242F23413E0
S31508002520190089B2012901D3491EFAE7521CF1E7BD
S315080025307047000010B5FEF707FEFFF767FFFFF7C5
S3150800254071FF0020FFF7B0FF6420FFF7E1FF4FF6A9
S31508002550FC700068040002211B48FFF72BFD1B498D
S3150800256008701A480078012802D01948844213D105
S31508002570FFF7C4FBFFF7D6FB00F03AF80120FFF798
S3150800258093FFFFF7D9FB1348002101701248002179
S315080025900170FFF739F915E010480068104908403E
S315080025A0B0F1005F0ED10F480F49096801600F4866
S315080025B00C49096801600948006800F039F80B48B9
S315080025C000688047FEE700BF00080140EC000020D5
S315080025D055AA55AA92090020910900200040000832
S315080025E00000FE2F50090020044000084C09002076
S315080025F080B5094809490160074800680221017247
S315080026000748084901600848084901600448006805
S315080026100068804701BD00BF780900203009002006
S315080026207C090020000000208009002030000020DE
S3150800263080F30888704770471201000202000040C4
S315080026407507372100020102030100000902430051
S31508002650020100C03209040000010202010005243B
S3150800266000100105240100010424020205240600C5
S3150800267001070582030800FF09040100020A000099
S31508002680000705030240000007058102400000001C
S31508002690040309042603530054004D00690063002F
S315080026A072006F0065006C006500630074007200BC
S315080026B06F006E0069006300730000003203440077
S315080026C05A004D004900200020005600690072009B
S315080026D07400750061006C00200043004F004D0037
S315080026E0200050006F0072007400200020000000D7
S315080026F080B51748174909680180154800881649A2
S315080027000988084080050AD512484FF6FF5101602E
S3150800271012480078401C1149087000F02DF80C4842
S3150800272000880D4909880840000401D5FFF79AFC7E
S3150800273007480088084909880840400506D505481D
S315080027404FF6FF31016006484068804701BD00BF6B
S315080027508E090020445C0040880900209609002064
S3150800276000000020704780B50C490320FFF7B0FA37
S315080027700B48AA21017001BD80B50A4800680528E2
S315080027800BD109480068411C074A1160052804D185
S31508002790054800210160FFF701FB01BDF008002094
S315080027A092090020840900207409002010B5084900
S315080027B079441C31074C7C441A34A14206D0081DC2
S315080027C00A68511888470146A142F8D110BD00BFD2
S315080027D008000000280000004FEDFFFFA8080000D1
S315080027E0F000002000000000F7E5FFFFF000000001
S315080027F09C01000000000020000000007047FEE772
S31508002800FEE7FEE7FEE7704770477047704780B5FA
S31508002810FFF76EFF01BD000000F009F8002801D09F
S31508002820FFF7C4FF0020FFF785FE00F002F801203D
S31508002830704780B500F002F800BF0000074638462A
S3150800284000F002F8FBE7000080B5C046C046024A21
S3150800285011001820ABBEFBE726000200014880479E
S3150800286001480047B52200086D280008C046C04642
S31508002870C046C046FFF7D0FFFFF7C0BFFFF7BFBF90
S31508002880FFF7BEBFFFF7BDBFFFF7BCBFFFF7BBBF74
S31508002890FFF7BABFFFF7B9BFFFF7B8BFFFF7FEBF2D
S315080028A0FFF7FEBFFFF7FEBFFFF7FEBFFFF7FEBF4E
S315080028B0FFF7FEBFFFF7FEBFFFF7FEBFFFF7FEBF3E
S315080028C0FFF7FEBFFFF7FEBFFFF7FEBFFFF7FEBF2E
S315080028D0FFF7FEBFFFF7FEBFFFF7FEBFFFF7FEBF1E
S315080028E0FFF7FEBFFFF7FEBFFFF7FEBFFFF78FBF7D
S315080028F0FFF7FEBFFFF7FEBFFFF7FEBFFFF7FEBFFE
S31508002900FFF7FEBFFFF7FEBFFFF7FEBFFFF7FEBFED
S31508002910FFF7FEBFFFF7FEBFFFF7FEBFFFF7FEBFDD
S31508002920FFF7FEBFFFF7FEBFFFF7FEBFFFF7FEBFCD
S31508002930FFF7FEBFFFF7FEBFFFF7FEBFFFF7FEBFBD
S31508002940FFF7FEBFFFF7FEBFFFF7FEBFFFF7FEBFAD
S31508002950FFF7FEBFFFF7FEBFFFF7FEBFFFF7FEBF9D
S31508002960FFF7FEBFFFF7FEBFFFF7FEBFFFF7FEBF8D
S31508002970FFF7FEBFFFF7FEBFFFF7FEBFFFF7FEBF7D
S31508002980FFF7FEBFFFF7FEBFFFF7FEBFED19000812
S315080029900B1A0008FF1A0008151B0008171B000869
S315080029A0771B0008E51B00089F1B0008AF1B0008E3
S315080029B0BF1B00080000000040000000DD0D0008F5
S315080029C0E71A0008DD0D0008DD0D0008DD0D00081A
S315080029D0DD0D0008DD0D0008DD0D0008F71A0008FA
S315080029E0902600080400000094260008260000002F
S315080029F0BC26000832000000740000201A000000FF
S31508002A001A03530054004D003300320031003000E1
S31508002A100000000000000000000000006527000814
S31508002A20DD0D0008DD0D0008DD0D0008DD0D0008D0
S31508002A30DD0D0008DD0D0008DD0D0008DD0D0008C0
S31508002A4067270008DD0D0008DD0D0008DD0D00080C
S31508002A50DD0D000800C20100010008003826000844
S31508002A60120000004C260008430000000040000841
S31108002A700004000004010000FE04000041
S7050800286D5D
